:020000040800F2
:10000000B00A0020BD0100086941000875350008EC
:1000100065410008D51600084D42000800000000A8
:100020000000000000000000000000007141000816
:1000300021170008000000006D410008754100080C
:10004000D7010008D7010008D7010008D701000830
:10005000D7010008D7010008D7010008D701000820
:10006000D7010008D7010008D7010008D701000810
:10007000D9160008E5160008F1160008FD1600085C
:100080000917000815170008D7010008D701000854
:10009000D7010008D7010008D7010008D7010008E0
:1000A000D7010008D7010008D7010008D7010008D0
:1000B000D7010008D7010008D7010008D7010008C0
:1000C000D7010008D7010008D7010008D7010008B0
:1000D000D7010008D701000841420008D7010008F5
:1000E000D7010008D7010008D701000800F002F886
:1000F00000F055F80AA090E8000C82448344AAF16D
:100100000107DA4501D100F04AF8AFF2090EBAE86A
:100110000F0013F0010F18BFFB1A43F0010318473B
:100120005056000070560000103A24BF78C878C1BD
:10013000FAD8520724BF30C830C144BF04680C60ED
:10014000704700000023002400250026103A28BF35
:1001500078C1FBD8520728BF30C148BF0B60704739
:10016000662905F0AF81642900F07C80782900F0D1
:10017000B580002070471FB59DE8030001F074F8BA
:1001800000F0F0FB04000020002104F0ADFFE0606F
:1001900000F004FD1FBD10B500F069FD10BD00F0BA
:1001A0009DFD1146FFF7E7FF04F0B4FA00F094FF5D
:1001B00003B4FFF7F0FF03BC01F0D4F9094880470E
:1001C00009480047FEE7FEE7FEE7FEE7FEE7FEE739
:1001D000FEE7FEE7FEE7FEE704480549054A064B51
:1001E0007047000079410008ED000008B0040020CD
:1001F000B00A0020B0060020B00600200FB4044969
:1002000010B503AA029800F09BFB10BC5DF814FB2C
:100210007400002070B5044685690068C10601D5E8
:10022000302600E02026C00707D070BDD4E90121A8
:1002300030469047206A401C20626D1EF6D570BD86
:1002400070B5044685690078C00707D170BDD4E950
:10025000012120209047206A401C20626D1EF6D5A7
:1002600070BD00002DE9F041064600241068752994
:10027000314616A510D0AFF30080002802DA4042C4
:1002800013A507E031688A0701D512A502E04907E6
:1002900004D511A5012401E0AFF3008000210A225A
:1002A00006F1240709E0B0FBF2FCB0FBF2F302FB1D
:1002B0001C00303078541846491C0028F3D12346DE
:1002C0002A463046BDE8F04100F0D3B800000000F7
:1002D0002D0000002B0000002000000070B5044637
:1002E0000D4621461068AFF300802188090502D52C
:1002F0000F4A7A4402E00E4A7A440E32002104F199
:10030000240305E000F00F060009965D5E54491CC9
:100310000028F7D120780023000704D5702D02D0E3
:1003200009B1022311322046BDE8704000F0A1B8A7
:10033000D25100002DE9F05F894604464FF0000AD3
:10034000DFF824B1FB44C0F820A02046E1688847CC
:1003500000287DD0252806D0D4E901219047206AC5
:10036000401C2062F1E700255F462046E16888478F
:100370002028064607DB312E05D2B81910F8200CCC
:1003800008B10543F1E7A80701D525F00405C4F835
:100390001CA00027C4F818A02A2E09D0304604F06B
:1003A0008DFE38B304EB8708303EC8F8186019E0BA
:1003B00059F8041B204604EB87029161E1688847E5
:1003C000012F064618D1E069002820DA25F0200523
:1003D0001DE0D8F8180000EB800006EB4000303834
:1003E000C8F818002046E1688847064604F066FE13
:1003F0000028EED1012F0AD02E2E08D12046E16828
:1004000088477F1C0646022F45F02005C4DBA06903
:10041000002803DA404245F00105A061E80701D059
:1004200025F01005A6B1A6F14100192802D8203602
:1004300045F400654A463146204625604D46FFF7A3
:100440008FFE60B1012807D0ED1D25F0070000E008
:1004500007E000F1080978E705F1040975E730467F
:100460007AE7206ABDE8F09FA85100007047704706
:1004700070472DE9F0470D4699469246044600F133
:1004800024080168880604D5E06921F01001216084
:1004900000E00120A84201DD471B00E00027A16920
:1004A0007A1902EB0900081AA0612078C00602D46C
:1004B0002046FFF7AFFE002608E0D4E901211AF834
:1004C00006009047206A401C761C20624E45F4DBF3
:1004D0002078C0060AD52046FFF79CFE06E0D4E946
:1004E000012130209047206A401C2062381EA7F16D
:1004F0000107F4DC07E0D4E9012118F80500904772
:10050000206A401C2062281EA5F10105F3DC20466C
:10051000FFF796FE2078000602D50220BDE8F0879E
:100520000120FBE72DE9FF4F0C461E464FF0FF3739
:100530008BB0D2E90001DDF860800A908A46C1F3F1
:100540000A5505B93D46002108464FF00000BAF1B2
:10055000000F00F4400005DA00EB80004FF440018A
:1005600001EA50004FEA9059B9F1010F00DDB94698
:100570000A9850EA4A000ED044F61050A5F2FF3512
:1005800045432F14B8F1000F1ED07542291E1EDD01
:10059000C9F100021CE0B8F1010F4FF0000001D0DA
:1005A000302103E0F24305E02154401CB042FBDB64
:1005B00030460022002121540B99C1F80880C1E97E
:1005C00000200FB0BDE8F08FBD1B6D1CDEE74A4672
:1005D00000DA694206A800F06BFA06AB93E8070060
:1005E00003AB83E8070050460A9904F08BF98DE8C5
:1005F0000700A0F500501F3800900398002D0ADD79
:1006000042F21F014A460844002303A903906846AA
:1006100004F0F4FB09E0A0F500504A461F3800231F
:1006200003A90390684604F0FEFB8DE80700000470
:10063000000C03D04FF0FF30410800E01046B8F145
:10064000000F03D00022009215461EE0751E05D44F
:1006500000F090F9303262556D1EF9D5B346012293
:10066000084302D000227F1C04E02078302801D10A
:1006700000227F1E002A099784D01DE0112D07DA81
:1006800000F078F9303262556D1C50EA0102F5D164
:10069000084302D00098C8B10EE00021681E05E0B2
:1006A000235C625C63542254401E491C8142F7DB88
:1006B000AB46A81B401E0990002004F80B000B98C5
:1006C000099AC0F80880C0E9002B7AE711264FF09C
:1006D000000857E72DE9F04F88460446D21D22F066
:1006E000070191B0D1E90001CDE90A0104F0D2FC83
:1006F00002460B98C00F01D02D2007E0206881072B
:1007000001D52B2002E0202101EAC000032A099034
:1007100001D0072A05DB03464146204600F088F950
:100720000BE12078800601D5E06900E00620B8F1F1
:10073000650F814606D0B8F1660F18D0B8F1670F83
:1007400070D131E00020B9F1110F009001DB1123CD
:1007500001E009F101030AAA01A90CA8FFF7E2FED2
:10076000DDE90C70002609F10105834647E0012010
:100770004B4600904FF000470AAA01A90CA8FFF7CA
:10078000D1FEDDE90DB00C995D46002610B909F1E6
:1007900001000D18B9EB050003D4C0F1FF3609F1D3
:1007A0000105A5EB09002BE0B9F1010F01DA4FF0CB
:1007B00001090020B9F1110F0090484601DD112315
:1007C00000E003460AAA01A90CA8FFF7ABFEDDE989
:1007D0000C704D4600268346207800070AD4AB45AE
:1007E00000DA5D4601A8012D04DD411911F8011C54
:1007F000302907D04F4502DA17F1040F04DA01203F
:1008000082460FE06D1EEEE7002F02DCED1B3E443A
:1008100003E0781CA84200DD7D1CB81B00F1010A32
:100820004FF000472078000703D4AA4501DB4FF0C2
:10083000FF3A0021B7F1004F0DF143088DF8431046
:1008400024D002202B23002F01DA7F422D230A21FE
:10085000021EA0F1010000DC5FB197FBF1FC97FBE9
:10086000F1F201FB1C7C17460CF1300C08F801CDAD
:10087000EEE7A8F1010003702188090501D54521A3
:1008800000E06521A0F1010800F8011C09980FA9FA
:10089000A1EB0807FF1D00B10120411901EBEA702F
:1008A000A1693844081A401EA0612078C00602D40D
:1008B0002046FFF7AFFC099828B1D4E90121904701
:1008C000206A401C20622078C00622D52046FFF70F
:1008D000A1FC1EE0002E04DBB34502DD01A8805D13
:1008E00000E03020D4E901219047206A401C2062BA
:1008F000761CAAF101005FEA000A0AD100F032F882
:10090000C0680168405CD4E901219047206A401C1E
:100910002062281EA5F10105DCDC07E0D4E90121F5
:1009200018F8010B9047206A401C2062381EA7F17E
:100930000107F3DC2046FFF783FC032011B041E6FA
:10094000074B70B50D467B4400F05FF8044628461F
:1009500000F020F910B14FF0FF3070BD204670BD9F
:1009600081470000004870473C0100200048704764
:100970001C01002030B5B0F10A0271F100034FEA0A
:10098000900E4EEA817EB0EB0E0061EB91014FEAD2
:10099000101E4EEA017E10EB0E0041EB11114FEAE2
:1009A000102E4EEA016E10EB0E0041EB11214FEAC2
:1009B000104E4EEA014E10EB0E0041EB1141401873
:1009C00041F100014FEAD00040EA41704FEAD10105
:1009D0004FEA810444EA907410EB800544EB010473
:1009E0006D1944EB0404521BA3414FF0000348BFB0
:1009F0000A3200D530BD401C41F1000130BD00007D
:100A000001694A1C02610878704700B58FB0CDE9D2
:100A100001310021059105497944CDE903101146C2
:100A20006846FFF787FC0FB000BD0000E5FFFFFF41
:100A30002DE9F0411F46044603260168072A01F408
:100A4000006004DB08B116A505E016A503E008B1B7
:100A500015A500E015A521F010002060A069C01EBA
:100A6000A0610FB1401EA0612046FFF7D3FB4FB13C
:100A7000D4E9012138469047206A401C2062C01CFE
:100A8000206206E0206AFAE7D4E9012115F8010B9B
:100A90009047761EF8D22046FFF7D2FBBDE8F081E2
:100AA0004E414E006E616E00494E4600696E660012
:100AB0002DE9F047814616468AB0354878440DC87E
:100AC0008DE80D0032487844801C03AC0DC884E8E2
:100AD0000D0041F69B300844372190FBF1F290FB6A
:100AE000F1F5A5F1800501FB12041B3C02D564421F
:100AF000012000E00020DFF898A080460027FA449B
:100B0000AAF1BE0A0EE0E0070AD03246684607EBBB
:100B1000470101230AEB810104F085F98DE8070004
:100B200064107F1C002CEED1194F7F44AE3F19E0BA
:100B3000E80715D007EB04100DF1180A90E80E0035
:100B40008AE80E00C068F04201D198190890324638
:100B5000012306A903A804F066F903AB83E80700A4
:100B60006D10641C002DE3D14FF00103324669463D
:100B7000B8F1000F03A802D004F040F901E004F03E
:100B800052F9C9E90001C9F808200AB0BDE8F087A8
:100B9000C04A0000007B00F08000704710B542485A
:100BA000542100F0A9FA4148542100F0A5FA404828
:100BB000542100F0A1FA3F493B483C4A3F4B0860B2
:100BC0003D490A603A491960531C0365481C106589
:100BD000012008653B48344A39A1784400F0DEF929
:100BE00020B9384878440A3800F07FFA37482F4A4D
:100BF00035A1784400F0D2F920B9344878440A3855
:100C000000F073FA32482A4A2FA1784400F0C6F95E
:100C100020B92F4878440A3800F067FA4023224868
:100C2000DC000021224600F096F920B125487844E6
:100C3000543800F05AFA1D4822464023002100F0A3
:100C40008AF920B121487844543800F04EFA184807
:100C500022461023002100F07EF9002806D01C480F
:100C60007844BDE81040563800F03FBA10BD104837
:100C700070B5006D20F001040B4800F007FA0B4836
:100C800000F004FA0A4800F001FA09E0206D20F0B3
:100C90000105204600F0FAF9204600F044F82C4601
:100CA000002CF3D170BD0000200000207400002053
:100CB000C8000020000000200400002008000020E0
:100CC00072000000BA49000077000000A649000049
:100CD00092490000004870471C0100207546FFF74C
:100CE000F9FFAE4605006946534620F007008546E9
:100CF00018B020B5FFF770FABDE820404FF00006AD
:100D00004FF000074FF000084FF0000BAC46ACE886
:100D1000C009ACE8C009ACE8C009ACE8C00921F0E2
:100D200007018D46704770B50446051F00F080FA34
:100D30000068002C14BF446870BD002C18BFAC4282
:100D40003CBF20466468F8D301680A18AA4218BF5D
:100D5000456003D12A68054611440160286841199D
:100D6000A1421CBF6C6070BD616869602168084465
:100D7000286070BD2DE9F05F054617460C46C8682F
:100D800020F4201040F48000C860800602D5084698
:100D900000F0A7FBE06841F282014FF0FF3A01400A
:100DA000022903D0204600F039FBB9E000F42041CD
:100DB000B1F5004F0FD1C00306D56168E06A8842E3
:100DC00000D80846606006E02069E0626060606903
:100DD00000F027FAA061A0680022EEB200280DDA28
:100DE000E1688B050AD4C043A06041F490302260D2
:100DF000E0606068411C61600670AAE0E0689146AE
:100E0000226040F40050E060206978BB606900F027
:100E1000FAF904F124054FF00108A8B1A08910F4F3
:100E2000407F08D0E06900F04EFA206118B1E06818
:100E300040F4006017E0C4F81C802561E06820F4ED
:100E4000407040F480600EE0E06900F03CFA002859
:100E50002061F0D0E06840F4006010F4407FE06072
:100E600002D140F48070E06020696060E06825692C
:100E70006FF0010BC1051ED56168E06A884200D899
:100E80000846411B04D02246284600F0D1FAE8BBB0
:100E90001FB1E562C4E9015959E0681CE062606075
:100EA000E069401EA060E06840F48030E0603046B9
:100EB0002E70BDE8F09F17B100F480320AE0606840
:100EC000411C61600670E0680A2E40F48030E060EA
:100ED00006D00022E16A6068814203D90B4602E035
:100EE0000122F7E70346B4F80CC05B1B5FEA4C5CD9
:100EF00004D4D4F81CC09C4500DD02B3814200D864
:100F00000146002BA1EB0008E56200E008E0C4E91F
:100F1000015907DD22461946284600F089FA08B132
:100F20005046C6E7B8F1000F09D0A169E5626560D7
:100F3000A1EB0800A061E06840F01000E06047B15C
:100F40006168A069E562491B08446560A061584674
:100F5000AFE73046ADE770B5C468A50713D06502AA
:100F600011D4B2F5807F09D0B2F5007F06D0B2F57A
:100F7000806F08D1012300F1240106E05D1E6FF0AF
:100F80007F46B54201D3012070BD0161C36141605C
:100F900024F470611143C160002070BD2DE9F0415F
:100FA0000C461646070047D0104600F06FF8207830
:100FB000611C61280AD0722802D077283CD102E057
:100FC0000125002405E00225042402E0082448F25B
:100FD000020511F8010B2B2806D0622809D011F860
:100FE000010C74280AD00BE045F0030544F002041C
:100FF000EFE745F0040544F00104EAE744F010048B
:101000003846214600F0E0F8411C15D0002131613E
:1010100071604FF40071F560F1617061200704D5D3
:1010200030460222002100F07DF9306D40F00100D1
:1010300030653046BDE8F0810020FBE72DE9F04146
:101040000D460646104C206DC10704D0410804D05F
:1010500020F00104F7E722460EE0542000F033F9B7
:1010600007000ED0206D47F0010108435421206590
:10107000384600F041F83A4629463046BDE8F0418E
:101080008CE70020D6E70000200000202DE9F04783
:1010900004464FF0FF380026C568D4E90497A80736
:1010A00018D0204600F0FAF9384600F097F80028EA
:1010B00000DA4646280502D54846FFF734FE4C21A3
:1010C000204600F019F8206D20F001002065304620
:1010D000BDE8F0874046FBE710B50446AFF300805B
:1010E0002046BDE81040FFF763B810B500F020FAC5
:1010F000BDE8104000F016BA4FF0000200B51346EC
:1011000094469646203922BFA0E80C50A0E80C5027
:10111000B1F12001BFF4F7AF090728BFA0E80C50D8
:1011200048BF0CC05DF804EB890028BF40F8042BD1
:1011300008BF704748BF20F8022B11F0804F18BF3E
:1011400000F8012B704700004FF0013C50F8042BD1
:1011500051F8043B9A4221D1A2EB0C03934313EACA
:10116000CC1317D150F8042B51F8043B9A4215D1F7
:10117000A2EB0C03934313EACC130BD150F8042BCE
:1011800051F8043B9A4209D1A2EB0C03934313EAB2
:10119000CC13DBD04FF00000704700BFD01A01BA6B
:1011A000B1FA81F101F0180122FA01F0CB40DBB273
:1011B000C0B2C01AC1F120012CFA01F3D11A914337
:1011C00011EAC311E6D170470EB5CDE9000100F078
:1011D00032FA029069460120ABBE0EBD08B56946E1
:1011E00000900220ABBE08BD1FB58DE80700694620
:1011F0000520ABBE04B010BD1FB58DE80F006946D9
:101200000620ABBEF6E708B5694600900920ABBEE4
:1012100008BD1CB5CDE9000169460A20ABBE1CBD66
:10122000704708B5694600900C20ABBE08BD0000B1
:10123000004870472401002070477047704770478E
:1012400038B504460A4600206946AFF300800028FE
:1012500008BF38BD02460099204600F091F90120F0
:1012600038BD012000F0E0B9F8B5AFF300800546C5
:1012700000200C46102000BF0646A819A0420DD938
:10128000324669460020AFF30080070008BF00F037
:10129000CBF90098A04218BF0546C419FFF7C8FF54
:1012A00005600746F01D20F007004619284600F0AB
:1012B00060F9B44208BFF8BDA21B31463868BDE8EA
:1012C000F84000F05DB970B50646FFF7B1FF05685C
:1012D00006F10B0020F00704B4429CBF002070BD53
:1012E0002B466A68BAB11068A04210D304F1080115
:1012F00088423CBF5068586007D35168101941605C
:101300001168091B016058601460101D70BD134600
:101310005268002AE7D121462846FFF791FF0028AE
:10132000DED170BD2DE9F041044616460D464769F1
:10133000007B80072ED03846FFF765FF50BB3EB3D9
:10134000012E02D0022E25D104E0204600F032F911
:1013500005441DE03846FFF764FFE168002841F0CE
:101360001001E16005DA204600F058F80120BDE8E0
:10137000F081C9030BD56268E16A914200D8114639
:10138000A26911442269891A814200DD0846054498
:10139000002D01DA0220EAE7E16A6068E268814232
:1013A00006D29103E06203D522F4003141F010022D
:1013B000A6690027AE4213DCE16A814201D90B46DF
:1013C00000E0034603EB060C2369ACEB030CAC45D1
:1013D00006DD814201D98C4600E084469C4505D15A
:1013E000A760276042F02000A5620DE0AD1BE66912
:1013F000AE1B8142A66000D90846C01A281A206098
:101400005819606022F0200003490840E060002085
:1014100084F84870ABE70000BFCFD7FFC16821F464
:10142000001141F08001C1600021816001607047BE
:101430002DE9F74F15460C464FF0FF3B3848D7686B
:10144000D2F814A0074209D05046A969FFF7E1FE7F
:10145000002819DB3248C0430740EF604FF00049D5
:101460006FF000484C4501D3464600E026460099FF
:101470003B4650463246FFF7B7FEA96920F00042CE
:10148000B21A1144A96128B12846FFF7C7FF584690
:10149000BDE8FE8FA41BE5D10020F9E770B5044636
:1014A0000569C06A6168884200D80846E16821F48D
:1014B0002011E160C90312D5A84208D02246411B81
:1014C0002846FFF7B5FF10B14FF0FF3070BD002088
:1014D000E562C4E90150E06820F48030E06000205B
:1014E00070BD10B50446C06820F02000E060A16A1D
:1014F000A06988420DD02046FFF7D0FFE06820F4B5
:10150000405040F01000E060A06AA0612069E062F5
:10151000606044F24001E0688843E06010BD000074
:1015200010000200002801D000F01CB87047000035
:1015300010B5014602A000F05EF8012010BD0000C9
:1015400053494752545245443A2052656469726582
:1015500063743A2063616E2774206F70656E3A2061
:101560000000000001491820ABBEFEE72600020083
:10157000704700210160C0E90110704710207047DA
:10158000034640688C46002818BF88423CBF03468B
:101590004068F8D318681844884207D00CF103005B
:1015A00020F00700001D411A521A0146081D0A606A
:1015B000FFF7B9BB10B50146C268900703D090068B
:1015C00007D5886A0AE0FFF7D1F901210160881E7A
:1015D00010BD8B69486818440B69C01A91F84830EF
:1015E0001BB191F84910401A10BD1103FCD5002819
:1015F000FADD401E10BD70B505460C460A2000E01D
:101600006D1C00F037F835B128780028F8D102E0D9
:10161000641C00F02FF814B120780028F8D1BDE840
:1016200070400A2000F026B810B500F02BF8BDE895
:101630001040FFF777BF10B5431C02E010F8011B04
:1016400071B18107FAD14FF0013202C88C1A8C4374
:1016500014EAC211F9D0C01A0A0603D0C01E10BD88
:10166000C01A10BD0A0401D0801E10BD0902FCD0B2
:10167000401E10BD08B569468DF800000320ABBEC2
:1016800008BD000010B5012805D0002103A0FFF718
:10169000B2FF012010BD09A1F8E7000053494752ED
:1016A000544D454D3A204F7574206F662068656132
:1016B00070206D656D6F7279000000003A204865FA
:1016C0006170206D656D6F727920636F72727570D5
:1016D00074656400FEE7000040F26820C2F200007A
:1016E00000F0A0B840F2AC20C2F2000000F09AB8BE
:1016F00040F23430C2F2000000F094B840F2F02022
:10170000C2F2000000F08EB840F22420C2F20000C5
:1017100000F088B840F2E010C2F2000000F082B899
:1017200070470000EFF3108072B600BFFEE70000C4
:10173000014690F82100022816D10868D1E90FC3AC
:10174000026822F00E020260026822F001020260CA
:10175000012000FA03F2CCF8042081F821000020D7
:10176000002281F820207047042088630120002295
:1017700081F820207047000080B590F821100229E0
:1017800024D10268116821F00E0111602F21136825
:10179000C4F202018A4240F20401C4F2020123F0C1
:1017A0000103136016DD3023C4F202039A421DD0F8
:1017B0004423C4F202039A421CD05823C4F2020309
:1017C0009A421DD14FF4803322E000BF042181638F
:1017D000012080BD0823C4F202039A420ED01C23CC
:1017E000C4F202039A420BD1102311E04FF480732C
:1017F0000EE000BF4FF480530AE000BF012307E072
:1018000001F1680C4FF08073624508BF4FF48013FC
:101810000B60416B4FF48072028401B18847002055
:1018200080BD000010B5D0E90FCE0168DCF80030B3
:101830000A6823FA0EF35C072AD512F0040427D0B5
:101840000A68920603D40A6822F004020A602F2272
:10185000C4F20202914240F20402C4F2020259DDD3
:101860003023C4F20203994270D04423C4F202032D
:10187000994271D05823C4F20203994278D14FF4AF
:1018800080231360C16A002940F097806EE000BF9A
:101890009C0727D512F0020424D00A68920606D4C9
:1018A0000A6822F00A020A60012280F821202F2211
:1018B000C4F20202914240F20402C4F2020239DD93
:1018C0003023C4F2020399425ED04423C4F20203DF
:1018D00099425DD05823C4F2020399425ED14FF47D
:1018E000003363E01B0741D512F0080208BF10BDAA
:1018F0000A6822F00E020A60012101FA0EF2CCF809
:1019000004208163016B4FF480720029028454D15A
:101910002CE000BF0823C4F20203994222D01C230A
:10192000C4F20203994223D140231360C16A002903
:1019300043D11BE00823C4F2020399422CD01C239C
:10194000C4F20203994229D120232FE04FF480638F
:101950001360C16A89BB09E04FF480431360C16A18
:1019600059BB03E004231360C16A31BB10BD00BF43
:1019700002F168044FF08063A14208BF4FF4800376
:101980001360C16AC9B9F1E74FF400730EE000BFFC
:101990004FF400530AE000BF022307E002F168049D
:1019A0004FF00073A14208BF4FF400131360816A27
:1019B0000022002980F82020D8D0BDE81040084738
:1019C000002804BF012070472DE9F04101684FF65F
:1019D000F872CBF6FD724CF6CD430A44CCF6CC43FC
:1019E000A2FB03236FF0030707EA93030027C4F267
:1019F000020700F1040E00F11008C0E90F739EE821
:101A0000045098E870010B6843F6F077BB431A4323
:101A100042EA0C0242EA0E0222432A43324342EADD
:101A200008020A6000214FF4807281630284BDE8DD
:101A3000F041084670470000F0B590F820C0BCF1B6
:101A4000010F32D090F821C04FF0010EBCF1010F10
:101A500080F820E026D14FF0020C80F821C04FF032
:101A6000000CC0F838C0D0E900C4C56AC66BDCF809
:101A70000070102C27F00107CCF80070006C0EFAF3
:101A800000F070600846CCF8043004BF10460A46E7
:101A9000CCF80800CCF80C20DCF8000045B140F090
:101AA0000E000DE0002180F820100220F0BD00BFE4
:101AB00020F00400CCF80000DCF8000040F00A0040
:101AC000CCF80000DCF8000040F00100CCF8000089
:101AD0000020F0BDB0B5044600F024F9054640F200
:101AE0000C00C2F200000078611C18BF044400BF63
:101AF00000F018F9401BA042FAD3B0BD2DE9F04F19
:101B000082B00E68002E00F0038140F20C4C41F2CE
:101B100000424FF6FF7EC4F2010CC4F2010204271A
:101B200000240123C1F2100E4FF0000A4FF000090B
:101B3000904208BF0327009745E000BF012704F04B
:101B40000C030F229A402BEA020207FA03F34FEA32
:101B50009A051A4346F82520D1F804B040F2004512
:101B6000C4F201055FEACB322A6854BF22EA0802B8
:101B700042EA08022A606A685FEA8B3354BF22EAAD
:101B8000080242EA08026A605FEACB23AA6854BFEF
:101B900022EA080242EA08025FEA8B23AA60DCF824
:101BA00000204FF0010354BF22EA080242EA080273
:101BB000CCF800200E680AF1010A36FA0AF204F1A4
:101BC000040400F0A58003FA0AF816EA080FF1D021
:101BD0004E68764512DC122E56D8DFE806F0350B3B
:101BE0004549555555555555555555555555554DC9
:101BF000510000BFD1F80C9046E000BF4FF6FF72D5
:101C0000C1F2210296420FDC0022C1F2110296427B
:101C10001AD00022C1F21202964215D00022C1F25F
:101C20002102964210D02FE00022C1F222029642F9
:101C30000AD00022C1F23102964205D00022C1F240
:101C40003202964220D100BF8A684AB1012A14BFED
:101C5000C0F81480C0F810804FF0080914E000BFED
:101C60004FF0040910E000BFCA6802F108090BE058
:101C70004FF0000908E000BFCA6802F1040903E060
:101C8000CA6802F10C0900BF22460646BAF1080FE5
:101C900024BF203A043637680F25954027EA05050A
:101CA00009FA02F22A433260CA79D2067FF582AF7E
:101CB00041F21803C4F202031A6842F001021A60EA
:101CC0001A6802F001020192019A40F20042C4F245
:101CD0000102A2F57E762AF0030256F802B040F621
:101CE0000002C4F20102904210D040F60042C4F259
:101CF000010290423FF422AF41F20002C4F201021D
:101D0000009F904208BF022719E700BF002716E78F
:101D100002B0BDE8F08F0000002A08BF090401618D
:101D20007047000040F2AC40C2F20000006870470B
:101D30007047000070B5B8B3044690F83D0028B96C
:101D4000002084F83C00204600F0CEFC242084F8DB
:101D50003D002068016821F001010160016841F443
:101D600000410160016821F40041016000F0C0FE03
:101D700048F28041C0F21E0140F60013D4F804E09E
:101D800088424FF00001C0F23D0348F2A16C4FF0D1
:101D9000000238BF01219842C0F2010C38BF012275
:101DA000E64538BF0A460AB1012070BD4DF6836191
:101DB000C4F21B31A0FB01122168950C4B684FF453
:101DC000967623F03F0343EA9243754344F6D35695
:101DD0004B60C1F262060B6AA5FB0656B50923F0FB
:101DE0003F03E64538BF950C6A1C1A430A62CA696C
:101DF00048F2A0664CF6FF73C0F20106B64522EA2F
:101E000003020BD801384FEA4E03B0FBF3F0013068
:101E10006FF31F30042898BF04201EE0A368013828
:101E200063B119230EFB03F3B0FBF3F001306FF342
:101E30001F3078B100F5804008E000BF0EEB4E0384
:101E4000B0FBF3F001306FF31F3028B100F5004014
:101E500003E000BF012000E001201043C8610868D2
:101E6000D4E9072320F0C0001043184308608868B5
:101E700048F2FF3204F10C0690434CCE1843104355
:101E8000A5698860C86820F0FF0030432843C86017
:101E9000086840F00100086000202021206484F8D8
:101EA0003D10206384F83E0070BD000070470000C4
:101EB000704700002DE9F04F85B0044600201E4613
:101EC00017460D460490FFF72DFF94F83D1020298A
:101ED00023D1804620688169890719D5FFF722FF41
:101EE000A0EB08001928F5D900202021206384F8F0
:101EF0003D1084F83E00206C04F13C0940F02000C5
:101F000020640220002189F8001005B0BDE8F08FA0
:101F1000A14619F83C1F012904D1022005B0BDE8F3
:101F2000F08F00BF012289F800200368DDE90F1A55
:101F30000E9ADB0703D1036843F0010303600368D3
:101F400023F400630360222084F83D00402084F8DD
:101F50003E000020206462626185608D29462085F4
:101F60000020CFF6FF70E06220463A463346CDF8B7
:101F700000A0CDF8048001F0AFFB18B1012005B03E
:101F8000BDE8F08F208D022810D0012824D0002831
:101F900038D1002003902068416903918169039141
:101FA0000399016841F40071016037E0206801681D
:101FB00041F400610160EFF3108072B600200390DD
:101FC000206841690391816903910399016821F4B3
:101FD0008061016062B621E02068016821F48061BF
:101FE0000160EFF3108072B6002003902068416911
:101FF0000391816903910399016841F400710160C3
:1020000062B60BE02068016841F480610160002144
:10201000039141690391806903900398208D002802
:1020200000F0238140F2180B4BF289570AF10105A9
:10203000C2F2000BC1F2F847232680B2032819D858
:10204000022845D001286FD1BAF1000F00F0FA80C4
:102050002068014651F8142F520600F1F7800868F5
:10206000C00600F12F81FFF75DFEA0EB0800504590
:10207000EED91CE1BAF1000F12D000BF2068014672
:1020800051F8142F520610D40868C00600F11A81C6
:10209000FFF748FEA0EB08005045EFD907E100BF6D
:1020A00020684169490640F1FB800069616A087057
:1020B000606A2268411C208D616201382085638D31
:1020C000013B638553695B0740F1CC801069BFE039
:1020D00020684169490711D4002D00F09380BAF1BE
:1020E000000F00F0E280FFF71DFEA0EB0800504556
:1020F00000F2DD80206840694007F4D5EFF31080DE
:1021000072B62068616A026842F400720260006977
:102110000870606A218D01306062481E2085608DE4
:102120000138608562B668E020684169490710D4CB
:10213000002D77D0BAF1000F00F0B780FFF7F2FD65
:10214000A0EB0800504500F2B280206841694907C1
:10215000F4D5016821F480610160EFF3108072B65C
:102160002068616A00690870606A218D0130013958
:1021700060622185618D01396185DBF80010C90835
:10218000A1FB0712110A71430491049901390491CA
:102190000499002976D021684A6952071DD4049910
:1021A00001390491049900296CD021684A695207C9
:1021B00013D40499013904910499002962D021684B
:1021C0004A69520709D404990139049104990029F4
:1021D00058D021684A695207D7D50A6842F400727C
:1021E0000A6009690170606A218D01306062481ED1
:1021F0002085608D0138608562B62068616A00695B
:1022000026E000BF416949073FF578AF41694907BA
:102210005CBF41695FEA41713FF570AF41694907B1
:10222000F0D56BE74169490793D4416949075CBF21
:1022300041695FEA41713FF58CAF41694907F1D5CA
:1022400087E700BF20684169490629D50069616AAE
:102250000870606A218D01306062481E2085618DA2
:102260000139618501047FF4E8AE202084F83D0047
:10227000002084F83E00002189F8001005B0BDE878
:10228000F08F00BF00202021206384F83D1084F8E7
:102290003E00206C40F02000206462B61EE000BFCB
:1022A00050F8141FC90601460CD4FFF73BFD00206F
:1022B0002021206384F83D1084F83E00206C40F01B
:1022C00020000AE06FF01000086000202021206349
:1022D00084F83D1084F83E00206C20640120002129
:1022E00089F8001005B0BDE8F08F00002DE9F0433B
:1022F00085B0984616460F460446FFF713FD0021A9
:10230000049194F83D1020293AD1054640F2180076
:10231000C2F2000000684BF28951C008C1F2F841D6
:10232000A0FB0101DDE90C20090A1923594304919E
:10233000049901390491049931B321688B699B0791
:102340001AD50499013904910499E9B121688B697E
:102350009B0711D50499013904910499A1B1216811
:102360008B699B0708D5049901390491049959B1E7
:1023700021688B699B07DBD494F83C30012B15D185
:10238000022005B0BDE8F08300202021206384F8FE
:102390003D1084F83E00216C41F02001216484F856
:1023A0003C00012005B0BDE8F08300BF012384F8A4
:1023B0003C300B68DB0703D10B6843F001030B6073
:1023C0000B6823F400630B60222384F83D30402324
:1023D00084F83E300023236462626085638D0020B0
:1023E000CFF6FF702385E06223B3A06B002841D0B5
:1023F00043F2B55C43F2795EC0F6000CC0F6000E05
:102400004FF000091031C0E90AC9C0E90CE9FFF733
:1024100013FBC8B3202084F83D0084F83E90206C64
:1024200040F01000206484F83C90012005B0BDE825
:10243000F08300BF232000902046394632464346B1
:10244000019501F049F90028ABD1002002902168E4
:102450004A6902928A690292029A0A6842F40072F8
:102460000A60202184F83D1084F83C0005B0BDE8E6
:10247000F08300BF202084F83D00002084F83E0057
:10248000216C41F0800189E72320009020463946E5
:1024900032464346019501F01FF9A8B1A06BFFF742
:1024A0006BF9A16B206800228A62016821F48061C7
:1024B000016022856285016821F00101016001202F
:1024C00005B0BDE8F08300BF208D2168012805D14B
:1024D000086820F48060086004E000BF486840F4A9
:1024E00080504860002003904A6903928A690392F1
:1024F000039A84F83C004A6842F480724A604A6851
:1025000042F400624A6005B0BDE8F0832DE9F04373
:1025100083B0994616460F460446FFF703FC94F82D
:102520003D1020291CD1054620688169890713D5F3
:10253000FFF7F8FB401B1928F6D900202021206363
:1025400084F83D1084F83E00216C41F020012164A4
:1025500084F83C0004E000BF94F83C10012903D14A
:10256000022003B0BDE8F083012284F83C20036818
:10257000DDE90B180A9ADB0703D1036843F0010376
:102580000360036823F400630360212084F83D00A6
:10259000402084F83E000020206462626185608DE6
:1025A000394620850020CFF6FF70E0622046324693
:1025B0004B46CDF80080019501F01EFA20B10120B4
:1025C00003B0BDE8F08300BF208D002850D0206804
:1025D00008F10106014651F8142F12062CD49EB1C1
:1025E000B8F1000F5AD000BF086840055ED4FFF76D
:1025F00099FB401B404556D82068014651F8142FDE
:102600001206F1D518E000BF0A6852054ED40A68D8
:10261000120611D40A68520548D40A6812060BD46F
:102620000A68520542D40A68120605D40A6852059F
:102630003CD40A681206E7D5626A114611F8013BDC
:102640000361238D6162591E2185678D013F678576
:1026500047697F070AD50F0408D051780161911CA2
:102660006162991E2185628D013A62850904B1D1AA
:10267000204641462A4601F0F9FA38BB2068016835
:1026800041F400710160202084F83D00002084F8AE
:102690003E0084F83C0003B0BDE8F08308684005C4
:1026A00004D4FFF73FFB202004E000BF6FF48060FC
:1026B0000860042000212022216384F83D2084F852
:1026C0003E10226C1043206484F83C10206C0428D7
:1026D0007FF475AF2068016841F40071016001204A
:1026E00003B0BDE8F08300002DE9F04186B0044658
:1026F00045F200402168C4F200000027814204979F
:1027000002D006B0BDE8F08141F21805C4F202051E
:10271000296840F26C0841F008012960296800F539
:10272000384001F0080101910199C0210291122164
:1027300003910321059102A9C4F20208FFF7DEF913
:102740006868802640F400106860686840F2E01510
:1027500000F400100190019808F11400C2F2000585
:10276000C5E900072846C5E90276C5E90477C5E949
:102770000677FFF725F9002818BFFEF7D3FFA563FA
:102780006C6240F22425C2F2000510200021C5E948
:1027900000802846C5E90216C5E90411C5E90611FD
:1027A000FFF70EF9002818BFFEF7BCFF65636C62E7
:1027B00006B0BDE8F08100007047000070470000DF
:1027C00040F20C0040F2AC41C2F20000C2F2000143
:1027D00000780A68104408607047000080B542F233
:1027E0000000C4F20200016841F010010160032002
:1027F00000F08EF80F2000F005F800F027F8002018
:1028000080BD000070B540F20C06C2F2000640F236
:1028100018013278C2F200014FF47A730968B3FBF1
:10282000F2F20446B1FBF2F1084600F029FC0F2C4D
:102830004FF0010508D838B94FF0FF30214600228B
:10284000002500F039F87460284670BD82B041F26E
:102850001800C4F202000168022241F00101016087
:10286000016801F0010101910199416841F0805135
:102870004160406800F08050009000980420C4F24D
:102880000100016862F31A61016002B07047000044
:10289000002848BF7047C1B200F01F00012202FAB1
:1028A00000F04EF20012CEF2000242EAD10121F015
:1028B000030108607047000010B54EF60C5CCEF2C4
:1028C000000CDCF80030C3F3022E8EF00704042C59
:1028D00028BF0424BEF103034FF0FF3E0EFA04F4B8
:1028E00038BF0023A14399400EFA03F39A431143E2
:1028F00000F00F0200F160430901043A03F564435C
:102900006244002848BF02F10C03197010BD00009A
:102910004EF60C51CEF200010A684FF6FF031A4042
:1029200060F30A2242F0806040F0FD70086070475A
:102930002DE9F04381B0002800F0858042F20008C4
:10294000C4F202080446D8F800000D4600F0070063
:1029500088420CD2D8F8000020F007002843C8F8BD
:102960000000D8F8000000F00700A8426BD12068F2
:1029700041F204098107C4F2020917D5410705D5C0
:10298000D9F8001041F4E061C9F80010010705D53D
:10299000D9F8001041F46051C9F80010D9F80010BE
:1029A000A26821F0F0011143C9F80010C00741D11D
:1029B000D8F8000000F00700A8420CD9D8F80000B1
:1029C00020F007002843C8F80000D8F8000000F005
:1029D0000700A84237D12068410707D5D9F8001071
:1029E000E26821F4E0611143C9F80010000708D53E
:1029F000D9F80000216920F4605040EAC100C9F80C
:102A00000000D9F8002002F00C00082841F2002054
:102A1000C0F27A0050D145F2BE53C2F38341C0F6F2
:102A20000003595CD2033BD440F60010C0F23D00D5
:102A3000484341E0606802280AD001282AD159F8A9
:102A4000041C890308D4012001B0BDE8F08300BF55
:102A500059F8041C8901F6D5D9F8001021F00301BA
:102A60000843C9F80000FFF75DF9064641F28837D0
:102A7000D9F80000616800F00C00B0EB810F97D02E
:102A8000FFF750F9801BB842F2D9032001B0BDE82E
:102A9000F08300BF59F8041C8907D4D5DCE700BFD8
:102AA000D9F8002045F2A453C2F34042C0F6000317
:102AB0009A5C4843B0FBF2F0D9F8001045F2A652F8
:102AC000C1F30311C0F60002515C40F2180220FA73
:102AD00001F140F21000C2F200000068C2F20002F0
:102AE0001160FFF78FFE002001B0BDE8F083000009
:102AF00040F2180041F20401C2F20000C4F20201E7
:102B00000068096845F2B652C1F30221C0F600021E
:102B1000515CC8407047000040F2180041F20401C7
:102B2000C2F20000C4F202010068096845F2B65220
:102B3000C1F3C221C0F60002515CC84070470000DA
:102B40002DE9F04182B0002868D00446007841F2B7
:102B50000006C007C4F2020625D0706800F00C0021
:102B600004281BD0706800F00C00082802D170689F
:102B7000C00313D46068002800F06881B0F5A02F6E
:102B800000F07C81B0F5803F00F07C81306820F45B
:102B900080303060306820F4802076E13068800337
:102BA00001D56068D0B32078800718D5706810F020
:102BB0000C0F07D0706800F00C0008286ED1706808
:102BC000C0036BD43068800702D52069012825D165
:102BD0003068616920F0F80040EAC1003060207878
:102BE00000071FD42078400732D4E56995B170689A
:102BF00000F00C00082840F08F80012D0ED0706886
:102C0000216A00F480328A4208D1616A00F47010AF
:102C1000884203D1002002B0BDE8F081012002B05B
:102C2000BDE8F081A069002862D00020C4F24220F3
:102C30000121C0F88014FFF775F80546706A800717
:102C400000F18C80FFF76EF8401B0228F6D92AE1CC
:102C5000F06910F0805808D1F06940F08050F061C0
:102C6000F06900F080500090009847F20007C4F22D
:102C700000073868C00529D4386840F4807038608F
:102C8000FFF750F8054600BF3868C0051ED4FFF7AF
:102C900049F8401B6428F7D905E100BF20690028E6
:102CA00040F20000C4F2422000F082800121016065
:102CB000FFF738F8054600BF306880073FF588AF5A
:102CC000FFF730F8401B0228F6D9ECE0E068002856
:102CD00000F08080052800F09780012800F098809F
:102CE000306A20F001003062306A20F0040092E087
:102CF0000020C4F242200021C0F88014FFF712F82F
:102D0000054600BF706A80077FF56CAFFFF70AF8D1
:102D1000401B0228F6D9C6E00027C4F24227002053
:102D20003866FEF7FFFF022D05460BD130688001A3
:102D300040F1BE80FEF7F6FF401B02284FF0030073
:102D4000F4D968E7306880017FF564AFFEF7EAFFE9
:102D5000401B02284FF00300F4D95CE740F2180052
:102D6000C2F20000006844F6D351C1F26201A0FB38
:102D70000101480A019000BF00BF0198411E0028D0
:102D800001913FF42FAF00BF0198411E002801912F
:102D90003FF428AF00BF0198411E002801913FF485
:102DA00021AF00BF0198411E00280191E4D119E72D
:102DB00000210160FEF7B6FF054600BF30688007BE
:102DC0007FF50DAFFEF7AEFF401B02284FF003006A
:102DD000F4D920E7306A20F001003062306A20F038
:102DE00004003062FEF79EFF054641F2883700BFBF
:102DF000306A800720D5FEF795FF401BB8424FF0A0
:102E00000300F5D907E700BF306A40F004003062E4
:102E1000306A40F001003062FEF784FF054641F25F
:102E2000883700BF306A800706D4FEF77BFF401B5F
:102E3000B842F7D937E000BFB8F1000F7FF4D5AE44
:102E4000F06920F08050F061CFE600BF306820F4D8
:102E500080303060306820F480203060FEF762FF00
:102E6000054600BF306880037FF59DAEFEF75AFF30
:102E7000401B64284FF00300F4D9CCE6306840F4DE
:102E800080203060306840F480303060FEF74AFFC8
:102E9000054600BF306880033FF585AEFEF742FF70
:102EA000401B6428F6D9032002B0BDE8F08100BFC2
:102EB000206AB0F5803F05D17168A26821F4003125
:102EC000114371607168626A21F4741111430843FF
:102ED000706001203866FEF725FF044630688001E7
:102EE0003FF598AEFEF71EFF001B02284FF00300CF
:102EF000F4D990E670B538B10446406A30B100208C
:102F0000206104F1140007E0012070BD6068B0F595
:102F1000827F03D004F11C00002101600026A6621C
:102F200094F8510020B9204684F8506000F038F839
:102F3000022084F8510094E8071001F482710368BC
:102F400002F4044223F040030360236911440CF4AB
:102F50000062114403F002026369114403F00102AC
:102F6000A369E569114403F40072114405F03802C5
:102F7000256A114405F08002A56A114305F4005248
:102F800011430160042101EA13414160C16921F448
:102F90000061C1610120666584F85100304670BD52
:102FA0002DE9F04186B040F600050446C4F2010563
:102FB000006805F5205100278842049702D006B02A
:102FC000BDE8F08141F21800C4F20200016802AECF
:102FD00041F480510160016840F21C0801F4805105
:102FE000019101990168C4F2020841F004010160F5
:102FF0000068314600F0040001900198B020029072
:1030000002200390032005902846FEF777FD40201C
:10301000CDE90207284631460497FEF76FFD40F2DE
:103020006825C2F2000580262846C5E90087C5E963
:103030000276C5E90477C5E90677FEF7C1FC0028EA
:1030400018BFFEF76FFBE5646C6240F2AC2508F137
:103050001400C2F200051021002285E8470028462E
:10306000C5E90422C5E90622FEF7AAFC002818BF1C
:10307000FEF758FBA5646C6206B0BDE8F081000065
:10308000411E0020B0EB116F1CBF012070474EF2B3
:103090001002CEF2000251604EF62351CEF2000132
:1030A000F0230B700721906011607047704700009B
:1030B00070470000B0B582B0026805461068D3685A
:1030C000546900F02F01202903F0200106D129B115
:1030D000284602B0BDE8B04001F056B85FEA007C77
:1030E0001EBF04F0010E03F4907414EB0E0453D1D0
:1030F000296B012905D110F0100118BF13F0100140
:1031000036D1010622D513F080011FD095F83D007D
:1031100021283FD1A868B0F5805F03D12869002835
:1031200000F0F880286A411C296200785060E88C21
:1031300001380104E8842DD1D06820F08000D060EF
:10314000D06840F04000D06002B0B0BD400621D54C
:1031500013F040001ED0D068202120F04000D06045
:10316000284685F83D1002B0BDE8B04000F000BA36
:1031700000200190106801905068019001985069FA
:10318000400611D4A88DE98DEB8D002B18BF884225
:1031900040F0A68002B0B0BDC40718BF13F480731E
:1031A0002CD1430730D436E0A86B01684B689CB241
:1031B000002CEFD0A98D8C42ECD2EB858369202BBB
:1031C00017D0D16821F48071D160516921F00101DB
:1031D0005161516921F040015161202185F83E1073
:1031E00000212963D16821F01001D160FEF7A0FA17
:1031F000A98DE88D081A81B2284685E02B6C43F032
:1032000001032B64430706D5BEF1000F03D02B6CDE
:1032100043F002032B64830706D5BEF1000F03D0F1
:103220002B6C43F004032B64BCF1000F09D541EA79
:103230000E03B3FA83F35B0903D12B6C43F008034D
:103240002B642B6C002BA5D010F0200018BF002998
:1032500003D0284600F098FF2A685069296C00F0D6
:10326000400001F0080140182CD0D06820F4907084
:10327000D060506920F001005061286B012803D113
:10328000D06820F01000D060202085F83E0000209B
:103290002863506940061DD5506920F040005061F8
:1032A000A86BB8B144F27D11C0F600014163FEF78E
:1032B00063FA00283FF46EAFA86B416B02B0BDE823
:1032C000B04008472846FFF7F3FE0020286402B00C
:1032D000B0BD00BF284602B0BDE8B040FFF7E8BE71
:1032E000D368401A23F49073D360536981B223F0FA
:1032F00001035361202385F83E3000232B63D368FC
:10330000284623F01003D36002B0BDE8B040FFF7B9
:10331000CDBE00BF286A30F8021B6FF35F215160F9
:10332000286204E7002804BF0120704710B5044656
:1033300090F83D0028B9002084F83C00204600F0B9
:1033400061F8242084F83D002068D4E90212C368A3
:1033500023F40053C360036923F440531A4302610A
:10336000D4E904231143C268194341F20C639A4320
:103370001143C1604169A26921F44071114343F6D0
:103380000002C4F201029042416103D0FFF7B0FB9A
:1033900002E000BFFFF7C0FB6268192148439100BB
:1033A000B0FBF1F048F21F51C5F2EB11A0FB012375
:1033B0005A094FF69C73C0F6FF7302FB03003223D9
:1033C00003EB0010A0FB0101F02303EA5113206876
:1033D00003EB0212C1F3431111448160016921F42E
:1033E00090410161416921F02A014161C16841F4C4
:1033F0000051C16000202021206484F83D1084F831
:103400003E1010BD2DE9F04186B00446006844F23C
:103410000041C4F20001002688420596CDE903660A
:1034200002966BD043F60001C4F20101884240F0DD
:103430009A8041F21800C4F20200016840F60005CB
:1034400041F4804101600168C4F2010501F480414A
:1034500001910199016802AE41F004010160006828
:1034600040F2440800F00400019001984FF400700D
:103470000290022003900320059028463146C4F2B2
:103480000208FEF73BFB4FF44060029000272846FD
:103490003146CDE90377FEF731FB40F2F02508F124
:1034A0001400C2F200058026C5E900072846C5E9D8
:1034B0000276C5E90477C5E90677FEF781FA0028A8
:1034C00018BFFEF72FF9A5636C6240F23435C2F2E3
:1034D00000051020C5E900802846C5E90276C5E947
:1034E0000477C5E90677FEF76BFA002818BFFEF7E8
:1034F00019F965636C6206B0BDE8F08141F218000D
:10350000C4F20200416840F6000441F40031416019
:103510004168C4F2010401F400310191019901688C
:1035200002AD41F0040101600068294600F004008A
:10353000019001980420029002200390032005903E
:103540002046FEF7DBFA0820CDE902062046294690
:103550000496FEF7D3FA262000210022FFF7ACF9EB
:103560002620FFF795F906B0BDE8F081704700000E
:1035700070470000FEE70000406A416B00291CBF55
:1035800000228A62816B00291CBF00228A620168C6
:103590000A6822F480620A6000212022418580F8B6
:1035A0003D2080F83E10016C41F010010164FEF7EF
:1035B000BFBB000010B5446A94F83D2094F83EE08B
:1035C000D4F82CC02068616B4368002923F4407351
:1035D00043601CBF00238B62A16B00291CBF00232A
:1035E0008B6202F02101212920D002F02201222940
:1035F00008BFBEF1200F19D094F83E10002908BF73
:1036000010BD618D012903D1016821F48061016041
:103610004168BCF1070F21F44071416028DCBCF126
:103620002A4F2BD01CF5803F28D02BE041682A2A56
:1036300021F4006141604FF0000060850AD0292A22
:1036400010D121202063282084F83D002046FFF778
:10365000B5F807E022202063282084F83D002046AA
:10366000FFF7AAF82068416841F44071416010BD3D
:10367000BCF1200F02D0BCF1080F03D1016841F466
:1036800000710160416821F480514160416821F47A
:103690000061416000206085216C29B12046BDE8B1
:1036A0001040FEF745BB00BF202184F83D1094F880
:1036B0003E1084F83E00402906D1002120462163B7
:1036C000BDE81040FEF7F4BB122120462163BDE89F
:1036D0001040FEF7EBBB00002DE9F04383B0044639
:1036E000006899460368904643F48062026002686D
:1036F0000B9D42F48072026042690A9ED2070F4617
:103700001DD1711C11D0002E00F03681FEF70AFB8E
:10371000401BB04200F2328120684169C907F5D0F0
:103720000DE000BF4169C90709D14169C90706D148
:103730004169C90704BF41695FEAC171F2D007F06E
:10374000FE0707614169890738D44169721C01F499
:10375000806111D049BB002E00F03A81FEF7E2FAF9
:10376000401BB04200F2368120684169890725D4A8
:1037700041694905F2D518E0B9B9416989071DD4F5
:103780004169490511D44169890717D4416949053F
:103790000BD44169890711D44169490505D44169B0
:1037A00089070BD441694905E7D5016841F40071E7
:1037B00001606FF48061416104200CE100210291FD
:1037C000014651F8142F02924A680292029A0A683E
:1037D000120620D4002E00F0AB80721C51D10A6872
:1037E000520500F1AD800A68120614D40A68520529
:1037F00000F1A6800A6812060DD40A68520500F18D
:103800009F800A68120606D40A68520500F1988063
:103810000A681206E3D5B9F1010F45D04FEA182125
:103820000161014651F8142F12063DD4002E00F01C
:103830007F80721C2AD10A68520500F181800A68D3
:10384000120631D40A6852057AD40A6812062BD4BB
:103850000A68520574D40A68120625D40A6852050B
:103860006ED40A681206E6D51EE000BFFEF75AFACB
:10387000401BB04261D82068014651F8142F12064F
:10388000C9D408684005F1D55AE000BF0868400572
:1038900056D4FEF747FA401BB0424ED82068014686
:1038A00051F8142F1206F1D55FFA88F10161014633
:1038B00051F8142F12061AD4D6B3721C33D10A68E9
:1038C00052053DD40A68120611D40A68520537D44D
:1038D0000A6812060BD40A68520531D40A68120627
:1038E00005D40A6852052BD40A681206E7D5016888
:1038F000002241F48071016020464FF001113346EF
:10390000009500F007FA002850D02068006844E0D5
:10391000FEF708FA401BB0420FD82068014651F864
:10392000142F1206E3D408684005F1D508E000BF63
:103930000868400504D4FEF7F5F9202004E000BF34
:103940006FF480600860042000212022216384F845
:103950003D2084F83E10226C1043206484F83C1013
:10396000206C042843D12068016841F40071016093
:10397000012003B0BDE8F083FEF7D4F90020202138
:10398000206384F83D1084F83E00216C41F0200152
:103990002164216884F83C000868C00544BF4FF4E6
:1039A00000702064032003B0BDE8F083206847F076
:1039B000010101610221C0F20101204632462B467D
:1039C00000F050FA002818BF012003B0BDE8F083D2
:1039D000FEF7A8F9202000212022216384F83D2051
:1039E00084F83E10226C1043206484F83C100120BF
:1039F00003B0BDE8F08300002DE9F04381B0044638
:103A0000006890460268099D42F480720260426933
:103A1000089E9946D2070F461DD1711C11D0002E69
:103A200000F0D280FEF77EF9401BB04200F2CE805B
:103A300020684169C907F5D00DE000BF4169C90799
:103A400009D14169C90706D14169C90704BF416964
:103A50005FEAC171F2D007F0FE0101614169890797
:103A600038D44169721C01F4806111D049BB002E29
:103A700000F0E880FEF756F9401BB04200F2E48007
:103A800020684169890725D441694905F2D518E0C4
:103A9000B9B9416989071DD44169490511D4416902
:103AA000890717D4416949050BD44169890711D4A5
:103AB0004169490505D4416989070BD44169490524
:103AC000E7D5016841F4007101606FF480614161E4
:103AD0000420BAE000210091014651F8142F009211
:103AE0004A680092009A0A6812061ED4002E00F05E
:103AF0008580721C4DD10A68520500F187800A68E2
:103B0000120612D40A68520500F180800A68120673
:103B10000BD40A68520579D40A68120605D40A68DB
:103B2000520573D40A681206E5D5B9F1010F43D0E6
:103B30004FEA18210161014651F8142F12063BD4B7
:103B4000002E5BD0721C29D10A6852055ED40A6827
:103B5000120631D40A68520558D40A6812062BD4CA
:103B60000A68520552D40A68120625D40A6852051A
:103B70004CD40A681206E7D51EE000BFFEF7D2F863
:103B8000401BB0423FD82068014651F8142F12065E
:103B9000CBD408684005F1D538E000BF086840057F
:103BA00034D4FEF7BFF8401BB0422CD82068014641
:103BB00051F8142F1206F1D55FFA88F10161002047
:103BC00001B0BDE8F08300BFFEF7ACF80020202173
:103BD000206384F83D1084F83E00216C41F0200100
:103BE0002164216884F83C000868C00544BF4FF494
:103BF00000702064032001B0BDE8F0830868400530
:103C000004D4FEF78FF8202004E000BF6FF480603A
:103C10000860042000212022216384F83D2084F8DC
:103C20003E10226C1043206484F83C10206C042861
:103C300017D12068016841F400710160012001B0D2
:103C4000BDE8F083FEF76EF82020002120222163DA
:103C500084F83D2084F83E10226C1043206484F8E0
:103C60003C10012001B0BDE8F083000070B503688E
:103C7000044653F8140F400737D40E46F1B1701CB8
:103C800024D100BF1868400532D4186840072CD4EE
:103C9000186840052CD41868400726D418684005D9
:103CA00026D41868400720D41868400520D4186826
:103CB00040074FF0000048BF70BDE3E718684005BB
:103CC00016D4FEF72FF8202016E000BF154600BFDF
:103CD000186840050CD4FEF725F8401BB042F2D816
:103CE000236853F8140F4007F2D5002070BD00BFC1
:103CF0006FF480601860042000212022216384F882
:103D00003D2084F83E10226C10432064012084F88A
:103D10003C1070BD2DE9F04105461446DDF81880D1
:103D200001F47F002A681E46B0F5803F8FB241D172
:103D300050693840C01BB0FA80F04009A0427BD1E6
:103D4000701C2DD0002E7BD0FDF7ECFFA0EB0800FF
:103D5000B04277D8286840693840C01BB0FA80F07C
:103D60004009A042F0D00020BDE8F0815069384001
:103D7000C01BB0FA80F04009A0425DD150693840C4
:103D8000C01BB0FA80F04009A04255D150693840BC
:103D9000C01BB0FA80F04009A0424FF000005FD194
:103DA00050693840C01BB0FA80F04009A042DDD015
:103DB00042E000BF90693840C01BB0FA80F0400973
:103DC000A04239D1701C1FD0D6B300BFFDF7AAFFA7
:103DD000A0EB0800B04235D8286880693840C01B85
:103DE000B0FA80F04009A042F0D00020BDE8F08198
:103DF00090693840C01BB0FA80F04009A0424FF0F3
:103E0000000018BFBDE8F08190693840C01BB0FACF
:103E100080F04009A0420FD190693840C01BB0FA31
:103E200080F04009A04207D190693840C01BB0FA29
:103E300080F04009A042DBD00020BDE8F08100BF47
:103E4000FDF770FF00202021286385F83D1085F8DC
:103E50003E00296C41F02001296485F83C000120D6
:103E6000BDE8F081F0B581B0044600681D464369A5
:103E70008FB203EA0701B94202D1002001B0F0BDC0
:103E800041691646013201F480610FD059BB9EB3DF
:103E9000FDF748FF401BB04230D8206841693940E7
:103EA000B942EAD041694905F2D51CE0D9B9416966
:103EB0003940B942E1D04169490514D441693940DA
:103EC000B942DAD0416949050DD441693940B94256
:103ED000D3D04169490506D441693940B942CCD0B3
:103EE00041694905E3D5016841F4007101606FF44F
:103EF00080614161042002E0FDF714FF20200021D1
:103F00002022216384F83D2084F83E10226C104367
:103F1000206484F83C10012001B0F0BD80B582B06F
:103F200041F21400C4F202000168002241F00101D4
:103F300001600068002100F00100019001980C2050
:103F4000FEF7BAFC0C20FEF7A3FC0D200021002296
:103F5000FEF7B2FC0D20FEF79BFC0E200021002294
:103F6000FEF7AAFC0E20FEF793FC0F200021002292
:103F7000FEF7A2FC0F20FEF78BFC10200021002290
:103F8000FEF79AFC1020FEF783FC1120002100228E
:103F9000FEF792FC112002B0BDE88040FEF778BC2D
:103FA0002DE9F04784B041F21800C4F20200016824
:103FB00040F6004A41F0200101600168C4F2010AA4
:103FC00001F02001009100990168002241F00401F4
:103FD000016001684FF4004601F00401009100996E
:103FE00001684FF0000941F00801016000684FF4DA
:103FF000004100F00800009000985046FDF78CFE4C
:10400000AAF5806528464FF4807100224FF480782D
:10401000FDF782FE00966E46012702245046314687
:10402000CDE901790394FDF769FD28463146CDE9D4
:104030000087CDE90294FDF761FD18200090002073
:10404000C1F21100CDE9010950463146FDF756FD98
:1040500004B0BDE8F087000080B540F2783045F24A
:104060000041C2F20000C4F2000148F2A062002345
:104070004FF4804CC0F2010280E80E00C0E9033C1E
:10408000C0E90533C0E90733FDF754FE002808BF37
:1040900080BDBDE88040FDF745BB000080B540F223
:1040A000CC3043F20001C2F20000C4F201014FF42F
:1040B0008272002380E80E0000F114014FF4802C7E
:1040C0004FF0080E81E808500A21C0E90333C0E927
:1040D0000833C0E90A31FEF70DFF002808BF80BD94
:1040E000BDE88040FDF71EBB80B540F2244043F69A
:1040F0000001C2F20000C4F2010100234FF00C0CD9
:104100004FF4007E4FF4E13280E80E00C0E9033343
:10411000C0E905CEC361FFF705F9002808BF80BDDF
:10412000BDE88040FDF7FEBA80B540F2684044F239
:104130000041C2F20000C4F2000100234FF00C0C59
:104140004FF4E13280E80E00C0E90333C0E905C353
:10415000C361FFF7E7F8002808BF80BDBDE88040D5
:10416000FDF7E0BAFEE70000FEE700007047000040
:1041700070470000FEF724BB70470000406A002132
:10418000C185C184FEF794BF81B090F83E1022290A
:1041900021D183680246B3F5805F09D152F8281F08
:1041A00052F8183C002B3FD003685B680AE000BF60
:1041B00052F8281F13B90369002BF5D003685B6818
:1041C00003F07F030B70116801311160C18D01395B
:1041D0000A04C18502D001B0704700BF0168CA68F7
:1041E00022F02002CA60CA6822F48072CA604A695A
:1041F00022F001024A61202280F83E20026B012A4F
:104200001AD100220263CB6823F01003CB600B6845
:10421000DB0605D500920A68009249680091009972
:10422000818D01B0FEF742BF026852686FF35F22D2
:1042300021F8022B8162C9E701B0FFF797B90000AE
:1042400040F26840C2F20000FEF734BFFEE7000013
:10425000B0B5054652203D2100F00AFB044652202D
:104260003D21002200F032FB01282BD11320FDF765
:1042700031FC52200721002200F028FB012805D044
:1042800045F27760C0F60000FBF7B8FF52205521D9
:104290002A46162300F004FB05461420FDF71AFCFD
:1042A000012D17D152203D21224600F00FFB01289D
:1042B00018D1002C0CBF13200720FDF70BFC0020A9
:1042C000B0BD00BF45F27760C0F60000FBF796FF77
:1042D0000120B0BD45F24A70C0F60000FBF78EFF2A
:1042E0000220B0BD45F27760C0F60000FBF786FF04
:1042F0000320B0BD2DE9F04F83B02029824631D193
:1043000001AA52202021082300F0CAFA05460A20FB
:10431000FDF7E0FB012D05D045F20170C0F600006D
:10432000FBF76CFF40F21400C2F20000408801F07D
:1043300062F80546BDF904000E4601F045F82A462C
:10434000334600F0E7FECAE900019DF807009DF83A
:1043500006104FF006084FF007094FF0040B052434
:1043600030E000BF01AA522006230F4600F098FA61
:1043700005460A20FDF7AEFB012D05D045F2017080
:10438000C0F60000FBF73AFF40F21400C2F2000052
:10439000008801F030F800260546C3F6F0760020CC
:1043A0001A2F08BF0E4618BF0546CAE900009DF83F
:1043B00004109DF805004FF004084FF005094FF078
:1043C000020B032441EA002000B200F0FDFF2A4660
:1043D000334600F09FFE01AF3A5D17F80B30CAE993
:1043E000020143EA022000B200F0EEFF2A46334603
:1043F00000F090FE17F8092017F80830CAE9040108
:1044000043EA022000B200F0DFFF2A46334600F004
:1044100081FECAE9060103B0BDE8F08F10B5522055
:104420000721002200F052FA012815D152203F2125
:10443000A12200F04BFA01281AD14FF44870FDF781
:1044400049FB52203A2100F013FAC8B1014631A0CD
:10445000FBF7D4FE032010BD45F27760C0F60000E4
:10446000FBF7CCFE26A0FBF7C9FE012010BD00BF64
:1044700045F26260C0F60000FBF7C0FE022010BDEE
:104480005220362100F0F4F9044600070AD445F220
:10449000E960C0F60000FBF7B1FE0120610704D51A
:1044A0000AE000BF0020610706D445F2D060C0F6E4
:1044B0000000FBF7A3FE0120A1070BD445F2B86072
:1044C000C0F60000FBF79AFEE00744F010040ED19E
:1044D00004E000BFE10744F0100407D145F2A060FA
:1044E000C0F60000FBF78AFE01E000BF30B118A063
:1044F0002146FBF783FE042010BD00BF002010BD45
:104500000A534554205041474520493243204552E3
:10451000524F52000A53797374656D204572726F61
:104520007220686173206F636375726564206475BF
:1045300072696E6720506F776572206F6E207265AA
:104540007365742E202564206E756D62657200009F
:104550000A2053656C662074657374206973206645
:1045600061696C65643A202564202E0010B504460C
:1045700052203D21224600F0A9F9012808D1002C43
:104580000CBF13200720FDF7A5FA002010BD00BFC7
:1045900045F27760C0F60000FBF730FE012010BD49
:1045A0002DE9F04381B0FFF739FF38B145A0FBF7A3
:1045B00025FE012001B0BDE8F08300BF522000219C
:1045C00000F056F9A02853D152203F21802200F05C
:1045D0007DF9012854D152203D210C2200F076F9BA
:1045E000012857D10720FDF775FA45F22C7845F2DE
:1045F000CE5945F2EF5745F2416545F2186645F24E
:1046000077640A20C0F60008C0F60009C0F600076B
:10461000C0F60005C0F60006C0F6000405E000BFC5
:10462000284600BFFBF7EAFD0120FDF753FA5220B0
:104630000721002200F04AF9012802D02046FBF7AA
:10464000DDFD5220352100F013F9BF282CD80E28AB
:1046500004DC48B10328E3D13846E3E73F2805D01E
:104660000F28DDD13046DDE74846DBE74046D9E795
:10467000014619A0FBF7C2FD022001B0BDE8F0839E
:1046800045F26260C0F60000FBF7B8FD032001B000
:10469000BDE8F08345F27760C0F60000FBF7AEFDA1
:1046A000042001B0BDE8F0830120FDF713FA40F2C9
:1046B000C810C2F20000FFF7CBFD002001B0BDE83A
:1046C000F08300BF0A5265736574206973206661C8
:1046D000696C65642121210043616E27742066693D
:1046E0006E6420424E4F3035352C2069643A2030BC
:1046F00078253032782E20506C65617365206368B0
:1047000065636B20796F757220776972696E672EA9
:104710000D0A000096B0FEF761F800240120CDE9F3
:104720001144CDE90F440C9010904FF4E0104FF479
:104730008031022515900CA8CDE90D14CDE9135157
:10474000FEF7FEF920B1EFF3108072B6FEE700BF6E
:104750000F20CDE907054FF48060CDE90A0407A8D2
:1047600002210994FEF7E4F820B1EFF3108072B64D
:10477000FEE700BFFFF714FCFFF7D0FBFFF76CFC70
:10478000FFF7B2FCFFF78AFCFFF7CEFC40F2801780
:1047900040F27830C2F20007C2F200003860FFF742
:1047A000FFFE0C20FFF7E2FE0DF1300A0FF2740855
:1047B0000FF2980950461A21FFF79CFDDDE90C0C19
:1047C0000EAE4CCEDDE911541399C7E9020C07F186
:1047D00010004CC04046C7E907547962CDE9006536
:1047E00002940391FBF70AFD50462021FFF782FD5A
:1047F0000EAE63CEDDE90C23DDE9124C07F1300E7D
:104800008EE863008DE863004846C7E90A23C7E9DC
:10481000104C0494CDF814C0FBF7F0FC0A20FDF70F
:1048200059F9C7E748656164696E673A20252E32F9
:104830006620526F6C6C3A20252E326620506974C7
:1048400063683A20252E32660D0A0000573A20256B
:104850002E326620583A20252E326620593A2025DD
:104860002E3266205A3A20252E32660D0A000000AC
:1048700080B584B00A46014601200DF10F03CDE951
:10488000003040F278304FF00A0CC2F200000123F1
:10489000CDF808C0FDF70EFB9DF80F0004B080BDF9
:1048A00080B582B09C460B46014640F278300092BB
:1048B000C2F200001A460123CDF804C0FDF716FD30
:1048C000B0FA80F0400902B080BD000080B584B02D
:1048D0000B4601468DF80F2001200DF10F02CDE9A6
:1048E000002040F278304FF00A0CC2F200001A4665
:1048F0000123CDF808C0FDF709FEB0FA80F04009A9
:1049000004B080BD5FEA400C08BF91F0000F4FEA91
:104910008C234FEAC12243EA51514FEA1C5018BF81
:1049200000F5F0404FEA300018BF41F000415FEA67
:104930006C5C00F02980BCF1FF3F08BF40F0804074
:104940007047130C06BF12044FF0100C4FF0000C10
:10495000130E04BF12020CF1080C130F04BF120156
:104960000CF1040C930F04BF92000CF1020CD30F56
:1049700004BF52000CF1010C11464FF00002A0F1EF
:104980001F00A0EB0C00704711F0004F08BF7047EC
:1049900031F000413FF4D5AF0B0C06BF09044FF0D6
:1049A000100C4FF0000C0B0E04BF09020CF1080CA8
:1049B0000B0F04BF09010CF1040C8B0F04BF89001D
:1049C0000CF1020CCB0F04BF49000CF1010CCCF12F
:1049D000200322FA03F341EA030102FA0CF2A0EBEE
:1049E0000C0000F10100704723F07F4720F07F4C5E
:1049F00080EA030000F00040ACEB070303F57C53B2
:104A000003F1FF032DE9804909B44FEA144324EA76
:104A100003484FEA154B25EA0B4E0FF2042606EB2E
:104A200013273E7803FB0667C7F5000707FB06F66A
:104A30004FEAD64606F102064FEA543707FB066CEA
:104A4000CCF1005C4FEA1C472CEA074C0CFB06F546
:104A500007FB06F404EB15464FEA961649085FEA91
:104A6000320234BF00204FF000404FEAD13706FB3E
:104A700007FC4FEA1C4C0CFB0BF7D21B03FB0CF79B
:104A800061EB07010CFB0EF7B0EB074072EB17422E
:104A90000CFB08F734BFA2EB0742B2EB074261EB15
:104AA00017414FEA0C444FEA910706FB07FC4FEA17
:104AB0001C4C0CFB0BF7B0EBC74072EB573203FBFF
:104AC0000CF734BFA2EBC742B2EBC74261EB5731E0
:104AD0000CFB0EF7B0EBC70072EB57720CFB08F73C
:104AE00034BFA2EBC702B2EBC70261EB57714FEACA
:104AF000816141EA92114FEA826242EA90124FEAE2
:104B0000806004EBCC04039F4FEAD13706FB07FC1F
:104B10004FEA1C4C0CFB0BF7D21B03FB0CF761EBB1
:104B200007010CFB0EF7B0EB074072EB17420CFBD2
:104B300008F734BFA2EB0742B2EB074261EB174123
:104B40004FEA8C5504EB9C244FEA910706FB07FCC7
:104B50004FEA1C4C0CFB0BF7B0EBC74072EB573223
:104B600003FB0CF734BFA2EBC742B2EBC74261EBC9
:104B700057310CFB0EF7B0EBC70072EB57720CFB12
:104B800008F734BFA2EBC702B2EBC70261EB577163
:104B90004FEA816141EA92114FEA826242EA901241
:104BA0004FEA806015EB4C2544F100044FEAD13701
:104BB00006FB07FC4FEA1C4C0CFB0BF7D21B03FB5C
:104BC0000CF761EB07010CFB0EF7B0EB074072EB43
:104BD00017420CFB08F734BFA2EB0742B2EB0742C7
:104BE00061EB17414FEA813141EA92414FEA82324B
:104BF00042EA90424FEA80304FEA0C7615EB1C15E2
:104C000044F1000448EA03434EEA0B484FF0000E1B
:104C1000B2EB080C71EB030724BF624639464EEB3A
:104C20000E0E4FF0000B0018524149414BEB0B0B9D
:104C3000B2EB080C71EB03077BF1000B24BF62465B
:104C400039464EEB0E0E4FF0000B00185241494111
:104C50004BEB0B0BB2EB080C71EB03077BF1000B7A
:104C600024BF624639464EEB0E0E51EA020718BFCA
:104C700046F0010616EB0E7655F1000254F10001E4
:104C800003D5BDE88901BDE80088BDE88901BDE81C
:104C90000048B619524141EB0101A3F101037047ED
:104CA00080807F7E7D7C7B7A797877767675747369
:104CB000727171706F6E6E6D6C6C6B6A6A69686828
:104CC000676666656464636362616160605F5F5EBE
:104CD0005E5D5D5C5C5B5B5A5A5959585857575634
:104CE0005655555554545353525252515150505099
:104CF0004F4F4F4E4E4D4D4D4C4C4C4B4B4B4A4AEB
:104D00004A4949494848484747474746464645452E
:104D10004544444444434343434242424241414167
:104D20009C46002B30D477002BD04FEA37071CB5B8
:104D300003B44FF010004FF01001BAF1000F06D08D
:104D4000BCF1000FDCBF40F0080040F008014FF05C
:104D500000000FBCBDE810400BF1010BBBF1010FCF
:104D600008BF5FEA170722BF12F1010211F101012A
:104D70004FF0004143F1000300F0004043EA00001F
:104D80007047F9D35708D0E746EA06464FEA164679
:104D900013F1400F1FDD13F1200FDFBF16430A464A
:104DA000002120335B42BED0C3F1200746EA06460D
:104DB0004FEA164602FA07F746EA070622FA03F216
:104DC000C3F1200701FA07F742EA070221FA03F1CB
:104DD0004FF00003A7E746EA020646EA06464FEA16
:104DE000164646EA0106BCBF46EA0646360C4FF0B8
:104DF00000034FF000024FF0000194E72DE9804CD2
:104E000070B49A46934691E8380007C831EA400CDE
:104E100048BF34EA430C03D5FFF7E6FDFFF780FFF8
:104E2000F0BCBDE8008C2DE9804C70B49A469346E6
:104E300091E8380007C810F0804F08BF13F0804F8A
:104E400003D100F005F8FFF76BFFF0BCBDE8008C64
:104E500020F07F4723F07F4C80EA030000F0004001
:104E600007EB0C03A3F57C53A3F1FE0392F0000FB4
:104E700000F0B38095F0000F00F077802DE9014934
:104E80004FEA114021EA00484FEA144624EA064757
:104E900000FB06FC08FB06F607FB08F818EB0648C3
:104EA0004CEB164C00FB07F718EB07484CEB174090
:104EB0004FEA124B22EA0B4E4FEA154625EA064707
:104EC0000BFB06FC0EFB06F607FB0EFE1EEB064E6A
:104ED0004CEB164C0BFB07F71EEB074E4CEB174B3E
:104EE00018EB0B0840F1000018EB0E0B58EB000814
:104EF00040F100008F1A4FF000014FF000063CBF58
:104F0000C943661B14BFB5EB040C00213CBFC94369
:104F1000F61B4FEA174427EA04454FEA1C472CEAE0
:104F2000074C04FB076205FB07F70CFB05F616EBC5
:104F3000074642EB174204FB0CFC16EB0C4642EB17
:104F40001C421BEB060658EB020241414EEA8E0E54
:104F500046EA9E0601D5BDE80189B619524141EBEA
:104F60000101A3F10103BDE801894FEA144524EAD8
:104F700005464FEA114721EA074C05FB07F406FBFB
:104F800007F70CFB06F111EB074144EB174405FB57
:104F90000CFC11EB0C4144EB1C444FEA124722EA93
:104FA000074C05FB07F206FB07F70CFB06F616EBB2
:104FB000074642EB174205FB0CFC16EB0C4642EB96
:104FC0001C456A1854F1000148BF7047B619524198
:104FD00041EB0101A3F10103704795F0000F37D0B9
:104FE0004FEA114221EA02464FEA144724EA074CED
:104FF00002FB07F106FB07F70CFB06F414EB074472
:1050000041EB174102FB0CFC14EB0C4441EB1C413F
:105010004FEA154725EA074C02FB07F506FB07F7A1
:105020000CFB06F616EB074645EB174502FB0CFC9E
:1050300016EB0C4645EB1C42121951F1000148BF1A
:105040007047B619524141EB0101A3F101037047CA
:105050004FEA144524EA05464FEA114721EA074C76
:1050600005FB07F106FB07F70CFB06F212EB074204
:1050700041EB174105FB0CFC12EB0C4251EB1C41C0
:105080004FF0000648BF7047921841EB0101A3F1B1
:1050900001037047490050EAC12018BF04204A0D9F
:1050A00018BF40F0010040F2FF72B2EB515F08BF41
:1050B00040F00200012808BF0520704730380A2858
:1050C00001D201207047002070478A68002A02DC64
:1050D0000022FBF74FBE521E8A604A68C0B2531CC2
:1050E0004B6010707047000010B500290AD0087896
:1050F000002807D005487844FCF726F8002801D09E
:10510000002010BD0248784410BD00009A0600003F
:10511000920600002DE9C04130B4DFF8A4C23CEA99
:10512000111418BF3CEA131400F0ED801CEA1114AE
:1051300081EA030544EAD57418BF1CEA131500F090
:10514000C880A4EB050404F17F7404F500344FF02B
:10515000004545EAC12145EAC32341EA505143EAEB
:1051600052534FEAC0204FEAC222994208BF9042F0
:1051700000F09D804FEA13650FF24416765D4FEA0A
:10518000134506FB05F7C7F1807706FB07F74FEAE3
:10519000D737A7FB03687642A7FB06CEC8F5803851
:1051A00038BFA8F1010807FB08E6A6FB028C4FF008
:1051B000000EE6FB03CEDCF1000CCEF1004E38BF52
:1051C000AEF1010EA6FB0C584FF00007E6FB0E8770
:1051D000A1FB08C6A0FB07CE16EB0E064FF000059C
:1051E00045F10005E1FB076515F1E04E7EBFA4F532
:1051F00080345FEA46066D4116F1800745F10005EF
:105200004FEA172747EA05674FEA15254FEA066672
:10521000A6F1DE46B6F1805F20D9384605EBC471B1
:1052200024F0010C01EB0C11BCF1FE6F02D8F0BCB4
:10523000BDE8008124425CBF01F5801E9EEAC47F68
:1052400002D4F0BCBDE80081244200F13980A1F114
:10525000C041F0BCBDE8004100F02EB94FEAD020BB
:1052600040EA41504FEAD1214FEAD22242EA43526A
:105270004FEAD323A7FB028607FB036605FB026602
:105280001EEA0E0F58BFA6EB0056B6EB00564FEACB
:10529000520E4EEAC37E18EB0E0E56EB530EBCD5E3
:1052A00018EB02085E417F1C55F10005B5E74FF48D
:1052B00080154FF000074FF000064FF00008ACE7F4
:1052C00001F1C04101F000414FF00000F0BCBDE829
:1052D00000810CEA131511EA0C1F00D00CE013EA50
:1052E0000C1F00F026804FF0000081EA030101F05E
:1052F0000041F0BCBDE80081F0BCBDE8004181EA9E
:10530000030100F0D9B8F0BCBDE8004170B500F071
:1053100085F800BF097EFC3E00F007B84FF00000A2
:1053200081EA030101F00041704781EA030100F0C6
:10533000C3B8F0BCBDE8004122494FF000007047FF
:10534000FFFDFBF9F7F5F4F2F0EEEDEBE9E8E6E44A
:10535000E3E1E0DEDDDBDAD8D7D5D4D3D1D0CFCDD1
:10536000CCCBCAC8C7C6C5C4C2C1C0BFBEBDBCBB0A
:10537000BAB9B8B7B6B5B4B3B2B1B0AFAEADACAB05
:10538000AAA9A8A8A7A6A5A4A3A3A2A1A09F9F9EDF
:105390009D9C9C9B9A999998979796959594939391
:1053A000929191908F8F8E8E8D8C8C8B8B8A898928
:1053B00088888787868585848483838282818180AB
:1053C0000000FF070000F87F10F0004248BF404295
:1053D000B0FA80F310FA03F10AD0C3F11D0303F50C
:1053E000806302EB03524FEA415002EBD121704738
:1053F0004FF000007047B0FA80F310FA03F10AD0C2
:10540000C3F11D0303F580634FEA03524FEA415095
:1054100002EBD12170474FF0000070470EF1020EF1
:105420002EF0030E5EF8046B364205D4012A43EBDE
:10543000030515F5001F12D8012841EB010C1CF5DE
:10544000001F0CD80ED14FEAD17C0CEB4C0C0CF1A8
:10545000020C15F5001F08BF4CEBD37C04E04FF0A5
:10546000080C01E04FEAD37C0CEB4C0526FA05F65C
:1054700006F00706B6F1040C06D20EEB860CBDE86A
:1054800070404CF0010C6047DFE80CF0090B0202A1
:105490004FF00041A1F500214FF0000070BD19460A
:1054A0001046012851EB010418BFD4F5001484BF45
:1054B000002001F0004170BD0808A0F500114FEA7E
:1054C00031017047FBF706B93031323334353637A6
:1054D0003839414243444546403058003031323338
:1054E0003435363738396162636465664030780038
:1054F000040000080000000000000002000100009D
:105500001000000002400000000000A000000000A9
:1055100005400000000000C8000000000C40000032
:105520000000409C00000000194000000020BCBEAC
:105530000000000034400000BFC91B8E00000004C2
:10554000B5400000504BCFD06607E2CF010000000D
:105550006C4100003E8251AADFEEA734010000003A
:10556000D9420000DCB5A0E23A301F97FFFFFFFFF1
:10557000B4450000FD25A0C8E9A3C14FFFFFFFFF10
:10558000FF3F00000000008000000000FF3F00001F
:1055900000000080000000003A7474003A74740047
:1055A0003A747400010200000000000000000102D3
:1055B00003040607080900000000010203040203B7
:1055C0000405060708090A0B0C0D0E0F10100A201F
:1055D0004E6F2063616C6962726174696F6E2069DD
:1055E0007320646574656374656420212121000A59
:1055F000204D43552D4759522D414343206172653B
:10560000206E6F742063616C6962726174656420DE
:1056100079657420212121000A204D435520616EB7
:10562000642047595220617265206E6F7420636157
:105630006C6962726174656420796574202121212E
:10564000000A20556E6B6E6F776E2043414C4942C5
:10565000524154494F4E2053544154452021212159
:1056600021000A204932432077726974652045522F
:10567000524F52212121000A20493243207772697A
:105680007465204552524F5220696E207365744FE5
:105690007065726174696F6E4D6F646521212100C0
:1056A0000A4143432073656C6620746573742066F9
:1056B00061696C65642121000A4D41472073656C66
:1056C000662074657374206661696C6564212100CD
:1056D0000A4759524F2073656C66207465737420B5
:1056E0006661696C65642121000A4D43552073652C
:1056F0006C662074657374206661696C6564212131
:10570000000A49324320726561644D756C742065EE
:1057100072726F7220696E20766563746F725F714A
:1057200075617465726E696F6E2121000A204D43A8
:1057300055206973206E6F742063616C69627261B9
:10574000746564207965742E2E000A204932435F07
:10575000444D41206572726F7220696E20676574D6
:1057600043616C6962726174696F6E446174610057
:10577000B0570008000000202000000028010008A9
:10578000D057000820000020900A000044010008C3
:105790001C00000043000000F8FFFFFF0C000000A9
:1057A0000E0000000F0000002E00000000000000AE
:1057B00000000000000000000000000001000000E8
:1057C00010000000100000400024F4000000000061
:04000005080000ED02
:00000001FF
