:020000040800F2
:10000000880A00203502000869510008294E0008BE
:1000100065510008292900088956000800000000E1
:10002000000000000000000000000000195200085D
:100030008D29000800000000D95100087152000805
:100040004F0200084F0200084F0200084F0200084C
:100050004F0200084F0200084F0200084F0200083C
:100060004F0200084F0200084F0200084F0200082C
:100070002D2900083D2900084D2900085D290008A8
:100080006D2900087D2900084F0200084F02000872
:100090004F0200084F0200084F0200084F020008FC
:1000A0004F0200084F0200084F0200084F020008EC
:1000B0004F0200084F0200084F0200084F020008DC
:1000C0004F0200084F0200084F0200084F020008CC
:1000D0004F0200084F020008795600084F0200083E
:1000E0004F0200084F0200084F02000800F002F81B
:1000F00000F090F80AA090E8000C82448344AAF132
:100100000107DA4501D100F085F8AFF2090EBAE82F
:100110000F0013F0010F18BFFB1A43F0010318473B
:10012000E46A0000046B0000103A24BF78C878C16C
:10013000FAD8520724BF30C830C144BF04680C60ED
:10014000704700000023002400250026103A28BF35
:1001500078C1FBD8520728BF30C148BF0B60704739
:100160006E2900F0FB81702900F03D83662906F0BE
:10017000ED83652906F0EA83672906F0E7836129A4
:1001800006F0E68303681B0A28BF41F08001692955
:1001900000F0A881642900F0A581752900F0A281F2
:1001A0006F2900F0CB82782900F00983E92900F05B
:1001B0006582E42900F06282F52900F05F82EF2970
:1001C00000F0C882F82900F008830368DB0928BF23
:1001D00041F08001632901F07583732901F07A836E
:1001E000E32901F08583F32901F08A830020704719
:1001F0001FB502F053F804000020002106F032F889
:10020000401C60600020002106F016F8E0601FBD71
:1002100010B510BD02F014F81146FFF7E9FF05F024
:1002200095FA02F005F903B4FFF7F2FF03BC02F000
:1002300073FB00000948804709480047FEE7FEE7D6
:10024000FEE7FEE7FEE7FEE7FEE7FEE7FEE7FEE786
:1002500004480549054A064B70470000E55200086E
:10026000ED00000888040020880A0020880600208D
:10027000880600200FB41CB5084B06AA7B446946CB
:100280000090059800F083F904460020694600F0CC
:1002900091F920461CBC5DF814FB000035030000FA
:1002A0000FB400B58DB010A9099000910B904FF0DC
:1002B000FF300A9000200C900648784406900648CB
:1002C00078446A4607900F9909A800F023FD0DB005
:1002D0005DF814FB770A00008F0A000040EA010372
:1002E00070B59B072ED14FF00136042A2AD308C8D7
:1002F00010C99D1B9D43121F15EAC61517D0D8B211
:10030000E1B2401A50EA056110D198B2A1B2401A88
:1003100050EA05410AD123F07F4024F07F41401A82
:1003200050EA052102D1180EA0EB146070BDA34263
:10033000DBD018BA21BA884201D9012070BD4FF034
:10034000FF3070BD0AB9002070BD10F8013B11F8F4
:10035000014B63B1A3420AD1521E08D010F8013BF1
:1003600011F8014B1BB1A34201D1521EEDD1181B54
:1003700070BD4FF000020429C0F0128010F0030C91
:1003800000F01B80CCF1040CBCF1020F18BF00F888
:10039000012BA8BF20F8022BA1EB0C0100F00DB837
:1003A0005FEAC17C24BF00F8012B00F8012B48BF95
:1003B00000F8012B70474FF0000200B51346944639
:1003C0009646203922BFA0E80C50A0E80C50B1F1AD
:1003D0002001BFF4F7AF090728BFA0E80C5048BFC1
:1003E0000CC05DF804EB890028BF40F8042B08BF5F
:1003F000704748BF20F8022B11F0804F18BF00F85B
:10040000012B704770477047704710B500F018FE19
:10041000006810BD10B5044600F012FE046010BD67
:1004200070B5044685690068C10601D5302600E034
:100430002026C00707D070BDD4E90121304690477F
:10044000206A401C20626D1EF6D570BD70B5044652
:1004500085690078C00707D170BDD4E9012120204B
:100460009047206A401C20626D1EF6D570BD096859
:100470004A0501D540B27047C905FCD500B27047A6
:1004800009684A0501D5C0B27047C905FCD580B2DC
:10049000704770B50C460546012A05D028788006BD
:1004A00000D5EA69002302E0012305E05B1C9342CA
:1004B00002D2E05C0028F9D1A869E618C01AA86148
:1004C000286A184428622846FFF7AAFF04E0D5E905
:1004D000012114F8010B9047B442F8D32846FFF7E6
:1004E000B5FF70BD2DE9F04106460024106875295E
:1004F000314616A510D0FFF7BAFF002802DA4042B5
:1005000013A507E031688A0701D512A502E0490763
:1005100004D511A5012401E0FFF7B2FF00210A2252
:1005200006F1240709E0B0FBF2FCB0FBF2F302FB9A
:100530001C00303078541846491C0028F3D123465B
:100540002A463046BDE8F04100F0CCBD0000000076
:100550002D0000002B000000200000001168026840
:10056000006A530501D508700AE0D30501D508805B
:1005700006E0130603D5C217C1E9000200E00860D7
:100580000120704701694A1C02610878704700B574
:100590008FB0CDE901310021059105497944CDE9BC
:1005A00003101146684600F029F90FB000BD0000A5
:1005B000E5FFFFFF0A6802F8010B0A6070470000C0
:1005C0002DE9FF5F15468A460446DFF8AC80F84403
:1005D0000027D8E900103E46CDE9001010E03AF8B7
:1005E00016106A4602A801F002FE411C07D02178CD
:1005F000890603D5E269391891420DD80744761C63
:100600002078800602D5E069B84205DDAE42E6DB1F
:100610003AF816000028E2D1A069C01BA06120466C
:10062000FFF7FEFED8E90010CDE90010002017E02A
:100630003AF818106A4602A801F0D9FDB0F1FF3F60
:1006400081460BD000250DF1080B05E0D4E901210E
:100650001BF8050090476D1C4D45F7D308F10100CC
:10066000B0428046E4DB206A384420622046FFF72F
:10067000EDFEBDE8FF9F00007E6400002DE9F04123
:100680008046D21D22F007020025D2E90002F5299A
:1006900015A614D0011E72F1000106DA0023D0EB7A
:1006A000030063EB020211A608E0D8F800108B07E4
:1006B00001D50FA602E0490701D50EA60125114676
:1006C000002408F1240704E000F0BEFC30323A5563
:1006D000641C50EA0102F7D12B46324621464046BF
:1006E000BDE8F04100F0FEBC000000002D0000005D
:1006F0002B0000002000000030B4002100F1240491
:1007000008E002F00705D208303542EA4372DB0800
:100710006554491C52EA0305F3D10468002310A272
:10072000250708D504F020040C4304D0C469012334
:100730000CA2641EC46130BC00F0D4BC10B50446E9
:1007400021461068FFF79CFE02462046BDE8104097
:100750000023D1E7D21D22F00701D1E90023CBE726
:100760000000000030000000F0B40D4601880905CB
:1007700002D5214C7C4402E01F4C7C440E34002105
:1007800000F1240608E002F00F071209E75D42EAD3
:1007900003721B097754491C52EA0307F3D102780C
:1007A0000023120704D5702D06D009B1022311349D
:1007B0002246F0BC00F096BC01231034F8E770B577
:1007C00004460D4621461068FFF75AFE02462946A8
:1007D0002046BDE870400023C6E7D21D22F0070383
:1007E000D3E90023C0E70368126843F020030360E5
:1007F0000823C3610023B7E7E06200002DE9F05F42
:10080000894604464FF0000ADFF874B1FB44C0F893
:1008100020A02046E1688847002874D0252806D00B
:10082000D4E901219047206A401C2062F1E70026AC
:100830005F462046E16888472028054607DB312DC2
:1008400005D2781910F8200C08B10643F1E7B0077B
:1008500001D526F00406C4F81CA00027C4F818A08F
:100860002A2D09D0284605F07AFC38B304EB870816
:10087000303DC8F8185019E059F8041B204604EB25
:1008800087029161E1688847012F054618D1E06928
:10089000002820DA26F020061DE0D8F8180000EB2A
:1008A000800005EB40003038C8F818002046E168A9
:1008B0008847054605F053FC0028EED1012F0AD0E9
:1008C0002E2D08D12046E16888477F1C0546022F5F
:1008D00046F02006C4DBA069002803DA404246F057
:1008E0000106A061F00701D026F010066C2D0BD098
:1008F000682D09D04C2D39D06A2D35D0742D35D0C6
:100900007A2D33D016E038E0E1682F46204688473C
:10091000B842054609D16C2F26D04FF48060E168BB
:10092000064320468847054604E06C2F1AD04FF452
:10093000807006430DB3A5F14100192802D8203577
:1009400046F400664A462946204626604E46FFF792
:1009500007FC80B101280BD0F61D26F0070000F13E
:10096000080956E74020E4E78020D8E70020D6E7D2
:1009700006F104094DE7284652E7206ABDE8F09FDA
:10098000706200002DE9FF4F1C4691464FF0FF3585
:1009900081B000218A468846D4E90167A16902989E
:1009A0006D1C8847216A834688470028F6D1BBF131
:1009B000FF3F0CD0002F26F4C0661ADD700615D557
:1009C000BBF12B0F0AD0BBF12D0F0FD104E04FF07C
:1009D000FF3005B0BDE8F08F46F48066A16902984B
:1009E0006D1C88477F1E8346002F02DDBBF1300F50
:1009F00003D0B9F1000F2AD025E0A1696D1C02983F
:100A00007F1E46F400768847002F834605DDBBF144
:100A1000780F06D0BBF1580F03D0B9F1000F10D0FA
:100A200011E0B9F1000F02D0B9F1100F0BD1A1699B
:100A30006D1C02987F1E26F400768847834610209E
:100A400000E0082081464FEAE970009017E00A2094
:100A5000F8E74346AAFB0928DDF800C07F1E03FB28
:100A6000098046F4007605F101050AFB0C0112EB42
:100A70000B0A029841EBEB78A16988478346002F67
:100A800006DD4946584600F03FFF5FEA000BE0D51F
:100A9000E16902988847B00502D46FF0010098E739
:100AA000F00718D1700610D55146700505D5002302
:100AB000D1EB030163EB080200E042462068031D0E
:100AC00023600068C0E9001205E02068011D216074
:100AD0000068C0E900A828467BE72DE9FF5F1D46B6
:100AE0004FF0FF3B91464FF000085F46D5E90146C5
:100AF000A96901987F1C8847296A8246884700288F
:100B0000F6D1BAF1FF3F0CD0002E24F4C06419DDF9
:100B1000600614D5BAF12B0F09D0BAF12D0F0ED102
:100B200003E0584604B0BDE8F09F44F48064A9692E
:100B300001987F1C8847761E8246002E02DDBAF19E
:100B4000300F03D0B9F1000F26D032E0A969761E2C
:100B500001987F1C44F400748847002E824605DD0E
:100B6000BAF1780F06D0BAF1580F03D0B9F1000FDF
:100B700010D01EE0B9F1000F02D0B9F1100F18D15A
:100B8000A969761E01987F1C24F400748847824668
:100B9000102002E0082000E00A20814609E0A9694F
:100BA00008FB0908761E01987F1C44F400748847EE
:100BB0008246002E05DD4946504600F0A5FE00287D
:100BC000EDDAE96901988847A00502D46FF00100C9
:100BD000A8E7E00725D1600613D5600502D5C8F166
:100BE000000000E0404629680A1D2A6009682205C5
:100BF00001D5087015E0220701D5088011E00860D2
:100C00000FE02868011D29600068210502D580F8E1
:100C1000008006E0210702D5A0F8008001E0C0F8BE
:100C2000008038467EE72DE9FF5F4FF000089946C7
:100C3000144646469169D2E901A7DDF838B001981B
:100C40008847054659EA0B0005D009E0A1690198DB
:100C5000761C88470546216A284688470028F5D132
:100C6000681C03D05FEACA7005D015E04FF0FF3072
:100C700004B0BDE8F09F2068011D2160D0F800801D
:100C80000AE05FEACA7001D108F8015BA169761C2D
:100C900001987F1E88470546002F1ADD681C18D072
:100CA000B9F1000F0DD0E81705EBD060421120F02C
:100CB0001F0059F822102A1A012090400142E0D169
:100CC00007E0BBF1000FDCD12846216A88470028E5
:100CD000D7D0E16901988847BBF1000F07D1002EFA
:100CE00005DD5FEACA7002D1002188F80010A06813
:100CF000B84203DDBBF1000F03D017B16FF0010064
:100D0000B6E73046B4E7000002681144137801608A
:100D100018467047D16005497944516104497944C6
:100D2000116200211161114600F0FCBDEDFFFFFFD3
:100D3000B1030000426842B1016811F8013B23B1E0
:100D4000521EC0E90012184670470121C160881E7A
:100D5000704742685AB1C368016843B983688B42DF
:100D600005D0491E521CC0E90012002070474FF008
:100D7000FF3070472DE9FF4F4FF000089A461446A8
:100D8000C146464683B0D2E901B7CDF80080CDF820
:100D90000480916904988847109905465AEA010031
:100DA00005D009E0A1690498761C88470546216AA8
:100DB000284688470028F5D1681C03D05FEACB702D
:100DC00005D02AE04FF0FF3007B0BDE8F08F206873
:100DD000011D2160D0F800801FE002A86A46E9B238
:100DE00001F0E5F9411C07D0801C09D04FF0000943
:100DF0005FEACB7007D00AE0E169049888473EE0DB
:100E00004FF0010904E0BDF8081028F8021B7F1E0E
:100E1000A1690498761C88470546002F1ADD681CD6
:100E200018D0BAF1000F0DD0E81705EBD0604211D1
:100E300020F01F005AF822102A1A01209040014287
:100E4000CBD107E010980028C7D12846216A8847EF
:100E50000028C2D0E16904988847B9F1000F0ED18B
:100E6000109830B9002E04DD5FEACB7001D1A8F8EC
:100E70000000A068B84202DD109818B117B16FF0F9
:100E80000100A1E730469FE72DE9FF4F4FF0000832
:100E90009B461446454683B0D2E90196CDF80080C2
:100EA000CDF804809169DDF848A00498884707468A
:100EB0005BEA0A0005D009E0A16904986D1C884727
:100EC0000746216A384688470028F5D1781C03D0A8
:100ED0005FEAC97005D01BE04FF0FF3007B0BDE8F6
:100EE000F08F2068011D2160D0F8008010E05FEADB
:100EF000C97007D16A464046B9B201F078F9411C81
:100F000031D08044A1696D1C0498761E884707463D
:100F1000002E14DD781C12D0BBF1000007D03B4638
:100F2000DDE9101201F034F90028E0D107E0BAF150
:100F3000000FDCD13846216A88470028D7D0E16904
:100F400004988847BAF1000F06D1002D04DD5FEA4E
:100F5000C97001D188F80000A068B04203DDBAF181
:100F6000000F03D016B16FF00100B7E72846B5E7D0
:100F70002DE9FF5F9B46144600273D469169D2E963
:100F80000196DDF840A00198884780465BEA0A0098
:100F900005D009E0A16901986D1C88478046216A47
:100FA000404688470028F5D1B8F1FF3F03D05FEAFB
:100FB000C97005D014E04FF0FF3004B0BDE8F09FD9
:100FC0002068011D216007680AE05FEAC97001D14D
:100FD00027F8028BA1696D1C0198761E8847804610
:100FE000002E15DDB8F1FF3F12D0BBF1000007D095
:100FF0004346DDE90E1201F0CBF80028E5D107E009
:10100000BAF1000FE1D14046216A88470028DCD0C0
:10101000E16901988847BAF1000F05D1002D03DD81
:101020005FEAC97000D13880A068B04203DDBAF130
:10103000000F03D016B16FF00100BEE72846BCE7F1
:10104000004870471000002030B5B0F10A0271F17D
:1010500000034FEA900E4EEA817EB0EB0E0061EB8A
:1010600091014FEA101E4EEA017E10EB0E0041EB9B
:1010700011114FEA102E4EEA016E10EB0E0041EBFB
:1010800011214FEA104E4EEA014E10EB0E0041EBDB
:101090001141401841F100014FEAD00040EA41708F
:1010A0004FEAD1014FEA810444EA907410EB8005C5
:1010B00044EB01046D1944EB0404521BA3414FF0AF
:1010C000000348BF0A3200D530BD401C41F1000189
:1010D00030BD10B5044601F0D9F80068005D00F09D
:1010E000010010BD2DE9F0470D4699469246044691
:1010F00000F124080168880604D5E06921F0100198
:10110000216000E00120A84201DD471B00E000272C
:10111000A1697A1902EB0900081AA0612078C006BB
:1011200002D42046FFF77CF9002608E0D4E901212B
:101130001AF806009047206A401C761C20624E4533
:10114000F4DB2078C0060AD52046FFF769F906E0EF
:10115000D4E9012130209047206A401C2062381ECB
:10116000A7F10107F4DC07E0D4E9012118F8050034
:101170009047206A401C2062281EA5F10105F3DC7F
:101180002046FFF763F92078000602D50220BDE86B
:10119000F0870120FBE72DE9FF4F0C461E464FF07C
:1011A000FF378BB0D2E90001DDF860800A908A46F3
:1011B000C1F30A5505B93D46002108464FF000002D
:1011C000BAF1000F00F4400005DA00EB80004FF4A4
:1011D000400101EA50004FEA9059B9F1010F00DDDA
:1011E000B9460A9850EA4A000ED044F61050A5F2CB
:1011F000FF3545432F14B8F1000F1ED07542291E4C
:101200001EDDC9F100021CE0B8F1010F4FF0000033
:1012100001D0302103E0F24305E02154401CB042EC
:10122000FBDB30460022002121540B99C1F80880D5
:10123000C1E900200FB0BDE8F08FBD1B6D1CDEE7DB
:101240004A4600DA694206A801F080F806AB93E846
:10125000070003AB83E8070050460A9904F0B5FA8B
:101260008DE80700A0F500501F3800900398002D6E
:101270000ADD42F21F014A460844002303A90390F5
:10128000684604F061FD09E0A0F500504A461F38A9
:10129000002303A90390684604F080FD8DE8070051
:1012A0000004000C03D04FF0FF30410800E010466E
:1012B000B8F1000F03D00022009215461EE0751E03
:1012C00005D4FFF7C1FE303262556D1EF9D5B34625
:1012D0000122084302D000227F1C04E0207830283D
:1012E00001D100227F1E002A099784D01DE0112D14
:1012F00007DAFFF7A9FE303262556D1C50EA010291
:10130000F5D1084302D00098C8B10EE00021681E54
:1013100005E0235C625C63542254401E491C8142F8
:10132000F7DBAB46A81B401E0990002004F80B0019
:101330000B98099AC0F80880C0E9002B7AE71126BB
:101340004FF0000857E72DE9F04F88460446D21DBC
:1013500022F0070191B0D1E90001CDE90A0104F0C2
:1013600069FE02460B98C00F01D02D2007E02068CF
:10137000810701D52B2002E0202101EAC000032AC9
:10138000099001D0072A05DB03464146204600F0BC
:101390009DFF0BE12078800601D5E06900E0062082
:1013A000B8F1650F814606D0B8F1660F18D0B8F1D4
:1013B000670F70D131E00020B9F1110F009001DB0F
:1013C000112301E009F101030AAA01A90CA8FFF702
:1013D000E2FEDDE90C70002609F10105834647E0D5
:1013E00001204B4600904FF000470AAA01A90CA823
:1013F000FFF7D1FEDDE90DB00C995D46002610B96E
:1014000009F101000D18B9EB050003D4C0F1FF3656
:1014100009F10105A5EB09002BE0B9F1010F01DA93
:101420004FF001090020B9F1110F0090484601DD8D
:10143000112300E003460AAA01A90CA8FFF7ABFE9E
:10144000DDE90C704D4600268346207800070AD45B
:10145000AB4500DA5D4601A8012D04DD411911F804
:10146000011C302907D04F4502DA17F1040F04DAC6
:10147000012082460FE06D1EEEE7002F02DCED1B1F
:101480003E4403E0781CA84200DD7D1CB81B00F13F
:10149000010A4FF000472078000703D4AA4501DB7A
:1014A0004FF0FF3A0021B7F1004F0DF143088DF8DE
:1014B000431024D002202B23002F01DA7F422D235A
:1014C0000A21021EA0F1010000DC5FB197FBF1FCD4
:1014D00097FBF1F201FB1C7C17460CF1300C08F86D
:1014E00001CDEEE7A8F1010003702188090501D5BF
:1014F000452100E06521A0F1010800F8011C0998D0
:101500000FA9A1EB0807FF1D00B10120411901EB54
:10151000EA70A1693844081A401EA0612078C0060C
:1015200002D42046FEF77CFF099828B1D4E90121B6
:101530009047206A401C20622078C00622D52046B1
:10154000FEF76EFF1EE0002E04DBB34502DD01A8AE
:10155000805D00E03020D4E901219047206A401CE2
:101560002062761CAAF101005FEA000A0AD100F0AD
:1015700095FEC0680168405CD4E901219047206A6B
:10158000401C2062281EA5F10105DCDC07E0D4E93F
:10159000012118F8010B9047206A401C2062381E78
:1015A000A7F10107F3DC2046FEF750FF032011B03E
:1015B00041E600002DE9F04F04460D46D21D22F011
:1015C000070089B0D0E900974846394604F032FD5B
:1015D0000246F80F01D02D2307E02068810701D5CE
:1015E0002B2302E0202101EAC0038DF820300BB14B
:1015F000012000E00020032A824601D0072A04DBF4
:101600002946204600F062FE3FE12078800601D4A2
:101610000D2500E0E569C7F30A560D2D49DA0021D2
:101620004FEA175B08464FF00000002F00F440001F
:1016300007DA00EB80004FF4400100EBD07001EAC4
:1016400060008115012901DD4FF0FF3100224FEAD2
:10165000850CBCF1180F06D31346ACF118004FF0FF
:101660008052C24003E04FF4801323FA0CF30CF1D4
:101670000C0CBCF1200F04D3ACF1200C09FA0CF0D7
:1016800001E007FA0CF000294FF0004801DD18B91D
:101690000FE00ED140450CD319EB02095F4121B98F
:1016A000404502D19F4329EA0209BBEB175F00D0F6
:1016B000761C2088000502D57B48784402E07A48F1
:1016C0007844193808AA302302F80A30037C0AF15A
:1016D0000101002E0AF1020A53546A4602DC4FF05F
:1016E000300101E04FF031014FF001088DF800109A
:1016F00002D0A6F2FF3603E059EA470100D06B4E54
:10170000002D02DC2178090704D54FF002082E21B4
:101710008DF80110C44600210BE0C7F303433F01DD
:10172000C35C491C6D1E02F80830052908F1010848
:1017300001DA002DF1DC00210CE000EB1973491CEB
:101740001B786D1E082902F808304FEA091908F1C4
:10175000010801DA002DF0DC21688B0602D516E0C5
:10176000A8F10108E04505DD02EB080313F8013C90
:10177000302BF5D0B8F1000F09DD02EB080313F8A8
:10178000013C2E2B03D1090701D4A8F10108002D3B
:1017900005DD3E2102F808106D1E08F10108407CAD
:1017A000002E02F8080008F1010804DA2D20764224
:1017B00002F8080002E02B2002F808000A214FF48A
:1017C0007A70864208F101080BDB96FBF0F33033A8
:1017D00002F8083096FBF0F308F1010800FB1366ED
:1017E00001E0642E0CDB642096FBF0F3303302F84A
:1017F000083096FBF0F308F1010800FB136601E0E6
:101800000A2E06DB96FBF1F0303002F8080008F1F2
:10181000010896FBF1F001FB1060303002F808007F
:10182000A16908F1010808EB050202EB0A00081A99
:10183000A0612078C00602D42046FEF7F1FD216A9F
:1018400008AE01EB0A00206204E0D4E9012116F899
:10185000010B9047BAF1010AF7D22078C00602D5F1
:101860002046FEF7DDFD6E4609E016F8010B3E2826
:101870000FD0D4E901219047206A401C2062B8F1C2
:101880000108F2D22046FEF7E1FD09B00320BDE8D1
:10189000F08F206A2844206203E0D4E9012130203F
:1018A00090476D1EEBD3F8E7E653000002FCFFFF04
:1018B00010B5436913B1AFF3008001E0FEF7E9FD15
:1018C000012010BD127800F124010A7000224A7034
:1018D0000122EDE711684FF0FF32E9E710B54369E7
:1018E00013B1AFF3008001E0FEF76AFE012010BDE6
:1018F000128800F1240182840022C2840122EDE7D3
:1019000011684FF0FF32E9E73A2800D2303820F072
:101910002002412A01D3A2F13700884201D34FF0BF
:10192000FF3070472DE9F34F4FF0000A0C46564642
:101930008DB001200C9001F10C000B9062690B98A6
:1019400001219047051E2DD0252D2CD0216A8847D6
:10195000C0B162690B9801219047216A884700282D
:10196000F7D16269411E0B98904700E0761CA1698F
:101970000D988847216A88470028F7D1E1690D98BA
:101980008847DBE7A1690D988847A842074601D13F
:10199000761CD3E7E1690D9888477F1C02D1BAF124
:1019A000000F6FD06BE162690B9800273D46394606
:1019B00090472A2804D162690B980121904701259C
:1019C000DFF8D08262690B9801219047A0F13001C5
:1019D0000A290AD24745E5DC07EB870100EB4107FE
:1019E000303FDFD445F01005ECE7E90601D46FF095
:1019F00000476C280AD04C2814D0682815D06A28D3
:101A00000DD074281CD07A281AD01DE062690B987A
:101A1000012190476C2802D045F0040514E045F000
:101A200002050DE045F020050AE062690B980121EE
:101A30009047682802D045F0080505E045F40065A8
:101A400062690B9801219047C4E9015765283DD090
:101A500019DC58287AD00CDC452837D004DC25283E
:101A600026D041289ED131E046282FD0472899D151
:101A70002CE05B2877D0612828D063287CD06428AC
:101A800023D15AE0F6E06F2848D008DC66281DD044
:101A900067281BD0692821D06E2816D127E070282E
:101AA00045D0732868D0752847D078280DD14DE0EF
:101AB000A1690D988847252805463FF469AFE1697B
:101AC0000D9888476D1C3FF46AAFD8E00D99234606
:101AD0006A466FF0010004F09DFFC5E045F040004C
:101AE00023464FF000026060A80736D43EE0E807C6
:101AF0007FF447AF2068011D21600068290501D5EA
:101B000006701BE7290701D5068017E7A90703D54B
:101B1000F117C0E9006111E706600FE745F04000EA
:101B200023464FF008026060A80716D41EE040F676
:101B30000E0125EA0100606016E045F040002346F2
:101B40004FF00A026060A80707D40FE045F040009C
:101B50006060A80708D5234610220D996FF0010098
:101B6000FEF710FF80E007E0102223460D996FF08A
:101B70000100FEF7B2FF77E04FF0000963284F46FF
:101B8000C8464B46CB4602D05B2806D038E0E80674
:101B900001D40120A060012732E06269D4F80CB0C2
:101BA0000B98012190475E2807D14FF00109494663
:101BB0006269D4F80CB00B989047216939B90021BB
:101BC0000A4603AB43F82120491C0829FADBD8B3A5
:101BD000216949B308F1010862690B980121904716
:101BE0005D28F4D1B9F1000F09D0002003A951F804
:101BF0002020D24341F82020401C0828F7DB03AB0B
:101C00002069002820794FEA40701ED05B462246AA
:101C1000CDF80080CDE901970D9900286FF0010003
:101C200020DAFFF7A5F91FE0C11703AA00EBD16185
:101C30004B1121F01F0102EB8302411A13680120AE
:101C4000884003431360C7E719E00D992246002836
:101C50006FF00100009702DAFFF78CF804E0FEF75E
:101C6000E2FF01E0FFF710F900280ADA401C06D174
:101C70000C9820B14FF0FF300FB0BDE8F08F504608
:101C8000FAE7E90701D10AF1010A064400200C90A5
:101C900054E60000CCCCCC0C2DE9FF4F06468BB0AF
:101CA0000878FF2806D0491C2D2805D000244FF0C5
:101CB000000908E000200CE00124F8E709EB8903A3
:101CC000491C00EB43090878FF28F7D114B1C9F18A
:101CD00000008146107800252C46AA4629462D286A
:101CE00001D02B2804D1521C2D2813D0002082466D
:101CF0008B461078FF280FD04FF0000C0A21521CA1
:101D0000A5FB017804FB018105FB0C11C5194BEB08
:101D10000104EEE70120EAE7002108464FF0000049
:101D2000BAF1000F02D000EB80004008C0F38157E9
:101D3000012F01DD4FF0FF370E9955EA040009EB42
:101D400001080BD04FF0020918F5FA7F16DA4FEAB6
:101D5000CA70002F706008DD012007E04FEACA70EA
:101D6000C6E900B00FB0BDE8F08F00203060FFF78B
:101D700067F9C0F800901821084616E0B8F5FA7F18
:101D800018DD002F02DAF748784401E0F64878447D
:101D9000D0E90010C6E9001040EACA707060FFF791
:101DA0004FF9C0F80090142108460FB0BDE8F04F7D
:101DB00004F0C9BD002108464FF00000B8F1000151
:101DC000099002DAC7F1000200E03A4601DAC8F1F0
:101DD000000106A800F0BAFA06AB93E8070003ABCF
:101DE00083E8070044F23E005BEA04010090584695
:101DF00004D144F21E012C465D460091210C0904D9
:101E0000014306D10099240444EA15442D041039F5
:101E1000009104F07F41014306D10099240244EA75
:101E200015642D020839009104F07041014306D178
:101E30000099240144EA15742D01091F009104F052
:101E40004041014306D10099A40044EA9574AD00D5
:101E5000891E009104F00041084304D100986D19D7
:101E60006441401E00904FF001033A466846B8F1C5
:101E7000000FCDE9014503A902DD03F0A4FF01E055
:101E800003F077FFBAF1000F04460D4601D084F04D
:101E90000044002108464FF00000099940F2FF7706
:101EA000484010F00C0F07D124F00040284303D025
:101EB000C4F30A50B84212D1FFF7C2F8C0F800903C
:101EC000C4F30A50B8420AD1A8487844D0E90010B7
:101ED000C6E9001004F000410843706042E7C6E91B
:101EE00000543FE72DE9FF4F1F464FF0000A4FF027
:101EF000FF38454691B0D7E90146CDF83CA000F047
:101F0000CDF9C0680168405C1090B96912986D1CE9
:101F10008847396A814688470028F6D1B9F1FF3FE2
:101F20000AD0002E24F4D06411DDB9F12B0F08D0B3
:101F3000B9F12D0F0BD102E0404615B013E744F480
:101F40008064B96912986D1C8847761E81466005C9
:101F500004A901D52D2000E02B20002E01F1010B5A
:101F60000DF130088DF810003FDDB9F1690F08D090
:101F7000B9F1490F05D0B9F16E0F02D0B9F14E0F8A
:101F80001CD13B4601A8009580E85002DDE9121201
:101F90006FF0020004F042FDC11CCED10EE0B96921
:101FA00012986D1C884781461398761E44F400747D
:101FB00005600F98401C002E0F9016DDB9F1300F10
:101FC000EDD0B9F1780F02D0B9F1580F0DD10F98BB
:101FD00001280AD13B46CDE90054DDE91212001F69
:101FE000029604F019FDC11CA7D1109989453ED174
:101FF00044F0800406E01399681CAAF1010A44F435
:1020000000740860B9696D1C1298761E88473028E4
:102010008146F0D02BE01099894505D1200603D4E4
:10202000761E44F0800418E0484604F098F808B39F
:10203000761E0DF123029345A9F1300044F400749B
:1020400006D20BF8010B200607D5AAF1010003E028
:10205000200602D40AF101008246A00502D5139998
:10206000681C0860B96912986D1C88478146002E6B
:10207000D1DC53E0002E51DDB9F1650F02D0B9F18A
:10208000450F4BD1A00549D5B9696D1C1298761E34
:1020900024F440748847002E81460CDD2B2804D0A0
:1020A000B9F12D0F07D144F48074B96912986D1CF1
:1020B0008847761E8146E00501D52D2100E02B21C1
:1020C00008F8011BCDF8008021E0761E0DF13901E2
:1020D000884544F400740CD2A9F1300010F0FF00E0
:1020E00088F8000002D10099884509D908F1010853
:1020F00006E0E00501D51E4801E042F20F7082467D
:10210000B96912986D1C8847814613980560002EA6
:1021100004DD484604F023F80028D6D1F969129866
:102120008847FF2053468BF8000088F80000002005
:102130000A900B9004AA0CA90AA8FFF7ADFDA00510
:1021400002D46FF00100F8E614F0240F12D0E0077B
:102150001CD13868DDE90A12031D3B600068C0E944
:10216000001213E0A04E0000924E0000564D0000F9
:10217000F1D8FFFF0AA9684603F080FFE00705D108
:102180003868009A011D3960006802602846D4E66C
:1021900010B508E030F8024B9C4204D10AB100208F
:1021A00010BD012010BD491EF4D2104610BDF8B577
:1021B00016460C46054600F069F8036893F80101DD
:1021C000012804D0185D78B101202C80F8BDD3F827
:1021D00003013246214603F20313C7186846002361
:1021E000B84700992980F8BD4FF0FF30F8BD2DE9C0
:1021F000F04116460C46054600F048F8036893F88F
:102200000101012807D0FF2C12D8185D80B10120F0
:102210002C70BDE8F081D3F807013246214603F265
:102220000713C7182846BC46BDE8F04100236047A5
:102230004FF0FF30EDE7000000487047100000202D
:102240007546FFF7F9FFAE4605006946534620F094
:102250000700854618B020B5FDF7FAFFBDE820401D
:102260004FF000064FF000074FF000084FF0000B52
:10227000AC46ACE8C009ACE8C009ACE8C009ACE8C1
:10228000C00921F007018D467047000010B500F02D
:1022900005F8001D10BD00BFCD3F0000004870478D
:1022A00030000020B2F120030AD5C2F1200301FA68
:1022B00002F120FA03F341EA030100FA02F0704749
:1022C00000FA03F14FF00000704700002DE9F041E3
:1022D0001F46044603260168072A01F4006004DB58
:1022E00008B116A505E016A503E008B115A500E0A4
:1022F00015A521F010002060A069C01EA0610FB1DB
:10230000401EA0612046FEF78BF84FB1D4E90121B1
:1023100038469047206A401C2062C01C206206E0BC
:10232000206AFAE7D4E9012115F8010B9047761EDF
:10233000F8D22046FEF78AF8BDE8F0814E414E0003
:102340006E616E00494E4600696E66002DE9F047E9
:10235000814616468AB0354878440DC88DE80D0090
:1023600032487844801C03AC0DC884E80D0041F667
:102370009B300844372190FBF1F290FBF1F5A5F179
:10238000800501FB12041B3C02D56442012000E0E1
:102390000020DFF898A080460027FA44AAF1BE0A80
:1023A0000EE0E0070AD03246684607EB47010123FA
:1023B0000AEB810103F0F2FC8DE8070064107F1C3A
:1023C000002CEED1194F7F44AE3F19E0E80715D03D
:1023D00007EB04100DF1180A90E80E008AE80E00D1
:1023E000C068F04201D1981908903246012306A92D
:1023F00003A803F0D3FC03AB83E807006D10641C53
:10240000002DE3D14FF0010332466946B8F1000FC9
:1024100003A802D003F098FC01E003F0BFFCC9E977
:102420000001C9F808200AB0BDE8F087D8470000CD
:1024300010B50446AFF300802046BDE81040FDF71C
:10244000F2BE00002DE9FF4F1F464FF03C0987B058
:102450004FF00042DDE9141001F10108DDF858A049
:1024600002EA40500390002005908346054604464A
:102470000490B969461E08988847AAF1010A02909B
:10248000BAF1000F3BDD02982E2815D01021FFF77E
:102490003BFA00282EDB4FF0010B0599014317D0C2
:1024A000B9F1000F0BDB4A46C117FFF7FBFE0543EE
:1024B0000C43A9F1040905E0012004900BE008B1E8
:1024C00045F0010501200590049820B9361D02E071
:1024D000049800B1361FB969089808F101088847C7
:1024E000BBF1000FAAF1010A0290C9D00999C1F805
:1024F0000080C5E70298702808D0502806D0F969F6
:1025000008988847BBF1000F14D04FE000200290DC
:102510000120BBF1000F049009D0B969089808F1B7
:1025200001088847AAF10109B9F1000F07DCF96930
:10253000089888476FF001000BB0BDE8F08F2B289A
:1025400004D02D280CD14FF0FF300490B9690898C1
:1025500008F101088847A9F10109B9F1000FE6DD8A
:10256000411CE4D00A21FFF7CFF90028DFDB0299F4
:1025700008F1010801EB810100EB41000290B9690B
:10258000089888470A21FFF7BFF9099AA9F10109BC
:10259000B9F1000FC2F8008001DD0028E7DAF9691F
:1025A000089888470499029800FB016655EA0400E0
:1025B00004D004F04041090002D006E0039898E0FE
:1025C000A40044EA9574AD00B61E04F00041080072
:1025D00002D16D196441761E159810F0240F03D0B6
:1025E0004FF00B095C4803E04FF028096FF07D00C5
:1025F0008246564507DAAAEB06018944B9F1410F34
:1026000001DD4FF0410901200021A9F10102FFF78E
:1026100049FE024628400B462140084301D00121D3
:1026200000E00021501E029143F1FF31284021407B
:10263000084301D0012000E000200299834651EABE
:102640000B014FD0002108464FF00000039900F421
:10265000400039B100EB80004FF4400100EBD07036
:1026600001EA60008015012802DD4FF0FF3000E034
:1026700013D0401C36D0029860B3BBF1000F0CD1D0
:102680004A4601200021FFF70DFE28402140084363
:1026900001D0012000E00020E0B101204A460021E5
:1026A000FFF700FE034640190A4661412D1A8C418E
:1026B00011D3B9F1400F09DD159810F0240F02D0A5
:1026C000AAF1340603E0AAF1170600E0761C002503
:1026D0004FF0004406E05B1E42F1FF3220EA0305A2
:1026E00021EA0204CAF10100B04206DA1B4903984C
:1026F00008430190002000900EE0039AC4F3D32118
:10270000E80A0A43164940EA44500A433146CDE9F3
:102710000002684603F018FD159810F0240F0BD046
:102720001598C00715D13868DDE90012031D3B601C
:102730000068C0E900120CE002A8694603F09EFCA4
:102740001598C00705D13868029A011D39600068E4
:1027500002604046F0E6000002FCFFFF0000F07F50
:102760000000F03F2DE9FF4F92461D4685B04FF027
:102770000041DDE9124BDDE914727F1E01EA4B5086
:10278000414940F0FF4940EA0108002122F02000C1
:102790004928049102D04E2828D04CE03BA00126C5
:1027A00007C88DE80700A9690698641C88477F1E42
:1027B000014606D41DF8060018B121F0200181421F
:1027C0000BD0E96906988847032E34D0082E32D002
:1027D0006FF0010009B0BDE8F08F761C032E01D028
:1027E000082EE0D1601CCAF80000DCE7A969069851
:1027F000641C88477F1E2AD420F02000412826D15F
:10280000A9690698641C88477F1E20D420F0200008
:102810004E281CD1A9690698641C88477F1E48F47D
:10282000002849F48009CAF8004001D4282806D0BD
:10283000E969069888475FEACB7012D022E0A9695F
:102840000698641C88477F1E01D4002803DAE969D2
:1028500006988847BCE72928F1D1641CCAF80040D3
:10286000E9E71BF0240F07D028680499031D2B60AB
:102870000068C0E9001805E02868021D2A600068A9
:10288000C0F800902046A5E70000F07F494E464979
:102890004E495459000000004FF0013C50F8042B01
:1028A00051F8043B9A4221D1A2EB0C03934313EA63
:1028B000CC1317D150F8042B51F8043B9A4215D190
:1028C000A2EB0C03934313EACC130BD150F8042B67
:1028D00051F8043B9A4209D1A2EB0C03934313EA4B
:1028E000CC13DBD04FF00000704700BFD01A01BA04
:1028F000B1FA81F101F0180122FA01F0CB40DBB20C
:10290000C0B2C01AC1F120012CFA01F3D11A9143CF
:1029100011EAC311E6D1704701491820ABBEFEE7AA
:102920002600020070470000FFE7FEE780B540F296
:102930005C10C2F2000000F009FB80BD80B540F2DF
:10294000A010C2F2000000F001FB80BD80B540F293
:102950002820C2F2000000F0F9FA80BD80B540F2F4
:10296000E410C2F2000000F0F1FA80BD80B540F240
:102970001810C2F2000000F0E9FA80BD80B540F204
:10298000D400C2F2000000F0E1FA80BD7047000000
:1029900081B0EFF3108072B60090FFE7FEE7000011
:1029A00080B540F2B030C2F2000040F28041C2F285
:1029B0000001012202F0E8F980BD000080B540F27C
:1029C0008040C2F2000000780A281BD0FFE740F2E6
:1029D0008140C2F2000090F90000002812D4FFE705
:1029E00040F28040C2F20000007840F28143C2F21F
:1029F00000031A78511C197040F20041C2F2000124
:102A000088541CE040F20040C2F2000000F056F989
:102A100038B1FFE740F20040C2F2000000F058F881
:102A2000FFE740F28141C2F200010020087040F24D
:102A30000040C2F200008021FDF79BFCFFE740F25E
:102A4000B030C2F2000040F28041C2F20001012227
:102A500002F09AF980BD000080B588B007908DF82B
:102A60001B1007980021C4F2C82103F0B5FD03F044
:102A700075FE05900798019005986421484303F07E
:102A800089FE0146019803F0E9FE049004980021B4
:102A9000C4F2702103F0A0FD0390059803F07AFEC4
:102AA000039903F037FD02909DF81B00532805D0D1
:102AB000FFE79DF81B00572807D1FFE702994FF069
:102AC000004003F0CBFE0290FFE7029808B080BD03
:102AD00080B58EB00D900D9846F66431C0F60001B9
:102AE0000622FDF7FBFB002854D1FFE70D9840F2CA
:102AF0007001C2F200010B9101F12C026B460C93A4
:102B0000DA6101F128029A6101F124025A6101F1AE
:102B100020021A6101F11C02DA6001F119029A60C7
:102B200001F10C025A6001F118021A6001F114025D
:102B300001F1100346F6BD31C0F60001FDF7B0FB10
:102B4000012826DBFFE740F27000C2F200000A9085
:102B5000017E0069FFF780FF01460A984160417ECF
:102B6000C068FFF779FF01460A980160416840F2AA
:102B7000F432C2F200021160016840F2F832C2F28F
:102B800000021160806A40F2FC31C2F2000108606C
:102B900092E091E00D9846F66B31C0F600010622F6
:102BA000FDF79CFB40BBFFE70D9840F27001C2F2BD
:102BB0000001099101F138026B465A6101F13402BA
:102BC0001A6101F13002DA6001F119029A6001F133
:102BD0000C025A6001F118021A6001F1140201F1AD
:102BE000100346F6E231C0F60001FDF759FB01285B
:102BF00001DBFFE760E05EE00D9846F67931C0F654
:102C000000010622FDF76AFB08BBFFE70D9840F2C2
:102C10007001C2F2000101F13C026B46DA6001F181
:102C200014029A6001F119025A6001F10C021A6053
:102C300001F1100201F1180346F68531C0F60001DA
:102C4000FDF72EFB012801DBFFE735E032E00D98B0
:102C500046F67231C0F600010622FDF73FFB40BB8D
:102C6000FFE70D9840F27001C2F20001089101F1F6
:102C700054026B465A6101F150021A6101F14D0292
:102C8000DA6001F130029A6001F14C025A6001F100
:102C900048021A6001F1400201F1440346F69E31F8
:102CA000C0F60001FDF7FCFA012801DBFFE703E0B5
:102CB000FFE7FFE7FFE7FFE70EB080BD80B588B014
:102CC000069000200390029006980399405C242807
:102CD00004D1FFE703980130039002E00020079041
:102CE00065E0FFE706980399415C0020019079B107
:102CF000FFE706980399415C00202A29019007D03C
:102D0000FFE7039900204B29B8BF01200190FFE79E
:102D10000198C00750B1FFE706980399415C0298FB
:102D200048400290039801300390DBE703984B285A
:102D300003DBFFE70020079039E006980399405C29
:102D40002A2810D1FFE706990398084440788DF8A7
:102D5000150006990398084480788DF81600002025
:102D60008DF8170002E00020079020E0029A46F656
:102D70008031C0F600010DF11200FDF77BFA9DF8DD
:102D800012109DF815200020914200900AD1FFE713
:102D90009DF813009DF81610401AB0FA80F0400913
:102DA0000090FFE7009800F001000790FFE7079808
:102DB00008B080BD83B0019000208DF80300019819
:102DC00090F8210002280DD0FFE7019904208863C4
:102DD000FFE70199002081F82000FFE701208DF82E
:102DE0000B0021E001980168086820F00E000860DF
:102DF00001980168086820F0010008600198C16B23
:102E0000026C012090404860FFE70199012081F8A1
:102E10002100FFE70199002081F82000FFE79DF8DD
:102E200003008DF80B00FFE79DF80B0003B070471F
:102E300080B588B0079000208DF81B00079890F8A7
:102E40002100022807D0FFE70799042088630120AA
:102E50008DF81B0076E007980168086820F00E00E6
:102E6000086007980168086820F00100086007986A
:102E700000680821C4F20201884203D1FFE7012063
:102E8000059047E0079800681C21C4F202018842BF
:102E900003D1FFE71020049039E007980068302143
:102EA000C4F20201884204D1FFE74FF4807003901E
:102EB0002AE0079800684421C4F20201884204D144
:102EC000FFE74FF4805002901BE0079800685821FC
:102ED000C4F20201884204D1FFE74FF48030019030
:102EE0000CE0079801686C22C4F202024FF0807077
:102EF000914208BF4FF480100190FFE701980290C3
:102F0000FFE702980390FFE703980490FFE7049817
:102F10000590FFE705980421C4F2020108600799B3
:102F2000012081F82100FFE70799002081F82000A7
:102F3000FFE70798406B20B1FFE70798416B884790
:102F4000FFE7FFE79DF81B0008B080BD80B58EB09D
:102F50000D900D98C06B00680C900D98006800688B
:102F60000B900C980D99096CC8404007002875D546
:102F7000FFE79DF82C00400700286FD5FFE70D986C
:102F8000006800688006002807D4FFE70D980168F4
:102F9000086820F004000860FFE70D980068082129
:102FA000C4F20201884203D1FFE704200A9047E0FF
:102FB0000D9800681C21C4F20201884203D1FFE78A
:102FC0004020099039E00D9800683021C4F20201D8
:102FD000884204D1FFE74FF4806008902AE00D9802
:102FE00000684421C4F20201884204D1FFE74FF493
:102FF000804007901BE00D9800685821C4F2020140
:10300000884204D1FFE74FF4802006900CE00D9831
:1030100001686C22C4F202024FF08060914208BF46
:103020004FF480000690FFE706980790FFE70798A7
:103030000890FFE708980990FFE709980A90FFE7D2
:103040000A980421C4F2020108600D98C06A20B1F8
:10305000FFE70D98C16A8847FFE7B8E00C980D9923
:10306000096CC8408007002840F18080FFE79DF888
:103070002C008007002879D5FFE70D9800680068CC
:10308000800600280BD4FFE70D980168086820F03F
:103090000A0008600D99012081F82100FFE70D98D2
:1030A00000680821C4F20201884203D1FFE7022030
:1030B000059047E00D9800681C21C4F20201884287
:1030C00003D1FFE72020049039E00D9800683021FB
:1030D000C4F20201884204D1FFE74FF4007003906C
:1030E0002AE00D9800684421C4F20201884204D10C
:1030F000FFE74FF4005002901BE00D980068582144
:10310000C4F20201884204D1FFE74FF4003001907D
:103110000CE00D9801686C22C4F202024FF00070BE
:10312000914208BF4FF400100190FFE70198029010
:10313000FFE702980390FFE703980490FFE70498E5
:103140000590FFE705980421C4F202010860FFE73B
:103150000D99002081F82000FFE70D98806A20B1CA
:10316000FFE70D98816A8847FFE72FE00C980D99DB
:10317000096CC8400007002827D5FFE79DF82C0000
:103180000007002821D5FFE70D980168086820F0A6
:103190000E0008600D98C26B016C012000FA01F16D
:1031A00051600D9988630D9981F82100FFE70D9911
:1031B000002081F82000FFE70D98006B20B1FFE7A9
:1031C0000D98016B8847FFE7FFE7FFE7FFE70EB0C9
:1031D00080BD000083B0019000200090019820B9CC
:1031E000FFE701208DF80B0047E0019908684FF6D2
:1031F000F872CBF6FD7210444CF6CD42CCF6CC42C0
:10320000A0FB02026FF0030000EA9200086401993B
:103210000020C4F20200C8630199022081F8210055
:103220000198006800680090009843F6F0718843A8
:10323000009001994868D1F808C0CB680A6940EA53
:103240000C00184310434A6910438A691043C96946
:1032500001430098084300900098019909680860AC
:10326000019900208863019A012182F821100199B7
:1032700081F820008DF80B00FFE79DF80B0003B0EC
:103280007047000090B00F900E9100200D900990B3
:10329000FFE70E9800680D99C840002800F07F8174
:1032A000FFE70D99012088400C900E9800680C995A
:1032B00008400B900B980C99884240F06C81FFE716
:1032C0000E9840680590002851D0FFE70598012826
:1032D0003AD0FFE7059802283FD0FFE7059803287A
:1032E0005FD0FFE70598112832D0FFE70598122834
:1032F00038D0FFE705980021C1F21101884236D08D
:10330000FFE705980021C1F2120188422FD0FFE7A4
:1033100005980021C1F22101884228D0FFE70598D5
:103320000021C1F22201884221D0FFE70598002147
:10333000C1F2310188421AD0FFE705980021C1F29D
:103340003201884213D02FE00E98C06809902CE01B
:103350000E98C0680430099027E00E98C0680830C5
:10336000099022E00E98C0680C3009901DE00E987C
:10337000806818B9FFE70420099011E00E98806872
:10338000012806D1FFE7082009900C980F990861E1
:1033900005E0082009900C980F994861FFE7FFE7C6
:1033A00003E00020099000E0FFE70B98FF2803D816
:1033B000FFE70F98049003E00F9804300490FFE7B4
:1033C000049808900B98FF2804D8FFE70D98800018
:1033D000039006E00D996FF01F0000EB8100039051
:1033E000FFE70398079008980068079A0F2191401B
:1033F0008843099991400843089908600E98C0795C
:10340000C006002840F1C680FFE7FFE741F2180040
:10341000C4F20200016841F001010160006800F09F
:10342000010006900698FFE70D9820F003000821A0
:10343000C4F2010140580A900D9800F00300810089
:103440000F2000FA01F10A9888430A900F9840F67D
:103450000001C4F20101884203D1FFE7002002907D
:1034600026E00F9840F60041C4F20101884203D1E2
:10347000FFE70120019018E00F9841F20001C4F22B
:103480000101884203D1FFE7022000900AE00F9972
:1034900041F20042C4F201020420914208BF03201D
:1034A0000090FFE700980190FFE701980290FFE786
:1034B00002980D9901F00301890000FA01F10A98C0
:1034C00008430A900A980D9921F003010822C4F2DA
:1034D000010288500E988079C00748B1FFE70B9A27
:1034E00040F20041C4F2010108681043086008E09E
:1034F0000B9A40F20041C4F2010108689043086051
:10350000FFE70E9880798007002809D5FFE70B9A1E
:1035100040F20441C4F2010108681043086008E069
:103520000B9A40F20441C4F201010868904308601C
:10353000FFE70E988079C006002809D5FFE70B9AAF
:1035400040F20841C4F2010108681043086008E035
:103550000B9A40F20841C4F20101086890430860E8
:10356000FFE70E9880798006002809D5FFE70B9ABF
:1035700040F20C41C4F2010108681043086008E001
:103580000B9A40F20C41C4F20101086890430860B4
:10359000FFE7FFE7FFE70D9801300D9079E610B0E7
:1035A0007047000083B00290ADF806100298C06822
:1035B0000090009ABDF8060002EA0001904340EA3C
:1035C00001400299086103B07047000082B0019089
:1035D000ADF802108DF801209DF8010028B1FFE739
:1035E000BDF802000199086105E0BDF80200000481
:1035F00001990861FFE702B07047000040F2844083
:10360000C2F200000068704780B58EB00C900C9834
:1036100020B9FFE701208DF8370043E10C9890F8BE
:103620003D0040B9FFE70C99002081F83C000C9860
:1036300000F03CF9FFE70C99242081F83D000C983C
:103640000168086820F0010008600C9801680868AB
:1036500040F4004008600C980168086820F40040BD
:10366000086000F0CBFB0A900C98406848F2A0611B
:10367000C0F2010188420BD8FFE70A9948F2804264
:10368000C0F21E020020914238BF012009900AE0DA
:103690000A9940F60012C0F23D020020914238BF64
:1036A00001200990FFE70998012804D1FFE70120D4
:1036B0008DF83700F6E00A984DF68361C4F21B31AD
:1036C000A0FB0110800C0B900C980068406820F063
:1036D0003F000B9908430C99096848600C980068F2
:1036E000006A20F03F0008900C98406848F2A06102
:1036F000C0F20101884204D8FFE70B98013007901F
:103700000EE00B984FF49671484344F6D351C1F242
:103710006201A0FB0101012000EB91100790FFE77F
:103720000898079908430C99096808620C98006882
:10373000C0694CF6FF71884306900C98406848F2C7
:10374000A061C0F2010188421FD8FFE70A98013842
:103750000C9949684900B0FBF1F001306FF31F305C
:10376000032803D8FFE7042005900BE00A980138EE
:103770000C9949684900B0FBF1F001306FF31F303C
:103780000590FFE7059804904CE00C98806868B9B4
:10379000FFE70A9801380C99496801EB4101B0FB39
:1037A000F1F001306FF31F3003900DE00A980138FB
:1037B0000C99496819225143B0FBF1F00130042102
:1037C00061F31F300390FFE70398000518B9FFE786
:1037D0000120029023E00C98806868B9FFE70A98FE
:1037E00001380C99496801EB4101B0FBF1F001305F
:1037F0006FF31F3001900DE00A9801380C99496869
:1038000019225143B0FBF1F00130042161F31F3064
:103810000190FFE7019840F400400290FFE7029812
:103820000490FFE70698049908430C990968C86159
:103830000C980068006820F0C0000C9B1968DA69D9
:103840001B6A1A43104308600C980068806848F2AD
:10385000FF3188430C9A1168D36812691A431043E8
:1038600088600C980068C06820F0FF000C9B196805
:103870005A699B691A431043C8600C98016808682C
:1038800040F0010008600C99002008640C9A202187
:1038900082F83D100C9908630C9981F83E008DF870
:1038A0003700FFE79DF837000EB080BD80B58CB0C3
:1038B0000B9000200A900990089007900B980068E0
:1038C00045F20041C4F20001884273D1FFE7FFE7EF
:1038D00041F21800C4F20200016841F008010160E1
:1038E000006800F0080006900698FFE7C0200790E7
:1038F0001220089003200A9040F60040C4F2010014
:1039000007A9FFF7BFFCFFE741F21C00C4F2020069
:10391000016841F400110160006800F40010059096
:103920000598FFE740F2D400C2F200000290802127
:10393000C4F2020101600021416081608022C26006
:10394000016141618161C161FFF744FC18B1FFE78A
:10395000FFF71EF8FFE7FFE70B9840F2D401C2F231
:10396000000181630B984862FFE740F21810C2F231
:10397000000001906C21C4F202010160102141603D
:10398000002181608022C260016141618161C16169
:10399000FFF720FC18B1FFE7FEF7FAFFFFE7FFE7AC
:1039A0000B9840F21811C2F2000141630B98486273
:1039B000FFE736E00B98006845F60001C4F200010D
:1039C00088422DD1FFE7FFE741F21800C4F2020060
:1039D000016841F008010160006800F008000490EF
:1039E0000498FFE74FF440600790122008900320EE
:1039F0000A9040F60040C4F2010007A9FFF742FC1C
:103A0000FFE741F21C00C4F20200016841F48001AA
:103A10000160006800F4800003900398FFE7FFE76F
:103A2000FFE70CB080BD000040F20400C2F20000CD
:103A3000027840F28441C2F2000108681044086034
:103A40007047000080B542F20001C4F2020108682C
:103A500040F010000860032000F096F80F2000F0FE
:103A600005F800F03BF8002080BD000080B582B072
:103A7000009040F20000C2F20000006840F2040131
:103A8000C2F200010A784FF47A71B1FBF2F1B0FB97
:103A9000F1F000F097FE20B1FFE701208DF807005C
:103AA00018E000980F280DD8FFE700994FF0FF307D
:103AB000002200F04FF8009840F20801C2F2000125
:103AC000086003E001208DF8070003E000208DF876
:103AD0000700FFE79DF8070002B080BD83B0FFE755
:103AE00041F21800C4F20200016841F001010160D6
:103AF000006800F0010002900298FFE7FFE741F242
:103B00001C00C4F20200016841F0805101600068AD
:103B100000F0805001900198FFE7FFE70421C4F214
:103B2000010108680090009820F0E0600090009883
:103B300040F00070009000980860FFE703B0704705
:103B400080B582B08DF807009DF9070001F09EFD59
:103B500002B080BD80B586B08DF817000491039245
:103B60000020029001F0AAFD02909DF9170001903B
:103B700002980499039A01F0F9FA0146019801F0BC
:103B8000A5FD06B080BD000080B582B0019001980F
:103B900001F0BEFD02B080BD80B584B002900191FD
:103BA000029820B9FFE701208DF80F001BE1019872
:103BB00042F20001C4F20201096801F007018842E3
:103BC00016D9FFE742F20000C4F20200016821F0BA
:103BD0000701019A11430160006800F00700019994
:103BE000884204D0FFE701208DF80F00FBE0FFE7DB
:103BF00002980078800700282AD5FFE7029800780D
:103C00004007002809D5FFE741F20401C4F2020190
:103C1000086840F4E0600860FFE702980078000759
:103C2000002809D5FFE741F20401C4F20201086847
:103C300040F460500860FFE741F20401C4F2020161
:103C4000086820F0F000029A926810430860FFE7CD
:103C500002980078C007002860D0FFE7029840680B
:103C600001280ED1FFE741F20000C4F20200006813
:103C70008003002804D4FFE701208DF80F00B2E094
:103C800021E00298406802280ED1FFE741F20000CF
:103C9000C4F2020000688001002804D4FFE701207C
:103CA0008DF80F009FE00DE041F20000C4F2020029
:103CB00000688007002804D4FFE701208DF80F007A
:103CC00091E0FFE7FFE741F20401C4F20201086856
:103CD00020F00300029A526810430860FFF78EFC40
:103CE0000090FFE741F20400C4F20200006800F017
:103CF0000C0002994968B0EB810F0ED0FFE7FFF787
:103D00007DFC0099401A41F28931884204D3FFE7D3
:103D100003208DF80F0066E0E4E7FFE7019842F228
:103D20000001C4F20201096801F00701884216D2BD
:103D3000FFE742F20000C4F20200016821F007012F
:103D4000019A11430160006800F007000199884260
:103D500004D0FFE701208DF80F0044E0FFE7029850
:103D60000078400700280CD5FFE741F20401C4F2B7
:103D70000201086820F4E060029AD26810430860EB
:103D8000FFE702980078000700280DD5FFE741F211
:103D90000401C4F20201086820F46050029A12691A
:103DA00040EAC2000860FFE700F04CF841F204016D
:103DB000C4F202010968C9B20A0946F64C31C0F6DC
:103DC0000001895CC84040F20001C2F200010860B5
:103DD00040F20800C2F200000068FFF747FE002032
:103DE0008DF80F00FFE79DF80F0004B080BD0000C4
:103DF00040F20000C2F200000068704780B5FFF793
:103E0000F7FF41F20401C4F202010968C1F3022282
:103E100046F65C31C0F60001895CC84080BD0000F8
:103E200080B5FFF7E5FF41F20401C4F20201096821
:103E3000C1F3C22246F65C31C0F60001895CC8407D
:103E400080BD00008BB040F60E70C1F210000A90E9
:103E500040F60A30C0F60C50099040F20670C0F6E9
:103E60000810089040F20230C0F20450079040F26F
:103E70000120ADF81A0000200590049003900290F4
:103E8000019041F20400C4F2020000680590059818
:103E900000F00C0001460091E0B3FFE70098042811
:103EA00004D0FFE70098082806D034E041F2002053
:103EB000C0F27A00019034E00598C0F3834107A86E
:103EC000405C02909DF81600C007C0B1FFE741F2C8
:103ED0000400C4F20200006800F400310DF11A0081
:103EE00040EA514000780490029841F20021C0F26B
:103EF0007A0148430499B0FBF1F0039007E002987F
:103F000040F60011C0F23D0148430390FFE70398DB
:103F1000019006E0FFE741F20020C0F27A00019034
:103F2000FFE701980BB0704780B586B00490049805
:103F300020B9FFE701208DF817002EE304980078E0
:103F4000C007002800F0AE80FFE741F20400C4F291
:103F50000200006800F00C00042813D0FFE741F2D3
:103F60000400C4F20200006800F00C0008281BD115
:103F7000FFE741F20400C4F202000068C003002819
:103F800012D5FFE741F20000C4F20200006880038E
:103F9000002808D5FFE70498406820B9FFE7012012
:103FA0008DF81700F9E27CE0FFE704984068B0F56F
:103FB000803F09D1FFE741F20001C4F20201086825
:103FC00040F48030086032E00498406868B9FFE748
:103FD00041F20001C4F20201086820F48030086058
:103FE000086820F48020086020E004984068B0F55C
:103FF000A02F0DD1FFE741F20001C4F202010868D1
:1040000040F480200860086840F4803008600CE0CC
:1040100041F20001C4F20201086820F48030086017
:10402000086820F480200860FFE7FFE7FFE7FFE76C
:1040300004984068D0B1FFE7FFF7E0FA0390FFE78C
:1040400041F20000C4F202000068800300280CD492
:10405000FFE7FFF7D3FA0399401A652804D3FFE777
:1040600003208DF8170098E2EAE719E0FFF7C6FA97
:104070000390FFE741F20000C4F2020000688003F1
:1040800000280CD5FFE7FFF7B9FA0399401A652815
:1040900004D3FFE703208DF817007EE2EAE7FFE78D
:1040A000FFE7FFE7049800788007002840F18D8043
:1040B000FFE741F20400C4F20200006810F00C0FA8
:1040C00013D0FFE741F20400C4F20200006800F0E0
:1040D0000C00082829D1FFE741F20400C4F20200D5
:1040E0000068C003002820D4FFE741F20000C4F2BA
:1040F000020000688007002809D5FFE704980069DE
:10410000012804D0FFE701208DF8170045E241F2B5
:104110000001C4F20201086820F0F800049A526914
:1041200040EAC2000860FFE74EE00498006958B317
:10413000FFE70021C4F2422101200860FFF75EFA88
:104140000390FFE741F20000C4F20200006880071C
:1041500000280CD4FFE7FFF751FA0399401A03280F
:1041600004D3FFE703208DF8170016E2EAE741F2D7
:104170000001C4F20201086820F0F800049A5269B4
:1041800040EAC20008601EE00021C4F24221002083
:104190000860FFF733FA0390FFE741F20000C4F232
:1041A00002000068800700280CD5FFE7FFF726FA19
:1041B0000399401A032804D3FFE703208DF8170062
:1041C000EBE1EAE7FFE7FFE7FFE704980078000785
:1041D000002848D5FFE70498806918B3FFE740F24C
:1041E0008041C4F2422101200860FFF707FA0390E2
:1041F000FFE741F22400C4F20200006880070028B3
:104200000CD4FFE7FFF7FAF90399401A032804D307
:10421000FFE703208DF81700BFE1EAE7012000F077
:10422000DDFF1FE040F28041C4F24221002008601F
:10423000FFF7E4F90390FFE741F22400C4F2020023
:104240000068800700280CD5FFE7FFF7D7F903992E
:10425000401A032804D3FFE703208DF817009CE1E0
:10426000EAE7FFE7FFE7049800784007002840F1FD
:10427000D880FFE700208DF8070041F21C00C4F24F
:1042800002000068C000002813D4FFE7FFE741F2F6
:104290001C00C4F20200016841F080510160006816
:1042A00000F0805000900098FFE701208DF8070093
:1042B000FFE747F20000C4F200000068C0050028D4
:1042C00022D4FFE747F20001C4F20001086840F47D
:1042D00080700860FFF792F90390FFE747F2000053
:1042E000C4F200000068C00500280CD4FFE7FFF707
:1042F00085F90399401A652804D3FFE703208DF858
:1043000017004AE1EAE7FFE7FFE70498C0680128E1
:1043100009D1FFE741F22001C4F20201086840F030
:104320000100086031E00498C06868B9FFE741F215
:104330002001C4F20201086820F00100086008684A
:1043400020F0040008601FE00498C06805280DD123
:10435000FFE741F22001C4F20201086840F00400C6
:104360000860086840F0010008600CE041F220019C
:10437000C4F20201086820F001000860086820F01B
:1043800004000860FFE7FFE7FFE7FFE70498C06865
:10439000E0B1FFE7FFF732F90390FFE741F22000B9
:1043A000C4F202000068800700280ED4FFE7FFF780
:1043B00025F90399401A41F28931884204D3FFE775
:1043C00003208DF81700E8E0E8E71BE0FFF716F997
:1043D0000390FFE741F22000C4F20200006880076A
:1043E00000280ED5FFE7FFF709F90399401A41F2BB
:1043F0008931884204D3FFE703208DF81700CCE011
:10440000E8E7FFE79DF80700012809D1FFE741F23F
:104410001C01C4F20201086820F080500860FFE728
:10442000FFE70498C069002800F0B380FFE741F27D
:104430000400C4F20200006800F00C00082800F03C
:104440008280FFE70498C06902285CD1FFE7602101
:10445000C4F2422100200860FFF7D0F80390FFE784
:1044600041F20000C4F202000068800100280CD56F
:10447000FFE7FFF7C3F80399401A032804D3FFE7C7
:1044800003208DF8170088E0EAE70498006AB0F589
:10449000803F0CD1FFE741F20401C4F20201086839
:1044A00020F40030049A926810430860FFE741F25C
:1044B0000401C4F20201086820F47410049B1A6A13
:1044C0005B6A1A43104308606021C4F24221012054
:1044D0000860FFF793F80390FFE741F20000C4F291
:1044E00002000068800100280CD4FFE7FFF786F87F
:1044F0000399401A032804D3FFE703208DF817001F
:104500004BE0EAE71EE06021C4F24221002008608F
:10451000FFF774F80390FFE741F20000C4F20200D5
:104520000068800100280CD5FFE7FFF767F80399C2
:10453000401A032804D3FFE703208DF817002CE06E
:10454000EAE7FFE724E00498C069012804D1FFE707
:1045500001208DF8170020E041F20400C4F20200AF
:1045600000680290029800F480300499096A884239
:1045700008D1FFE7029800F470100499496A884254
:1045800004D0FFE701208DF8170006E0FFE7FFE702
:10459000FFE700208DF81700FFE79DF8170006B031
:1045A00080BD000080B584B00290029820B9FFE77A
:1045B00001208DF80F006DE00298406A60B9FFE7B6
:1045C00002984068B0F5827F01D1FFE703E00299CD
:1045D0000020C861FFE705E0029900200861029908
:1045E0004861FFE7029900208862029890F8510024
:1045F00040B9FFE70299002081F85000029800F0CE
:104600004DF8FFE70299022081F8510002980168F5
:10461000086820F040000860029A01921168506812
:10462000D2F808C0D36800F482700CF4044C6044E3
:1046300003F400631844136903F002031844536938
:1046400003F001031844936903F400731844D36919
:1046500003F038031844136A03F080031843926A86
:1046600002F40052104308600299488B00F00400E5
:104670000968486002980168C86920F40060C86150
:10468000029900204865029A012182F851108DF8A4
:104690000F00FFE79DF80F0004B080BD80B58CB01F
:1046A0000B9000200A900990089007900B980068E2
:1046B00043F20001C4F20101884240F08080FFE72C
:1046C000FFE741F21800C4F20200016841F4805192
:1046D0000160006800F4805006900698FFE7FFE74D
:1046E00041F21800C4F20200016841F004010160C7
:1046F000006800F0040005900598FFE7B0200790DF
:104700000220089003200A9040F60000C4F2010045
:10471000019007A90291FEF7B5FD01980299402288
:1047200007920022039208920992FEF7ABFD0399CB
:1047300040F25C10C2F2000004901C22C4F202029B
:104740000260416081608022C260016141618161DB
:10475000C161FEF73FFD18B1FFE7FEF719F9FFE76A
:10476000FFE70B9840F25C11C2F20001C1640B98A4
:104770004862FFE740F2A010C2F200000090302132
:10478000C4F2020101601021416000218160802299
:10479000C260016141618161C161FEF71BFD18B119
:1047A000FFE7FEF7F5F8FFE7FFE70B9840F2A011EF
:1047B000C2F2000181640B984862FFE7FFE70CB08A
:1047C00080BD000080B582B00190019800F026FD08
:1047D00002B080BD82B00190ADF8021002B0704707
:1047E00081B0009001B0704780B588B007900798FD
:1047F00000680068069007980068C06805900798F0
:10480000006840690490002003900290069800F030
:104810000F000390039888B9FFE79DF81800800601
:1048200000280AD5FFE79DF814008006002804D56B
:10483000FFE7079800F0A0FD76E1FFE70398002866
:1048400000F0B480FFE79DF81000C00738B9FFE71B
:10485000BDF8140010F4907F00F0A880FFE79DF8E9
:104860001800C00758B1FFE79DF81500C00730B128
:10487000FFE70799086C40F001000864FFE79DF826
:104880001800400700280BD5FFE79DF81000C0076F
:1048900030B1FFE70799086C40F002000864FFE7B9
:1048A0009DF81800800700280BD5FFE79DF8100041
:1048B000C00730B1FFE70799086C40F004000864B6
:1048C000FFE79DF818000007002811D5FFE79DF8C5
:1048D00014008006002805D4FFE79DF81000C007EB
:1048E00030B1FFE70799086C40F008000864FFE763
:1048F0000798006C002858D0FFE79DF81800800644
:1049000000280AD5FFE79DF814008006002804D58A
:10491000FFE7079800F030FDFFE70798006840695F
:10492000C0F3801002900798006C0007002803D4A1
:10493000FFE7029888B3FFE7079800F0E5FC0798C7
:10494000006840694006002822D5FFE70798016803
:10495000486920F0400048610798806B98B1FFE7F4
:104960000798816B45F2E920C0F60000486307987C
:10497000806BFEF75DFA28B1FFE70798806B416B0B
:104980008847FFE703E00798FFF72AFFFFE703E008
:104990000798FFF725FFFFE706E00798FFF720FFDE
:1049A000079900200864FFE7FFE7BDE00798006B68
:1049B000012840F09980FFE79DF81800C006002804
:1049C00040F19280FFE79DF81400C006002840F1F6
:1049D0008B80FFE7FFE700200190079800680068E0
:1049E000019007980068406801900198FFE70798D8
:1049F000006840694006002848D5FFE70798806BAB
:104A000000684068ADF80200BDF80200E8B3FFE7B7
:104A1000BDF802000799898D884236DAFFE7BDF8B4
:104A200002000799C8850798806B8069202824D0E8
:104A3000FFE707980168C86820F48070C86007988D
:104A40000168486920F001004861079801684869D9
:104A500020F0400048610799202081F83E00079926
:104A60000020086307980168C86820F01000C8603B
:104A70000798806BFEF79EF9FFE70798818DC28D3E
:104A8000891A89B2FFF7A6FEFFE74DE00799888DE6
:104A9000C98D401AADF800000798C08D18B3FFE724
:104AA000BDF80000F8B1FFE707980168C86820F476
:104AB0009070C86007980168486920F0010048615B
:104AC0000799202081F83E00079900200863079885
:104AD0000168C86820F01000C8600798BDF8001091
:104AE000FFF778FEFFE71FE09DF81800000600289A
:104AF0000AD5FFE79DF814000006002804D5FFE75B
:104B0000079800F06FFD0FE09DF8180040060028A0
:104B10000AD5FFE79DF814004006002804D5FFE7FA
:104B2000079800F015FCFFE708B080BD80B582B0A3
:104B30000090009820B9FFE701208DF807003EE0C3
:104B40000098806908B1FFE700E0FFE7009890F85F
:104B50003D0040B9FFE70099002081F83C00009833
:104B600000F032F8FFE70099242081F83D0000981A
:104B70000168C86820F40050C860009800F0A2FCEA
:104B800000980168086920F4904008610098016865
:104B9000486920F02A00486100980168C86840F41C
:104BA0000050C860009900200864009A202182F813
:104BB0003D10009A82F83E108DF80700FFE79DF83F
:104BC000070002B080BD000080B592B011900020B7
:104BD00010900F900E900D901198006843F6000110
:104BE000C4F20101884240F08280FFE7FFE741F212
:104BF0001800C4F20200016841F4804101600068BD
:104C000000F480400C900C98FFE7FFE741F2180099
:104C1000C4F20200016841F004010160006800F084
:104C200004000B900B98FFE74FF400700D900220EA
:104C30000E900320109040F60000C4F20100059091
:104C40000DA90691FEF71EFB059806994FF44062E8
:104C50000D92002207920E920F92FEF713FB079916
:104C600040F2E410C2F2000008905822C4F202029E
:104C70000260416081608022C260016141618161A6
:104C8000C161FEF7A7FA18B1FFE7FDF781FEFFE764
:104C9000FFE7119840F2E411C2F20001816311981C
:104CA0004862FFE740F22820C2F20000049044214D
:104CB000C4F2020101601021416000218160802264
:104CC000C260016141618161C161FEF783FA18B17F
:104CD000FFE7FDF75DFEFFE7FFE7119840F22821AF
:104CE000C2F20001416311984862FFE74AE011985F
:104CF000006844F20041C4F20001884241D1FFE75C
:104D0000FFE741F21C00C4F20200016841F40031E7
:104D10000160006800F400300A900A98FFE7FFE79E
:104D200041F21800C4F20200016841F00401016080
:104D3000006800F0040009900998FFE704200D9036
:104D400002200E900320109040F60000C4F20100F3
:104D500000900DA90191FEF795FA0098019908229B
:104D60000D92002202920E920F92FEF78BFA029A97
:104D7000262003901146FEF7EDFE0398FEF7E0FEB5
:104D8000FFE7FFE712B080BD80B584B002900191CB
:104D9000ADF80220029890F83E00202828D1FFE7C5
:104DA000019820B1FFE7BDF8020020B9FFE701201C
:104DB0008DF80F0020E0FFE7029890F83C000128F2
:104DC00004D1FFE702208DF80F0015E002990120C1
:104DD00081F83C00FFE7FFE7029900200863029892
:104DE0000199BDF8022000F0CBFB8DF80F0003E025
:104DF00002208DF80F00FFE79DF80F0004B080BD82
:104E000080B582B00190019840F2B031C2F2000149
:104E1000884203D1FFE7FDF7D1FDFFE702B080BD77
:104E200081B0009001B07047FFE7FEE780B588B021
:104E3000FFE741F21400C4F20200016841F00101F1
:104E40000160006800F0010007900798FFE70C2060
:104E50000090002205921146FEF77CFE0098FEF7B6
:104E60006FFE059A0D2001901146FEF773FE019822
:104E7000FEF766FE059A0E2002901146FEF76AFEC6
:104E80000298FEF75DFE059A0F2003901146FEF78B
:104E900061FE0398FEF754FE059A10200490114617
:104EA000FEF758FE0498FEF74BFE059A1120069077
:104EB0001146FEF74FFE0698FEF742FE08B080BD91
:104EC00080B592B00020119010900F900E90FFE7E7
:104ED00041F21800C4F20200016841F010010160C3
:104EE000006800F010000D900D98FFE7FFE741F219
:104EF0001800C4F20200016841F02001016000685E
:104F000000F020000C900C98FFE7FFE741F218003A
:104F1000C4F20200016841F004010160006800F081
:104F200004000B900B98FFE7FFE741F21800C4F272
:104F30000200016841F008010160006800F008000B
:104F40000A900A98FFE741F20000C4F201000190C4
:104F50004FF40051009100220792FEF737FB079AA9
:104F600040F60040C4F2010008904FF40041029165
:104F7000FEF72CFB079A40F60000C4F201000590F2
:104F80004FF480710691FEF721FB009A0198079972
:104F90000E92012203920F921091032111910EA9FA
:104FA0000991FEF76FF9DDF808C0039B079A08988E
:104FB0000999CDF838C00F931092022204921192F1
:104FC000FEF760F9DDF80CC0049A0598079B099973
:104FD000DDF818E0CDF838E0CDF83CC01093119220
:104FE000FEF750F9079A0898099918230E930023A1
:104FF000C1F211030F931092FEF744F912B080BD75
:1050000080B582B040F26C20C2F20000019045F2FF
:105010000041C4F20001016048F2A061C0F2010148
:10502000416000218160C1604FF4804202614161B2
:105030008161C1610162FEF7E7FA18B1FFE7FDF790
:10504000A7FCFFE702B080BD80B582B040F2C0206F
:10505000C2F20000019045F60001C4F200010160B7
:1050600048F2A061C0F20101416000218160C1608D
:105070004FF48042026141618161C1610162FEF7CA
:10508000C3FA18B1FFE7FDF783FCFFE702B080BD6C
:1050900080B582B040F21430C2F20000019043F2B9
:1050A0000001C4F2010101604FF4827141600021EE
:1050B0008160C160016141614FF4802282610822F8
:1050C000C2610162416281620A21C162FFF76AFA2C
:1050D00018B1FFE7FDF75CFCFFE702B080BD000000
:1050E00080B582B040F26C30C2F20000019043F60D
:1050F0000001C4F2010101604FF4E131416000217F
:105100008160C16001610C2242614FF400728261D2
:10511000C161FFF70BFD18B1FFE7FDF739FCFFE7B1
:1051200002B080BD80B582B040F2B030C2F2000063
:10513000019044F20041C4F2000101604FF41651A5
:10514000416000218160C16001610C224261816186
:10515000C161FFF7EBFC18B1FFE7FDF719FCFFE7B2
:1051600002B080BDFFE7FEE7FFE7FEE788B00790EB
:1051700006910592079800F0070004900498C0F18A
:105180000700052803D3FFE70420019004E00498FA
:10519000C0F107000190FFE70198039004980430E4
:1051A000062803D8FFE70020009003E004980338A6
:1051B0000090FFE70098029006980399012202FAF6
:1051C00001F101390840029B984005999A40013A43
:1051D0001140084308B070477047000082B001904A
:1051E000019840F20001C2F200010968C90844F6C2
:1051F000D352C1F26202A1FB022189094843009007
:10520000FFE700BFFFE70098411E00910028F8D19A
:10521000FFE702B0704700007047000080B582B021
:10522000009000980138B0F1807F03D3FFE70120A0
:10523000019019E0009801384EF21401CEF20001FD
:1052400008604FF0FF300F2100F040FA4EF21801D5
:10525000CEF20001002008604EF21002CEF20002F1
:10526000072111600190FFE7019802B080BD0000A6
:1052700080B5FEF7D9FB80BD80B590B006A8009040
:105280002821FBF798F800980023059304930393D3
:1052900002930193012206924FF480310791089303
:1052A0000A9202220D920E914FF4E0110F91FEF737
:1052B0003BFE18B1FFE7FDF76BFBFFE70F20019006
:1052C00002210291002003904FF480620492059025
:1052D00001A8FEF761FC18B1FFE7FDF759FBFFE7F6
:1052E00010B080BD7047000080B582B00190019879
:1052F000406A009000990020C8850099C8840098F1
:10530000FFF76EFA02B080BD81B00090009801688E
:10531000C86820F49070C86000980168486920F05F
:10532000010048610098006B012807D1FFE7009851
:105330000168C86820F01000C860FFE700992020CD
:1053400081F83E0000990020086301B0704700001A
:1053500080B582B0019001980168C86820F04000D3
:10536000C8600199202081F83D000198FFF758FDA1
:10537000002002B080BD000080B586B00490049883
:1053800090F83E00222840F09480FFE7049880685F
:10539000B0F5805F15D1FFE70498006988B9FFE791
:1053A000002003900498806A029004980068406886
:1053B0006FF35F20029908800499886A023088623E
:1053C00025E00498806A0390002002900498806889
:1053D000B0F5805F08D0FFE70498806850B9FFE718
:1053E0000498006930B9FFE70498006840680399A1
:1053F000087007E004980068406800F07F00039997
:105400000870FFE70499886A01308862FFE7049911
:10541000C88D0138C8850004002846D1FFE70498EC
:105420000168C86820F02000C86004980168C86856
:1054300020F48070C86004980168486920F0010079
:1054400048610499202081F83E000498006B0128EF
:1054500023D1FFE704990020086304980168C86815
:1054600020F01000C860049800680068C00600289A
:105470000ED5FFE7FFE70020019004980068006860
:10548000019004980068406801900198FFE7FFE7E9
:105490000498818DFFF79EF903E00498FFF7B0FCB4
:1054A000FFE700208DF8170007E000208DF81700B7
:1054B00003E002208DF81700FFE79DF8170006B003
:1054C00080BD000080B584B0039003980068006937
:1054D00020F44050039A1168D26810430861039980
:1054E00088680A6949691043084302900398006874
:1054F000C06841F20C618843029908430399096826
:10550000C86003980068406920F44070039A1168ED
:105510009269104348610398006843F60001C4F2A1
:105520000101884204D1FFE7FEF77AFC019003E015
:10553000FEF764FC0190FFE7019819214843039AA4
:10554000116852689200B0FBF2FC48F21F52C5F29B
:10555000EB12ACFB02304309642003FB10CC322079
:1055600000EB0C10A0FB0202F02000EA521000EB4E
:105570000310C2F343121044886004B080BD0000E1
:1055800083B002900191ADF80220019802998862DF
:10559000BDF8020002998885BDF802000299C8850D
:1055A0000299002008640299222081F83E00FFE75A
:1055B0000299002081F83C00FFE702980168C86862
:1055C00040F48070C86002980168486940F00100AA
:1055D000486102980168C86840F02000C860002057
:1055E00003B0704783B00190019890F83D002128E6
:1055F0003AD1FFE701988068B0F5805F13D1FFE7EB
:105600000198006978B9FFE70198006A0090009856
:1056100000886FF35F200199096848600199086A62
:105620000230086208E0019A106A411C1162007899
:10563000019909684860FFE70199C88C0138C8845E
:10564000000468B9FFE701980168C86820F080008D
:10565000C86001980168C86840F04000C860FFE772
:1056600000208DF80B0003E002208DF80B00FFE70F
:105670009DF80B0003B0704780B540F2B030C2F225
:105680000000FFF7B1F880BDFFE7FEE781B08DF8BD
:1056900003009DF9030000280ED4FFE79DF90310D5
:1056A00001F01F02012090404A094EF20011CEF293
:1056B000000141F82200FFE701B070474EF60C50A0
:1056C000CEF200000068C0F30220704782B08DF86F
:1056D000070000919DF9070000280AD4FFE7009811
:1056E00000019DF907104EF20042CEF200028854EC
:1056F0000BE0009800019DF8071001F00F014EF635
:105700001452CEF200028854FFE702B07047000046
:1057100083B00290029800F0070000904EF60C5102
:10572000CEF200010868019001984FF6FF02104088
:1057300001900198009A40EA02200022C0F2FA5239
:10574000104301900198086003B0704780B584B0A1
:1057500000200390FEF776F9FFF78EFDFFF7B0FB10
:10576000FFF764FBFFF74CFCFFF7BAFCFFF790FC78
:10577000FFF7D8FCFFF768FCFDF712F9FFE741F2ED
:105780000000C4F2010001900D210291FDF70AFF13
:105790000198029940F27002C2F20002936A40F24C
:1057A000D00CC2F2000CCCF80030536840F2C80CA8
:1057B000C2F2000CCCF80030126840F2CC03C2F206
:1057C00000031A60FDF7EEFED9E75FEA400C08BF60
:1057D00091F0000F4FEA8C234FEAC12243EA515166
:1057E0004FEA1C5018BF00F5F0404FEA300018BFD8
:1057F00041F000415FEA6C5C00F02980BCF1FF3FA2
:1058000008BF40F080407047130C06BF12044FF0F1
:10581000100C4FF0000C130E04BF12020CF1080C18
:10582000130F04BF12010CF1040C930F04BF92007C
:105830000CF1020CD30F04BF52000CF1010C114605
:105840004FF00002A0F11F00A0EB0C00704711F018
:10585000004F08BF704731F000413FF4D5AF0B0C4B
:1058600006BF09044FF0100C4FF0000C0B0E04BFE4
:1058700009020CF1080C0B0F04BF09010CF1040C18
:105880008B0F04BF89000CF1020CCB0F04BF490041
:105890000CF1010CCCF1200322FA03F341EA0301DD
:1058A00002FA0CF2A0EB0C0000F1010070470000BE
:1058B00023F07F4720F07F4C80EA030000F0004097
:1058C000ACEB070303F57C5303F1FF032DE980499B
:1058D00009B44FEA144324EA03484FEA154B25EA7A
:1058E0000B4E0FF2042606EB13273E7803FB0667E8
:1058F000C7F5000707FB06F64FEAD64606F1020693
:105900004FEA543707FB066CCCF1005C4FEA1C47AA
:105910002CEA074C0CFB06F507FB06F404EB1546D6
:105920004FEA961649085FEA320234BF00204FF072
:1059300000404FEAD13706FB07FC4FEA1C4C0CFB3A
:105940000BF7D21B03FB0CF761EB07010CFB0EF707
:10595000B0EB074072EB17420CFB08F734BFA2EB29
:105960000742B2EB074261EB17414FEA0C444FEAA2
:10597000910706FB07FC4FEA1C4C0CFB0BF7B0EB46
:10598000C74072EB573203FB0CF734BFA2EBC742A0
:10599000B2EBC74261EB57310CFB0EF7B0EBC7001F
:1059A00072EB57720CFB08F734BFA2EBC702B2EBE5
:1059B000C70261EB57714FEA816141EA92114FEAE8
:1059C000826242EA90124FEA806004EBCC04039FAB
:1059D0004FEAD13706FB07FC4FEA1C4C0CFB0BF7D8
:1059E000D21B03FB0CF761EB07010CFB0EF7B0EBCE
:1059F000074072EB17420CFB08F734BFA2EB0742DB
:105A0000B2EB074261EB17414FEA8C5504EB9C2443
:105A10004FEA910706FB07FC4FEA1C4C0CFB0BF707
:105A2000B0EBC74072EB573203FB0CF734BFA2EB6D
:105A3000C742B2EBC74261EB57310CFB0EF7B0EB3C
:105A4000C70072EB57720CFB08F734BFA2EBC7021A
:105A5000B2EBC70261EB57714FEA816141EA9211E3
:105A60004FEA826242EA90124FEA806015EB4C25C1
:105A700044F100044FEAD13706FB07FC4FEA1C4C07
:105A80000CFB0BF7D21B03FB0CF761EB07010CFBC4
:105A90000EF7B0EB074072EB17420CFB08F734BF70
:105AA000A2EB0742B2EB074261EB17414FEA8131AB
:105AB00041EA92414FEA823242EA90424FEA803014
:105AC0004FEA0C7615EB1C1544F1000448EA034339
:105AD0004EEA0B484FF0000EB2EB080C71EB0307D7
