:020000040800F2
:10000000580A0020BD010008ED450008F939000834
:10001000E9450008ED160008D14600080000000080
:10002000000000000000000000000000F54500088E
:100030003917000800000000F1450008F9450008E4
:10004000D7010008D7010008D7010008D701000830
:10005000D7010008D7010008D7010008D701000820
:10006000D7010008D7010008D7010008D701000810
:10007000F1160008FD1600080917000815170008FA
:10008000211700082D170008D7010008D701000824
:10009000D7010008D7010008D7010008D7010008E0
:1000A000D7010008D7010008D7010008D7010008D0
:1000B000D7010008D7010008D7010008D7010008C0
:1000C000D7010008D7010008D7010008D7010008B0
:1000D000D7010008D7010008C5460008D70100086D
:1000E000D7010008D7010008D701000800F002F886
:1000F00000F055F80AA090E8000C82448344AAF16D
:100100000107DA4501D100F04AF8AFF2090EBAE86A
:100110000F0013F0010F18BFFB1A43F0010318473B
:10012000785C0000985C0000103A24BF78C878C161
:10013000FAD8520724BF30C830C144BF04680C60ED
:10014000704700000023002400250026103A28BF35
:1001500078C1FBD8520728BF30C148BF0B60704739
:10016000662905F07D84642900F07C80782900F000
:10017000B580002070471FB59DE8030001F034F9F9
:1001800000F006FC04000020002105F07BFAE0608E
:1001900000F00CFE1FBD10B500F071FE10BD00F0A8
:1001A000D9FE1146FFF7E7FF04F094FD01F086F851
:1001B00003B4FFF7F0FF03BC01F008FA09488047D9
:1001C00009480047FEE7FEE7FEE7FEE7FEE7FEE739
:1001D000FEE7FEE7FEE7FEE704480549054A064B51
:1001E00070470000FD450008ED000008580400209D
:1001F000580A002058060020580600200FB4044971
:1002000010B503AA029800F0B1FB10BC5DF814FB16
:100210007C00002070B5044685690068C10601D5E0
:10022000302600E02026C00707D070BDD4E90121A8
:1002300030469047206A401C20626D1EF6D570BD86
:1002400070B5044685690078C00707D170BDD4E950
:10025000012120209047206A401C20626D1EF6D5A7
:1002600070BD00002DE9F041064600241068752994
:10027000314616A510D0AFF30080002802DA4042C4
:1002800013A507E031688A0701D512A502E04907E6
:1002900004D511A5012401E0AFF3008000210A225A
:1002A00006F1240709E0B0FBF2FCB0FBF2F302FB1D
:1002B0001C00303078541846491C0028F3D12346DE
:1002C0002A463046BDE8F04100F0E9B800000000E1
:1002D0002D0000002B0000002000000070B5044637
:1002E0000D4621461068AFF300802188090502D52C
:1002F0000F4A7A4402E00E4A7A440E32002104F199
:10030000240305E000F00F060009965D5E54491CC9
:100310000028F7D120780023000704D5702D02D0E3
:1003200009B1022311322046BDE8704000F0B7B891
:100330006E5700002DE9F05F894604464FF0000A31
:10034000DFF824B1FB44C0F820A02046E1688847CC
:1003500000287DD0252806D0D4E901219047206AC5
:10036000401C2062F1E700255F462046E16888478F
:100370002028064607DB312E05D2B81910F8200CCC
:1003800008B10543F1E7A80701D525F00405C4F835
:100390001CA00027C4F818A02A2E09D0304605F06A
:1003A0005BF938B304EB8708303EC8F8186019E0F1
:1003B00059F8041B204604EB87029161E1688847E5
:1003C000012F064618D1E069002820DA25F0200523
:1003D0001DE0D8F8180000EB800006EB4000303834
:1003E000C8F818002046E1688847064605F034F949
:1003F0000028EED1012F0AD02E2E08D12046E16828
:1004000088477F1C0646022F45F02005C4DBA06903
:10041000002803DA404245F00105A061E80701D059
:1004200025F01005A6B1A6F14100192802D8203602
:1004300045F400654A463146204625604D46FFF7A3
:100440008FFE60B1012807D0ED1D25F0070000E008
:1004500007E000F1080978E705F1040975E730467F
:100460007AE7206ABDE8F09F4457000010B50446C3
:1004700003E005F0F8F8401C09D014F8010B054919
:100480000028F6D1BDE810400A2005F0ECB84FF086
:10049000FF3010BD7C0000207047704770472DE989
:1004A000F0470D4699469246044600F1240801683B
:1004B000880604D5E06921F01001216000E00120E8
:1004C000A84201DD471B00E00027A1697A1902EB71
:1004D0000900081AA0612078C00602D42046FFF760
:1004E00099FE002608E0D4E901211AF80600904799
:1004F000206A401C761C20624E45F4DB2078C00642
:100500000AD52046FFF786FE06E0D4E90121302017
:100510009047206A401C2062381EA7F10107F4DCD6
:1005200007E0D4E9012118F805009047206A401C33
:100530002062281EA5F10105F3DC2046FFF780FEAE
:100540002078000602D50220BDE8F0870120FBE7F5
:100550002DE9FF4F0C461E464FF0FF378BB0D2E916
:100560000001DDF860800A908A46C1F30A5505B99A
:100570003D46002108464FF00000BAF1000F00F49C
:10058000400005DA00EB80004FF4400101EA500022
:100590004FEA9059B9F1010F00DDB9460A9850EAC7
:1005A0004A000ED044F61050A5F2FF3545432F14F3
:1005B000B8F1000F1ED07542291E1EDDC9F10002E0
:1005C0001CE0B8F1010F4FF0000001D0302103E032
:1005D000F24305E02154401CB042FBDB30460022D0
:1005E000002121540B99C1F80880C1E900200FB007
:1005F000BDE8F08FBD1B6D1CDEE74A4600DA69429C
:1006000006A800F06BFA06AB93E8070003AB83E89B
:10061000070050460A9904F043FC8DE80700A0F556
:1006200000501F3800900398002D0ADD42F21F0190
:100630004A460844002303A90390684604F0ACFE30
:1006400009E0A0F500504A461F38002303A9039093
:10065000684604F0B6FE8DE807000004000C03D0E5
:100660004FF0FF30410800E01046B8F1000F03D012
:100670000022009215461EE0751E05D400F090F988
:10068000303262556D1EF9D5B3460122084302D0BF
:1006900000227F1C04E02078302801D100227F1E38
:1006A000002A099784D01DE0112D07DA00F078F9AF
:1006B000303262556D1C50EA0102F5D1084302D078
:1006C0000098C8B10EE00021681E05E0235C625C62
:1006D00063542254401E491C8142F7DBAB46A81BE1
:1006E000401E0990002004F80B000B98099AC0F8EE
:1006F0000880C0E9002B7AE711264FF0000857E781
:100700002DE9F04F88460446D21D22F0070191B032
:10071000D1E90001CDE90A0104F08AFF02460B98F5
:10072000C00F01D02D2007E02068810701D52B20C4
:1007300002E0202101EAC000032A099001D0072A23
:1007400005DB03464146204600F088F90BE120789E
:10075000800601D5E06900E00620B8F1650F81460A
:1007600006D0B8F1660F18D0B8F1670F70D131E03C
:100770000020B9F1110F009001DB112301E009F114
:1007800001030AAA01A90CA8FFF7E2FEDDE90C703B
:10079000002609F10105834647E001204B46009001
:1007A0004FF000470AAA01A90CA8FFF7D1FEDDE926
:1007B0000DB00C995D46002610B909F101000D1825
:1007C000B9EB050003D4C0F1FF3609F10105A5EB33
:1007D00009002BE0B9F1010F01DA4FF00109002007
:1007E000B9F1110F0090484601DD112300E00346E6
:1007F0000AAA01A90CA8FFF7ABFEDDE90C704D4673
:1008000000268346207800070AD4AB4500DA5D460F
:1008100001A8012D04DD411911F8011C302907D070
:100820004F4502DA17F1040F04DA012082460FE087
:100830006D1EEEE7002F02DCED1B3E4403E0781C4A
:10084000A84200DD7D1CB81B00F1010A4FF00047F3
:100850002078000703D4AA4501DB4FF0FF3A0021BE
:10086000B7F1004F0DF143088DF8431024D002205A
:100870002B23002F01DA7F422D230A21021EA0F133
:10088000010000DC5FB197FBF1FC97FBF1F201FB8B
:100890001C7C17460CF1300C08F801CDEEE7A8F1EE
:1008A000010003702188090501D5452100E065217B
:1008B000A0F1010800F8011C09980FA9A1EB080795
:1008C000FF1D00B10120411901EBEA70A169384414
:1008D000081A401EA0612078C00602D42046FFF707
:1008E00099FC099828B1D4E901219047206A401C5D
:1008F00020622078C00622D52046FFF78BFC1EE040
:10090000002E04DBB34502DD01A8805D00E030204D
:10091000D4E901219047206A401C2062761CAAF18C
:1009200001005FEA000A0AD100F032F8C0680168ED
:10093000405CD4E901219047206A401C2062281EB7
:10094000A5F10105DCDC07E0D4E9012118F8010B71
:100950009047206A401C2062381EA7F10107F3DC93
:100960002046FFF76DFC032011B041E6074B70B540
:100970000D467B4400F05FF80446284600F020F95D
:1009800010B14FF0FF3070BD204670BDF14C00003B
:1009900000487047440100200048704724010020AF
:1009A00030B5B0F10A0271F100034FEA900E4EEA41
:1009B000817EB0EB0E0061EB91014FEA101E4EEA12
:1009C000017E10EB0E0041EB11114FEA102E4EEAA2
:1009D000016E10EB0E0041EB11214FEA104E4EEA72
:1009E000014E10EB0E0041EB1141401841F10001A6
:1009F0004FEAD00040EA41704FEAD1014FEA81044A
:100A000044EA907410EB800544EB01046D1944EB4B
:100A10000404521BA3414FF0000348BF0A3200D523
:100A200030BD401C41F1000130BD000001694A1C8D
:100A300002610878704700B58FB0CDE9013100211F
:100A4000059105497944CDE9031011466846FFF741
:100A500071FC0FB000BD0000E5FFFFFF2DE9F04184
:100A60001F46044603260168072A01F4006004DBE0
:100A700008B116A505E016A503E008B115A500E02C
:100A800015A521F010002060A069C01EA0610FB163
:100A9000401EA0612046FFF7BDFB4FB1D4E9012104
:100AA00038469047206A401C2062C01C206206E045
:100AB000206AFAE7D4E9012115F8010B9047761E68
:100AC000F8D22046FFF7BCFBBDE8F0814E414E0056
:100AD0006E616E00494E4600696E66002DE9F04772
:100AE000814616468AB0354878440DC88DE80D0019
:100AF00032487844801C03AC0DC884E80D0041F6F0
:100B00009B300844372190FBF1F290FBF1F5A5F101
:100B1000800501FB12041B3C02D56442012000E069
:100B20000020DFF898A080460027FA44AAF1BE0A08
:100B30000EE0E0070AD03246684607EB4701012382
:100B40000AEB810104F03DFC8DE8070064107F1C76
:100B5000002CEED1194F7F44AE3F19E0E80715D0C5
:100B600007EB04100DF1180A90E80E008AE80E0059
:100B7000C068F04201D1981908903246012306A9B5
:100B800003A804F01EFC03AB83E807006D10641C8F
:100B9000002DE3D14FF0010332466946B8F1000F52
:100BA00003A802D004F0F8FB01E004F00AFCC9E954
:100BB0000001C9F808200AB0BDE8F08730500000F5
:100BC000007B00F0800070472DE9F05F0546174676
:100BD0000C46C86820F4201040F48000C8608006ED
:100BE00002D5084600F0ABFAE06841F282014FF00E
:100BF000FF3A0140022903D0204600F049FAB9E04B
:100C000000F42041B1F5004F0FD1C00306D5616853
:100C1000E06A884200D80846606006E02069E06229
:100C20006060606900F08BF9A061A0680022EEB2FC
:100C300000280DDAE1688B050AD4C043A06041F4B6
:100C400090302260E0606068411C61600670AAE03C
:100C5000E0689146226040F40050E060206978BB73
:100C6000606900F05EF904F124054FF00108A8B1B5
:100C7000A08910F4407F08D0E06900F090F920616D
:100C800018B1E06840F4006017E0C4F81C802561EA
:100C9000E06820F4407040F480600EE0E06900F00D
:100CA0007EF900282061F0D0E06840F4006010F484
:100CB000407FE06002D140F48070E06020696060B5
:100CC000E06825696FF0010BC1051ED56168E06A17
:100CD000884200D80846411B04D02246284600F02E
:100CE000E1F9E8BB1FB1E562C4E9015959E0681CAC
:100CF000E0626060E069401EA060E06840F480301F
:100D0000E06030462E70BDE8F09F17B100F48032ED
:100D10000AE06068411C61600670E0680A2E40F4D9
:100D20008030E06006D00022E16A6068814203D929
:100D30000B4602E00122F7E70346B4F80CC05B1B48
:100D40005FEA4C5C04D4D4F81CC09C4500DD02B3BF
:100D5000814200D80146002BA1EB0008E56200E0CB
:100D600008E0C4E9015907DD22461946284600F08B
:100D700099F908B15046C6E7B8F1000F09D0A1694A
:100D8000E5626560A1EB0800A061E06840F010003A
:100D9000E06047B16168A069E562491B084465608D
:100DA000A0615846AFE73046ADE7000010B54248B5
:100DB000542100F093FA4148542100F08FFA404842
:100DC000542100F08BFA3F493B483C4A3F4B0860B6
:100DD0003D490A603A491960531C0365481C106577
:100DE000012008653B48344A39A1784400F0C8F92D
:100DF00020B9384878440A3800F069FA37482F4A51
:100E000035A1784400F0BCF920B9344878440A3858
:100E100000F05DFA32482A4A2FA1784400F0B0F978
:100E200020B92F4878440A3800F051FA402322486C
:100E3000DC000021224600F008F920B12548784462
:100E4000543800F044FA1D4822464023002100F0A7
:100E5000FCF820B121487844543800F038FA18489A
:100E600022461023002100F0F0F8002806D01C488C
:100E70007844BDE81040563800F029BA10BD10483B
:100E800070B5006D20F001040B4800F0F1F90B483B
:100E900000F0EEF90A4800F0EBF909E0206D20F0CF
:100EA0000105204600F0E4F9204600F0A7F82C46A2
:100EB000002CF3D170BD0000280000207C00002031
:100EC000D0000020000000200400002008000020C6
:100ED00072000000464D000077000000324D000017
:100EE0001E4D00000EB5CDE9000100F04FFB029051
:100EF00069460120ABBE0EBD08B5694600900220D0
:100F0000ABBE08BD1FB58DE8070069460520ABBE26
:100F100004B010BD1FB58DE80F0069460620ABBEBA
:100F2000F6E708B5694600900920ABBE08BD1CB5C0
:100F3000CDE9000169460A20ABBE1CBD704708B56B
:100F4000694600900C20ABBE08BD00000048704709
:100F5000240100207546FFF7F9FFAE4605006946FB
:100F6000534620F00700854618B020B5FFF734F946
:100F7000BDE820404FF000064FF000074FF000089A
:100F80004FF0000BAC46ACE8C009ACE8C009ACE8D7
:100F9000C009ACE8C00921F007018D46704770B563
:100FA000064600F005FA056806F10B0020F007047C
:100FB000B4429CBF002070BD2B466A68BAB110686D
:100FC000A04210D304F1080188423CBF5068586029
:100FD00007D35168101941601168091B01605860FE
:100FE0001460101D70BD13465268002AE7D12146D7
:100FF000284600F0E5F90028DED170BD70B5044642
:10100000051F00F0D5F90068002C14BF446870BDBE
:10101000002C18BFAC423CBF20466468F8D301687E
:101020000A18AA4218BF456003D12A680546114430
:10103000016028684119A1421CBF6C6070BD6168E5
:10104000696021680844286070BD70B5C468A50750
:1010500013D0650211D4B2F5807F09D0B2F5007FBC
:1010600006D0B2F5806F08D1012300F1240106E01B
:101070005D1E6FF07F46B54201D3012070BD016156
:10108000C361416024F470611143C160002070BDF0
:10109000C16821F4001141F08001C160002181602C
:1010A000016070472DE9F047814614460E464FF027
:1010B000FF383248D5685769054209D03846A169DA
:1010C000FFF735FF002811DB2C48C0430540E560E1
:1010D0002B46324649463846FFF714FFA16920F0F7
:1010E0000042B21A11440028A16103D02046FFF744
:1010F000CFFF4046BDE8F08770B504460569C06A79
:101100006168884200D80846E16821F42011E16056
:10111000C90312D5A84208D02246411B2846FFF732
:10112000C1FF10B14FF0FF3070BD0020E562C4E98F
:101130000150E06820F48030E060002070BD10B500
:101140000446C06820F02000E060A16AA0698842DF
:101150000DD02046FFF7D0FFE06820F4405040F06B
:101160001000E060A06AA0612069E062606044F263
:101170004001E0688843E06010BD000010000200FC
:101180002DE9F0410C461646070047D0104600F006
:101190006FF82078611C61280AD0722802D0772865
:1011A0003CD102E00125002405E00225042402E0F0
:1011B000082448F2020511F8010B2B2806D06228FA
:1011C00009D011F8010C74280AD00BE045F0030592
:1011D00044F00204EFE745F0040544F00104EAE7B7
:1011E00044F0100438462146FFF77CFE411C15D020
:1011F0000021316171604FF40071F560F16170613F
:10120000200704D530460222002100F023F9306D7A
:1012100040F0010030653046BDE8F0810020FBE77A
:101220002DE9F0410D460646104C206DC10704D053
:10123000410804D020F00104F7E722460EE05420D4
:10124000FFF7ADFE07000ED0206D47F00101084307
:1012500054212065384600F041F83A462946304688
:10126000BDE8F0418CE70020D6E700002800002010
:101270002DE9F04704464FF000094FF0FF37C568ED
:10128000D4E90486A80707D02046FFF735FF30468B
:10129000FFF732FE002802DA3846BDE8F08728055D
:1012A00002D54046FFF7AAFE4C21204600F016F872
:1012B000206D20F0010020654846EEE710B5044699
:1012C000AFF300802046BDE81040FEF771BF10B5B7
:1012D00000F042F9BDE8104000F038B94FF00002CC
:1012E00000B5134694469646203922BFA0E80C501C
:1012F000A0E80C50B1F12001BFF4F7AF090728BFF7
:10130000A0E80C5048BF0CC05DF804EB890028BF72
:1013100040F8042B08BF704748BF20F8022B11F09B
:10132000804F18BF00F8012B704700004FF0013CC0
:1013300050F8042B51F8043B9A4221D1A2EB0C0344
:10134000934313EACC1317D150F8042B51F8043B04
:101350009A4215D1A2EB0C03934313EACC130BD1A1
:1013600050F8042B51F8043B9A4209D1A2EB0C032C
:10137000934313EACC13DBD04FF00000704700BF5B
:10138000D01A01BAB1FA81F101F0180122FA01F084
:10139000CB40DBB2C0B2C01AC1F120012CFA01F37C
:1013A000D11A914311EAC311E6D17047704700008A
:1013B000004870472C010020704770477047704705
:1013C00038B504460A4600206946AFF3008000287D
:1013D00008BF38BD02460099204600F0FDF8012004
:1013E00038BD012000F04CB9F8B5AFF300800546D8
:1013F00000200C46102000BF0646A819A0420DD9B7
:10140000324669460020AFF30080070008BF00F0B5
:1014100037F90098A04218BF0546C419FFF7C8FF66
:1014200005600746F01D20F007004619284600F029
:101430000AF8B44208BFF8BDA21B31463868BDE8BF
:10144000F84000F0C9B800210160C0E90110704700
:10145000102070472DE9F041044616460D464769B5
:10146000007B80072ED03846FFF75BFD50BB3EB3B4
:10147000012E02D0022E25D104E0204600F0C6F84D
:1014800005441DE03846FFF75AFDE168002841F0A9
:101490001001E16005DA2046FFF7FAFD0120BDE802
:1014A000F081C9030BD56268E16A914200D8114608
:1014B000A26911442269891A814200DD0846054467
:1014C000002D01DA0220EAE7E16A6068E268814201
:1014D00006D29103E06203D522F4003141F01002FC
:1014E000A6690027AE4213DCE16A814201D90B46AE
:1014F00000E0034603EB060C2369ACEB030CAC45A0
:1015000006DD814201D98C4600E084469C4505D128
:10151000A760276042F02000A5620DE0AD1BE669E0
:10152000AE1B8142A66000D90846C01A281A206066
:101530005819606022F0200003490840E060002054
:1015400084F84870ABE70000BFCFD7FF002801D078
:1015500000F03CB87047000010B5014602A000F052
:1015600076F8012010BD00005349475254524544BB
:101570003A2052656469726563743A2063616E272C
:1015800074206F70656E3A200000000010B5431C97
:1015900002E010F8011B71B18107FAD14FF001325E
:1015A00002C88C1A8C4314EAC211F9D0C01A0A0678
:1015B00003D0C01E10BDC01A10BD0A0401D0801E89
:1015C00010BD0902FCD0401E10BD000001491820CA
:1015D000ABBEFEE726000200034640688C460028AA
:1015E00018BF88423CBF03464068F8D318681844C7
:1015F000884207D00CF1030020F00700001D411ABB
:10160000521A0146081D0A60FFF7F8BC10B50146E2
:10161000C268900703D0900607D5886A0AE0FFF7F2
:10162000BBF901210160881E10BD8B694868184410
:101630000B69C01A91F848301BB191F84910401A53
:1016400010BD1103FCD50028FADD401E10BD70B599
:1016500005460C460A2000E06D1C00F018F835B174
:1016600028780028F8D102E0641C00F010F814B1CA
:1016700020780028F8D1BDE870400A2000F007B8B3
:1016800010B500F00BF8BDE81040FFF75FBF08B5DC
:1016900069468DF800000320ABBE08BD10B50128D7
:1016A00005D0002103A0FFF7D2FF012010BD09A142
:1016B000F8E7000053494752544D454D3A204F75C5
:1016C00074206F662068656170206D656D6F72793A
:1016D000000000003A2048656170206D656D6F72F2
:1016E0007920636F7272757074656400FEE70000A4
:1016F00040F21020C2F2000000F0A0B840F25420E6
:10170000C2F2000000F09AB840F2DC20C2F2000001
:1017100000F094B840F29820C2F2000000F08EB8B9
:1017200040F2CC10C2F2000000F088B840F28810FD
:10173000C2F2000000F082B870470000EFF31080A2
:1017400072B600BFFEE70000014690F821000228B3
:1017500016D10868D1E90FC3026822F00E020260B8
:10176000026822F001020260012000FA03F2CCF8C4
:10177000042081F821000020002281F820207047F9
:10178000042088630120002281F820207047000097
:1017900080B590F82110022924D10268116821F047
:1017A0000E0111602F211368C4F202018A4240F237
:1017B0000401C4F2020123F00103136016DD30239B
:1017C000C4F202039A421DD04423C4F202039A4297
:1017D0001CD05823C4F202039A421DD14FF4803327
:1017E00022E000BF04218163012080BD0823C4F2F0
:1017F00002039A420ED01C23C4F202039A420BD178
:10180000102311E04FF480730EE000BF4FF48053BB
:101810000AE000BF012307E001F1680C4FF080737C
:10182000624508BF4FF480130B60416B4FF4807228
:10183000028401B18847002080BD000010B5D0E9C6
:101840000FCE0168DCF800300A6823FA0EF35C075B
:101850002AD512F0040427D00A68920603D40A6835
:1018600022F004020A602F22C4F20202914240F2E6
:101870000402C4F2020259DD3023C4F20203994289
:1018800070D04423C4F20203994271D05823C4F2A9
:101890000203994278D14FF480231360C16A002972
:1018A00040F097806EE000BF9C0727D512F002043D
:1018B00024D00A68920606D40A6822F00A020A6056
:1018C000012280F821202F22C4F20202914240F22C
:1018D0000402C4F2020239DD3023C4F20203994249
:1018E0005ED04423C4F2020399425DD05823C4F26F
:1018F000020399425ED14FF4003363E01B0741D5E8
:1019000012F0080208BF10BD0A6822F00E020A6039
:10191000012101FA0EF2CCF804208163016B4FF42F
:1019200080720029028454D12CE000BF0823C4F245
:101930000203994222D01C23C4F20203994223D10C
:1019400040231360C16A002943D11BE00823C4F27D
:10195000020399422CD01C23C4F20203994229D1DC
:1019600020232FE04FF480631360C16A89BB09E034
:101970004FF480431360C16A59BB03E00423136032
:10198000C16A31BB10BD00BF02F168044FF0806333
:10199000A14208BF4FF480031360C16AC9B9F1E7DF
:1019A0004FF400730EE000BF4FF400530AE000BF95
:1019B000022307E002F168044FF00073A14208BF60
:1019C0004FF400131360816A0022002980F8202060
:1019D000D8D0BDE810400847002804BF0120704758
:1019E0002DE9F04101684FF6F872CBF6FD724CF626
:1019F000CD430A44CCF6CC43A2FB03236FF003078C
:101A000007EA93030027C4F2020700F1040E00F175
:101A10001008C0E90F739EE8045098E870010B6845
:101A200043F6F077BB431A4342EA0C0242EA0E0245
:101A300022432A43324342EA08020A6000214FF45B
:101A4000807281630284BDE8F0410846704700005F
:101A5000F0B590F820C0BCF1010F32D090F821C051
:101A60004FF0010EBCF1010F80F820E026D14FF0BD
:101A7000020C80F821C04FF0000CC0F838C0D0E94B
:101A800000C4C56AC66BDCF80070102C27F0010793
:101A9000CCF80070006C0EFA00F070600846CCF8CC
:101AA000043004BF10460A46CCF80800CCF80C20DD
:101AB000DCF8000045B140F00E000DE0002180F898
:101AC00020100220F0BD00BF20F00400CCF8000080
:101AD000DCF8000040F00A00CCF80000DCF8000060
:101AE00040F00100CCF800000020F0BDB0B5044685
:101AF00000F020F9054640F20C00C2F20000007828
:101B0000611C18BF044400BF00F014F9401BA04240
:101B1000FAD3B0BD2DE9F04F82B041F20042C4F2D9
:101B200001020E680423904208BF0323002E009395
:101B300000F0F68040F20C4E4FF6FF7CC4F2010E2E
:101B400000220124C1F2100C4FF0000A4FF00009EE
:101B500043E000BF012502F00C040F27A7402BEA49
:101B6000070705FA04F43C4343F82640D1F804B0D3
:101B700040F20045C4F201055FEACB332B6854BF45
:101B800023EA080343EA08032B606B685FEA8B349F
:101B900054BF23EA080343EA08036B605FEACB24DF
:101BA000AB6854BF23EA080343EA08035FEA8B24C7
:101BB000AB60DEF800304FF0010454BF23EA0803A5
:101BC00043EA0803CEF800300E680AF1010A36FA3B
:101BD0000AF302F1040200F0A38004FA0AF816EAFC
:101BE000080FF1D04B68634512DC122B56D8DFE8A2
:101BF00003F0350B454955555555555555555555D2
:101C00005555554D510000BFD1F80C9046E000BF2E
:101C10004FF6FF77C1F22107BB420FDC0027C1F26C
:101C20001107BB421AD00027C1F21207BB4215D0E0
:101C30000027C1F22107BB4210D02FE00027C1F2DC
:101C40002207BB420AD00027C1F23107BB4205D0B0
:101C50000027C1F23207BB4220D100BF8B684BB1D5
:101C6000012B14BFC0F81480C0F810804FF0080991
:101C700014E000BF4FF0040910E000BFCB6803F18F
:101C800008090BE04FF0000908E000BFCB6803F142
:101C9000040903E0CB6803F10C0900BF13460546B5
:101CA000BAF1080F24BF203B04352E680F279F4050
:101CB000BE4309FA03F333432B60CB79DB067FF590
:101CC00083AF41F21804C4F2020423684FEA9A0673
:101CD00043F001032360236840F6000403F001038E
:101CE0000193019B40F20043C4F20103A3F57E730C
:101CF00053F826B0C4F20104A0420FD040F60044CD
:101D0000C4F20104A0423FF425AF41F20004C4F242
:101D10000104009DA04208BF02251CE700251AE728
:101D200002B0BDE8F08F0000002A08BF090401617D
:101D30007047000040F25440C2F200000068704753
:101D400070470000006C704790F83D00704700003D
:101D500070B5B8B3044690F83D0028B9002084F867
:101D60003C00204600F00AFF242084F83D00206853
:101D7000016821F001010160016841F40041016046
:101D8000016821F40041016001F0F8F848F2804157
:101D9000C0F21E0140F60013D4F804E088424FF070
:101DA0000001C0F23D0348F2A16C4FF0000238BFC1
:101DB00001219842C0F2010C38BF0122E64538BF2C
:101DC0000A460AB1012070BD4DF68361C4F21B3191
:101DD000A0FB01122168950C4B684FF4967623F016
:101DE0003F0343EA9243754344F6D3564B60C1F236
:101DF00062060B6AA5FB0656B50923F03F03E645CC
:101E000038BF950C6A1C1A430A62CA6948F2A06678
:101E10004CF6FF73C0F20106B64522EA03020BD866
:101E200001384FEA4E03B0FBF3F001306FF31F307F
:101E3000042898BF04201EE0A368013863B1192369
:101E40000EFB03F3B0FBF3F001306FF31F3078B1FA
:101E500000F5804008E000BF0EEB4E03B0FBF3F04E
:101E600001306FF31F3028B100F5004003E000BFE0
:101E7000012000E001201043C8610868D4E907236D
:101E800020F0C000104318430860886848F2FF3211
:101E900004F10C0690434CCE18431043A5698860AA
:101EA000C86820F0FF0030432843C860086840F04D
:101EB0000100086000202021206484F83D10206388
:101EC00084F83E0070BD0000704700002DE9F0432B
:101ED00081B01F46164688460446FFF72BFF94F84C
:101EE0003D10202920D1054620688169890717D532
:101EF000FFF720FF401B1928F6D90020202120637E
:101F000084F83D1084F83E00216C022641F0200147
:101F1000216484F83C00304601B0BDE8F08300BF86
:101F200094F83C10012905D10226304601B0BDE8E5
:101F3000F08300BF012184F83C100168C90703D178
:101F4000016841F001010160016821F40061016054
:101F5000212184F83D10102184F83E1000212164D5
:101F600066626785618D21850021CFF6FF71E16290
:101F7000E16A11F5803F18BF012919D1016841F4C8
:101F8000807101604169DDF82090C90723D119F102
:101F9000010116D0B9F1000F46D000BFFFF7CAFE0D
:101FA000401B484542D820684169C907F6D012E075
:101FB0000829E3D0216B1229E0D0E3E74169C90782
:101FC00009D14169C90706D14169C90704BF4169FF
:101FD0005FEAC171F2D02169B1F5804F02D1FE21D3
:101FE00061E000BF062101EAD811F03101614169C9
:101FF000090757D4416919F1010201F480612FD01A
:10200000002946D1B9F1000F00F04281FFF792FE9E
:10201000401B484500F23E8120684169090741D4D0
:1020200041694905F2D534E0FFF784FE0020202104
:10203000206384F83D1084F83E00216C012641F0B5
:1020400020012164216884F83C000868C00544BF71
:102050004FF400702064304601B0BDE8F08300BF4B
:10206000B9B9416909071DD44169490511D44169CC
:10207000090717D4416949050BD44169090711D4EF
:102080004169490505D4416909070BD441694905EE
:10209000E7D5016841F4007101606FF4806141612E
:1020A0000420F8E0FF2101EA080101614169890784
:1020B0003AD4416919F1010201F4806112D051BB97
:1020C000B9F1000F00F0E080FFF734FE401B4845F7
:1020D00000F2DC8020684169890725D441694905FF
:1020E000F2D518E0B9B9416989071DD4416949059C
:1020F00011D44169890717D4416949050BD4416955
:10210000890711D44169490505D4416989070BD470
:1021100041694905E7D5016841F4007101606FF438
:10212000806141610420B6E000260096416900917B
:10213000816900910099218D002900F0958009F1B5
:102140000108014651F8142F120635D4B8F1000FDA
:1021500016D0B9F1000F00F0AF8000BF086840054D
:1021600000F1B280FFF7E6FD401B484500F2A98070
:102170002068014651F8142F1206EFD51CE000BF6D
:102180000A68520500F1A0800A68120614D40A6891
:10219000520500F199800A6812060DD40A685205AA
:1021A00000F192800A68120606D40A68520500F10E
:1021B0008B800A681206E3D5636A194611F8012B71
:1021C00002616162618D01396185278D0146A7F148
:1021D000010CA4F828C051F8142F52070DD55FEA5E
:1021E0000C420AD05A78A7F1020C02619A1C626272
:1021F000628D013A6285A4F828C00A6852072FD47C
:10220000B8F1000F14D0B9F1000F7BD00868400579
:1022100000F18080FFF78EFD401B484577D820688D
:10222000014651F8142F5207F0D5B4F828C017E032
:102230000A6852056ED40A68520711D40A6852051A
:1022400068D40A6852070BD40A68520562D40A6837
:10225000520705D40A6852055CD40A685207E7D5CC
:102260005FEA0C417FF46DAF016841F400710160D9
:10227000202084F83D0084F83E6084F83C603046BD
:1022800001B0BDE8F08300BFFFF754FD202002E05D
:10229000FFF750FD202000212022216384F83D20FB
:1022A00084F83E10226C01261043206484F83C1010
:1022B000304601B0BDE8F0830868400504D4FFF75C
:1022C00039FD202004E000BF6FF480600860042026
:1022D00000212022216384F83D2084F83E10226CE6
:1022E0001043206484F83C10206C042825D1206819
:1022F0000126016841F400710160304601B0BDE87B
:10230000F08300BF0868400504D4FFF713FD2020C8
:1023100004E000BF6FF480600860042000212022E8
:10232000216384F83D2084F83E10226C1043206421
:1023300084F83C10206C0428D9D00126304601B026
:10234000BDE8F083704700002DE9F04F85B00446EA
:1023500000201E4617460D460490FFF7EBFC94F84C
:102360003D10202923D1804620688169890719D52D
:10237000FFF7E0FCA0EB08001928F5D90020202188
:10238000206384F83D1084F83E00206C04F13C0981
:1023900040F0200020640220002189F8001005B0E0
:1023A000BDE8F08FA14619F83C1F012904D1022095
:1023B00005B0BDE8F08F00BF012289F80020036856
:1023C000DDE90F1A0E9ADB0703D1036843F001031E
:1023D0000360036823F400630360222084F83D0057
:1023E000402084F83E000020206462626185608D98
:1023F000294620850020CFF6FF70E06220463A464D
:102400003346CDF800A0CDF8048001F0A7FB18B149
:10241000012005B0BDE8F08F208D022810D00128E2
:1024200024D0002838D1002003902068416903910E
:10243000816903910399016841F40071016037E0FB
:102440002068016841F400610160EFF3108072B60A
:1024500000200390206841690391816903910399E9
:10246000016821F48061016062B621E020680168A2
:1024700021F480610160EFF3108072B600200390B8
:10248000206841690391816903910399016841F4CE
:102490000071016062B60BE02068016841F4806160
:1024A00001600021039141690391806903900398C1
:1024B000208D002800F0238140F2200B4BF2895739
:1024C0000AF10105C2F2000BC1F2F847232680B2DF
:1024D000032819D8022845D001286FD1BAF1000F7E
:1024E00000F0FA802068014651F8142F520600F1DE
:1024F000F7800868C00600F12F81FFF71BFCA0EBF6
:1025000008005045EED91CE1BAF1000F12D000BF0F
:102510002068014651F8142F520610D40868C006EE
:1025200000F11A81FFF706FCA0EB08005045EFD937
:1025300007E100BF20684169490640F1FB8000695E
:10254000616A0870606A2268411C208D61620138EE
:102550002085638D013B638553695B0740F1CC8027
:102560001069BFE020684169490711D4002D00F0CF
:102570009380BAF1000F00F0E280FFF7DBFBA0EBE5
:102580000800504500F2DD80206840694007F4D51E
:10259000EFF3108072B62068616A026842F400723C
:1025A000026000690870606A218D01306062481E17
:1025B0002085608D0138608562B668E020684169D9
:1025C000490710D4002D77D0BAF1000F00F0B78082
:1025D000FFF7B0FBA0EB0800504500F2B280206886
:1025E00041694907F4D5016821F480610160EFF386
:1025F000108072B62068616A00690870606A218D77
:102600000130013960622185618D01396185DBF816
:102610000010C908A1FB0712110A71430491049923
:10262000013904910499002976D021684A6952073A
:102630001DD4049901390491049900296CD02168B2
:102640004A69520713D40499013904910499002965
:1026500062D021684A69520709D40499013904916A
:102660000499002958D021684A695207D7D50A68C9
:1026700042F400720A6009690170606A218D0130BC
:102680006062481E2085608D0138608562B62068D2
:10269000616A006926E000BF416949073FF578AFEC
:1026A000416949075CBF41695FEA41713FF570AF1D
:1026B00041694907F0D56BE74169490793D44169FE
:1026C00049075CBF41695FEA41713FF58CAF4169E1
:1026D0004907F1D587E700BF20684169490629D538
:1026E0000069616A0870606A218D01306062481E6D
:1026F0002085618D0139618501047FF4E8AE2020D9
:1027000084F83D00002084F83E00002189F8001084
:1027100005B0BDE8F08F00BF00202021206384F8C1
:102720003D1084F83E00206C40F02000206462B62A
:102730001EE000BF50F8141FC90601460CD4FFF775
:10274000F9FA00202021206384F83D1084F83E002F
:10275000206C40F020000AE06FF0100008600020BC
:102760002021206384F83D1084F83E00206C206412
:102770000120002189F8001005B0BDE8F08F0000AD
:102780002DE9F04385B0984616460F460446FFF7FC
:10279000D1FA0021049194F83D1020293AD1054640
:1027A00040F22000C2F2000000684BF28951C008DC
:1027B000C1F2F841A0FB0101DDE90C20090A19234F
:1027C00059430491049901390491049931B3216862
:1027D0008B699B071AD50499013904910499E9B1D1
:1027E00021688B699B0711D50499013904910499DB
:1027F000A1B121688B699B0708D50499013904911F
:10280000049959B121688B699B07DBD494F83C305B
:10281000012B15D1022005B0BDE8F0830020202156
:10282000206384F83D1084F83E00216C41F02001C3
:10283000216484F83C00012005B0BDE8F08300BFAE
:10284000012384F83C300B68DB0703D10B6843F0AD
:1028500001030B600B6823F400630B60222384F8F0
:102860003D30402384F83E3000232364626260855B
:10287000638D0020CFF6FF702385E06223B3A06B49
:10288000002841D043F6392C43F6FD1EC0F6000C5B
:10289000C0F6000E4FF000091031C0E90AC9C0E9C6
:1028A0000CE9FFF7D5F8C8B3202084F83D0084F880
:1028B0003E90206C40F01000206484F83C90012091
:1028C00005B0BDE8F08300BF2320009020463946C4
:1028D00032464346019501F041F90028ABD1002072
:1028E000029021684A6902928A690292029A0A68F1
:1028F00042F400720A60202184F83D1084F83C0004
:1029000005B0BDE8F08300BF202084F83D00002022
:1029100084F83E00216C41F0800189E7232000907B
:102920002046394632464346019501F017F9A8B1D1
:10293000A06BFEF72DFFA16B206800228A62016860
:1029400021F48061016022856285016821F0010126
:102950000160012005B0BDE8F08300BF208D216833
:10296000012805D1086820F48060086004E000BFF9
:10297000486840F480504860002003904A69039200
:102980008A690392039A84F83C004A6842F4807290
:102990004A604A6842F400624A6005B0BDE8F083CC
:1029A0002DE9F04383B0994616460F460446FFF7DB
:1029B000C1F994F83D1020291CD105462068816991
:1029C000890713D5FFF7B6F9401B1928F6D900205F
:1029D0002021206384F83D1084F83E00216C41F0F2
:1029E0002001216484F83C0004E000BF94F83C100E
:1029F000012903D1022003B0BDE8F083012284F84D
:102A00003C200368DDE90B180A9ADB0703D1036851
:102A100043F001030360036823F400630360212093
:102A200084F83D00402084F83E000020206462626B
:102A30006185608D394620850020CFF6FF70E06209
:102A4000204632464B46CDF80080019501F016FA3B
:102A500020B1012003B0BDE8F08300BF208D002825
:102A600050D0206808F10106014651F8142F1206D3
:102A70002CD49EB1B8F1000F5AD000BF08684005B1
:102A80005ED4FFF757F9401B404556D820680146F1
:102A900051F8142F1206F1D518E000BF0A6852054C
:102AA0004ED40A68120611D40A68520548D40A683E
:102AB00012060BD40A68520542D40A68120605D4DD
:102AC0000A6852053CD40A681206E7D5626A1146C4
:102AD00011F8013B0361238D6162591E2185678DC9
:102AE000013F678547697F070AD50F0408D05178F1
:102AF0000161911C6162991E2185628D013A628596
:102B00000904B1D1204641462A4601F0F1FA38BB0A
:102B10002068016841F400710160202084F83D00C4
:102B2000002084F83E0084F83C0003B0BDE8F08348
:102B30000868400504D4FFF7FDF8202004E000BF3A
:102B40006FF480600860042000212022216384F853
:102B50003D2084F83E10226C1043206484F83C1021
:102B6000206C04287FF475AF2068016841F400717F
:102B70000160012003B0BDE8F08300002DE9F041C1
:102B800086B0044645F200402168C4F200000027E8
:102B90008142049702D006B0BDE8F08141F21805E9
:102BA000C4F20205296840F26C0841F0080129606E
:102BB000296800F5384001F0080101910199C02110
:102BC0000291122103910321059102A9C4F2020886
:102BD000FEF7A0FF6868802640F40010686068680F
:102BE00040F2881500F400100190019808F11400DB
:102BF000C2F20005C5E900072846C5E90276C5E925
:102C00000477C5E90677FEF7E7FE002818BFFEF750
:102C100095FDA5636C6240F2CC15C2F20005102050
:102C20000021C5E900802846C5E90216C5E904115E
:102C3000C5E90611FEF7D0FE002818BFFEF77EFD9D
:102C400065636C6206B0BDE8F0810000704700006B
:102C50007047000040F20C0040F25441C2F2000004
:102C6000C2F2000100780A68104408607047000052
:102C700080B542F20000C4F20200016841F0100188
:102C80000160032000F08AF80F2000F005F800F042
:102C900027F8002080BD000070B540F20C06C2F29B
:102CA000000640F220013278C2F200014FF47A733C
:102CB0000968B3FBF2F20446B1FBF2F1084600F0FA
:102CC00025FC0F2C4FF0010508D838B94FF0FF3024
:102CD00021460022002500F035F87460284670BDBA
:102CE00082B041F21800C4F202000168022241F0F1
:102CF00001010160016801F0010101910199416840
:102D000041F080514160406800F080500090009890
:102D10000420C4F20100016862F31A61016002B08C
:102D200070470000002848BF704700F01F010122D3
:102D300002FA01F14EF200124009CEF2000242F80E
:102D40002010704710B54EF60C5CCEF2000CDCF88B
:102D50000030C3F3022E8EF00704042C28BF042495
:102D6000BEF103034FF0FF3E0EFA04F438BF002318
:102D7000A14399400EFA03F39A43114300F00F0266
:102D8000043A624409010C3200F16043B0F1FF3FA4
:102D9000C8BF03F56442117010BD00004EF60C511F
:102DA000CEF200010A684FF6FF031A4060F30A22D0
:102DB00042F0806040F0FD70086070472DE9F043FC
:102DC00081B0002800F0858042F20008C4F20208B9
:102DD0000446D8F800000D4600F0070088420CD2E7
:102DE000D8F8000020F007002843C8F80000D8F801
:102DF000000000F00700A8426BD1206841F20409EE
:102E00008107C4F2020917D5410705D5D9F800108A
:102E100041F4E061C9F80010010705D5D9F80010A8
:102E200041F46051C9F80010D9F80010A26821F0EF
:102E3000F0011143C9F80010C00741D1D8F80000D3
:102E400000F00700A8420CD9D8F8000020F00700D5
:102E50002843C8F80000D8F8000000F00700A84296
:102E600037D12068410707D5D9F80010E26821F46E
:102E7000E0611143C9F80010000708D5D9F8000037
:102E8000216920F4605040EAC100C9F80000D9F877
:102E9000002002F00C00082841F20020C0F27A0065
:102EA00050D145F65A33C2F38341C0F60003595C52
:102EB000D2033BD440F60010C0F23D00484341E04D
:102EC000606802280AD001282AD159F8041C890315
:102ED00008D4012001B0BDE8F08300BF59F8041CFC
:102EE0008901F6D5D9F8001021F003010843C9F88B
:102EF0000000FEF71FFF064641F28837D9F80000B0
:102F0000616800F00C00B0EB810F97D0FEF712FF64
:102F1000801BB842F2D9032001B0BDE8F08300BFA6
:102F200059F8041C8907D4D5DCE700BFD9F8002084
:102F300045F64033C2F34042C0F600039A5C484372
:102F4000B0FBF2F0D9F8001045F64232C1F303119C
:102F5000C0F60002515C40F2200220FA01F140F27A
:102F60001000C2F200000068C2F200021160FFF718
:102F700093FE002001B0BDE8F083000040F2200085
:102F800041F20401C2F20000C4F2020100680968C3
:102F900045F65232C1F30221C0F60002515CC8402E
:102FA0007047000040F2200041F20401C2F200002C
:102FB000C4F202010068096845F65232C1F3C22129
:102FC000C0F60002515CC840704700002DE9F04196
:102FD00082B0002868D00446007841F20006C0079D
:102FE000C4F2020625D0706800F00C0004281BD043
:102FF000706800F00C00082802D17068C00313D478
:103000006068002800F06881B0F5A02F00F07C8196
:10301000B0F5803F00F07C81306820F48030306073
:10302000306820F4802076E13068800301D5606844
:10303000D0B32078800718D5706810F00C0F07D037
:10304000706800F00C0008286ED17068C0036BD463
:103050003068800702D52069012825D13068616970
:1030600020F0F80040EAC1003060207800071FD44B
:103070002078400732D4E56995B1706800F00C0003
:10308000082840F08F80012D0ED07068216A00F46E
:1030900080328A4208D1616A00F47010884203D1FC
:1030A000002002B0BDE8F081012002B0BDE8F0814F
:1030B000A069002862D00020C4F242200121C0F89B
:1030C0008014FEF737FE0546706A800700F18C8099
:1030D000FEF730FE401B0228F6D92AE1F06910F015
:1030E000805808D1F06940F08050F061F06900F03C
:1030F00080500090009847F20007C4F2000738683B
:10310000C00529D4386840F480703860FEF712FE9C
:10311000054600BF3868C0051ED4FEF70BFE401BF5
:103120006428F7D905E100BF2069002840F20000BB
:10313000C4F2422000F0828001210160FEF7FAFD16
:10314000054600BF306880073FF588AFFEF7F2FD07
:10315000401B0228F6D9ECE0E068002800F08080EF
:10316000052800F09780012800F09880306A20F050
:1031700001003062306A20F0040092E00020C4F2C6
:1031800042200021C0F88014FEF7D4FD054600BFA0
:10319000706A80077FF56CAFFEF7CCFD401B0228FC
:1031A000F6D9C6E00027C4F2422700203866FEF7B1
:1031B000C1FD022D05460BD13068800140F1BE8073
:1031C000FEF7B8FD401B02284FF00300F4D968E772
:1031D000306880017FF564AFFEF7ACFD401B02282C
:1031E0004FF00300F4D95CE740F22000C2F2000087
:1031F000006844F6D351C1F26201A0FB0101480A04
:10320000019000BF00BF0198411E002801913FF4CA
:103210002FAF00BF0198411E002801913FF428AF55
:1032200000BF0198411E002801913FF421AF00BF6B
:103230000198411E00280191E4D119E700210160A5
:10324000FEF778FD054600BF306880077FF50DAFBB
:10325000FEF770FD401B02284FF00300F4D920E771
:10326000306A20F001003062306A20F004003062E1
:10327000FEF760FD054641F2883700BF306A8007DF
:1032800020D5FEF757FD401BB8424FF00300F5D99B
:1032900007E700BF306A40F004003062306A40F057
:1032A00001003062FEF746FD054641F2883700BF57
:1032B000306A800706D4FEF73DFD401BB842F7D9BF
:1032C00037E000BFB8F1000F7FF4D5AEF06920F011
:1032D0008050F061CFE600BF306820F4803030606D
:1032E000306820F480203060FEF724FD054600BFE2
:1032F000306880037FF59DAEFEF71CFD401B6428FF
:103300004FF00300F4D9CCE6306840F48020306000
:10331000306840F480303060FEF70CFD054600BF99
:10332000306880033FF585AEFEF704FD401B64283E
:10333000F6D9032002B0BDE8F08100BF206AB0F5E5
:10334000803F05D17168A26821F40031114371609A
:103350007168626A21F4741110430843706001209F
:103360003866FEF7E7FC0446306880013FF598AE0A
:10337000FEF7E0FC001B02284FF00300F4D990E6B2
:1033800070B538B10446406A30B10020206104F1C4
:10339000140007E0012070BD6068B0F5827F03D0A3
:1033A00004F11C00002101600026A66294F851007F
:1033B00020B9204684F8506000F038F8022084F8E4
:1033C000510094E8071001F48271036802F404428A
:1033D00023F040030360236911440CF4006211449C
:1033E00003F002026369114403F00102A369E56975
:1033F000114403F40072114405F03802256A1144A7
:1034000005F08002A56A114305F4005211430160E2
:10341000042101EA13414160C16921F40061C161E5
:103420000120666584F85100304670BD2DE9F041F9
:1034300086B040F600050446C4F20105006805F5B3
:10344000205100278842049702D006B0BDE8F081E1
:1034500041F21800C4F20200016802AE41F480514A
:103460000160016840F21C0801F48051019101994A
:103470000168C4F2020841F00401016000683146AD
:1034800000F0040001900198B02002900220039007
:10349000032005902846FEF73DFB4020CDE90207BA
:1034A000284631460497FEF735FB40F21025C2F25C
:1034B000000580262846C5E90087C5E90276C5E9EA
:1034C0000477C5E90677FEF787FA002818BFFEF7EC
:1034D00035F9E5646C6240F2542508F11400C2F23B
:1034E00000051021002285E847002846C5E904228E
:1034F000C5E90622FEF770FA002818BFFEF71EF98C
:10350000A5646C6206B0BDE8F0810000411E002099
:10351000B0EB116F1CBF012070474EF21002CEF2CB
:10352000000251604EF62351CEF20001F0230B70E1
:1035300007219060116070477047000070470000DD
:10354000B0B582B0026805461068D368546900F0CF
:103550002F01202903F0200106D129B1284602B00D
:10356000BDE8B04001F052B85FEA007C1EBF04F035
:10357000010E03F4907414EB0E0455D1296B01294C
:1035800005D110F0100118BF13F0100136D101065B
:1035900022D513F080011FD095F83D00212841D19C
:1035A000A868B0F5805F03D12869002800F0F68094
:1035B000286A411C296200785060E88C01380104B7
:1035C000E8842FD1D06820F08000D060D06840F02F
:1035D0004000D06002B0B0BD400623D513F04000DB
:1035E00020D0D068202120F04000D060284685F807
:1035F0003D1002B0BDE8B04000F0FCB900200190E1
:10360000106801905068019001985069400613D4E9
:10361000A88DE98DEB8D002B1CBF401A5FEA00419D
:1036200040F0A48002B0B0BDC40718BF13F480738B
:103630002CD1430730D436E0A86B01684B689CB2AC
:10364000002CEFD0A98D8C42ECD2EB858369202B26
:1036500017D0D16821F48071D160516921F0010146
:103660005161516921F040015161202185F83E10DE
:1036700000212963D16821F01001D160FEF764F8C0
:10368000A98DE88D081A81B2284682E02B6C43F0A0
:1036900001032B64430706D5BEF1000F03D02B6C4A
:1036A00043F002032B64830706D5BEF1000F03D05D
:1036B0002B6C43F004032B64BCF1000F06D551EAD8
:1036C0000E0303D02B6C43F008032B642B6C002BF0
:1036D000A8D010F0200018BF002903D0284600F021
:1036E00095FF2A685069296C00F0400001F008013C
:1036F00040182DD0D06820F49070D060506920F030
:1037000001005061286B012803D1D06820F010001F
:10371000D060202085F83E000020286350694006D4
:103720001ED5506920F040005061A86BC0B144F232
:103730000161C0F600014163FEF72AF800283FF45A
:1037400071AFA86B416B02B0BDE8B040084700BF45
:103750002846FFF7F3FE0020286402B0B0BD00BF8A
:10376000284602B0BDE8B040FFF7E8BED16821F4BA
:103770009071D160516921F001015161202185F8DA
:103780003E1000212963D16821F0100381B2284640
:10379000D36002B0BDE8B040FFF7CEBE286A30F873
:1037A000021B6FF35F215160286206E7002804BF07
:1037B0000120704710B5044690F83D0028B900205C
:1037C00084F83C00204600F05FF8242084F83D0097
:1037D0002068D4E90212C36823F40053C36003696C
:1037E00023F440531A430261D4E904231143C2680D
:1037F000194341F20C639A431143C1604169A269C4
:1038000021F44071114343F60002C4F201029042D8
:10381000416103D0FFF7B2FB02E000BFFFF7C2FB3C
:103820006268192148439100B0FBF1F048F21F5142
:10383000C5F2EB11A0FB01235A096FF0630302FBF1
:103840000300322303EB0010A0FB0101F02303EA85
:103850005113206803EB0212C1F34311114481603C
:10386000016921F490410161416921F02A0141611E
:10387000C16841F40051C16000202021206484F817
:103880003D1084F83E1010BD2DE9F04186B004468D
:10389000006844F20041C4F2000100268842059607
:1038A000CDE9036602966BD043F60001C4F2010134
:1038B000884240F09A8041F21800C4F20200016888
:1038C00040F6000541F4804101600168C4F2010541
:1038D00001F4804101910199016802AE41F00401B7
:1038E0000160006840F2440800F004000190019873
:1038F0004FF40070029002200390032005902846A8
:103900003146C4F20208FEF705F94FF44060029018
:10391000002728463146CDE90377FEF7FBF840F251
:10392000982508F11400C2F200058026C5E90007B9
:103930002846C5E90276C5E90477C5E90677FEF7AA
:103940004BF8002818BFFDF7F9FEA5636C6240F242
:10395000DC25C2F200051020C5E900802846C5E933
:103960000276C5E90477C5E90677FEF735F8002841
:1039700018BFFDF7E3FE65636C6206B0BDE8F08139
:1039800041F21800C4F20200416840F6000441F41C
:10399000003141604168C4F2010401F40031019139
:1039A0000199016802AD41F00401016000682946F7
:1039B00000F004000190019804200290022003907E
:1039C000032005902046FEF7A5F80820CDE9020661
:1039D000204629460496FEF79DF826200021002265
:1039E000FFF7B0F92620FFF79DF906B0BDE8F0819A
:1039F0007047000070470000FEE70000406A416B1E
:103A000000291CBF00228A62816B00291CBF002292
:103A10008A6201680A6822F480620A60002120221A
:103A2000418580F83D2080F83E10016C41F0100186
:103A30000164FEF785B9000010B5446A94F83D2092
:103A400094F83EE0D4F82CC02068616B43680029EC
:103A500023F4407343601CBF00238B62A16B0029D9
:103A60001CBF00238B6202F02101212920D002F02B
:103A70002201222908BFBEF1200F19D094F83E1070
:103A8000002908BF10BD618D012903D1016821F40F
:103A9000806101604168BCF1070F21F44071416011
:103AA00028DCBCF12A4F2BD01CF5803F28D02BE01E
:103AB00041682A2A21F4006141604FF000006085CE
:103AC0000AD0292A10D121202063282084F83D0023
:103AD0002046FFF7BDF807E022202063282084F865
:103AE0003D002046FFF7B2F82068416841F440717C
:103AF000416010BDBCF1200F02D0BCF1080F03D112
:103B0000016841F400710160416821F48051416015
:103B1000416821F40061416000206085216C29B179
:103B20002046BDE81040FEF70BB900BF202184F805
:103B30003D1094F83E1084F83E00402906D1002143
:103B400020462163BDE81040FEF7FCBB1221204651
:103B50002163BDE81040FEF7B7B900002DE9F0433E
:103B600083B00446006899460368904643F4806237
:103B7000026002680B9D42F48072026042690A9EF4
:103B8000D2070F461DD1711C11D0002E00F03681D6
:103B9000FEF7D0F8401BB04200F232812068416944
:103BA000C907F5D00DE000BF4169C90709D14169D6
:103BB000C90706D14169C90704BF41695FEAC171FC
:103BC000F2D007F0FE0707614169890738D44169DF
:103BD000721C01F4806111D049BB002E00F03A81C3
:103BE000FEF7A8F8401BB04200F236812068416918
:103BF000890725D441694905F2D518E0B9B9416969
:103C000089071DD44169490511D44169890717D431
:103C1000416949050BD44169890711D441694905B6
:103C200005D4416989070BD441694905E7D5016885
:103C300041F4007101606FF48061416104200CE186
:103C400000210291014651F8142F02924A68029213
:103C5000029A0A68120620D4002E00F0AB80721C73
:103C600051D10A68520500F1AD800A68120614D4D9
:103C70000A68520500F1A6800A6812060DD40A6887
:103C8000520500F19F800A68120606D40A685205A0
:103C900000F198800A681206E3D5B9F1010F45D00A
:103CA0004FEA18210161014651F8142F12063DD444
:103CB000002E00F07F80721C2AD10A68520500F1A4
:103CC00081800A68120631D40A6852057AD40A68DB
:103CD00012062BD40A68520574D40A68120625D439
:103CE0000A6852056ED40A681206E6D51EE000BFC7
:103CF000FEF720F8401BB04261D82068014651F819
:103D0000142F1206C9D408684005F1D55AE000BF47
:103D10000868400556D4FEF70DF8401BB0424ED857
:103D20002068014651F8142F1206F1D55FFA88F188
:103D30000161014651F8142F12061AD4D6B3721C31
:103D400033D10A6852053DD40A68120611D40A68B4
:103D5000520537D40A6812060BD40A68520531D4CA
:103D60000A68120605D40A6852052BD40A6812069E
:103D7000E7D50168002241F48071016020464FF0D0
:103D800001113346009500F007FA002850D0206852
:103D9000006844E0FDF7CEFF401BB0420FD820681A
:103DA000014651F8142F1206E3D408684005F1D5F6
:103DB00008E000BF0868400504D4FDF7BBFF2020E1
:103DC00004E000BF6FF4806008600420002120221E
:103DD000216384F83D2084F83E10226C1043206457
:103DE00084F83C10206C042843D12068016841F419
:103DF00000710160012003B0BDE8F083FDF79AFF78
:103E000000202021206384F83D1084F83E00216CBE
:103E100041F020012164216884F83C000868C00555
:103E200044BF4FF400702064032003B0BDE8F0836A
:103E3000206847F0010101610221C0F20101204622
:103E400032462B4600F050FA002818BF012003B07C
:103E5000BDE8F083FDF76EFF2020002120222163C2
:103E600084F83D2084F83E10226C1043206484F8CE
:103E70003C10012003B0BDE8F08300002DE9F043C1
:103E800081B00446006890460268099D42F4807241
:103E900002604269089E9946D2070F461DD1711CE7
:103EA00011D0002E00F0D280FDF744FF401BB0423D
:103EB00000F2CE8020684169C907F5D00DE000BF4F
:103EC0004169C90709D14169C90706D14169C907D3
:103ED00004BF41695FEAC171F2D007F0FE010161E0
:103EE0004169890738D44169721C01F4806111D09D
:103EF00049BB002E00F0E880FDF71CFF401BB042DC
:103F000000F2E48020684169890725D441694905A8
:103F1000F2D518E0B9B9416989071DD4416949054D
:103F200011D44169890717D4416949050BD4416906
:103F3000890711D44169490505D4416989070BD422
:103F400041694905E7D5016841F4007101606FF4EA
:103F5000806141610420BAE000210091014651F8DE
:103F6000142F00924A680092009A0A6812061ED422
:103F7000002E00F08580721C4DD10A68520500F1B8
:103F800087800A68120612D40A68520500F1808000
:103F90000A6812060BD40A68520579D40A68120618
:103FA00005D40A68520573D40A681206E5D5B9F13A
:103FB000010F43D04FEA18210161014651F8142F37
:103FC00012063BD4002E5BD0721C29D10A68520520
:103FD0005ED40A68120631D40A68520558D40A68B9
:103FE00012062BD40A68520552D40A68120625D448
:103FF0000A6852054CD40A681206E7D51EE000BFD5
:10400000FDF798FE401BB0423FD82068014651F8AA
:10401000142F1206CBD408684005F1D538E000BF54
:104020000868400534D4FDF785FE401BB0422CD80B
:104030002068014651F8142F1206F1D55FFA88F175
:104040000161002001B0BDE8F08300BFFDF772FE02
:1040500000202021206384F83D1084F83E00216C6C
:1040600041F020012164216884F83C000868C00503
:1040700044BF4FF400702064032001B0BDE8F0831A
:104080000868400504D4FDF755FE202004E000BF79
:104090006FF480600860042000212022216384F8EE
:1040A0003D2084F83E10226C1043206484F83C10BC
:1040B000206C042817D12068016841F40071016068
:1040C000012001B0BDE8F083FDF734FE202000217F
:1040D0002022216384F83D2084F83E10226C104396
:1040E000206484F83C10012001B0BDE8F08300009A
:1040F00070B50368044653F8140F400737D40E46D2
:10410000F1B1701C24D100BF1868400532D4186882
:1041100040072CD4186840052CD41868400726D4D2
:104120001868400526D41868400720D41868400550
:1041300020D4186840074FF0000048BF70BDE3E787
:104140001868400516D4FDF7F5FD202016E000BFE5
:10415000154600BF186840050CD4FDF7EBFD401B69
:10416000B042F2D8236853F8140F4007F2D500206C
:1041700070BD00BF6FF48060186004200021202211
:10418000216384F83D2084F83E10226C10432064A3
:10419000012084F83C1070BD2DE9F041054614461D
:1041A000DDF8188001F47F002A681E46B0F5803FD4
:1041B0008FB241D150693840C01BB0FA80F040093D
:1041C000A0427BD1701C2DD0002E7BD0FDF7B2FD1C
:1041D000A0EB0800B04277D8286840693840C01B7F
:1041E000B0FA80F04009A042F0D00020BDE8F08194
:1041F00050693840C01BB0FA80F04009A0425DD140
:1042000050693840C01BB0FA80F04009A04255D137
:1042100050693840C01BB0FA80F04009A0424FF00E
:1042200000005FD150693840C01BB0FA80F04009EF
:10423000A042DDD042E000BF90693840C01BB0FA18
:1042400080F04009A04239D1701C1FD0D6B300BF06
:10425000FDF770FDA0EB0800B04235D828688069F2
:104260003840C01BB0FA80F04009A042F0D00020D6
:10427000BDE8F08190693840C01BB0FA80F0400979
:10428000A0424FF0000018BFBDE8F08190693840AF
:10429000C01BB0FA80F04009A0420FD190693840AD
:1042A000C01BB0FA80F04009A04207D190693840A5
:1042B000C01BB0FA80F04009A042DBD00020BDE86E
:1042C000F08100BFFDF736FD00202021286385F82E
:1042D0003D1085F83E00296C41F02001296485F8E5
:1042E0003C000120BDE8F081F0B581B004460068D3
:1042F0001D4643698FB203EA0701B94202D100208B
:1043000001B0F0BD41691646013201F480610FD061
:1043100059BB9EB3FDF70EFD401BB04230D820685C
:1043200041693940B942EAD041694905F2D51CE0FA
:10433000D9B941693940B942E1D04169490514D43C
:1043400041693940B942DAD0416949050DD4416922
:104350003940B942D3D04169490506D44169394051
:10436000B942CCD041694905E3D5016841F40071F7
:1043700001606FF480614161042002E0FDF7DAFC26
:10438000202000212022216384F83D2084F83E1063
:10439000226C1043206484F83C10012001B0F0BD71
:1043A00080B582B041F21400C4F20200016800221C
:1043B00041F0010101600068002100F0010001905E
:1043C00001980C20FEF7BEFC0C20FEF7ABFC0D2084
:1043D00000210022FEF7B6FC0D20FEF7A3FC0E2004
:1043E00000210022FEF7AEFC0E20FEF79BFC0F2002
:1043F00000210022FEF7A6FC0F20FEF793FC102000
:1044000000210022FEF79EFC1020FEF78BFC1120FD
:1044100000210022FEF796FC112002B0BDE880408A
:10442000FEF780BC2DE9F04784B041F21800C4F2D9
:104430000200016840F6004A41F020010160016875
:10444000C4F2010A01F020010091009901680022E4
:1044500041F00401016001684FF4004601F00401DD
:104460000091009901684FF0000941F008010160D6
:1044700000684FF4004100F008000090009850469A
:10448000FDF752FCAAF5806528464FF480710022A2
:104490004FF48078FDF748FC00966E460127022411
:1044A00050463146CDE901790394FDF733FB2846A8
:1044B0003146CDE90087CDE90294FDF72BFB1820AA
:1044C00000900020C1F21100CDE9010950463146AB
:1044D000FDF720FB04B0BDE8F087000080B540F296
:1044E000203045F20041C2F20000C4F2000148F25F
:1044F000A06200234FF4804CC0F2010280E80E005D
:10450000C0E9033CC0E90533C0E90733FDF720FCEF
:10451000002808BF80BDBDE88040FDF70FB900004E
:1045200080B540F2743043F20001C2F20000C4F2E0
:1045300001014FF48272002380E80E0000F11401A3
:104540004FF4802C4FF0080E81E808500A21C0E992
:104550000333C0E90833C0E90A31FEF711FF002830
:1045600008BF80BDBDE88040FDF7E8B880B540F2E7
:10457000CC3043F60001C2F20000C4F20101002376
:104580004FF00C0C4FF4007E4FF4E13280E80E0047
:10459000C0E90333C0E905CEC361FFF707F900287E
:1045A00008BF80BDBDE88040FDF7C8B880B540F2C7
:1045B000104044F20041C2F20000C4F200010023A6
:1045C0004FF00C0C4FF4E13280E80E00C0E90333E9
:1045D000C0E905C3C361FFF7E9F8002808BF80BD43
:1045E000BDE88040FDF7AAB8FEE70000FEE7000046
:1045F0007047000070470000FEF72CBB70470000BA
:10460000406A0021C185C184FEF798BF81B090F84F
:104610003E10222920D18368B3F5805F08D101695B
:10462000002941D000F128010A6803685B680AE0AC
:10463000014651F8282F13B90369002BF5D0036800
:104640005B6803F07F0313700A6801320A60C18D52
:1046500001390A04C18501D001B070470168CA68F8
:1046600022F02002CA60CA6822F48072CA604A69D5
:1046700022F001024A61202280F83E20026B012ACA
:104680001CD100220263CB6823F01003CB600B68BF
:10469000DB0605D500920A680092496800910099EE
:1046A000818D01B0FEF748BF0168826A49686FF3E7
:1046B0005F2122F8021B8262C9E700BF01B0FFF749
:1046C00097B9000040F21040C2F20000FEF738BF78
:1046D000FEE70000FDF70ABA2DE9F04F83B00D4662
:1046E00080460720002100F0B1F901AA5220202DB8
:1046F0002ED12021082300F0A1FB05460A20FDF75A
:10470000F5F9012D05D045F66A50C0F60000FBF71B
:1047100075FD40F21400C2F20000008901F039F981
:104720000546BDF904000E4601F01CF92A46334641
:1047300000F0BEFFC8E900019DF807009DF80610D3
:104740004FF006094FF0070A4FF0040B052457E01D
:104750002946062300F072FB06460A20FDF7C6F93B
:10476000012E05D045F66A50C0F60000FBF746FD65
:104770000026A5F10800C3F6F076002426284FF0A5
:10478000000530D8DFE800F0142F2F2F2F2F1A2F1D
:104790002F2F2F2F202F2F2F2F2F262F2F2F2F2F41
:1047A0002F2F2F2F2F2F2F2F142F2F2F2F2F14007E
:1047B00040F21400C2F20000008810E040F2140041
:1047C000C2F20000C0880AE040F21400C2F2000009
:1047D000408804E040F21400C2F20000808801F03A
:1047E000D8F805460E469DF804109DF80500C8E966
:1047F00000444FF004094FF0050A4FF0020B032468
:1048000041EA002000B201F0ADF82A46334600F03C
:104810004FFF01AF3A5D17F80B30C8E9020143EAD8
:10482000022000B201F09EF82A46334600F040FF15
:1048300017F80A2017F80930C8E9040143EA0220F2
:1048400000B201F08FF82A46334600F031FFC8E984
:10485000060103B0BDE8F08F10B50720002100F07D
:10486000F5F852203F21A02200F0FEFA01280FD1D6
:104870004FF44870FFF72EFF52203A2100F0C6FA9D
:1048800070B1044626A02146FBF7B8FC204610BDB7
:1048900045F6CB40C0F60000FBF7B0FC012010BD90
:1048A0005220362100F0B2FA044600070AD445F639
:1048B0005250C0F60000FBF7A1FC0120610704D5AF
:1048C0000AE000BF0020610706D445F63950C0F663
:1048D0000000FBF793FC0120A1070BD445F6215003
:1048E000C0F60000FBF78AFCE0071CBF002010BDEB
:1048F00002E000BFE10707D145F60950C0F600000D
:10490000FBF77CFC002010BD00281CBF002010BD60
:1049100012A000210024FBF771FC204610BD00BF4F
:104920000A53797374656D204572726F72206861E5
:1049300073206F63637572656420647572696E6756
:1049400020506F776572206F6E2072657365742ECC
:10495000202564206E756D62657200000A20536523
:104960006C662074657374206973206661696C6578
:10497000643A202564202E0010B5044652203D21C3
:10498000224600F071FA012808D1002C0CBF132038
:104990000720FFF79FFE002010BD00BF45F6E04056
:1049A000C0F60000FBF72AFC012010BD80B5FFF720
:1049B00053FF28B111A0FBF721FC012080BD00BFEF
:1049C0005220002100F022FAA02811D152203F21CC
:1049D000802200F049FA012804BF002080BD45F67E
:1049E000CB40C0F60000FBF709FC032080BD00BFF0
:1049F000014607A0FBF702FC022080BD0A52657346
:104A00006574206973206661696C656421212100E9
:104A100043616E27742066696E6420424E4F3035C4
:104A2000352C2069643A203078253032782E205099
:104A30006C6561736520636865636B20796F75725F
:104A400020776972696E672E0D0A0000B0B582B0DA
:104A500040F28415C2F200058DF8060028688DF832
:104A600007100A240DF10602A42102230094FDF789
:104A70002DFA0146032807D8DFE811F0AE00040044
:104A80001000120084A00CE08CA0FBF7B7FB286894
:104A9000FDF758F920280BD950E000BF6BA000E0CB
:104AA00073A0FBF7E3FC2868FDF74CF9202845D8F4
:104AB000014645F60A40C0F60000DFE811F08D001F
:104AC0003D0021003F0027003F003F003F002D0038
:104AD0003F003F003F003F003F003F003F003300EA
:104AE0003F003F003F003F003F003F003F003F00CE
:104AF0003F003F003F003F003F003F003F003900C4
:104B000045F6E130C0F6000016E000BF45F67D3006
:104B1000C0F6000010E000BF45F61E40C0F60000E1
:104B20000AE000BF45F66A30C0F6000004E000BFAE
:104B300045F67240C0F60000FBF798FC2868FDF7C8
:104B400003F901469F2800F33580A1F1200245F6C4
:104B50003140402AC0F6000000F23880DFE802F061
:104B600037223E3C463C3C3C4E565E3C3C3C3C3C4A
:104B70003C3C3C3C3C3C3C3C3C3C3C3C3C3C3C3C75
:104B80003C3C3C3C3C3C3C3C3C3C3C3C3C3C3C3C65
:104B90003C3C3C3C3C3C3C3C3C3C3C3C3C3C3C3C55
:104BA000660000BF45F6A040C0F60000FBF75EFCC3
:104BB00002B0B0BDA02941D0E0290DD145F6F530B5
:104BC000C0F60000FBF752FC02B0B0BD21B9FBF704
:104BD0004DFC02B0B0BD00BF02B0B0BD45F689408B
:104BE000C0F60000FBF742FC02B0B0BD45F6B7408E
:104BF000C0F60000FBF73AFC02B0B0BD45F68F30BE
:104C0000C0F60000FBF732FC02B0B0BD45F6C33081
:104C1000C0F60000FBF72AFC02B0B0BD45F6A53097
:104C2000C0F60000FBF722FC02B0B0BD45F64640DE
:104C3000C0F60000FBF71AFC02B0B0BD45F65B40C1
:104C4000C0F60000FBF712FC02B0B0BD48414C5F5B
:104C50004932435F4D61737465725F5472616E7364
:104C60006D69742048414C5F425553590D00000056
:104C700048414C5F4932435F4D61737465725F54C4
:104C800072616E736D69742048414C5F54494D45A3
:104C90004F55540D0000000048414C5F4932435FBE
:104CA0004D61737465725F5472616E736D697420C7
:104CB00048414C5F4552524F520D0000556E6B6E8D
:104CC0006F776E20737461747573206461746120F2
:104CD0002564000096B0FDF7CBFF00240120CDE94C
:104CE0001144CDE90F440C9010904FF4E0104FF4B4
:104CF0008031022515900CA8CDE90D14CDE9135192
:104D0000FEF764F920B1EFF3108072B6FEE700BF42
:104D10000F20CDE907054FF48060CDE90A0407A80C
:104D200002210994FEF74AF820B1EFF3108072B621
:104D3000FEE700BFFFF776FBFFF732FBFFF7CEFB86
:104D4000FFF714FCFFF7ECFBFFF730FC40F2841098
:104D500040F22031C2F20000C2F200010160FFF710
:104D600025FE0C20FFF708FE0DF1300A0FF2500867
:104D70000FF2740950461A21FFF7AEFC10AFA3CF13
:104D8000DDE90E238DE8230040460397FBF736FA52
:104D900050462021FFF7A0FC0EAF83CFDDE90C23A6
:104DA000DDE91156139C8DE883004846CDE9035692
:104DB0000594FBF723FA0A20FCF798FEDAE700BF18
:104DC00048656164696E673A20252E326620526F0D
:104DD0006C6C3A20252E32662050697463683A2044
:104DE000252E32660D0A0000573A20252E32662005
:104DF000583A20252E326620593A20252E32662038
:104E00005A3A20252E32660D0A00000080B584B083
:104E10000A46014601200DF10F03CDE9003040F2B2
:104E200020304FF00A0CC2F200000123CDF808C078
:104E3000FDF78AFA9DF80F0004B080BD80B582B0FE
:104E40009C460B46014640F220300092C2F2000020
:104E50001A460123CDF804C0FDF792FCB0FA80F0A9
:104E6000400902B080BD000080B584B00B46014609
:104E70008DF80F2001200DF10F02CDE9002040F246
:104E800020304FF00A0CC2F200001A460123CDF880
:104E900008C0FDF785FDB0FA80F0400904B080BD80
:104EA0005FEA400C08BF91F0000F4FEA8C234FEAF5
:104EB000C12243EA51514FEA1C5018BF00F5F0409F
:104EC0004FEA300018BF41F000415FEA6C5C00F02F
:104ED0002980BCF1FF3F08BF40F080407047130CB1
:104EE00006BF12044FF0100C4FF0000C130E04BF5D
:104EF00012020CF1080C130F04BF12010CF1040C88
:104F0000930F04BF92000CF1020CD30F04BF5200A8
:104F10000CF1010C11464FF00002A0F11F00A0EBB4
:104F20000C00704711F0004F08BF704731F000418E
:104F30003FF4D5AF0B0C06BF09044FF0100C4FF037
:104F4000000C0B0E04BF09020CF1080C0B0F04BF80
:104F500009010CF1040C8B0F04BF89000CF1020C49
:104F6000CB0F04BF49000CF1010CCCF1200322FA55
:104F700003F341EA030102FA0CF2A0EB0C0000F18A
:104F80000100704723F07F4720F07F4C80EA030048
:104F900000F00040ACEB070303F57C5303F1FF0383
:104FA0002DE9804909B44FEA144324EA03484FEA43
:104FB000154B25EA0B4E0FF2042606EB13273E781D
:104FC00003FB0667C7F5000707FB06F64FEAD64660
:104FD00006F102064FEA543707FB066CCCF1005C81
:104FE0004FEA1C472CEA074C0CFB06F507FB06F4BE
:104FF00004EB15464FEA961649085FEA320234BFC1
:1050000000204FF000404FEAD13706FB07FC4FEA83
:105010001C4C0CFB0BF7D21B03FB0CF761EB0701DD
:105020000CFB0EF7B0EB074072EB17420CFB08F7D6
:1050300034BFA2EB0742B2EB074261EB17414FEAE4
:105040000C444FEA910706FB07FC4FEA1C4C0CFB93
:105050000BF7B0EBC74072EB573203FB0CF734BFD2
:10506000A2EBC742B2EBC74261EB57310CFB0EF724
:10507000B0EBC70072EB57720CFB08F734BFA2EB22
:10508000C702B2EBC70261EB57714FEA816141EA97
:1050900092114FEA826242EA90124FEA806004EB7A
:1050A000CC04039F4FEAD13706FB07FC4FEA1C4CA8
:1050B0000CFB0BF7D21B03FB0CF761EB07010CFB9E
:1050C0000EF7B0EB074072EB17420CFB08F734BF4A
:1050D000A2EB0742B2EB074261EB17414FEA8C5556
:1050E00004EB9C244FEA910706FB07FC4FEA1C4C9B
:1050F0000CFB0BF7B0EBC74072EB573203FB0CF71E
:1051000034BFA2EBC742B2EBC74261EB57310CFB95
:105110000EF7B0EBC70072EB57720CFB08F734BF09
:10512000A2EBC702B2EBC70261EB57714FEA816194
:1051300041EA92114FEA826242EA90124FEA80609D
:1051400015EB4C2544F100044FEAD13706FB07FC70
:105150004FEA1C4C0CFB0BF7D21B03FB0CF761EB6B
:1051600007010CFB0EF7B0EB074072EB17420CFB8C
:1051700008F734BFA2EB0742B2EB074261EB1741DD
:105180004FEA813141EA92414FEA823242EA90424B
:105190004FEA80304FEA0C7615EB1C1544F1000401
:1051A00048EA03434EEA0B484FF0000EB2EB080CFE
:1051B00071EB030724BF624639464EEB0E0E4FF0EB
:1051C000000B0018524149414BEB0B0BB2EB080CA2
:1051D00071EB03077BF1000B24BF624639464EEBAF
:1051E0000E0E4FF0000B0018524149414BEB0B0BD8
:1051F000B2EB080C71EB03077BF1000B24BF624696
:1052000039464EEB0E0E51EA020718BF46F0010672
:1052100016EB0E7655F1000254F1000103D5BDE8FE
:105220008901BDE80088BDE88901BDE80048B619DC
:10523000524141EB0101A3F10103704780807F7E61
:105240007D7C7B7A797877767675747372717170FC
:105250006F6E6E6D6C6C6B6A6A69686867666665AE
:105260006464636362616160605F5F5E5E5D5D5C3C
:105270005C5B5B5A5A5959585857575656555555AD
:105280005454535352525251515050504F4F4F4E0D
:105290004E4D4D4D4C4C4C4B4B4B4A4A4A4949495B
:1052A000484848474747474646464545454444449D
:1052B0004443434343424242424141419C46002BC6
:1052C00030D477002BD04FEA37071CB503B44FF02A
:1052D00010004FF01001BAF1000F06D0BCF1000F22
:1052E000DCBF40F0080040F008014FF000000FBCA8
:1052F000BDE810400BF1010BBBF1010F08BF5FEAE5
:10530000170722BF12F1010211F101014FF0004114
:1053100043F1000300F0004043EA00007047F9D376
:105320005708D0E746EA06464FEA164613F1400F03
:105330001FDD13F1200FDFBF16430A460021203383
:105340005B42BED0C3F1200746EA06464FEA164646
:1053500002FA07F746EA070622FA03F2C3F120072A
:1053600001FA07F742EA070221FA03F14FF00003BE
:10537000A7E746EA020646EA06464FEA164646EA26
:105380000106BCBF46EA0646360C4FF000034FF05C
:1053900000024FF0000194E72DE9804C70B49A466A
:1053A000934691E8380007C831EA400C48BF34EA18
:1053B000430C03D5FFF7E6FDFFF780FFF0BCBDE827
:1053C000008C2DE9804C70B49A46934691E83800E1
:1053D00007C810F0804F08BF13F0804F03D100F0D2
:1053E00005F8FFF76BFFF0BCBDE8008C20F07F47AD
:1053F00023F07F4C80EA030000F0004007EB0C0331
:10540000A3F57C53A3F1FE0392F0000F00F0B380EC
:1054100095F0000F00F077802DE901494FEA114027
:1054200021EA00484FEA144624EA064700FB06FC3E
:1054300008FB06F607FB08F818EB06484CEB164C81
:1054400000FB07F718EB07484CEB17404FEA124BED
:1054500022EA0B4E4FEA154625EA06470BFB06FCEF
:105460000EFB06F607FB0EFE1EEB064E4CEB164C33
:105470000BFB07F71EEB074E4CEB174B18EB0B081B
:1054800040F1000018EB0E0B58EB000840F1000053
:105490008F1A4FF000014FF000063CBFC943661B56
:1054A00014BFB5EB040C00213CBFC943F61B4FEA07
:1054B000174427EA04454FEA1C472CEA074C04FB33
:1054C000076205FB07F70CFB05F616EB074642EBF8
:1054D000174204FB0CFC16EB0C4642EB1C421BEB88
:1054E000060658EB020241414EEA8E0E46EA9E063F
:1054F00001D5BDE80189B619524141EB0101A3F183
:105500000103BDE801894FEA144524EA05464FEA44
:10551000114721EA074C05FB07F406FB07F70CFBD4
:1055200006F111EB074144EB174405FB0CFC11EBB2
:105530000C4144EB1C444FEA124722EA074C05FB9E
:1055400007F206FB07F70CFB06F616EB074642EBE5
:10555000174205FB0CFC16EB0C4642EB1C456A1887
:1055600054F1000148BF7047B619524141EB0101A7
:10557000A3F10103704795F0000F37D04FEA1142B5
:1055800021EA02464FEA144724EA074C02FB07F1DE
:1055900006FB07F70CFB06F414EB074441EB17413D
:1055A00002FB0CFC14EB0C4441EB1C414FEA154789
:1055B00025EA074C02FB07F506FB07F70CFB06F68E
:1055C00016EB074645EB174502FB0CFC16EB0C46A9
:1055D00045EB1C42121951F1000148BF7047B61942
:1055E000524141EB0101A3F1010370474FEA144519
:1055F00024EA05464FEA114721EA074C05FB07F16B
:1056000006FB07F70CFB06F212EB074241EB1741D2
:1056100005FB0CFC12EB0C4251EB1C414FF0000659
:1056200048BF7047921841EB0101A3F10103704795
:10563000490050EAC12018BF04204A0D18BF40F0AD
:10564000010040F2FF72B2EB515F08BF40F0020070
:10565000012808BF0520704730380A2801D20120F0
:105660007047002070478A68002A02DC0022FBF79E
:10567000ABBA521E8A604A68C0B2531C4B601070AD
:105680007047000010B500290AD00878002807D01C
:1056900005487844FBF74AFE002801D0002010BDE1
:1056A0000248784410BD0000260700001E070000D5
:1056B0002DE9C04130B4DFF8A4C23CEA111418BF90
:1056C0003CEA131400F0ED801CEA111481EA030592
:1056D00044EAD57418BF1CEA131500F0C880A4EB87
:1056E000050404F17F7404F500344FF0004545EAE9
:1056F000C12145EAC32341EA505143EA52534FEADC
:10570000C0204FEAC222994208BF904200F09D801B
:105710004FEA13650FF24416765D4FEA134506FB18
:1057200005F7C7F1807706FB07F74FEAD737A7FBE6
:1057300003687642A7FB06CEC8F5803838BFA8F1CB
:10574000010807FB08E6A6FB028C4FF0000EE6FB03
:1057500003CEDCF1000CCEF1004E38BFAEF1010EED
:10576000A6FB0C584FF00007E6FB0E87A1FB08C60E
:10577000A0FB07CE16EB0E064FF0000545F1000525
:10578000E1FB076515F1E04E7EBFA4F580345FEACA
:1057900046066D4116F1800745F100054FEA1727CF
:1057A00047EA05674FEA15254FEA0666A6F1DE4689
:1057B000B6F1805F20D9384605EBC47124F0010CA6
:1057C00001EB0C11BCF1FE6F02D8F0BCBDE800810A
:1057D00024425CBF01F5801E9EEAC47F02D4F0BC67
:1057E000BDE80081244200F13980A1F1C041F0BC44
:1057F000BDE8004100F02EB94FEAD02040EA415008
:105800004FEAD1214FEAD22242EA43524FEAD32350
:10581000A7FB028607FB036605FB02661EEA0E0F66
:1058200058BFA6EB0056B6EB00564FEA520E4EEAB2
:10583000C37E18EB0E0E56EB530EBCD518EB0208C8
:105840005E417F1C55F10005B5E74FF480154FF020
:1058500000074FF000064FF00008ACE701F1C0412F
:1058600001F000414FF00000F0BCBDE800810CEAFF
:10587000131511EA0C1F00D00CE013EA0C1F00F006
:1058800026804FF0000081EA030101F00041F0BCE6
:10589000BDE80081F0BCBDE8004181EA030100F0F1
:1058A000D9B8F0BCBDE8004170B500F085F800BF84
:1058B000097EFC3E00F007B84FF0000081EA0301CA
:1058C00001F00041704781EA030100F0C3B8F0BC69
:1058D000BDE8004122494FF000007047FFFDFBF991
:1058E000F7F5F4F2F0EEEDEBE9E8E6E4E3E1E0DE13
:1058F000DDDBDAD8D7D5D4D3D1D0CFCDCCCBCAC885
:10590000C7C6C5C4C2C1C0BFBEBDBCBBBAB9B8B7AB
:10591000B6B5B4B3B2B1B0AFAEADACABAAA9A8A89E
:10592000A7A6A5A4A3A3A2A1A09F9F9E9D9C9C9B6C
:105930009A99999897979695959493939291919017
:105940008F8F8E8E8D8C8C8B8B8A898988888787A8
:105950008685858484838382828181800000FF071D
:105960000000F87F10F0004248BF4042B0FA80F3D8
:1059700010FA03F10AD0C3F11D0303F5806302EBB3
:1059800003524FEA415002EBD12170474FF0000023
:105990007047B0FA80F310FA03F10AD0C3F11D0387
:1059A00003F580634FEA03524FEA415002EBD121E5
:1059B00070474FF0000070470EF1020E2EF0030EFC
:1059C0005EF8046B364205D4012A43EB030515F556
:1059D000001F12D8012841EB010C1CF5001F0CD848
:1059E0000ED14FEAD17C0CEB4C0C0CF1020C15F5EE
:1059F000001F08BF4CEBD37C04E04FF0080C01E023
:105A00004FEAD37C0CEB4C0526FA05F606F00706A8
:105A1000B6F1040C06D20EEB860CBDE870404CF0DB
:105A2000010C6047DFE80CF0090B02024FF0004167
:105A3000A1F500214FF0000070BD19461046012865
:105A400051EB010418BFD4F5001484BF002001F00D
:105A5000004170BD0808A0F500114FEA3101704700
:105A6000FAF74EBE303132333435363738394142A9
:105A700043444546403058003031323334353637B0
:105A8000383961626364656640307800040000085C
:105A900000000000000000020001000010000000F3
:105AA00002400000000000A00000000005400000CF
:105AB000000000C8000000000C4000000000409CF6
:105AC00000000000194000000020BCBE00000000E3
:105AD00034400000BFC91B8E00000004B540000028
