:020000040800F2
:10000000B00A002045020008515500084149000887
:100010004D550008D91D00080D5A000800000000C9
:100020000000000000000000000000000156000871
:100030008D1E000800000000C15500085956000838
:100040005F0200085F0200085F0200085F0200080C
:100050005F0200085F0200085F0200085F020008FC
:100060005F0200085F0200085F0200085F020008EC
:10007000DD1D0008ED1D0008FD1D00080D1E000817
:100080001D1E00082D1E00085F0200085F02000808
:100090005F0200085F0200085F0200085F020008BC
:1000A0005F0200085F0200085F0200085F020008AC
:1000B0005F0200085F0200085F0200085F0200089C
:1000C0005F0200085F0200085F0200085F0200088C
:1000D0005F0200085F020008FD5900085F02000887
:1000E0005F0200085F0200085F02000800F002F8EB
:1000F00000F098F80AA090E8000C82448344AAF12A
:100100000107DA4501D100F08DF8AFF2090EBAE827
:100110000F0013F0010F18BFFB1A43F0010318473B
:1001200088720000A8720000103A24BF78C878C115
:10013000FAD8520724BF30C830C144BF04680C60ED
:10014000704700000023002400250026103A28BF35
:1001500078C1FBD8520728BF30C148BF0B60704739
:100160006E2900F06381702900F09982662906F0FB
:100170003387652906F03087672906F02D876129C6
:1001800006F02C8703681B0A28BF41F0800169290B
:1001900000F01081642900F00D81752900F00A81BA
:1001A0006F2900F02782782900F06582E92900F0A4
:1001B000C181E42900F0BE81F52900F0BB81EF295F
:1001C00000F02482F82900F064820368DB0928BF6C
:1001D00041F08001632900F08187732900F0868750
:1001E000E32900F09187F32900F0968700207047FB
:1001F0001FB59DE8030001F079FB01F087F80400CA
:100200000020002106F0FAFC401C60600020002164
:1002100006F0DEFCE06000F087FF1FBD10B500F0C7
:10022000ECFF10BD01F044F81146FFF7E1FF05F0C7
:10023000D5FF01F0FBFA03B4FFF7F0FF03BC01F0B8
:1002400013FD00000948804709480047FEE7FEE724
:10025000FEE7FEE7FEE7FEE7FEE7FEE7FEE7FEE776
:1002600004480549054A064B70470000CD56000872
:10027000ED000008B0040020B00A0020B006002005
:10028000B00600200FB4044910B503AA029800F08C
:10029000E1F810BC5DF814FB740000204FF0000280
:1002A00000B5134694469646203922BFA0E80C506C
:1002B000A0E80C50B1F12001BFF4F7AF090728BF47
:1002C000A0E80C5048BF0CC05DF804EB890028BFC3
:1002D00040F8042B08BF704748BF20F8022B11F0EC
:1002E000804F18BF00F8012B704770477047704768
:1002F00070B5044685690068C10601D5302600E066
:100300002026C00707D070BDD4E9012130469047B0
:10031000206A401C20626D1EF6D570BD70B5044683
:1003200085690078C00707D170BDD4E9012120207C
:100330009047206A401C20626D1EF6D570BD09688A
:100340004A0501D540B27047C905FCD500B27047D7
:1003500009684A0501D5C0B27047C905FCD580B20D
:10036000704770B50C460546012A05D028788006EE
:1003700000D5EA69002302E0012305E05B1C9342FB
:1003800002D2E05C0028F9D1A869E618C01AA86179
:10039000286A184428622846FFF7AAFF04E0D5E936
:1003A000012114F8010B9047B442F8D32846FFF717
:1003B000B5FF70BD2DE9F04106460024106875298F
:1003C000314616A510D0FFF7BAFF002802DA4042E6
:1003D00013A507E031688A0701D512A502E0490795
:1003E00004D511A5012401E0FFF7B2FF00210A2284
:1003F00006F1240709E0B0FBF2FCB0FBF2F302FBCC
:100400001C00303078541846491C0028F3D123468C
:100410002A463046BDE8F04100F059BA000000001D
:100420002D0000002B000000200000001168026871
:10043000006A530501D508700AE0D30501D508808C
:1004400006E0130603D5C217C1E9000200E0086008
:1004500001207047074B70B50D467B4400F021FE2C
:100460000446284600F05CFE10B14FF0FF3070BD2E
:10047000204670BD556700002DE9FF5F15468A468E
:100480000446DFF8AC80F8440027D8E900103E4667
:10049000CDE9001010E03AF816106A4602A800F004
:1004A000DFFE411C07D02178890603D5E26939189F
:1004B00091420DD80744761C2078800602D5E06969
:1004C000B84205DDAE42E6DB3AF816000028E2D17C
:1004D000A069C01BA0612046FFF70AFFD8E9001001
:1004E000CDE90010002017E03AF818106A4602A87B
:1004F00000F0B6FEB0F1FF3F81460BD000250DF1B4
:10050000080B05E0D4E901211BF8050090476D1C9C
:100510004D45F7D308F10100B0428046E4DB206A84
:10052000384420622046FFF7F9FEBDE8FF9F000037
:10053000566B00002DE9F0418046D21D22F00702E3
:100540000025D2E90002F52915A614D0011E72F18A
:10055000000106DA0023D0EB030063EB020211A6D0
:1005600008E0D8F800108B0701D50FA602E0490774
:1005700001D50EA601251146002408F1240704E048
:1005800000F060F930323A55641C50EA0102F7D1AC
:100590002B46324621464046BDE8F04100F097B96F
:1005A000000000002D0000002B00000020000000D3
:1005B00030B4002100F1240408E002F00705D2085D
:1005C000303542EA4372DB086554491C52EA0305A0
:1005D000F3D10468002310A2250708D504F02004F5
:1005E0000C4304D0C46901230CA2641EC46130BC56
:1005F00000F06DB910B5044621461068FFF7A8FE5B
:1006000002462046BDE810400023D1E7D21D22F06B
:100610000701D1E90023CBE7000000003000000013
:10062000F0B40D460188090502D5214C7C4402E056
:100630001F4C7C440E34002100F1240608E002F037
:100640000F071209E75D42EA03721B097754491C40
:1006500052EA0307F3D102780023120704D5702D64
:1006600006D009B1022311342246F0BC00F02FB9A4
:1006700001231034F8E770B504460D462146106892
:10068000FFF766FE024629462046BDE8704000237B
:10069000C6E7D21D22F00703D3E90023C0E70368B1
:1006A000126843F0200303600823C3610023B7E707
:1006B000B86900002DE9F05F894604464FF0000A52
:1006C000DFF874B1FB44C0F820A02046E1688847F9
:1006D000002874D0252806D0D4E901219047206A4B
:1006E000401C2062F1E700265F462046E16888470B
:1006F0002028054607DB312D05D2781910F8200C8B
:1007000008B10643F1E7B00701D526F00406C4F8A6
:100710001CA00027C4F818A02A2D09D0284606F0EE
:1007200041FA38B304EB8708303DC8F8185019E097
:1007300059F8041B204604EB87029161E168884761
:10074000012F054618D1E069002820DA26F020069E
:100750001DE0D8F8180000EB800005EB40003038B1
:10076000C8F818002046E1688847054606F01AFADE
:100770000028EED1012F0AD02E2D08D12046E168A5
:1007800088477F1C0546022F46F02006C4DBA0697F
:10079000002803DA404246F00106A061F00701D0CC
:1007A00026F010066C2D0BD0682D09D04C2D39D0B9
:1007B0006A2D35D0742D35D07A2D33D016E038E03F
:1007C000E1682F4620468847B842054609D16C2F7C
:1007D00026D04FF48060E1680643204688470546EE
:1007E00004E06C2F1AD04FF4807006430DB3A5F1CE
:1007F0004100192802D8203546F400664A462946A9
:10080000204626604E46FFF7ABFC80B101280BD096
:10081000F61D26F0070000F1080956E74020E4E73E
:100820008020D8E70020D6E706F104094DE72846E6
:1008300052E7206ABDE8F09F486900000048704711
:100840001C01002030B5B0F10A0271F100034FEA3B
:10085000900E4EEA817EB0EB0E0061EB91014FEA03
:10086000101E4EEA017E10EB0E0041EB11114FEA13
:10087000102E4EEA016E10EB0E0041EB11214FEAF3
:10088000104E4EEA014E10EB0E0041EB11414018A4
:1008900041F100014FEAD00040EA41704FEAD10136
:1008A0004FEA810444EA907410EB800544EB0104A4
:1008B0006D1944EB0404521BA3414FF0000348BFE1
:1008C0000A3200D530BD401C41F1000130BD2DE998
:1008D000F0470D4699469246044600F12408016807
:1008E000880604D5E06921F01001216000E00120B4
:1008F000A84201DD471B00E00027A1697A1902EB3D
:100900000900081AA0612078C00602D42046FFF72B
:10091000EFFC002608E0D4E901211AF80600904710
:10092000206A401C761C20624E45F4DB2078C0060D
:100930000AD52046FFF7DCFC06E0D4E9012130208F
:100940009047206A401C2062381EA7F10107F4DCA2
:1009500007E0D4E9012118F805009047206A401CFF
:100960002062281EA5F10105F3DC2046FFF7D6FC26
:100970002078000602D50220BDE8F0870120FBE7C1
:100980002DE9FF4F0C461E464FF0FF378BB0D2E9E2
:100990000001DDF860800A908A46C1F30A5505B966
:1009A0003D46002108464FF00000BAF1000F00F468
:1009B000400005DA00EB80004FF4400101EA5000EE
:1009C0004FEA9059B9F1010F00DDB9460A9850EA93
:1009D0004A000ED044F61050A5F2FF3545432F14BF
:1009E000B8F1000F1ED07542291E1EDDC9F10002AC
:1009F0001CE0B8F1010F4FF0000001D0302103E0FE
:100A0000F24305E02154401CB042FBDB304600229B
:100A1000002121540B99C1F80880C1E900200FB0D2
:100A2000BDE8F08FBD1B6D1CDEE74A4600DA694267
:100A300006A800F0D7FC06AB93E8070003AB83E8F9
:100A4000070050460A9905F0D1FC8DE80700A0F593
:100A500000501F3800900398002D0ADD42F21F015C
:100A60004A460844002303A90390684605F03AFF6C
:100A700009E0A0F500504A461F38002303A903905F
:100A8000684605F044FF8DE807000004000C03D021
:100A90004FF0FF30410800E01046B8F1000F03D0DE
:100AA0000022009215461EE0751E05D4FFF7CAFE0F
:100AB000303262556D1EF9D5B3460122084302D08B
:100AC00000227F1C04E02078302801D100227F1E04
:100AD000002A099784D01DE0112D07DAFFF7B2FE36
:100AE000303262556D1C50EA0102F5D1084302D044
:100AF0000098C8B10EE00021681E05E0235C625C2E
:100B000063542254401E491C8142F7DBAB46A81BAC
:100B1000401E0990002004F80B000B98099AC0F8B9
:100B20000880C0E9002B7AE711264FF0000857E74C
:100B30002DE9F04F88460446D21D22F0070191B0FE
:100B4000D1E90001CDE90A0106F018F802460B9838
:100B5000C00F01D02D2007E02068810701D52B2090
:100B600002E0202101EAC000032A099001D0072AEF
:100B700005DB03464146204600F0F4FB0BE12078FC
:100B8000800601D5E06900E00620B8F1650F8146D6
:100B900006D0B8F1660F18D0B8F1670F70D131E008
:100BA0000020B9F1110F009001DB112301E009F1E0
:100BB00001030AAA01A90CA8FFF7E2FEDDE90C7007
:100BC000002609F10105834647E001204B460090CD
:100BD0004FF000470AAA01A90CA8FFF7D1FEDDE9F2
:100BE0000DB00C995D46002610B909F101000D18F1
:100BF000B9EB050003D4C0F1FF3609F10105A5EBFF
:100C000009002BE0B9F1010F01DA4FF001090020D2
:100C1000B9F1110F0090484601DD112300E00346B1
:100C20000AAA01A90CA8FFF7ABFEDDE90C704D463E
:100C300000268346207800070AD4AB4500DA5D46DB
:100C400001A8012D04DD411911F8011C302907D03C
:100C50004F4502DA17F1040F04DA012082460FE053
:100C60006D1EEEE7002F02DCED1B3E4403E0781C16
:100C7000A84200DD7D1CB81B00F1010A4FF00047BF
:100C80002078000703D4AA4501DB4FF0FF3A00218A
:100C9000B7F1004F0DF143088DF8431024D0022026
:100CA0002B23002F01DA7F422D230A21021EA0F1FF
:100CB000010000DC5FB197FBF1FC97FBF1F201FB57
:100CC0001C7C17460CF1300C08F801CDEEE7A8F1BA
:100CD000010003702188090501D5452100E0652147
:100CE000A0F1010800F8011C09980FA9A1EB080761
:100CF000FF1D00B10120411901EBEA70A1693844E0
:100D0000081A401EA0612078C00602D42046FFF7D2
:100D1000EFFA099828B1D4E901219047206A401CD4
:100D200020622078C00622D52046FFF7E1FA1EE0B7
:100D3000002E04DBB34502DD01A8805D00E0302019
:100D4000D4E901219047206A401C2062761CAAF158
:100D500001005FEA000A0AD100F0D8FAC068016811
:100D6000405CD4E901219047206A401C2062281E83
:100D7000A5F10105DCDC07E0D4E9012118F8010B3D
:100D80009047206A401C2062381EA7F10107F3DC5F
:100D90002046FFF7C3FA032011B041E62DE9F04FDA
:100DA00004460D46D21D22F0070089B0D0E9009715
:100DB0004846394605F0E2FE0246F80F01D02D23E1
:100DC00007E02068810701D52B2302E0202101EAFA
:100DD000C0038DF820300BB1012000E00020032A71
:100DE000824601D0072A04DB2946204600F0BAFAE1
:100DF0003FE12078800601D40D2500E0E569C7F3C6
:100E00000A560D2D49DA00214FEA175B08464FF0CC
:100E10000000002F00F4400007DA00EB80004FF4E0
:100E2000400100EBD07001EA60008115012901DD6D
:100E30004FF0FF3100224FEA850CBCF1180F06D3AA
:100E40001346ACF118004FF08052C24003E04FF45B
:100E5000801323FA0CF30CF10C0CBCF1200F04D31B
:100E6000ACF1200C09FA0CF001E007FA0CF00029B3
:100E70004FF0004801DD18B90FE00ED140450CD30A
:100E800019EB02095F4121B9404502D19F4329EA8C
:100E90000209BBEB175F00D0761C2088000502D545
:100EA0007B48784402E07A487844193808AA30230D
:100EB00002F80A30037C0AF10101002E0AF1020A4D
:100EC00053546A4602DC4FF0300101E04FF031012B
:100ED0004FF001088DF8001002D0A6F2FF3603E0B3
:100EE00059EA470100D06B4E002D02DC217809073A
:100EF00004D54FF002082E218DF80110C4460021C0
:100F00000BE0C7F303433F01C35C491C6D1E02F8AD
:100F10000830052908F1010801DA002DF1DC002173
:100F20000CE000EB1973491C1B786D1E082902F8B0
:100F300008304FEA091908F1010801DA002DF0DC48
:100F400021688B0602D516E0A8F10108E04505DD11
:100F500002EB080313F8013C302BF5D0B8F1000F79
:100F600009DD02EB080313F8013C2E2B03D109071E
:100F700001D4A8F10108002D05DD3E2102F808107A
:100F80006D1E08F10108407C002E02F8080008F1EF
:100F9000010804DA2D20764202F8080002E02B2036
:100FA00002F808000A214FF47A70864208F101081D
:100FB0000BDB96FBF0F3303302F8083096FBF0F3CE
:100FC00008F1010800FB136601E0642E0CDB6420CD
:100FD00096FBF0F3303302F8083096FBF0F308F19B
:100FE000010800FB136601E00A2E06DB96FBF1F018
:100FF000303002F8080008F1010896FBF1F001FB1F
:101000001060303002F80800A16908F1010808EB0F
:10101000050202EB0A00081AA0612078C00602D47B
:101020002046FFF765F9216A08AE01EB0A0020624D
:1010300004E0D4E9012116F8010B9047BAF1010A46
:10104000F7D22078C00602D52046FFF751F96E4648
:1010500009E016F8010B3E280FD0D4E90121904792
:10106000206A401C2062B8F10108F2D22046FFF746
:1010700055F909B00320BDE8F08F206A28442062AA
:1010800003E0D4E90121302090476D1EEBD3F8E74F
:101090008E61000002FCFFFF01694A1C02610878B2
:1010A000704700B58FB0CDE90131002105910549A8
:1010B0007944CDE9031011466846FFF7FBFA0FB0FB
:1010C00000BD0000E5FFFFFF10B5436913B1AFF3AA
:1010D000008001E0FFF745F9012010BD127800F112
:1010E00024010A7000224A700122EDE711684FF0D6
:1010F000FF32E9E710B5436913B1AFF3008001E0B7
:10110000FFF7BAF9012010BD128800F12401828492
:101110000022C2840122EDE711684FF0FF32E9E7B7
:10112000007B00F08000704710B542485421FFF763
:10113000B5F841485421FFF7B1F840485421FFF772
:10114000ADF83F493B483C4A3F4B08603D490A6087
:101150003A491960531C0365481C10650120086555
:101160003B48344A39A1784400F0C2FA20B93848E3
:1011700078440A3800F063FB37482F4A35A1784499
:1011800000F0B6FA20B9344878440A3800F057FB2A
:1011900032482A4A2FA1784400F0AAFA20B92F48F1
:1011A00078440A3800F04BFB40232248DC00002141
:1011B000224600F07AFA20B125487844543800F0ED
:1011C0003EFB1D4822464023002100F06EFA20B16C
:1011D00021487844543800F032FB18482246102346
:1011E000002100F062FA002806D01C487844BDE8CF
:1011F0001040563800F023BB10BD104870B5006D8C
:1012000020F001040B4800F0EBFA0B4800F0E8FA7C
:101210000A4800F0E5FA09E0206D20F001052046BB
:1012200000F0DEFA204600F075F82C46002CF3D1D1
:1012300070BD00002000002074000020C8000020C5
:1012400000000020040000200800002072000000C0
:10125000DD5E000077000000C95E0000B55E0000A2
:101260002DE9F04116460C46054600F047F80368A4
:1012700093F80101012807D0FF2C12D8185D80B126
:1012800001202C70BDE8F081D3F8070132462146D9
:1012900003F20713C7182846BC46BDE8F0410023F7
:1012A00060474FF0FF30EDE7004870471C01002019
:1012B0007546FFF7F9FFAE4605006946534620F034
:1012C0000700854618B020B5FEF7CAFFBDE82040EC
:1012D0004FF000064FF000074FF000084FF0000BF2
:1012E000AC46ACE8C009ACE8C009ACE8C009ACE861
:1012F000C00921F007018D467047000010B500F0CD
:1013000005F8001D10BD00BFF558000000487047EB
:101310003C01002070B50446051F00F0CBFA0068C0
:10132000002C14BF446870BD002C18BFAC423CBFF9
:1013300020466468F8D301680A18AA4218BF4560BD
:1013400003D12A6805461144016028684119A14269
:101350001CBF6C6070BD61686960216808442860CA
:1013600070BD00002DE9F0411F46044603260168C8
:10137000072A01F4006004DB08B116A505E016A5F4
:1013800003E008B115A500E015A521F010002060CC
:10139000A069C01EA0610FB1401EA0612046FEF7EB
:1013A000A7FF4FB1D4E9012138469047206A401C7D
:1013B0002062C01C206206E0206AFAE7D4E901211D
:1013C00015F8010B9047761EF8D22046FEF7A6FFCF
:1013D000BDE8F0814E414E006E616E00494E460000
:1013E000696E66002DE9F047814616468AB0354899
:1013F00078440DC88DE80D0032487844801C03AC59
:101400000DC884E80D0041F69B300844372190FB5D
:10141000F1F290FBF1F5A5F1800501FB12041B3CF4
:1014200002D56442012000E00020DFF898A0804649
:101430000027FA44AAF1BE0A0EE0E0070AD03246BD
:10144000684607EB470101230AEB810105F05FFACB
:101450008DE8070064107F1C002CEED1194F7F44EB
:10146000AE3F19E0E80715D007EB04100DF1180A9C
:1014700090E80E008AE80E00C068F04201D1981989
:1014800008903246012306A903A805F040FA03ABF1
:1014900083E807006D10641C002DE3D14FF00103B9
:1014A00032466946B8F1000F03A802D005F01AFAD7
:1014B00001E005F02CFAC9E90001C9F808200AB0DA
:1014C000BDE8F087DC5C00002DE9F05F05461746BB
:1014D0000C46C86820F4201040F48000C8608006E4
:1014E00002D5084600F03FFBE06841F282014FF070
:1014F000FF3A0140022903D0204600F0D1FAB9E0BA
:1015000000F42041B1F5004F0FD1C00306D561684A
:10151000E06A884200D80846606006E02069E06220
:101520006060606900F0BFF9A061A0680022EEB2BF
:1015300000280DDAE1688B050AD4C043A06041F4AD
:1015400090302260E0606068411C61600670AAE033
:10155000E0689146226040F40050E060206978BB6A
:10156000606900F092F904F124054FF00108A8B178
:10157000A08910F4407F08D0E06900F0E6F920610E
:1015800018B1E06840F4006017E0C4F81C802561E1
:10159000E06820F4407040F480600EE0E06900F004
:1015A000D4F900282061F0D0E06840F4006010F425
:1015B000407FE06002D140F48070E06020696060AC
:1015C000E06825696FF0010BC1051ED56168E06A0E
:1015D000884200D80846411B04D02246284600F025
:1015E00069FAE8BB1FB1E562C4E9015959E0681C1A
:1015F000E0626060E069401EA060E06840F4803016
:10160000E06030462E70BDE8F09F17B100F48032E4
:101610000AE06068411C61600670E0680A2E40F4D0
:101620008030E06006D00022E16A6068814203D920
:101630000B4602E00122F7E70346B4F80CC05B1B3F
:101640005FEA4C5C04D4D4F81CC09C4500DD02B3B6
:10165000814200D80146002BA1EB0008E56200E0C2
:1016600008E0C4E9015907DD22461946284600F082
:1016700021FA08B15046C6E7B8F1000F09D0A169B8
:10168000E5626560A1EB0800A061E06840F0100031
:10169000E06047B16168A069E562491B0844656084
:1016A000A0615846AFE73046ADE770B5C468A507FE
:1016B00013D0650211D4B2F5807F09D0B2F5007F56
:1016C00006D0B2F5806F08D1012300F1240106E0B5
:1016D0005D1E6FF07F46B54201D3012070BD0161F0
:1016E000C361416024F470611143C160002070BD8A
:1016F0002DE9F0410C461646070047D0104600F091
:101700006FF82078611C61280AD0722802D07728EF
:101710003CD102E00125002405E00225042402E07A
:10172000082448F2020511F8010B2B2806D0622884
:1017300009D011F8010C74280AD00BE045F003051C
:1017400044F00204EFE745F0040544F00104EAE741
:1017500044F010043846214600F078F8411C15D0BA
:101760000021316171604FF40071F560F1617061C9
:10177000200704D530460222002100F015F9306D13
:1017800040F0010030653046BDE8F0810020FBE705
:101790002DE9F0410D460646104C206DC10704D0DE
:1017A000410804D020F00104F7E722460EE054205F
:1017B00000F0CBF807000ED0206D47F00101084380
:1017C000542120653846FEF769FD3A4629463046E1
:1017D000BDE8F0418CE70020D6E7000020000020A3
:1017E0002DE9F04704464FF0FF380026C568D4E9DC
:1017F0000497A80718D0204600F092F9384600F068
:101800002FF8002800DA4646280502D54846FFF79B
:1018100081FD4C212046FEF741FD206D20F00100A6
:1018200020653046BDE8F0874046FBE710B504462A
:10183000AFF300802046BDE81040FEF7FCBC10B5B9
:1018400000F0B8F9BDE8104000F0AEB90EB5CDE932
:10185000000100F072FA029069460120ABBE0EBD95
:1018600008B5694600900220ABBE08BD1FB58DE8E3
:10187000070069460520ABBE04B010BD1FB58DE85A
:101880000F0069460620ABBEF6E708B56946009032
:101890000920ABBE08BD1CB5CDE9000169460A2090
:1018A000ABBE1CBD704708B5694600900C20ABBEAE
:1018B00008BD0000004870472401002070477047B1
:1018C0007047704738B504460A4600206946AFF3B2
:1018D0000080002808BF38BD02460099204600F06D
:1018E000D1F9012038BD012000F020BAF8B5AFF3DE
:1018F0000080054600200C46102000BF0646A819AF
:10190000A0420DD9324669460020AFF3008007009F
:1019100008BF00F00BFA0098A04218BF0546C41992
:10192000FFF7C8FF05600746F01D20F007004619C5
:10193000284600F0A0F9B44208BFF8BDA21B31460A
:101940003868BDE8F84000F09DB970B50646FFF76D
:10195000B1FF056806F10B0020F00704B4429CBFFC
:10196000002070BD2B466A68BAB11068A04210D33F
:1019700004F1080188423CBF5068586007D35168A1
:10198000101941601168091B016058601460101D36
:1019900070BD13465268002AE7D121462846FFF75A
:1019A00091FF0028DED170BD2DE9F04104461646B6
:1019B0000D464769007B80072ED03846FFF765FF4C
:1019C00050BB3EB3012E02D0022E25D104E02046AA
:1019D00000F072F905441DE03846FFF764FFE16846
:1019E000002841F01001E16005DA204600F058F8C7
:1019F0000120BDE8F081C9030BD56268E16A91421C
:101A000000D81146A26911442269891A814200DD79
:101A100008460544002D01DA0220EAE7E16A606821
:101A2000E268814206D29103E06203D522F40031DC
:101A300041F01002A6690027AE4213DCE16A814240
:101A400001D90B4600E0034603EB060C2369ACEB1F
:101A5000030CAC4506DD814201D98C4600E084468A
:101A60009C4505D1A760276042F02000A5620DE0EB
:101A7000AD1BE669AE1B8142A66000D90846C01ABC
:101A8000281A20605819606022F02000034908409D
:101A9000E060002084F84870ABE70000BFCFD7FFBC
:101AA000C16821F4001141F08001C1600021816012
:101AB000016070472DE9F74F15460C464FF0FF3B8C
:101AC0003848D768D2F814A0074209D05046A9690F
:101AD000FFF7E1FE002819DB3248C0430740EF6002
:101AE0004FF000496FF000484C4501D3464600E0F6
:101AF000264600993B4650463246FFF7B7FEA96995
:101B000020F00042B21A1144A96128B12846FFF71B
:101B1000C7FF5846BDE8FE8FA41BE5D10020F9E7BA
:101B200070B504460569C06A6168884200D80846F5
:101B3000E16821F42011E160C90312D5A84208D060
:101B40002246411B2846FFF7B5FF10B14FF0FF308A
:101B500070BD0020E562C4E90150E06820F48030E7
:101B6000E060002070BD10B50446C06820F0200081
:101B7000E060A16AA06988420DD02046FFF7D0FF3F
:101B8000E06820F4405040F01000E060A06AA061DE
:101B90002069E062606044F24001E0688843E060F0
:101BA00010BD000010000200002801D000F05CB859
:101BB0007047000010B5014602A000F09EF8012019
:101BC00010BD000053494752545245443A205265D3
:101BD0006469726563743A2063616E2774206F7064
:101BE000656E3A20000000004FF0013C50F8042BD5
:101BF00051F8043B9A4221D1A2EB0C03934313EA20
:101C0000CC1317D150F8042B51F8043B9A4215D14C
:101C1000A2EB0C03934313EACC130BD150F8042B23
:101C200051F8043B9A4209D1A2EB0C03934313EA07
:101C3000CC13DBD04FF00000704700BFD01A01BAC0
:101C4000B1FA81F101F0180122FA01F0CB40DBB2C8
:101C5000C0B2C01AC1F120012CFA01F3D11A91438C
:101C600011EAC311E6D1704701491820ABBEFEE767
:101C700026000200704700210160C0E90110704792
:101C800010207047034640688C46002818BF8842E1
:101C90003CBF03464068F8D318681844884207D010
:101CA0000CF1030020F00700001D411A521A0146F2
:101CB000081D0A60FFF72EBB10B50146C2689007E9
:101CC00003D0900607D5886A0AE0FEF7B7FD012128
:101CD0000160881E10BD8B69486818440B69C01AE2
:101CE00091F848301BB191F84910401A10BD11030A
:101CF000FCD50028FADD401E10BD70B505460C4627
:101D00000A2000E06D1C00F037F835B12878002873
:101D1000F8D102E0641C00F02FF814B120780028FC
:101D2000F8D1BDE870400A2000F026B810B500F0E8
:101D30002BF8BDE81040FFF737BF10B5431C02E099
:101D400010F8011B71B18107FAD14FF0013202C8BE
:101D50008C1A8C4314EAC211F9D0C01A0A0603D0B7
:101D6000C01E10BDC01A10BD0A0401D0801E10BDD7
:101D70000902FCD0401E10BD08B569468DF8000070
:101D80000320ABBE08BD000010B5012805D000211E
:101D900003A0FFF7B2FF012010BD09A1F8E7000082
:101DA00053494752544D454D3A204F7574206F6644
:101DB0002068656170206D656D6F727900000000AC
:101DC0003A2048656170206D656D6F727920636F90
:101DD0007272757074656400FFE7FEE780B540F2CB
:101DE0004020C2F2000000F027F980BD80B540F22B
:101DF0008420C2F2000000F01FF980BD80B540F2DF
:101E00000C30C2F2000000F017F980BD80B540F23E
:101E1000C820C2F2000000F00FF980BD80B540F28A
:101E2000FC10C2F2000000F007F980BD80B540F25E
:101E3000B810C2F2000000F0FFF880BD84B003903B
:101E40000291019200930398C16B026C01209040B3
:101E50004860009803990968486003984068102812
:101E600009D1FFE7019803990968886002980399EE
:101E70000968C86008E002980399096888600198B9
:101E800003990968C860FFE704B070477047000015
:101E900081B0EFF3108072B60090FFE7FEE700001C
:101EA00083B0019000208DF80300019890F8210084
:101EB00002280DD0FFE7019904208863FFE701990C
:101EC000002081F82000FFE701208DF80B0021E0C1
:101ED00001980168086820F00E0008600198016808
:101EE000086820F0010008600198C16B026C0120B5
:101EF00090404860FFE70199012081F82100FFE749
:101F00000199002081F82000FFE79DF803008DF87B
:101F10000B00FFE79DF80B0003B0704780B588B059
:101F2000079000208DF81B00079890F821000228E8
:101F300007D0FFE707990420886301208DF81B0074
:101F400076E007980168086820F00E00086007989E
:101F50000168086820F001000860079800680821FF
:101F6000C4F20201884203D1FFE70120059047E057
:101F7000079800681C21C4F20201884203D1FFE7E0
:101F80001020049039E0079800683021C4F2020163
:101F9000884204D1FFE74FF4807003902AE007984D
:101FA00000684421C4F20201884204D1FFE74FF4E3
:101FB000805002901BE0079800685821C4F202018B
:101FC000884204D1FFE74FF4803001900CE007987D
:101FD00001686C22C4F202024FF08070914208BF87
:101FE0004FF480100190FFE701980290FFE70298FC
:101FF0000390FFE703980490FFE704980590FFE73C
:1020000005980421C4F2020108600799012081F8B3
:102010002100FFE70799002081F82000FFE70798DB
:10202000406B20B1FFE70798416B8847FFE7FFE768
:102030009DF81B0008B080BD80B58EB00D900D9846
:10204000C06B00680C900D98006800680B900C98AD
:102050000D99096CC8404007002875D5FFE79DF829
:102060002C00400700286FD5FFE70D980068006836
:102070008006002807D4FFE70D980168086820F063
:1020800004000860FFE70D9800680821C4F202010F
:10209000884203D1FFE704200A9047E00D980068CA
:1020A0001C21C4F20201884203D1FFE740200990BD
:1020B00039E00D9800683021C4F20201884204D151
:1020C000FFE74FF4806008902AE00D9800684421F3
:1020D000C4F20201884204D1FFE74FF48040079028
:1020E0001BE00D9800685821C4F20201884204D117
:1020F000FFE74FF4802006900CE00D9801686C22F9
:10210000C4F202024FF08060914208BF4FF4800099
:102110000690FFE706980790FFE707980890FFE70B
:1021200008980990FFE709980A90FFE70A980421A8
:10213000C4F2020108600D98C06A20B1FFE70D9853
:10214000C16A8847FFE7B8E00C980D99096CC84050
:102150008007002840F18080FFE79DF82C00800771
:10216000002879D5FFE70D980068006880060028F0
:102170000BD4FFE70D980168086820F00A0008609A
:102180000D99012081F82100FFE70D9800680821D2
:10219000C4F20201884203D1FFE70220059047E024
:1021A0000D9800681C21C4F20201884203D1FFE7A8
:1021B0002020049039E00D9800683021C4F202011B
:1021C000884204D1FFE74FF4007003902AE00D9895
:1021D00000684421C4F20201884204D1FFE74FF4B1
:1021E000005002901BE00D9800685821C4F20201D3
:1021F000884204D1FFE74FF4003001900CE00D98C5
:1022000001686C22C4F202024FF00070914208BFD4
:102210004FF400100190FFE701980290FFE7029849
:102220000390FFE703980490FFE704980590FFE709
:1022300005980421C4F202010860FFE70D9900200F
:1022400081F82000FFE70D98806A20B1FFE70D9824
:10225000816A8847FFE72FE00C980D99096CC84008
:102260000007002827D5FFE79DF82C00000700286D
:1022700021D5FFE70D980168086820F00E0008607E
:102280000D98C26B016C012000FA01F151600D99AB
:1022900088630D9981F82100FFE70D99002081F8EE
:1022A0002000FFE70D98006B20B1FFE70D98016B50
:1022B0008847FFE7FFE7FFE7FFE70EB080BD0000BC
:1022C00083B0019000200090019820B9FFE7012021
:1022D0008DF80B0047E0019908684FF6F872CBF6CD
:1022E000FD7210444CF6CD42CCF6CC42A0FB02026B
:1022F0006FF0030000EA9200086401990020C4F224
:102300000200C8630199022081F821000198006849
:1023100000680090009843F6F0718843009001999E
:102320004868D1F808C0CB680A6940EA0C00184335
:1023300010434A6910438A691043C96901430098F0
:1023400008430090009801990968086001990020ED
:102350008863019A012182F82110019981F82000F7
:102360008DF80B00FFE79DF80B0003B070470000ED
:1023700080B586B0049003910292019300208DF8FD
:102380000300FFE7049890F82000012804D1FFE73C
:1023900002208DF817004CE00499012081F82000FC
:1023A000FFE7FFE7049890F82100012832D1FFE70A
:1023B0000499022081F82100049900208863049880
:1023C0000168086820F00100086004980399029AE7
:1023D000019BFFF733FD0498C06A38B1FFE704980A
:1023E0000168086840F00E0008600CE0049801687D
:1023F000086820F00400086004980168086840F04C
:102400000A000860FFE704980168086840F00100CE
:10241000086009E0FFE70499002081F82000FFE749
:1024200002208DF80300FFE79DF803008DF81700E8
:10243000FFE79DF8170006B080BD000080B584B0AE
:10244000039000F0C5F902900398019001980130C3
:1024500048B1FFE740F21A00C2F20000017801988B
:1024600008440190FFE7FFE700F0B2F90299401A33
:102470000199884201D2FFE7F6E704B080BD000071
:1024800090B00F900E9100200D900990FFE70E98EC
:1024900000680D99C840002800F07F81FFE70D9982
:1024A000012088400C900E9800680C9908400B9011
:1024B0000B980C99884240F06C81FFE70E984068B9
:1024C0000590002851D0FFE7059801283AD0FFE792
:1024D000059802283FD0FFE7059803285FD0FFE763
:1024E0000598112832D0FFE70598122838D0FFE769
:1024F00005980021C1F21101884236D0FFE7059806
:102500000021C1F2120188422FD0FFE70598002177
:10251000C1F22101884228D0FFE705980021C1F2CD
:102520002201884221D0FFE705980021C1F2310144
:1025300088421AD0FFE705980021C1F23201884293
:1025400013D02FE00E98C06809902CE00E98C06858
:102550000430099027E00E98C0680830099022E006
:102560000E98C0680C3009901DE00E98806818B96C
:10257000FFE70420099011E00E988068012806D139
:10258000FFE7082009900C980F99086105E00820E2
:1025900009900C980F994861FFE7FFE703E00020DE
:1025A000099000E0FFE70B98FF2803D8FFE70F989A
:1025B000049003E00F9804300490FFE7049808901B
:1025C0000B98FF2804D8FFE70D988000039006E0E1
:1025D0000D996FF01F0000EB81000390FFE7039857
:1025E000079008980068079A0F219140884309993D
:1025F00091400843089908600E98C079C0060028E9
:1026000040F1C680FFE7FFE741F21800C4F2020084
:10261000016841F001010160006800F001000690CE
:102620000698FFE70D9820F003000821C4F201018D
:1026300040580A900D9800F0030081000F2000FA26
:1026400001F10A9888430A900F9840F60001C4F2FD
:102650000101884203D1FFE70020029026E00F9895
:1026600040F60041C4F20101884203D1FFE7012096
:10267000019018E00F9841F20001C4F20101884274
:1026800003D1FFE7022000900AE00F9941F20042D7
:10269000C4F201020420914208BF03200090FFE72A
:1026A00000980190FFE701980290FFE702980D99CA
:1026B00001F00301890000FA01F10A9808430A9029
:1026C0000A980D9921F003010822C4F201028850F2
:1026D0000E988079C00748B1FFE70B9A40F200419D
:1026E000C4F2010108681043086008E00B9A40F248
:1026F0000041C4F20101086890430860FFE70E98AA
:1027000080798007002809D5FFE70B9A40F2044141
:10271000C4F2010108681043086008E00B9A40F217
:102720000441C4F20101086890430860FFE70E9875
:102730008079C006002809D5FFE70B9A40F20841CE
:10274000C4F2010108681043086008E00B9A40F2E7
:102750000841C4F20101086890430860FFE70E9841
:1027600080798006002809D5FFE70B9A40F20C41DA
:10277000C4F2010108681043086008E00B9A40F2B7
:102780000C41C4F20101086890430860FFE7FFE7CD
:10279000FFE70D9801300D9079E610B0704700000A
:1027A00082B00190ADF802108DF801209DF8010073
:1027B00028B1FFE7BDF802000199086105E0BDF806
:1027C0000200000401990861FFE702B070470000B1
:1027D00040F2A840C2F200000068704781B000904B
:1027E00001B0704780B58EB00C900C9820B9FFE70F
:1027F00001208DF8370043E10C9890F83D0040B976
:10280000FFE70C99002081F83C000C9800F052FE84
:10281000FFE70C99242081F83D000C9801680868B6
:1028200020F0010008600C980168086840F400403E
:1028300008600C980168086820F40040086001F006
:10284000B1F80A900C98406848F2A061C0F201010A
:1028500088420BD8FFE70A9948F28042C0F21E0274
:102860000020914238BF012009900AE00A9940F601
:102870000012C0F23D020020914238BF01200990B1
:10288000FFE70998012804D1FFE701208DF8370000
:10289000F6E00A984DF68361C4F21B31A0FB0110EB
:1028A000800C0B900C980068406820F03F000B995A
:1028B00008430C99096848600C980068006A20F089
:1028C0003F0008900C98406848F2A061C0F20101F6
:1028D000884204D8FFE70B98013007900EE00B9870
:1028E0004FF49671484344F6D351C1F26201A0FB04
:1028F0000101012000EB91100790FFE7089807996C
:1029000008430C99096808620C980068C0694CF685
:10291000FF71884306900C98406848F2A061C0F2AD
:10292000010188421FD8FFE70A9801380C994968CD
:102930004900B0FBF1F001306FF31F30032803D8DA
:10294000FFE7042005900BE00A9801380C994968CC
:102950004900B0FBF1F001306FF31F300590FFE745
:10296000059804904CE00C98806868B9FFE70A98D5
:1029700001380C99496801EB4101B0FBF1F00130DD
:102980006FF31F3003900DE00A9801380C994968E5
:1029900019225143B0FBF1F00130042161F31F30E3
:1029A0000390FFE70398000518B9FFE701200290A4
:1029B00023E00C98806868B9FFE70A9801380C9901
:1029C000496801EB4101B0FBF1F001306FF31F30BA
:1029D00001900DE00A9801380C9949681922514379
:1029E000B0FBF1F00130042161F31F300190FFE7EB
:1029F000019840F400400290FFE702980490FFE73E
:102A00000698049908430C990968C8610C980068F5
:102A1000006820F0C0000C9B1968DA691B6A1A4331
:102A2000104308600C980068806848F2FF318843C2
:102A30000C9A1168D36812691A43104388600C9885
:102A40000068C06820F0FF000C9B19685A699B69F8
:102A50001A431043C8600C980168086840F00100F0
:102A600008600C99002008640C9A202182F83D101F
:102A70000C9908630C9981F83E008DF83700FFE748
:102A80009DF837000EB080BD81B0009001B0704756
:102A900081B0009001B0704710B590B08446149892
:102AA0001398DDF848E0CDF828C0ADF82610ADF851
:102AB0002420ADF82230ADF8200000200790FFF769
:102AC00087FE06900A9890F83D00202840F03F824B
:102AD000FFE70A9806996A4611600221C0F21001C8
:102AE0000122192302F04CFA20B1FFE702208DF8F1
:102AF0002F0030E2FFE70A9890F83C00012804D14B
:102B0000FFE702208DF82F0025E20A99012081F8C5
:102B10003C00FFE7FFE70A9800680068C00738B983
:102B2000FFE70A980168086840F001000860FFE7C5
:102B30000A980168086820F4006008600A99222059
:102B400081F83D000A99402081F83E000A99002052
:102B5000086412980A994862BDF820000A994885CD
:102B60000A98408D0A9908850A990020CFF6FF70CF
:102B7000C8620A98BDF82610BDF82420BDF822309E
:102B8000DDF850C0069CEE46CEF80440CEF800C0FA
:102B900002F01AF820B1FFE701208DF82F00DAE1EA
:102BA0000A98008DA0B9FFE7FFE7002005900A987A
:102BB0000068406905900A9800688069059005984A
:102BC000FFE70A980168086840F4007008605DE05B
:102BD0000A98008D01281FD1FFE70A98016808684C
:102BE00020F480600860EFF3108072B60F90FFE76A
:102BF000002004900A980068406904900A980068D0
:102C0000806904900498FFE70A980168086840F416
:102C10000070086062B638E00A98008D02281FD163
:102C2000FFE70A980168086840F400600860EFF365
:102C3000108072B60E90FFE7002003900A9800689B
:102C4000406903900A980068806903900398FFE741
:102C50000A980168086820F48060086062B613E092
:102C60000A980168086840F480600860FFE7002067
:102C700002900A980068406902900A98006880698A
:102C800002900298FFE7FFE7FFE7FFE7FFE70A98F8
:102C9000008D002800F04981FFE70A98008D032885
:102CA00000F20781FFE70A98008D01281ED1FFE797
:102CB0000A981499069A02F04BFA20B1FFE7012016
:102CC0008DF82F0047E10A98006800690A99496A5F
:102CD00008700A99486A013048620A99088D0138DB
:102CE00008850A99488D01384885E1E00A98008DE9
:102CF000022841D1FFE70A98149B06996A461160A1
:102D00000421C0F20101002202F03AF920B1FFE7EC
:102D100001208DF82F001EE1EFF3108072B60D90A8
:102D20000A980168086840F4007008600A98006812
:102D300000690A99496A08700A99486A013048622C
:102D40000A99088D013808850A99488D0138488507
:102D500062B60A98006800690A99496A08700A9977
:102D6000486A013048620A99088D013808850A9935
:102D7000488D013848859AE00A98149B06996A465E
:102D800011600421C0F20101002202F0F9F820B123
:102D9000FFE701208DF82F00DDE00A980168086840
:102DA00020F480600860EFF3108072B60C900A98EF
:102DB000006800690A99496A08700A99486A0130EE
:102DC00048620A99088D013808850A99488D0138AA
:102DD000488540F20C00C2F20000006848F21F5122
:102DE000C5F2EB11A0FB0110C00844F6D351C1F2AB
:102DF0006201A0FB01108009232148430790FFE7EF
:102E00000798013807900798D0B9FFE70A99002082
:102E100008630A9A202182F83D100A9981F83E0041
:102E20000A99086C40F02000086462B6FFE70A992E
:102E3000002081F83C00FFE701208DF82F008AE098
:102E4000FFE70A980068406900F004010020B0EB39
:102E5000910FD5D0FFE70A980168086840F4007028
:102E600008600A98006800690A99496A08700A9916
:102E7000486A013048620A99088D013808850A9924
:102E8000488D0138488562B60A98006800690A9939
:102E9000496A08700A99486A013048620A99088D9F
:102EA000013808850A99488D01384885FFE7FFE712
:102EB0003AE00A981499069A02F04AF920B1FFE71D
:102EC00001208DF82F0046E00A98006800690A99F1
:102ED000496A08700A99486A013048620A99088D5F
:102EE000013808850A99488D013848850A98006894
:102EF000406900F004010120B0EB910F13D1FFE70E
:102F00000A98006800690A99496A08700A99486A2B
:102F1000013048620A99088D013808850A99488D60
:102F200001384885FFE7FFE7B1E60A99202081F8DC
:102F30003D000A99002081F83E00FFE70A99002031
:102F400081F83C00FFE700208DF82F0003E002200D
:102F50008DF82F00FFE79DF82F0010B010BD000086
:102F600080B58CB084460F98DDF838E0CDF828C0E5
:102F7000ADF82610ADF82420ADF82230ADF82000D1
:102F8000FFF726FC0790002006900A9890F83D0075
:102F9000202840F07E81FFE740F20C00C2F20000E2
:102FA000006848F21F51C5F2EB11A0FB0110C008E8
:102FB00044F6D351C1F26201A0FB0110800919212E
:102FC00048430690FFE70698013806900698C8B96E
:102FD000FFE70A99002008630A9A202182F83D1031
:102FE0000A9981F83E000A99086C40F020000864B4
:102FF000FFE70A99002081F83C00FFE701208DF8E7
:103000002F004AE1FFE70A980068806900F002019A
:103010000020B0EB510FD6D1FFE7FFE70A9890F8F8
:103020003C00012804D1FFE702208DF82F0034E195
:103030000A99012081F83C00FFE7FFE70A98006841
:103040000068C00738B9FFE70A980168086840F0CF
:1030500001000860FFE70A980168086820F4006032
:1030600008600A99222081F83D000A99402081F8E1
:103070003E000A99002008640E980A994862BDF83B
:1030800020000A9948850A98408D0A9908850A996E
:103090000020CFF6FF70C8620A98008D002800F06B
:1030A000BE80FFE70A98806B00B3FFE70A98816B48
:1030B00044F6A910C0F6000088620A98816B44F6B5
:1030C0004510C0F6000008630A98816B0020C862B2
:1030D0000A99896B48630A9B19685A6A986B103180
:1030E0001B8DFFF745F98DF8170016E00A9920208F
:1030F00081F83D000A99002081F83E000A99086C89
:1031000040F080000864FFE70A99002081F83C0045
:10311000FFE701208DF82F00BFE09DF81700002881
:1031200065D1FFE70A98BDF82610BDF82420BDF848
:103130002230DDF81CC0EE46CEF804C04FF0230C60
:10314000CEF800C001F040FDF0B1FFE70A98806BB7
:10315000FEF7E4FE8DF817000A98816B0020886264
:103160000A990A68116821F4806111600A9908853A
:103170000A9948850A980168086820F001000860EB
:1031800001208DF82F0088E00A98008D012807D1D2
:10319000FFE70A980168086820F48060086006E08C
:1031A0000A980168486840F480504860FFE7FFE7EC
:1031B000002004900A980068406904900A9800680A
:1031C000806904900498FFE7FFE70A99002081F8DE
:1031D0003C00FFE70A980168486840F48070486046
:1031E0000A980168486840F40060486016E00A994F
:1031F000202081F83D000A99002081F83E000A99BC
:10320000086C40F010000864FFE70A99002081F87C
:103210003C00FFE701208DF82F003EE035E00A98E2
:10322000BDF82610BDF82420BDF82230DDF81CC002
:10323000EE46CEF804C04FF0230CCEF800C001F0EB
:10324000C3FC20B1FFE701208DF82F0025E0FFE748
:10325000002003900A980068406903900A9800686B
:10326000806903900398FFE70A980168086840F4B2
:10327000007008600A99202081F83D00FFE70A9954
:10328000002081F83C00FFE7FFE700208DF82F00C9
:1032900003E002208DF82F00FFE79DF82F000CB00F
:1032A00080BD000010B588B084460C980B98DDF8FE
:1032B00028E0CDF818C0ADF81610ADF81420ADF820
:1032C0001230ADF81000FFF783FA0390069890F8DB
:1032D0003D00202840F0E680FFE7069803996A4603
:1032E00011600221C0F210010122192301F048FEF1
:1032F00020B1FFE702208DF81F00D7E0FFE7069816
:1033000090F83C00012804D1FFE702208DF81F004F
:10331000CCE00699012081F83C00FFE7FFE7069822
:1033200000680068C00738B9FFE7069801680868B8
:1033300040F001000860FFE706980168086820F483
:10334000006008600699212081F83D000699402020
:1033500081F83E000699002008640A9806994862A0
:10336000BDF81000069948850698408D0699088595
:1033700006990020CFF6FF70C8620698BDF81610B7
:10338000BDF81420BDF81230DDF830C0039CEE46C5
:10339000CEF80440CEF800C001F008FD20B1FFE7F0
:1033A00001208DF81F0081E0FFE70698008D0028BE
:1033B00049D0FFE706980C99039A01F02DFF80B1E0
:1033C000FFE70698006C042807D1FFE7069801681C
:1033D000086840F400700860FFE701208DF81F00C6
:1033E00064E006980168406A007808610699486AB6
:1033F000013048620699088D013808850699488D84
:103400000138488506980068406900F004010120F1
:10341000B0EB910F16D1FFE70698008D90B1FFE752
:1034200006980168406A007808610699486A013088
:1034300048620699088D013808850699488D01383B
:103440004885FFE7B1E706980C99039A01F04CFD17
:1034500080B1FFE70698006C042807D1FFE70698C3
:103460000168086840F400700860FFE701208DF8EB
:103470001F001BE006980168086840F400700860AF
:103480000699202081F83D000699002081F83E0031
:10349000FFE70699002081F83C00FFE700208DF847
:1034A0001F0003E002208DF81F00FFE79DF81F00BA
:1034B00008B010BD80B58AB0099000200890079030
:1034C000069005900998006845F20041C4F2000199
:1034D000884273D1FFE7FFE741F21800C4F202000F
:1034E000016841F008010160006800F008000490E4
:1034F0000498FFE7C0200590122006900320089052
:1035000040F60040C4F2010005A9FEF7B9FFFFE74D
:1035100041F21C00C4F20200016841F40011016094
:10352000006800F4001003900398FFE740F2B81021
:10353000C2F2000002908021C4F202010160002169
:10354000416081608022C260016141618161C1612D
:10355000FEF7B6FE18B1FFE7FEF79AFCFFE7FFE7BC
:10356000099840F2B811C2F20001816309984862DB
:10357000FFE740F2FC10C2F2000001906C21C4F29F
:103580000201016010214160002181608022C2603F
:10359000016141618161C161FEF792FE18B1FFE7EF
:1035A000FEF776FCFFE7FFE7099840F2FC11C2F254
:1035B0000001416309984862FFE7FFE70AB080BD58
:1035C00081B0009001B0704781B0009001B07047A9
:1035D00040F21A00C2F20000027840F2A841C2F2A2
:1035E00000010868104408607047000080B542F28E
:1035F0000001C4F20201086840F0100008600320D6
:1036000000F096F80F2000F005F800F03BF80020DD
:1036100080BD000080B582B0009040F20C00C2F284
:103620000000006840F21A01C2F200010A784FF46B
:103630007A71B1FBF2F1B0FBF1F000F097FE20B12E
:10364000FFE701208DF8070018E000980F280DD83B
:10365000FFE700994FF0FF30002200F04FF800988C
:1036600040F21C01C2F20001086003E001208DF865
:10367000070003E000208DF80700FFE79DF8070032
:1036800002B080BD83B0FFE741F21800C4F202002F
:10369000016841F001010160006800F00100029042
:1036A0000298FFE7FFE741F21C00C4F20200016844
:1036B00041F080510160006800F080500190019855
:1036C000FFE7FFE70421C4F20101086800900098B9
:1036D00020F0E0600090009840F0007000900098AA
:1036E0000860FFE703B0704780B582B08DF807002F
:1036F0009DF9070002F08CF902B080BD80B586B05C
:103700008DF81700049103920020029002F098F9BE
:1037100002909DF91700019002980499039A01F014
:1037200019FF0146019802F093F906B080BD000030
:1037300080B582B00190019802F0ACF902B080BD72
:1037400080B584B002900191029820B9FFE7012072
:103750008DF80F001BE1019842F20001C4F2020152
:10376000096801F00701884216D9FFE742F200001C
:10377000C4F20200016821F00701019A11430160BF
:10378000006800F007000199884204D0FFE701209B
:103790008DF80F00FBE0FFE7029800788007002813
:1037A0002AD5FFE7029800784007002809D5FFE7EF
:1037B00041F20401C4F20201086840F4E0600860CC
:1037C000FFE7029800780007002809D5FFE741F2DB
:1037D0000401C4F20201086840F460500860FFE789
:1037E00041F20401C4F20201086820F0F000029ADC
:1037F000926810430860FFE702980078C00700282D
:1038000060D0FFE70298406801280ED1FFE741F23F
:103810000000C4F2020000688003002804D4FFE71F
:1038200001208DF80F00B2E021E0029840680228E4
:103830000ED1FFE741F20000C4F2020000688001EF
:10384000002804D4FFE701208DF80F009FE00DE071
:1038500041F20000C4F2020000688007002804D48E
:10386000FFE701208DF80F0091E0FFE7FFE741F24D
:103870000401C4F20201086820F00300029A5268B1
:1038800010430860FEF7A4FF0090FFE741F2040038
:10389000C4F20200006800F00C0002994968B0EB25
:1038A000810F0ED0FFE7FEF793FF0099401A41F217
:1038B0008931884204D3FFE703208DF80F0066E0CA
:1038C000E4E7FFE7019842F20001C4F2020109684F
:1038D00001F00701884216D2FFE742F20000C4F26D
:1038E0000200016821F00701019A1143016000689C
:1038F00000F007000199884204D0FFE701208DF80D
:103900000F0044E0FFE702980078400700280CD53C
:10391000FFE741F20401C4F20201086820F4E0600C
:10392000029AD26810430860FFE702980078000707
:1039300000280DD5FFE741F20401C4F20201086836
:1039400020F46050029A126940EAC2000860FFE762
:1039500000F04CF841F20401C4F202010968C9B256
:103960000A0947F2E801C0F60001895CC84040F24C
:103970000C01C2F20001086040F21C00C2F200001B
:103980000068FFF747FE00208DF80F00FFE79DF865
:103990000F0004B080BD000040F20C00C2F2000035
:1039A0000068704780B5FFF7F7FF41F20401C4F2E9
:1039B00002010968C1F3022247F2F801C0F60001D2
:1039C000895CC84080BD000080B5FFF7E5FF41F28B
:1039D0000401C4F202010968C1F3C22247F2F801EE
:1039E000C0F60001895CC84080BD00008BB040F685
:1039F0000E70C1F210000A9040F60A30C0F60C506A
:103A0000099040F20670C0F60810089040F20230AB
:103A1000C0F20450079040F20120ADF81A000020D7
:103A20000590049003900290019041F20400C4F2CA
:103A3000020000680590059800F00C000146009116
:103A4000E0B3FFE70098042804D0FFE700980828B7
:103A500006D034E041F20020C0F27A00019034E058
:103A60000598C0F3834107A8405C02909DF81600BA
:103A7000C007C0B1FFE741F20400C4F202000068D1
:103A800000F400310DF11A0040EA51400078049032
:103A9000029841F20021C0F27A0148430499B0FB38
:103AA000F1F0039007E0029840F60011C0F23D01EA
:103AB00048430390FFE70398019006E0FFE741F2D7
:103AC0000020C0F27A000190FFE701980BB0704728
:103AD00080B586B00490049820B9FFE701208DF8E6
:103AE00017002EE304980078C007002800F0AE808D
:103AF000FFE741F20400C4F20200006800F00C008D
:103B0000042813D0FFE741F20400C4F20200006869
:103B100000F00C0008281BD1FFE741F20400C4F2BA
:103B200002000068C003002812D5FFE741F2000040
:103B3000C4F2020000688003002808D5FFE704985B
:103B4000406820B9FFE701208DF81700F9E27CE01A
:103B5000FFE704984068B0F5803F09D1FFE741F2E4
:103B60000001C4F20201086840F48030086032E0CD
:103B70000498406868B9FFE741F20001C4F202010D
:103B8000086820F480300860086820F4802008600D
:103B900020E004984068B0F5A02F0DD1FFE741F276
:103BA0000001C4F20201086840F48020086008683F
:103BB00040F4803008600CE041F20001C4F20201E0
:103BC000086820F480300860086820F480200860CD
:103BD000FFE7FFE7FFE7FFE704984068D0B1FFE7A2
:103BE000FEF7F6FD0390FFE741F20000C4F2020089
:103BF0000068800300280CD4FFE7FEF7E9FD039975
:103C0000401A652804D3FFE703208DF8170098E2D7
:103C1000EAE719E0FEF7DCFD0390FFE741F2000060
:103C2000C4F202000068800300280CD5FFE7FEF70D
:103C3000CFFD0399401A652804D3FFE703208DF8D0
:103C400017007EE2EAE7FFE7FFE7FFE70498007866
:103C50008007002840F18D80FFE741F20400C4F2A4
:103C60000200006810F00C0F13D0FFE741F20400CF
:103C7000C4F20200006800F00C00082829D1FFE718
:103C800041F20400C4F202000068C003002820D4FE
:103C9000FFE741F20000C4F202000068800700283C
:103CA00009D5FFE704980069012804D0FFE7012047
:103CB0008DF8170045E241F20001C4F202010868E4
:103CC00020F0F800049A526940EAC2000860FFE759
:103CD0004EE00498006958B3FFE70021C4F2422186
:103CE00001200860FEF774FD0390FFE741F2000039
:103CF000C4F202000068800700280CD4FFE7FEF73A
:103D000067FD0399401A032804D3FFE703208DF8C9
:103D1000170016E2EAE741F20001C4F20201086866
:103D200020F0F800049A526940EAC20008601EE0E0
:103D30000021C4F2422100200860FEF749FD0390F3
:103D4000FFE741F20000C4F202000068800700288B
:103D50000CD5FFE7FEF73CFD0399401A032804D376
:103D6000FFE703208DF81700EBE1EAE7FFE7FFE745
:103D7000FFE7049800780007002848D5FFE704987B
:103D8000806918B3FFE740F28041C4F2422101206C
:103D90000860FEF71DFD0390FFE741F22400C4F226
:103DA00002000068800700280CD4FFE7FEF710FD32
:103DB0000399401A032804D3FFE703208DF8170066
:103DC000BFE1EAE7012001F0FDFB1FE040F2804186
:103DD000C4F2422100200860FEF7FAFC0390FFE7DE
:103DE00041F22400C4F202000068800700280CD5CC
:103DF000FFE7FEF7EDFC0399401A032804D3FFE721
:103E000003208DF817009CE1EAE7FFE7FFE704983D
:103E100000784007002840F1D880FFE700208DF8A7
:103E2000070041F21C00C4F202000068C000002834
:103E300013D4FFE7FFE741F21C00C4F2020001685F
:103E400041F080510160006800F0805000900098BF
:103E5000FFE701208DF80700FFE747F20000C4F2FA
:103E600000000068C005002822D4FFE747F20001E7
:103E7000C4F20001086840F480700860FEF7A8FCF6
:103E80000390FFE747F20000C4F200000068C0059D
:103E900000280CD4FFE7FEF79BFC0399401A652825
:103EA00004D3FFE703208DF817004AE1EAE7FFE7B4
:103EB000FFE70498C068012809D1FFE741F220011B
:103EC000C4F20201086840F00100086031E0049883
:103ED000C06868B9FFE741F22001C4F20201086836
:103EE00020F001000860086820F0040008601FE06E
:103EF0000498C06805280DD1FFE741F22001C4F203
:103F00000201086840F004000860086840F0010001
:103F100008600CE041F22001C4F20201086820F0C0
:103F200001000860086820F004000860FFE7FFE770
:103F3000FFE7FFE70498C068E0B1FFE7FEF748FC41
:103F40000390FFE741F22000C4F2020000688007FE
:103F500000280ED4FFE7FEF73BFC0399401A41F21C
:103F60008931884204D3FFE703208DF81700E8E089
:103F7000E8E71BE0FEF72CFC0390FFE741F220008E
:103F8000C4F202000068800700280ED5FFE7FEF7A4
:103F90001FFC0399401A41F28931884204D3FFE79C
:103FA00003208DF81700CCE0E8E7FFE79DF8070055
:103FB000012809D1FFE741F21C01C4F2020108689F
:103FC00020F080500860FFE7FFE70498C0690028F0
:103FD00000F0B380FFE741F20400C4F20200006881
:103FE00000F00C00082800F08280FFE70498C06908
:103FF00002285CD1FFE76021C4F242210020086062
:10400000FEF7E6FB0390FFE741F20000C4F2020076
:104010000068800100280CD5FFE7FEF7D9FB039963
:10402000401A032804D3FFE703208DF8170088E027
:10403000EAE70498006AB0F5803F0CD1FFE741F24F
:104040000401C4F20201086820F40030049A926866
:1040500010430860FFE741F20401C4F2020108685E
:1040600020F47410049B1A6A5B6A1A4310430860B8
:104070006021C4F2422101200860FEF7A9FB0390F1
:10408000FFE741F20000C4F202000068800100284E
:104090000CD4FFE7FEF79CFB0399401A032804D3D6
:1040A000FFE703208DF817004BE0EAE71EE06021F0
:1040B000C4F2422100200860FEF78AFB0390FFE76C
:1040C00041F20000C4F202000068800100280CD513
:1040D000FFE7FEF77DFB0399401A032804D3FFE7AF
:1040E00003208DF817002CE0EAE7FFE724E00498AE
:1040F000C069012804D1FFE701208DF8170020E0F6
:1041000041F20400C4F2020000680290029800F438
:1041100080300499096A884208D1FFE7029800F4C8
:1041200070100499496A884204D0FFE701208DF895
:10413000170006E0FFE7FFE7FFE700208DF8170014
:10414000FFE79DF8170006B080BD000080B584B081
:104150000290029820B9FFE701208DF80F006DE072
:104160000298406A60B9FFE702984068B0F5827F24
:1041700001D1FFE703E002990020C861FFE705E0F5
:1041800002990020086102994861FFE70299002026
:104190008862029890F8510040B9FFE70299002028
:1041A00081F85000029800F04DF8FFE702990220D4
:1041B00081F8510002980168086820F0400008600A
:1041C000029A019211685068D2F808C0D36800F4CE
:1041D00082700CF4044C604403F4006318441369C7
:1041E00003F002031844536903F001031844936970
:1041F00003F400731844D36903F038031844136AB6
:1042000003F080031843926A02F4005210430860DE
:104210000299488B00F00400096848600298016820
:10422000C86920F40060C861029900204865029ABC
:10423000012182F851108DF80F00FFE79DF80F0063
:1042400004B080BD80B58CB00B9000200A9009901E
:10425000089007900B98006843F20001C4F2010136
:10426000884240F08080FFE7FFE741F21800C4F287
:104270000200016841F480510160006800F4805040
:1042800006900698FFE7FFE741F21800C4F202002B
:10429000016841F004010160006800F0040005902D
:1042A0000598FFE7B02007900220089003200A90AD
:1042B00040F60000C4F20100019007A90291FEF748
:1042C000DFF8019802994022079200220392089297
:1042D0000992FEF7D5F8039940F24020C2F200009F
:1042E00004901C22C4F202020260416081608022BC
:1042F000C260016141618161C161FDF7E1FF18B1F7
:10430000FFE7FDF7C5FDFFE7FFE70B9840F240210F
:10431000C2F20001C1640B984862FFE740F28420BA
:10432000C2F2000000903021C4F2020101601021AD
:104330004160002181608022C26001614161816130
:10434000C161FDF7BDFF18B1FFE7FDF7A1FDFFE774
:10435000FFE70B9840F28421C2F2000181640B98C0
:104360004862FFE7FFE70CB080BD000080B582B077
:104370000190019801F046F902B080BD82B0019031
:10438000ADF8021002B0704781B0009001B07047E4
:1043900080B588B007900798006800680690079875
:1043A0000068C06805900798006840690490002084
:1043B00003900290069800F00F000390039888B9CC
:1043C000FFE79DF81800800600280AD5FFE79DF852
:1043D00014008006002804D5FFE7079801F0C0F913
:1043E00076E1FFE70398002800F0B480FFE79DF82E
:1043F0001000C00738B9FFE7BDF8140010F4907F33
:1044000000F0A880FFE79DF81800C00758B1FFE74B
:104410009DF81500C00730B1FFE70799086C40F020
:1044200001000864FFE79DF81800400700280BD53D
:10443000FFE79DF81000C00730B1FFE70799086C4F
:1044400040F002000864FFE79DF81800800700288C
:104450000BD5FFE79DF81000C00730B1FFE70799C3
:10446000086C40F004000864FFE79DF8180000079E
:10447000002811D5FFE79DF814008006002805D418
:10448000FFE79DF81000C00730B1FFE70799086CFF
:1044900040F008000864FFE70798006C002858D037
:1044A000FFE79DF81800800600280AD5FFE79DF871
:1044B00014008006002804D5FFE7079801F050F9A2
:1044C000FFE7079800684069C0F3801002900798E2
:1044D000006C0007002803D4FFE7029888B3FFE7C9
:1044E000079801F005F90798006840694006002820
:1044F00022D5FFE707980168486920F0400048612D
:104500000798806B98B1FFE70798816B45F2D160FF
:10451000C0F6000048630798806BFDF7FFFC28B1E8
:10452000FFE70798806B416B8847FFE703E0079838
:10453000FFF72AFFFFE703E00798FFF725FFFFE7F4
:1045400006E00798FFF720FF079900200864FFE7BF
:10455000FFE7BDE00798006B012840F09980FFE776
:104560009DF81800C006002840F19280FFE79DF8F2
:104570001400C006002840F18B80FFE7FFE7002011
:1045800001900798006800680190079800684068EB
:1045900001900198FFE707980068406940060028ED
:1045A00048D5FFE70798806B00684068ADF80200C7
:1045B000BDF80200E8B3FFE7BDF802000799898D56
:1045C000884236DAFFE7BDF802000799C8850798E8
:1045D000806B8069202824D0FFE707980168C868AD
:1045E00020F48070C86007980168486920F00100D5
:1045F000486107980168486920F0400048610799C0
:10460000202081F83E000799002008630798016880
:10461000C86820F01000C8600798806BFDF740FC68
:10462000FFE70798818DC28D891A89B2FFF7A6FE30
:10463000FFE74DE00799888DC98D401AADF800005D
:104640000798C08D18B3FFE7BDF80000F8B1FFE789
:1046500007980168C86820F49070C86007980168DE
:10466000486920F0010048610799202081F83E0048
:1046700007990020086307980168C86820F01000B7
:10468000C8600798BDF80010FFF778FEFFE71FE04D
:104690009DF81800000600280AD5FFE79DF81400D1
:1046A0000006002804D5FFE7079801F05DF90FE048
:1046B0009DF81800400600280AD5FFE79DF8140071
:1046C0004006002804D5FFE7079801F035F8FFE71A
:1046D00008B080BD80B582B00090009820B9FFE797
:1046E00001208DF807003EE00098806908B1FFE7DF
:1046F00000E0FFE7009890F83D0040B9FFE700991F
:10470000002081F83C00009800F032F8FFE70099A3
:10471000242081F83D0000980168C86820F400500A
:10472000C860009801F0C2F800980168086920F498
:104730009040086100980168486920F02A004861AB
:1047400000980168C86840F40050C86000990020D3
:104750000864009A202182F83D10009A82F83E10E9
:104760008DF80700FFE79DF8070002B080BD00004C
:1047700080B592B01190002010900F900E900D9087
:104780001198006843F60001C4F20101884240F02C
:104790008280FFE7FFE741F21800C4F202000168DF
:1047A00041F480410160006800F480400C900C9856
:1047B000FFE7FFE741F21800C4F20200016841F090
:1047C00004010160006800F004000B900B98FFE703
:1047D0004FF400700D9002200E900320109040F6D0
:1047E0000000C4F2010005900DA90691FDF748FEF6
:1047F000059806994FF440620D92002207920E929E
:104800000F92FDF73DFE079940F2C820C2F200006A
:1048100008905822C4F20202026041608160802246
:10482000C260016141618161C161FDF749FD18B15B
:10483000FFE7FDF72DFBFFE7FFE7119840F2C821E6
:10484000C2F20001816311984862FFE740F20C3028
:10485000C2F2000004904421C4F202010160102160
:104860004160002181608022C260016141618161FB
:10487000C161FDF725FD18B1FFE7FDF709FBFFE773
:10488000FFE7119840F20C31C2F200014163119828
:104890004862FFE74AE01198006844F20041C4F220
:1048A0000001884241D1FFE7FFE741F21C00C4F25A
:1048B0000200016841F400310160006800F400303A
:1048C0000A900A98FFE7FFE741F21800C4F20200DD
:1048D000016841F004010160006800F004000990E3
:1048E0000998FFE704200D9002200E9003201090FD
:1048F00040F60000C4F2010000900DA90191FDF7FF
:10490000BFFD0098019908220D92002202920E929A
:104910000F92FDF7B5FD029A262003901146FEF78F
:10492000EDFE0398FEF7E0FEFFE7FFE712B080BD63
:1049300081B0009001B0704781B0009001B0704725
:10494000FFE7FEE780B582B001900198406A0090D1
:104950000098406B28B1FFE70098416B0020886207
:10496000FFE70098806B28B1FFE70098816B00207B
:104970008862FFE700980168086820F4806008609A
:10498000009900204885009A202182F83D10009966
:1049900081F83E000099086C40F01000086400980F
:1049A000FDF71CFF02B080BD80B584B00390039872
:1049B000406A0290029890F83D008DF80700029836
:1049C00090F83E008DF806000298C06A00900298A8
:1049D0000168486820F4407048600298406B28B134
:1049E000FFE70298416B00208862FFE70298806B26
:1049F00028B1FFE70298816B00208862FFE79DF8ED
:104A0000070000F0210021280CD0FFE79DF80700E7
:104A100000F02200222837D1FFE79DF80600202869
:104A200032D1FFE702980168486820F400604860CE
:104A30000299002048859DF8070029280BD1FFE73F
:104A40000299212008630299282081F83D000298EC
:104A5000FEF7BAFD11E09DF807002A280BD1FFE709
:104A60000299222008630299282081F83D000298CB
:104A7000FEF7A6FD00E0FFE7FFE70298016848683F
:104A800040F4407048606AE0029890F83E000028C8
:104A900063D0FFE70298408D012807D1FFE7029815
:104AA0000168086820F480600860FFE702980168E8
:104AB000486820F440704860009810F5803F0DD0A1
:104AC000FFE70098082809D0FFE70098B0F12A4FC7
:104AD00004D0FFE70098202807D1FFE7029801687B
:104AE000086840F400700860FFE7029801684868B1
:104AF00020F48050486002980168486820F4006003
:104B000048600299002048850298006C20B1FFE7B8
:104B10000298FDF763FE1FE00299202081F83D0016
:104B2000029890F83E0040280AD1FFE70299002041
:104B300081F83E00029908630298FDF7A9FF0AE098
:104B40000299002081F83E00029912200863029821
:104B5000FDF79AFFFFE7FFE700E0FFE7FFE704B09C
:104B600080BD000082B0009000980068406900F4A9
:104B700080610120B0EB912F1ED1FFE70098016802
:104B80006FF480604861009900200863009A20213A
:104B900082F83D10009981F83E000099086C40F0C1
:104BA00004000864FFE70099002081F83C00FFE75B
:104BB00001208DF8070003E000208DF80700FFE7D3
:104BC0009DF8070002B0704780B586B0DDF824C0BC
:104BD000DDF820C00490ADF80E10ADF80C20ADF853
:104BE0000A3004980168086840F4806008600498FE
:104BF0000168086840F4807008600498089B09996F
:104C00006A4611604FF00111002200F0B9F980B13D
:104C1000FFE7049800680068C005002805D5FFE795
:104C200004994FF400700864FFE703208DF8170023
:104C3000B7E0BDF80E0000F0FE00049909680861B5
:104C40000498089A099B0221C0F2010100F0F8F9CA
:104C500020B1FFE701208DF81700A2E0FFE7002058
:104C60000190049800684069019004980068806988
:104C700001900198FFE704980899099A00F0CCFA8E
:104C800080B1FFE70498006C042807D1FFE704987F
:104C90000168086840F400700860FFE701208DF8A3
:104CA00017007EE0BDF80A00012806D1FFE79DF855
:104CB0000C0004990968086121E09DF80D00049931
:104CC0000968086104980899099A00F0A5FA80B16A
:104CD000FFE70498006C042807D1FFE704980168F7
:104CE000086840F400700860FFE701208DF81700A5
:104CF00057E09DF80C00049909680861FFE70498E3
:104D00000899099A00F088FA80B1FFE70498006CCE
:104D1000042807D1FFE704980168086840F4007090
:104D20000860FFE701208DF817003AE00498016859
:104D3000086840F4807008600498089B09996A46E6
:104D400011604FF00111002200F01AF980B1FFE765
:104D5000049800680068C005002805D5FFE704999D
:104D60004FF400700864FFE703208DF8170018E087
:104D70009DF80E0040F0010004990968086104984C
:104D8000089A099B0221C0F2010100F059F920B1F3
:104D9000FFE701208DF8170003E000208DF81700D1
:104DA000FFE79DF8170006B080BD000080B586B013
:104DB000DDF824C0DDF820C00490ADF80E10ADF889
:104DC0000C20ADF80A3004980168086840F480703F
:104DD00008600498089B09996A4611604FF0011118
:104DE000002200F0CDF880B1FFE704980068006869
:104DF000C005002805D5FFE704994FF4007008644A
:104E0000FFE703208DF8170069E0BDF80E0000F001
:104E1000FE000499096808610498089A099B022118
:104E2000C0F2010100F00CF920B1FFE701208DF87C
:104E3000170054E0FFE700200190049800684069E3
:104E4000019004980068806901900198FFE7049838
:104E50000899099A00F0E0F980B1FFE70498006C26
:104E6000042807D1FFE704980168086840F400703F
:104E70000860FFE701208DF8170030E0BDF80A0058
:104E8000012806D1FFE79DF80C0004990968086124
:104E900021E09DF80D0004990968086104980899BB
:104EA000099A00F0B9F980B1FFE70498006C042872
:104EB00007D1FFE704980168086840F400700860B3
:104EC000FFE701208DF8170009E09DF80C00049918
:104ED00009680861FFE700208DF81700FFE79DF8DB
:104EE000170006B080BD000080B584B0029001912B
:104EF0000092FFE702980068406900F0040100207A
:104F0000B0EB910F33D1FFE70298FFF72BFE20B1F2
:104F1000FFE701208DF80F002DE00198013028B344
:104F2000FFE7FDF755FC0099401A0199884203D824
:104F3000FFE70198C8B9FFE7029900200863029AC9
:104F4000202182F83D10029981F83E000299086CF8
:104F500040F020000864FFE70299002081F83C003F
:104F6000FFE701208DF80F0005E0FFE7C2E7002012
:104F70008DF80F00FFE79DF80F0004B080BD000022
:104F800080B586B0DDF820C0049003918DF80B2029
:104F90000193FFE79DF80E0001280CD1FFE704986C
:104FA00000684069BDF80C100840401AB0FA80F063
:104FB000400900900BE0049800688069BDF80C106F
:104FC0000840401AB0FA80F040090090FFE70098CE
:104FD0009DF80B1088422AD1FFE70198013028B3D1
:104FE000FFE7FDF7F5FB0899401A0199884203D8BD
:104FF000FFE70198C8B9FFE7049900200863049A05
:10500000202182F83D10049981F83E000499086C33
:1050100040F020000864FFE70499002081F83C007C
:10502000FFE701208DF8170005E0FFE7B2E7002059
:105030008DF81700FFE79DF8170006B080BD00004F
:1050400080B586B00490039102920193FFE79DF82A
:105050000E0001280CD1FFE7049800684069BDF8F4
:105060000C100840401AB0FA80F0400900900BE0A4
:10507000049800688069BDF80C100840401AB0FA26
:1050800080F040090090FFE70098002858D1FFE722
:1050900004980068406900F480610120B0EB912F12
:1050A00024D1FFE704980168086840F400700860A4
:1050B000049801686FF480604861049900200863D7
:1050C000049A202182F83D10049981F83E00049949
:1050D000086C40F004000864FFE70499002081F8A0
:1050E0003C00FFE701208DF817002DE00298013009
:1050F00028B3FFE7FDF76CFB0199401A029988423B
:1051000003D8FFE70298C8B9FFE7049900200863B5
:10511000049A202182F83D10049981F83E000499F8
:10512000086C40F020000864FFE70499002081F833
:105130003C00FFE701208DF8170005E0FFE786E758
:1051400000208DF81700FFE79DF8170006B080BD1E
:1051500080B584B0029001910092FFE70298006848
:10516000406900F040010020B0EB911F4BD1FFE7F8
:1051700002980068406900F010010120B0EB111F97
:105180001CD1FFE7029801686FF010004861029996
:1051900000200863029A202182F83D10029981F8CC
:1051A0003E000299086C0864FFE70299002081F82C
:1051B0003C00FFE701208DF80F0028E0FDF708FB19
:1051C0000099401A0199884203D8FFE70198C8B9AD
:1051D000FFE7029900200863029A202182F83D101F
:1051E000029981F83E000299086C40F020000864A2
:1051F000FFE70299002081F83C00FFE701208DF8CD
:105200000F0004E0AAE700208DF80F00FFE79DF8EB
:105210000F0004B080BD000080B584B00290019101
:105220000092FFE7029800684069C1B20020B0EB2D
:10523000D11F33D1FFE70298FFF794FC20B1FFE7BD
:1052400001208DF80F002DE00198013028B3FFE711
:10525000FDF7BEFA0099401A0199884203D8FFE78A
:105260000198C8B9FFE7029900200863029A20213B
:1052700082F83D10029981F83E000299086C40F0D6
:1052800020000864FFE70299002081F83C00FFE756
:1052900001208DF80F0005E0FFE7C3E700208DF83F
:1052A0000F00FFE79DF80F0004B080BD80B588B007
:1052B000FFE741F21400C4F20200016841F001016D
:1052C0000160006800F0010007900798FFE70C20DC
:1052D0000090002205921146FEF710FA0098FEF7A2
:1052E00003FA059A0D2001901146FEF707FA01987E
:1052F000FEF7FAF9059A0E2002901146FEF7FEF924
:105300000298FEF7F1F9059A0F2003901146FEF777
:10531000F5F90398FEF7E8F9059A10200490114674
:10532000FEF7ECF90498FEF7DFF9059A11200690D4
:105330001146FEF7E3F90698FEF7D6F908B080BDEE
:1053400080B590B000200F900E900D900C90FFE76C
:1053500041F21800C4F20200016841F0200101602E
:10536000006800F020000B900B98FFE7FFE741F288
:105370001800C4F20200016841F0040101600068F5
:1053800000F004000A900A98FFE7FFE741F21800D6
:10539000C4F20200016841F008010160006800F0F9
:1053A000080009900998FFE740F60040C4F20100A8
:1053B00007904FF40041019100220692FDF7F0F9A9
:1053C000069A40F60000C4F2010004904FF4807188
:1053D0000591FDF7E5F9019A069907980C920122CB
:1053E00002920D920E91022103910F910CA9089146
:1053F000FDF746F8DDF808C0039A0498069B089963
:10540000DDF814E0CDF830E0CDF834C00E930F9203
:10541000FDF736F8069A0798089918230C9300238D
:10542000C1F211030D930E92FDF72AF810B080BD62
:1054300080B582B040F25030C2F20000019045F2D7
:105440000041C4F20001016048F2A061C0F2010114
:10545000416000218160C1604FF48042026141617E
:105460008161C1610162FDF7BDF918B1FFE7FCF789
:105470000FFDFFE702B080BD80B582B040F2A430DE
:10548000C2F20000019043F20001C4F20101016088
:105490004FF48271416000218160C160016141610E
:1054A0004FF4802282610822C261016241628162FE
:1054B0000A21C162FEF74AFE18B1FFE7FCF7E8FCDB
:1054C000FFE702B080BD000080B582B040F2FC3042
:1054D000C2F20000019043F60001C4F20101016034
:1054E0004FF4E131416000218160C16001610C2213
:1054F00042614FF400728261C161FFF7EBF818B1AD
:10550000FFE7FCF7C5FCFFE702B080BD80B582B0C5
:1055100040F24040C2F20000019044F20041C4F267
:10552000000101604FF4E131416000218160C16000
:1055300001610C2242618161C161FFF7CBF818B1B2
:10554000FFE7FCF7A5FCFFE702B080BDFFE7FEE741
:10555000FFE7FEE788B0079006910592079800F0F4
:10556000070004900498C0F10700052803D3FFE763
:105570000420019004E00498C0F107000190FFE7C7
:105580000198039004980430062803D8FFE7002010
:10559000009003E0049803380090FFE70098029021
:1055A00006980399012202FA01F101390840029B91
:1055B000984005999A40013A1140084308B0704755
:1055C0007047000082B00190019840F20C01C2F2D5
:1055D00000010968C90844F6D352C1F26202A1FB76
:1055E0000221890948430090FFE700BFFFE70098C8
:1055F000411E00910028F8D1FFE702B0704700007B
:105600007047000080B582B0009000980138B0F17A
:10561000807F03D3FFE70120019019E00098013853
:105620004EF21401CEF2000108604FF0FF300F215E
:1056300000F00EFA4EF21801CEF2000100200860D0
:105640004EF21002CEF20002072111600190FFE736
:10565000019802B080BD000080B5FDF7B9FF80BDA4
:1056600080B590B006A800902821FAF717FE0098A0
:10567000002305930493039302930193012206925E
:105680004FF48031079108930A9202220D920E91F5
:105690004FF4E0110F91FEF71BFA18B1FFE7FCF78A
:1056A000F7FBFFE70F2001900221029100200390F9
:1056B0004FF480620492059001A8FEF741F818B1FA
:1056C000FFE7FCF7E5FBFFE710B080BD7047000087
:1056D00080B582B001900198406A00900099002046
:1056E000C8850099C8840098FEF74EFE02B080BDC0
:1056F00081B0009000980168C86820F49070C8607C
:1057000000980168486920F0010048610098006B2A
:10571000012807D1FFE700980168C86820F0100051
:10572000C860FFE70099202081F83E000099002022
:10573000086301B07047000080B582B00190019805
:105740000168C86820F04000C8600199202081F8F5
:105750003D000198FFF7F0F8002002B080BD000086
:1057600080B586B00490049890F83E00222840F05E
:105770009480FFE704988068B0F5805F15D1FFE75B
:105780000498006988B9FFE7002003900498806AB4
:1057900002900498006840686FF35F2002990880C7
:1057A0000499886A0230886225E00498806A039030
:1057B0000020029004988068B0F5805F08D0FFE771
:1057C0000498806850B9FFE70498006930B9FFE792
:1057D0000498006840680399087007E0049800681E
:1057E000406800F07F0003990870FFE70499886A19
:1057F00001308862FFE70499C88D0138C88500042C
:10580000002846D1FFE704980168C86820F020000E
:10581000C86004980168C86820F48070C860049863
:105820000168486920F0010048610499202081F84E
:105830003E000498006B012823D1FFE70499002063
:10584000086304980168C86820F01000C8600498D4
:1058500000680068C00600280ED5FFE7FFE70020BB
:1058600001900498006800680190049800684068FE
:1058700001900198FFE7FFE70498818DFEF77EFD18
:1058800003E00498FFF754F8FFE700208DF81700B5
:1058900007E000208DF8170003E002208DF81700C4
:1058A000FFE79DF8170006B080BD000080B584B00A
:1058B000039003980068006920F44050039A11682F
:1058C000D26810430861039988680A6949691043DE
:1058D0000843029003980068C06841F20C61884355
:1058E0000299084303990968C860039800684069F1
:1058F00020F44070039A116892691043486103983C
:10590000006843F60001C4F20101884204D1FFE7B8
:10591000FEF75AF8019003E0FEF744F80190FFE724
:10592000019819214843039A116852689200B0FB0C
:10593000F2FC48F21F52C5F2EB12ACFB02304309F5
:10594000642003FB10CC322000EB0C10A0FB020201
:10595000F02000EA521000EB0310C2F3431210448F
:10596000886004B080BD000083B00190019890F879
:105970003D0021283AD1FFE701988068B0F5805FAB
:1059800013D1FFE70198006978B9FFE70198006A31
:105990000090009800886FF35F20019909684860C3
:1059A0000199086A0230086208E0019A106A411CF5
:1059B00011620078019909684860FFE70199C88C75
:1059C0000138C884000468B9FFE701980168C86815
:1059D00020F08000C86001980168C86840F040006D
:1059E000C860FFE700208DF80B0003E002208DF86F
:1059F0000B00FFE79DF80B0003B0704780B540F245
:105A00004040C2F20000FEF7C3FC80BDFFE7FEE7A6
:105A100081B08DF803009DF9030000280ED4FFE744
:105A20009DF9031001F01F02012090404A094EF237
:105A30000011CEF2000141F82200FFE701B07047EB
:105A40004EF60C50CEF200000068C0F30220704702
:105A500082B08DF8070000919DF9070000280AD454
:105A6000FFE7009800019DF907104EF20042CEF2C8
:105A7000000288540BE0009800019DF8071001F027
:105A80000F014EF61452CEF200028854FFE702B026
:105A90007047000083B00290029800F00700009069
:105AA0004EF60C51CEF200010868019001984FF6B5
:105AB000FF02104001900198009A40EA0220002263
:105AC000C0F2FA52104301900198086003B0704789
:105AD00081B00090009840F27C11C2F20001086091
