:020000040800F2
:10000000280A002089010008253E0008CD3100089B
:10001000213E000869030008E142000800000000DA
:10002000000000000000000000000000D53E0008B5
:100030001D04000800000000953E00082D3F000848
:10004000A3010008A3010008A3010008A301000800
:10005000A3010008A3010008A3010008A3010008F0
:10006000A3010008A3010008A3010008A3010008E0
:100070006D0300087D0300088D0300089D03000840
:10008000AD030008BD030008A3010008A301000898
:10009000A3010008A3010008A3010008A3010008B0
:1000A000A3010008A3010008A3010008A3010008A0
:1000B000A3010008A3010008A3010008A301000890
:1000C000A3010008A3010008A3010008A301000880
:1000D000A3010008A3010008D1420008A301000801
:1000E000A3010008A3010008A301000800F002F822
:1000F00000F03AF80AA090E8000C82448344AAF188
:100100000107DA4501D100F02FF8AFF2090EBAE885
:100110000F0013F0010F18BFFB1A43F0010318473B
:10012000306B0000506B0000103A24BF78C878C1D3
:10013000FAD8520724BF30C830C144BF04680C60ED
:10014000704700000023002400250026103A28BF35
:1001500078C1FBD8520728BF30C148BF0B60704739
:100160001FB51FBD10B510BD00F06CF81146FFF7AC
:10017000F7FF04F0D7FE00F08AF803B4FFF7F2FFB0
:1001800003BC00F08DF8000009488047094800478B
:10019000FEE7FEE7FEE7FEE7FEE7FEE7FEE7FEE737
:1001A000FEE7FEE704480549054A064B7047000094
:1001B000A13F0008ED00000828040020280A0020C4
:1001C00028060020280600204FF0000200B5134644
:1001D00094469646203922BFA0E80C50A0E80C5067
:1001E000B1F12001BFF4F7AF090728BFA0E80C5018
:1001F00048BF0CC05DF804EB890028BF40F8042B11
:1002000008BF704748BF20F8022B11F0804F18BF7D
:1002100000F8012B704770477047704710B500F029
:1002200009F8006810BD10B5044600F003F804603A
:1002300010BD0000004870471000002000487047C3
:10024000100000207546FFF7F9FFAE46050069462D
:10025000534620F00700854618B020B5FFF7A2FFEF
:10026000BDE820404FF000064FF000074FF00008B7
:100270004FF0000BAC46ACE8C009ACE8C009ACE8F4
:10028000C009ACE8C00921F007018D46704710B5E0
:100290000446AFF300802046BDE81040FFF76DBF75
:1002A00001491820ABBEFEE726000200704700009F
:1002B00080B584B000228DF80E20694664208860E5
:1002C00001234B600DF10E00086040F26820C2F27D
:1002D0000000EC2100F0EEFF8DF80D009DF80D0000
:1002E00050B9FFE79DF80E00502804D1FFE7012028
:1002F0008DF80F0004E0FFE700208DF80F00FFE706
:100300009DF80F0004B080BD80B582B040F2682037
:10031000C2F20000EC210422642300F07DFE8DF87F
:1003200006009DF8060020B9FFE701208DF80700C0
:1003300015E09DF80600012804D1FFE702208DF8A2
:1003400007000CE09DF80600022804D1FFE7032017
:100350008DF8070003E004208DF80700FFE79DF803
:10036000070002B080BD0000FFE7FEE780B540F265
:100370005810C2F2000000F027F980BD80B540F2AD
:100380009C10C2F2000000F01FF980BD80B540F261
:100390002420C2F2000000F017F980BD80B540F2C1
:1003A000E010C2F2000000F00FF980BD80B540F20D
:1003B0001410C2F2000000F007F980BD80B540F2D1
:1003C000D000C2F2000000F0FFF880BD84B00390BE
:1003D0000291019200930398C16B026C012090403E
:1003E000486000980399096848600398406810289D
:1003F00009D1FFE701980399096888600298039979
:100400000968C86008E00298039909688860019843
:1004100003990968C860FFE704B07047704700009F
:1004200081B0EFF3108072B60090FFE7FEE70000A6
:1004300083B0019000208DF80300019890F821000E
:1004400002280DD0FFE7019904208863FFE7019996
:10045000002081F82000FFE701208DF80B0021E04B
:1004600001980168086820F00E0008600198016892
:10047000086820F0010008600198C16B026C01203F
:1004800090404860FFE70199012081F82100FFE7D3
:100490000199002081F82000FFE79DF803008DF806
:1004A0000B00FFE79DF80B0003B0704780B588B0E4
:1004B000079000208DF81B00079890F82100022873
:1004C00007D0FFE707990420886301208DF81B00FF
:1004D00076E007980168086820F00E000860079829
:1004E0000168086820F0010008600798006808218A
:1004F000C4F20201884203D1FFE70120059047E0E2
:10050000079800681C21C4F20201884203D1FFE76A
:100510001020049039E0079800683021C4F20201ED
:10052000884204D1FFE74FF4807003902AE00798D7
:1005300000684421C4F20201884204D1FFE74FF46D
:10054000805002901BE0079800685821C4F2020115
:10055000884204D1FFE74FF4803001900CE0079807
:1005600001686C22C4F202024FF08070914208BF11
:100570004FF480100190FFE701980290FFE7029886
:100580000390FFE703980490FFE704980590FFE7C6
:1005900005980421C4F2020108600799012081F83E
:1005A0002100FFE70799002081F82000FFE7079866
:1005B000406B20B1FFE70798416B8847FFE7FFE7F3
:1005C0009DF81B0008B080BD80B58EB00D900D98D1
:1005D000C06B00680C900D98006800680B900C9838
:1005E0000D99096CC8404007002875D5FFE79DF8B4
:1005F0002C00400700286FD5FFE70D9800680068C1
:100600008006002807D4FFE70D980168086820F0ED
:1006100004000860FFE70D9800680821C4F2020199
:10062000884203D1FFE704200A9047E00D98006854
:100630001C21C4F20201884203D1FFE74020099047
:1006400039E00D9800683021C4F20201884204D1DB
:10065000FFE74FF4806008902AE00D98006844217D
:10066000C4F20201884204D1FFE74FF480400790B2
:100670001BE00D9800685821C4F20201884204D1A1
:10068000FFE74FF4802006900CE00D9801686C2283
:10069000C4F202024FF08060914208BF4FF4800024
:1006A0000690FFE706980790FFE707980890FFE796
:1006B00008980990FFE709980A90FFE70A98042133
:1006C000C4F2020108600D98C06A20B1FFE70D98DE
:1006D000C16A8847FFE7B8E00C980D99096CC840DB
:1006E0008007002840F18080FFE79DF82C008007FC
:1006F000002879D5FFE70D9800680068800600287B
:100700000BD4FFE70D980168086820F00A00086024
:100710000D99012081F82100FFE70D98006808215C
:10072000C4F20201884203D1FFE70220059047E0AE
:100730000D9800681C21C4F20201884203D1FFE732
:100740002020049039E00D9800683021C4F20201A5
:10075000884204D1FFE74FF4007003902AE00D981F
:1007600000684421C4F20201884204D1FFE74FF43B
:10077000005002901BE00D9800685821C4F202015D
:10078000884204D1FFE74FF4003001900CE00D984F
:1007900001686C22C4F202024FF00070914208BF5F
:1007A0004FF400100190FFE701980290FFE70298D4
:1007B0000390FFE703980490FFE704980590FFE794
:1007C00005980421C4F202010860FFE70D9900209A
:1007D00081F82000FFE70D98806A20B1FFE70D98AF
:1007E000816A8847FFE72FE00C980D99096CC84093
:1007F0000007002827D5FFE79DF82C0000070028F8
:1008000021D5FFE70D980168086820F00E00086008
:100810000D98C26B016C012000FA01F151600D9935
:1008200088630D9981F82100FFE70D99002081F878
:100830002000FFE70D98006B20B1FFE70D98016BDA
:100840008847FFE7FFE7FFE7FFE70EB080BD000046
:1008500083B0019000200090019820B9FFE70120AB
:100860008DF80B0047E0019908684FF6F872CBF657
:10087000FD7210444CF6CD42CCF6CC42A0FB0202F5
:100880006FF0030000EA9200086401990020C4F2AE
:100890000200C8630199022081F8210001980068D4
:1008A00000680090009843F6F07188430090019929
:1008B0004868D1F808C0CB680A6940EA0C001843C0
:1008C00010434A6910438A691043C969014300987B
:1008D0000843009000980199096808600199002078
:1008E0008863019A012182F82110019981F8200082
:1008F0008DF80B00FFE79DF80B0003B07047000078
:1009000080B586B0049003910292019300208DF887
:100910000300FFE7049890F82000012804D1FFE7C6
:1009200002208DF817004CE00499012081F8200086
:10093000FFE7FFE7049890F82100012832D1FFE794
:100940000499022081F8210004990020886304980A
:100950000168086820F00100086004980399029A71
:10096000019BFFF733FD0498C06A38B1FFE7049894
:100970000168086840F00E0008600CE00498016807
:10098000086820F00400086004980168086840F0D6
:100990000A000860FFE704980168086840F0010059
:1009A000086009E0FFE70499002081F82000FFE7D4
:1009B00002208DF80300FFE79DF803008DF8170073
:1009C000FFE79DF8170006B080BD000080B584B039
:1009D000039000F0C5F9029003980190019801304E
:1009E00048B1FFE740F20800C2F200000178019828
:1009F00008440190FFE7FFE700F0B2F90299401ABE
:100A00000199884201D2FFE7F6E704B080BD0000FB
:100A100090B00F900E9100200D900990FFE70E9876
:100A200000680D99C840002800F07F81FFE70D990C
:100A3000012088400C900E9800680C9908400B909B
:100A40000B980C99884240F06C81FFE70E98406843
:100A50000590002851D0FFE7059801283AD0FFE71C
:100A6000059802283FD0FFE7059803285FD0FFE7ED
:100A70000598112832D0FFE70598122838D0FFE7F3
:100A800005980021C1F21101884236D0FFE7059890
:100A90000021C1F2120188422FD0FFE70598002102
:100AA000C1F22101884228D0FFE705980021C1F258
:100AB0002201884221D0FFE705980021C1F23101CF
:100AC00088421AD0FFE705980021C1F2320188421E
:100AD00013D02FE00E98C06809902CE00E98C068E3
:100AE0000430099027E00E98C0680830099022E091
:100AF0000E98C0680C3009901DE00E98806818B9F7
:100B0000FFE70420099011E00E988068012806D1C3
:100B1000FFE7082009900C980F99086105E008206C
:100B200009900C980F994861FFE7FFE703E0002068
:100B3000099000E0FFE70B98FF2803D8FFE70F9824
:100B4000049003E00F9804300490FFE704980890A5
:100B50000B98FF2804D8FFE70D988000039006E06B
:100B60000D996FF01F0000EB81000390FFE70398E1
:100B7000079008980068079A0F21914088430999C7
:100B800091400843089908600E98C079C006002873
:100B900040F1C680FFE7FFE741F21800C4F202000F
:100BA000016841F001010160006800F00100069059
:100BB0000698FFE70D9820F003000821C4F2010118
:100BC00040580A900D9800F0030081000F2000FAB1
:100BD00001F10A9888430A900F9840F60001C4F288
:100BE0000101884203D1FFE70020029026E00F9820
:100BF00040F60041C4F20101884203D1FFE7012021
:100C0000019018E00F9841F20001C4F201018842FE
:100C100003D1FFE7022000900AE00F9941F2004261
:100C2000C4F201020420914208BF03200090FFE7B4
:100C300000980190FFE701980290FFE702980D9954
:100C400001F00301890000FA01F10A9808430A90B3
:100C50000A980D9921F003010822C4F2010288507C
:100C60000E988079C00748B1FFE70B9A40F2004127
:100C7000C4F2010108681043086008E00B9A40F2D2
:100C80000041C4F20101086890430860FFE70E9834
:100C900080798007002809D5FFE70B9A40F20441CC
:100CA000C4F2010108681043086008E00B9A40F2A2
:100CB0000441C4F20101086890430860FFE70E9800
:100CC0008079C006002809D5FFE70B9A40F2084159
:100CD000C4F2010108681043086008E00B9A40F272
:100CE0000841C4F20101086890430860FFE70E98CC
:100CF00080798006002809D5FFE70B9A40F20C4165
:100D0000C4F2010108681043086008E00B9A40F241
:100D10000C41C4F20101086890430860FFE7FFE757
:100D2000FFE70D9801300D9079E610B07047000094
:100D300082B00190ADF802108DF801209DF80100FD
:100D400028B1FFE7BDF802000199086105E0BDF890
:100D50000200000401990861FFE702B0704700003B
:100D600040F22040C2F200000068704781B000905D
:100D700001B0704780B58EB00C900C9820B9FFE799
:100D800001208DF8370043E10C9890F83D0040B900
:100D9000FFE70C99002081F83C000C9800F098FFC8
:100DA000FFE70C99242081F83D000C980168086841
:100DB00020F0010008600C980168086840F40040C9
:100DC00008600C980168086820F40040086001F091
:100DD0002FFA0A900C98406848F2A061C0F2010115
:100DE00088420BD8FFE70A9948F28042C0F21E02FF
:100DF0000020914238BF012009900AE00A9940F68C
:100E00000012C0F23D020020914238BF012009903B
:100E1000FFE70998012804D1FFE701208DF837008A
:100E2000F6E00A984DF68361C4F21B31A0FB011075
:100E3000800C0B900C980068406820F03F000B99E4
:100E400008430C99096848600C980068006A20F013
:100E50003F0008900C98406848F2A061C0F2010180
:100E6000884204D8FFE70B98013007900EE00B98FA
:100E70004FF49671484344F6D351C1F26201A0FB8E
:100E80000101012000EB91100790FFE708980799F6
:100E900008430C99096808620C980068C0694CF610
:100EA000FF71884306900C98406848F2A061C0F238
:100EB000010188421FD8FFE70A9801380C99496858
:100EC0004900B0FBF1F001306FF31F30032803D865
:100ED000FFE7042005900BE00A9801380C99496857
:100EE0004900B0FBF1F001306FF31F300590FFE7D0
:100EF000059804904CE00C98806868B9FFE70A9860
:100F000001380C99496801EB4101B0FBF1F0013067
:100F10006FF31F3003900DE00A9801380C9949686F
:100F200019225143B0FBF1F00130042161F31F306D
:100F30000390FFE70398000518B9FFE7012002902E
:100F400023E00C98806868B9FFE70A9801380C998B
:100F5000496801EB4101B0FBF1F001306FF31F3044
:100F600001900DE00A9801380C9949681922514303
:100F7000B0FBF1F00130042161F31F300190FFE775
:100F8000019840F400400290FFE702980490FFE7C8
:100F90000698049908430C990968C8610C98006880
:100FA000006820F0C0000C9B1968DA691B6A1A43BC
:100FB000104308600C980068806848F2FF3188434D
:100FC0000C9A1168D36812691A43104388600C9810
:100FD0000068C06820F0FF000C9B19685A699B6983
:100FE0001A431043C8600C980168086840F001007B
:100FF00008600C99002008640C9A202182F83D10AA
:101000000C9908630C9981F83E008DF83700FFE7D2
:101010009DF837000EB080BD80B58CB00A90ADF859
:10102000261008920793FFF79BFE0690012005907B
:101030000A9890F83D00202840F02B81FFE70A989D
:1010400006996A4611600221C0F21001012219239B
:1010500002F0DCFB20B1FFE702208DF82F001CE13D
:10106000FFE70A9890F83C00012804D1FFE702202E
:101070008DF82F0011E10A99012081F83C00FFE76B
:10108000FFE70A9800680068C00738B9FFE70A98C8
:101090000168086840F001000860FFE70A980168ED
:1010A000086820F4006008600A99242081F83D0057
:1010B0000A99002008640A990020CFF6FF70C862E0
:1010C000FFE70A980168086840F4807008600A9891
:1010D000079B06996A4611604FF00111002202F049
:1010E00095FB80B1FFE70A9800680068C0050028FA
:1010F00005D5FFE70A994FF400700864FFE7032065
:101100008DF82F00C9E0BDF8260000F0FE000A9916
:1011100009680861FFF724FE06900A980068406994
:10112000C0F340008DF813000A9800684069C0F3CE
:1011300080208DF81200FFE70A9890F83D100020FB
:10114000A02902900DD0FFE79DF813100020029017
:1011500039B9FFE79DF81200B0FA80F0400902901B
:10116000FFE70298C007F8B1FFE7FFF7F9FD06991E
:10117000401A0799884203D8FFE7079828B9FFE784
:101180000A99A02081F83D00FFE70A9800684069AD
:10119000C0F340008DF813000A9800684069C0F35E
:1011A00080208DF81200C7E70A99202081F83D00C1
:1011B0000A980068406900F002010120B0EB510F6D
:1011C00032D1FFE70A980168086840F400700860AF
:1011D000FFE7002003900A980068406903900A988E
:1011E0000068806903900398FFE70A9806996A46A9
:1011F00011600221C0F210010122192302F006FB46
:1012000020B1FFE701208DF82F0046E00A99202049
:1012100081F83D00FFE70A99002081F83C00FFE7D4
:1012200000208DF82F0038E00A980168086840F423
:10123000007008600A9801686FF4806048610A983D
:1012400006996A4611600221C0F210010122192399
:1012500002F0DCFA20B1FFE701208DF82F001CE03E
:10126000FFE7059801300590FFE705980899884247
:10127000FFF427AFFFE70A99202081F83D00FFE740
:101280000A99002081F83C00FFE701208DF82F002B
:1012900003E002208DF82F00FFE79DF82F000CB02F
:1012A00080BD000081B0009001B0704781B0009017
:1012B00001B0704710B590B0844614981398DDF8CB
:1012C00048E0CDF828C0ADF82610ADF82420ADF8E0
:1012D0002230ADF8200000200790FFF741FD069076
:1012E0000A9890F83D00202840F03F82FFE70A98D6
:1012F00006996A4611600221C0F2100101221923E9
:1013000002F084FA20B1FFE702208DF82F0030E2CE
:10131000FFE70A9890F83C00012804D1FFE702207B
:101320008DF82F0025E20A99012081F83C00FFE7A3
:10133000FFE70A9800680068C00738B9FFE70A9815
:101340000168086840F001000860FFE70A9801683A
:10135000086820F4006008600A99222081F83D00A6
:101360000A99402081F83E000A99002008641298EA
:101370000A994862BDF820000A9948850A98408D6C
:101380000A9908850A990020CFF6FF70C8620A986A
:10139000BDF82610BDF82420BDF82230DDF850C07D
:1013A000069CEE46CEF80440CEF800C002F052F89B
:1013B00020B1FFE701208DF82F00DAE10A98008DB7
:1013C000A0B9FFE7FFE7002005900A980068406990
:1013D00005900A980068806905900598FFE70A98CB
:1013E0000168086840F4007008605DE00A98008DAC
:1013F00001281FD1FFE70A980168086820F480607F
:101400000860EFF3108072B60F90FFE700200490A1
:101410000A980068406904900A98006880690490FE
:101420000498FFE70A980168086840F400700860B3
:1014300062B638E00A98008D02281FD1FFE70A98AB
:101440000168086840F400600860EFF3108072B62D
:101450000E90FFE7002003900A980068406903900F
:101460000A980068806903900398FFE70A9801686A
:10147000086820F48060086062B613E00A9801688A
:10148000086840F480600860FFE7002002900A9836
:101490000068406902900A9800688069029002988A
:1014A000FFE7FFE7FFE7FFE7FFE70A98008D002867
:1014B00000F04981FFE70A98008D032800F20781B8
:1014C000FFE70A98008D01281ED1FFE70A981499BA
:1014D000069A02F083FA20B1FFE701208DF82F0071
:1014E00047E10A98006800690A99496A08700A99F0
:1014F000486A013048620A99088D013808850A99BE
:10150000488D01384885E1E00A98008D022841D1D4
:10151000FFE70A98149B06996A4611600421C0F2FD
:101520000101002202F072F920B1FFE701208DF8DD
:101530002F001EE1EFF3108072B60D900A9801683B
:10154000086840F4007008600A98006800690A9909
:10155000496A08700A99486A013048620A99088DF8
:10156000013808850A99488D0138488562B60A987D
:10157000006800690A99496A08700A99486A013046
:1015800048620A99088D013808850A99488D013802
:1015900048859AE00A98149B06996A4611600421CE
:1015A000C0F20101002202F031F920B1FFE7012071
:1015B0008DF82F00DDE00A980168086820F480604B
:1015C0000860EFF3108072B60C900A98006800690A
:1015D0000A99496A08700A99486A013048620A996A
:1015E000088D013808850A99488D0138488540F2F0
:1015F0000000C2F20000006848F21F51C5F2EB1172
:10160000A0FB0110C00844F6D351C1F26201A0FB57
:1016100001108009232148430790FFE7079801380C
:1016200007900798D0B9FFE70A99002008630A9A43
:10163000202182F83D100A9981F83E000A99086C31
:1016400040F02000086462B6FFE70A99002081F8A4
:101650003C00FFE701208DF82F008AE0FFE70A98A1
:101660000068406900F004010020B0EB910FD5D074
:10167000FFE70A980168086840F4007008600A985B
:10168000006800690A99496A08700A99486A013035
:1016900048620A99088D013808850A99488D0138F1
:1016A000488562B60A98006800690A99496A087014
:1016B0000A99486A013048620A99088D01380885FC
:1016C0000A99488D01384885FFE7FFE73AE00A9814
:1016D0001499069A02F082F920B1FFE701208DF8F3
:1016E0002F0046E00A98006800690A99496A087064
:1016F0000A99486A013048620A99088D01380885BC
:101700000A99488D013848850A980068406900F0B8
:1017100004010120B0EB910F13D1FFE70A98006894
:1017200000690A99496A08700A99486A0130486252
:101730000A99088D013808850A99488D013848852D
:10174000FFE7FFE7B1E60A99202081F83D000A99FA
:10175000002081F83E00FFE70A99002081F83C0054
:10176000FFE700208DF82F0003E002208DF82F0006
:10177000FFE79DF82F0010B010BD000080B58CB0C1
:1017800084460F98DDF838E0CDF828C0ADF8261073
:10179000ADF82420ADF82230ADF82000FFF7E0FAD4
:1017A0000790002006900A9890F83D00202840F00D
:1017B0007E81FFE740F20000C2F20000006848F2BC
:1017C0001F51C5F2EB11A0FB0110C00844F6D35124
:1017D000C1F26201A0FB0110800919214843069063
:1017E000FFE70698013806900698C8B9FFE70A99FE
:1017F000002008630A9A202182F83D100A9981F896
:101800003E000A99086C40F020000864FFE70A993E
:10181000002081F83C00FFE701208DF82F004AE10D
:10182000FFE70A980068806900F002010020B0EB31
:10183000510FD6D1FFE7FFE70A9890F83C00012846
:1018400004D1FFE702208DF82F0034E10A9901202E
:1018500081F83C00FFE7FFE70A9800680068C007CE
:1018600038B9FFE70A980168086840F0010008608D
:10187000FFE70A980168086820F4006008600A9988
:10188000222081F83D000A99402081F83E000A9903
:10189000002008640E980A994862BDF820000A9951
:1018A00048850A98408D0A9908850A990020CFF644
:1018B000FF70C8620A98008D002800F0BE80FFE724
:1018C0000A98806B00B3FFE70A98816B43F23520DA
:1018D000C0F6000088620A98816B43F2D110C0F60E
:1018E000000008630A98816B0020C8620A99896B1E
:1018F00048630A9B19685A6A986B10311B8DFEF772
:10190000FFFF8DF8170016E00A99202081F83D00AE
:101910000A99002081F83E000A99086C40F0800086
:101920000864FFE70A99002081F83C00FFE70120E6
:101930008DF82F00BFE09DF81700002865D1FFE764
:101940000A98BDF82610BDF82420BDF82230DDF835
:101950001CC0EE46CEF804C04FF0230CCEF800C0F9
:1019600001F078FDF0B1FFE70A98806BFEF79EFD6D
:101970008DF817000A98816B002088620A990A681E
:10198000116821F4806111600A9908850A994885D7
:101990000A980168086820F00100086001208DF8AD
:1019A0002F0088E00A98008D012807D1FFE70A98E8
:1019B0000168086820F48060086006E00A98016801
:1019C000486840F480504860FFE7FFE7002004903B
:1019D0000A980068406904900A9800688069049039
:1019E0000498FFE7FFE70A99002081F83C00FFE731
:1019F0000A980168486840F4807048600A98016855
:101A0000486840F40060486016E00A99202081F898
:101A10003D000A99002081F83E000A99086C40F0C8
:101A200010000864FFE70A99002081F83C00FFE7F6
:101A300001208DF82F003EE035E00A98BDF8261011
:101A4000BDF82420BDF82230DDF81CC0EE46CEF8EB
:101A500004C04FF0230CCEF800C001F0FBFC20B115
:101A6000FFE701208DF82F0025E0FFE7002003901D
:101A70000A980068406903900A980068806903909A
:101A80000398FFE70A980168086840F4007008604E
:101A90000A99202081F83D00FFE70A99002081F88B
:101AA0003C00FFE7FFE700208DF82F0003E0022055
:101AB0008DF82F00FFE79DF82F000CB080BD0000CF
:101AC00010B588B084460C980B98DDF828E0CDF866
:101AD00018C0ADF81610ADF81420ADF81230ADF8FE
:101AE0001000FFF73DF90390069890F83D0020287C
:101AF00040F0E680FFE7069803996A4611600221EC
:101B0000C0F210010122192301F080FE20B1FFE78D
:101B100002208DF81F00D7E0FFE7069890F83C0000
:101B2000012804D1FFE702208DF81F00CCE00699C0
:101B3000012081F83C00FFE7FFE706980068006895
:101B4000C00738B9FFE706980168086840F001004F
:101B50000860FFE706980168086820F400600860E4
:101B60000699212081F83D000699402081F83E0029
:101B70000699002008640A9806994862BDF810008A
:101B8000069948850698408D069908850699002093
:101B9000CFF6FF70C8620698BDF81610BDF8142085
:101BA000BDF81230DDF830C0039CEE46CEF804409C
:101BB000CEF800C001F040FD20B1FFE701208DF814
:101BC0001F0081E0FFE70698008D002849D0FFE75D
:101BD00006980C99039A01F065FF80B1FFE706981B
:101BE000006C042807D1FFE706980168086840F4F4
:101BF00000700860FFE701208DF81F0064E0069880
:101C00000168406A007808610699486A01304862B4
:101C10000699088D013808850699488D0138488550
:101C200006980068406900F004010120B0EB910FB4
:101C300016D1FFE70698008D90B1FFE7069801687E
:101C4000406A007808610699486A0130486206993E
:101C5000088D013808850699488D01384885FFE7C9
:101C6000B1E706980C99039A01F084FD80B1FFE773
:101C70000698006C042807D1FFE7069801680868F9
:101C800040F400700860FFE701208DF81F001BE0A2
:101C900006980168086840F40070086006992020E2
:101CA00081F83D000699002081F83E00FFE7069983
:101CB000002081F83C00FFE700208DF81F0003E0C2
:101CC00002208DF81F00FFE79DF81F0008B010BD2F
:101CD00080B58CB00B9000200A9009900890079076
:101CE0000B98006845F20041C4F20001884273D1AC
:101CF000FFE7FFE741F21800C4F20200016841F07B
:101D000008010160006800F0080006900698FFE7EF
:101D1000C02007901220089003200A9040F600404F
:101D2000C4F2010007A9FEF773FEFFE741F21C00B1
:101D3000C4F20200016841F400110160006800F47F
:101D4000001005900598FFE740F2D000C2F20000B5
:101D500002908021C4F20201016000214160816093
:101D60008022C260016141618161C161FEF770FD45
:101D700018B1FFE7FEF754FBFFE7FFE70B9840F2CF
:101D8000D001C2F2000181630B984862FFE740F284
:101D90001410C2F2000001906C21C4F20201016033
:101DA00010214160002181608022C2600161416197
:101DB0008161C161FEF74CFD18B1FFE7FEF730FB12
:101DC000FFE7FFE70B9840F21411C2F200014163F4
:101DD0000B984862FFE736E00B98006845F6000173
:101DE000C4F2000188422DD1FFE7FFE741F218005D
:101DF000C4F20200016841F008010160006800F0CF
:101E0000080004900498FFE74FF440600790122008
:101E1000089003200A9040F60040C4F2010007A990
:101E2000FEF7F6FDFFE741F21C00C4F20200016874
:101E300041F480010160006800F480000390039881
:101E4000FFE7FFE7FFE70CB080BD000081B0009026
:101E500001B0704781B0009001B0704740F20800B7
:101E6000C2F20000027840F22041C2F2000108688C
:101E7000104408607047000080B542F20001C4F2CF
:101E80000201086840F010000860032000F096F896
:101E90000F2000F005F800F03BF8002080BD0000A6
:101EA00080B582B0009040F20000C2F200000068ED
:101EB00040F20801C2F200010A784FF47A71B1FBD6
:101EC000F2F1B0FBF1F000F097FE20B1FFE7012046
:101ED0008DF8070018E000980F280DD8FFE700994B
:101EE0004FF0FF30002200F04FF8009840F20C0154
:101EF000C2F20001086003E001208DF8070003E052
:101F000000208DF80700FFE79DF8070002B080BDB4
:101F100083B0FFE741F21800C4F20200016841F00B
:101F200001010160006800F0010002900298FFE7E3
:101F3000FFE741F21C00C4F20200016841F0805149
:101F40000160006800F0805001900198FFE7FFE712
:101F50000421C4F2010108680090009820F0E060BC
:101F60000090009840F00070009000980860FFE733
:101F700003B0704780B582B08DF807009DF9070067
:101F800002F0B0F902B080BD80B586B08DF81700C0
:101F9000049103920020029002F0BCF902909DF996
:101FA0001700019002980499039A01F03DFF014641
:101FB000019802F0B7F906B080BD000080B582B08C
:101FC0000190019802F0D0F902B080BD80B584B0D4
:101FD00002900191029820B9FFE701208DF80F00CF
:101FE0001BE1019842F20001C4F20201096801F00C
:101FF0000701884216D9FFE742F20000C4F202004E
:10200000016821F00701019A11430160006800F0A6
:1020100007000199884204D0FFE701208DF80F00E6
:10202000FBE0FFE702980078800700282AD5FFE749
:10203000029800784007002809D5FFE741F2040123
:10204000C4F20201086840F4E0600860FFE702980B
:1020500000780007002809D5FFE741F20401C4F227
:102060000201086840F460500860FFE741F2040193
:10207000C4F20201086820F0F000029A926810434E
:102080000860FFE702980078C007002860D0FFE7EB
:102090000298406801280ED1FFE741F20000C4F227
:1020A000020000688003002804D4FFE701208DF8B7
:1020B0000F00B2E021E00298406802280ED1FFE74D
:1020C00041F20000C4F2020000688001002804D43C
:1020D000FFE701208DF80F009FE00DE041F20000C6
:1020E000C4F2020000688007002804D4FFE7012042
:1020F0008DF80F0091E0FFE7FFE741F20401C4F221
:102100000201086820F00300029A52681043086038
:10211000FEF726FE0090FFE741F20400C4F2020041
:10212000006800F00C0002994968B0EB810F0ED0F6
:10213000FFE7FEF715FE0099401A41F28931884207
:1021400004D3FFE703208DF80F0066E0E4E7FFE724
:10215000019842F20001C4F20201096801F007018E
:10216000884216D2FFE742F20000C4F20200016882
:1021700021F00701019A11430160006800F0070097
:102180000199884204D0FFE701208DF80F0044E058
:10219000FFE702980078400700280CD5FFE741F2DE
:1021A0000401C4F20201086820F4E060029AD268D7
:1021B00010430860FFE702980078000700280DD55B
:1021C000FFE741F20401C4F20201086820F4605004
:1021D000029A126940EAC2000860FFE700F04CF87A
:1021E00041F20401C4F202010968C9B20A0946F6C3
:1021F0003841C0F60001895CC84040F20001C2F2DB
:102200000001086040F20C00C2F200000068FFF715
:1022100047FE00208DF80F00FFE79DF80F0004B087
:1022200080BD000040F20000C2F20000006870476C
:1022300080B5FFF7F7FF41F20401C4F2020109681B
:10224000C1F3022246F64841C0F60001895CC8404D
:1022500080BD000080B5FFF7E5FF41F20401C4F244
:1022600002010968C1F3C22246F64841C0F60001E6
:10227000895CC84080BD00008BB040F60E70C1F292
:1022800010000A9040F60A30C0F60C50099040F257
:102290000670C0F60810089040F20230C0F20450F8
:1022A000079040F20120ADF81A000020059004903C
:1022B00003900290019041F20400C4F20200006811
:1022C0000590059800F00C0001460091E0B3FFE78F
:1022D0000098042804D0FFE70098082806D034E0CE
:1022E00041F20020C0F27A00019034E00598C0F37A
:1022F000834107A8405C02909DF81600C007C0B15A
:10230000FFE741F20400C4F20200006800F400316B
:102310000DF11A0040EA514000780490029841F211
:102320000021C0F27A0148430499B0FBF1F0039018
:1023300007E0029840F60011C0F23D0148430390C7
:10234000FFE70398019006E0FFE741F20020C0F2AA
:102350007A000190FFE701980BB0704780B586B016
:102360000490049820B9FFE701208DF817002EE3B0
:1023700004980078C007002800F0AE80FFE741F223
:102380000400C4F20200006800F00C00042813D01E
:10239000FFE741F20400C4F20200006800F00C0004
:1023A00008281BD1FFE741F20400C4F202000068D4
:1023B000C003002812D5FFE741F20000C4F202007A
:1023C00000688003002808D5FFE70498406820B91A
:1023D000FFE701208DF81700F9E27CE0FFE70498A1
:1023E0004068B0F5803F09D1FFE741F20001C4F237
:1023F0000201086840F48030086032E004984068C8
:1024000068B9FFE741F20001C4F20201086820F454
:1024100080300860086820F48020086020E004987C
:102420004068B0F5A02F0DD1FFE741F20001C4F2E2
:102430000201086840F480200860086840F4803099
:1024400008600CE041F20001C4F20201086820F4C7
:1024500080300860086820F480200860FFE7FFE70C
:10246000FFE7FFE704984068D0B1FFE7FEF778FC8C
:102470000390FFE741F20000C4F20200006880030D
:1024800000280CD4FFE7FEF76BFC0399401A65287F
:1024900004D3FFE703208DF8170098E2EAE719E07C
:1024A000FEF75EFC0390FFE741F20000C4F2020079
:1024B0000068800300280CD5FFE7FEF751FC039964
:1024C000401A652804D3FFE703208DF817007EE249
:1024D000EAE7FFE7FFE7FFE70498007880070028B6
:1024E00040F18D80FFE741F20400C4F20200006871
:1024F00010F00C0F13D0FFE741F20400C4F2020009
:10250000006800F00C00082829D1FFE741F2040020
:10251000C4F202000068C003002820D4FFE741F2A3
:102520000000C4F2020000688007002809D5FFE718
:1025300004980069012804D0FFE701208DF81700F6
:1025400045E241F20001C4F20201086820F0F800FF
:10255000049A526940EAC2000860FFE74EE004981E
:10256000006958B3FFE70021C4F24221012008604E
:10257000FEF7F6FB0390FFE741F20000C4F2020011
:102580000068800700280CD4FFE7FEF7E9FB0399F9
:10259000401A032804D3FFE703208DF8170016E242
:1025A000EAE741F20001C4F20201086820F0F800F5
:1025B000049A526940EAC20008601EE00021C4F299
:1025C000422100200860FEF7CBFB0390FFE741F2B9
:1025D0000000C4F202000068800700280CD5FFE765
:1025E000FEF7BEFB0399401A032804D3FFE703203C
:1025F0008DF81700EBE1EAE7FFE7FFE7FFE7049854
:1026000000780007002848D5FFE70498806918B3D0
:10261000FFE740F28041C4F2422101200860FEF74A
:102620009FFB0390FFE741F22400C4F20200006820
:10263000800700280CD4FFE7FEF792FB0399401AAD
:10264000032804D3FFE703208DF81700BFE1EAE772
:10265000012001F021FC1FE040F28041C4F2422140
:1026600000200860FEF77CFB0390FFE741F22400A6
:10267000C4F202000068800700280CD5FFE7FEF7CF
:102680006FFB0399401A032804D3FFE703208DF85A
:1026900017009CE1EAE7FFE7FFE7049800784007AE
:1026A000002840F1D880FFE700208DF8070041F2B4
:1026B0001C00C4F202000068C000002813D4FFE729
:1026C000FFE741F21C00C4F20200016841F08051B2
:1026D0000160006800F0805000900098FFE7012042
:1026E0008DF80700FFE747F20000C4F20000006821
:1026F000C005002822D4FFE747F20001C4F2000120
:10270000086840F480700860FEF72AFB0390FFE73A
:1027100047F20000C4F200000068C00500280CD495
:10272000FFE7FEF71DFB0399401A652804D3FFE776
:1027300003208DF817004AE1EAE7FFE7FFE7049876
:10274000C068012809D1FFE741F22001C4F202016B
:10275000086840F00100086031E00498C06868B97A
:10276000FFE741F22001C4F20201086820F00100F5
:102770000860086820F0040008601FE00498C06842
:1027800005280DD1FFE741F22001C4F202010868DB
:1027900040F004000860086840F0010008600CE0A8
:1027A00041F22001C4F20201086820F00100086033
:1027B000086820F004000860FFE7FFE7FFE7FFE795
:1027C0000498C068E0B1FFE7FEF7CAFA0390FFE79C
:1027D00041F22000C4F202000068800700280ED4F5
:1027E000FFE7FEF7BDFA0399401A41F289318842AA
:1027F00004D3FFE703208DF81700E8E0E8E71BE0CB
:10280000FEF7AEFA0390FFE741F22000C4F20200A7
:102810000068800700280ED5FFE7FEF7A1FA0399AC
:10282000401A41F28931884204D3FFE703208DF832
:102830001700CCE0E8E7FFE79DF80700012809D181
:10284000FFE741F21C01C4F20201086820F0805049
:102850000860FFE7FFE70498C069002800F0B38034
:10286000FFE741F20400C4F20200006800F00C002F
:10287000082800F08280FFE70498C06902285CD134
:10288000FFE76021C4F2422100200860FEF768FAE9
:102890000390FFE741F20000C4F2020000688001EB
:1028A00000280CD5FFE7FEF75BFA0399401A0328CE
:1028B00004D3FFE703208DF8170088E0EAE70498C7
:1028C000006AB0F5803F0CD1FFE741F20401C4F289
:1028D0000201086820F40030049A926810430860EE
:1028E000FFE741F20401C4F20201086820F4741009
:1028F000049B1A6A5B6A1A43104308606021C4F2A1
:10290000422101200860FEF72BFA0390FFE741F215
:102910000000C4F202000068800100280CD4FFE728
:10292000FEF71EFA0399401A032804D3FFE7032099
:102930008DF817004BE0EAE71EE06021C4F2422167
:1029400000200860FEF70CFA0390FFE741F2000058
:10295000C4F202000068800100280CD5FFE7FEF7F2
:10296000FFF90399401A032804D3FFE703208DF8E9
:1029700017002CE0EAE7FFE724E00498C06901288B
:1029800004D1FFE701208DF8170020E041F2040098
:10299000C4F2020000680290029800F480300499AA
:1029A000096A884208D1FFE7029800F47010049980
:1029B000496A884204D0FFE701208DF8170006E03D
:1029C000FFE7FFE7FFE700208DF81700FFE79DF81E
:1029D000170006B080BD000080B584B00290029858
:1029E00020B9FFE701208DF80F006DE00298406AE2
:1029F00060B9FFE702984068B0F5827F01D1FFE738
:102A000003E002990020C861FFE705E00299002079
:102A1000086102994861FFE70299002088620298E4
:102A200090F8510040B9FFE70299002081F850006A
:102A3000029800F04DF8FFE70299022081F851005A
:102A400002980168086820F040000860029A01922C
:102A500011685068D2F808C0D36800F482700CF492
:102A6000044C604403F400631844136903F0020348
:102A70001844536903F001031844936903F4007385
:102A80001844D36903F038031844136A03F0800331
:102A90001843926A02F40052104308600299488B6E
:102AA00000F004000968486002980168C86920F4D1
:102AB0000060C861029900204865029A012182F8ED
:102AC00051108DF80F00FFE79DF80F0004B080BD96
:102AD00080B58CB00B9000200A9009900890079068
:102AE0000B98006843F20001C4F20101884240F0F3
:102AF0008080FFE7FFE741F21800C4F2020001689E
:102B000041F480510160006800F4805006900698FE
:102B1000FFE7FFE741F21800C4F20200016841F04C
:102B200004010160006800F0040005900598FFE7CB
:102B3000B02007900220089003200A9040F6000081
:102B4000C4F20100019007A90291FDF761FF01980D
:102B50000299402207920022039208920992FDF7FF
:102B600057FF039940F25810C2F2000004901C2253
:102B7000C4F202020260416081608022C260016191
:102B800041618161C161FDF763FE18B1FFE7FDF7A7
:102B900047FCFFE7FFE70B9840F25811C2F2000133
:102BA000C1640B984862FFE740F29C10C2F200003B
:102BB00000903021C4F20201016010214160002127
:102BC00081608022C260016141618161C161FDF764
:102BD0003FFE18B1FFE7FDF723FCFFE7FFE70B9887
:102BE00040F29C11C2F2000181640B984862FFE739
:102BF000FFE70CB080BD000080B582B00190019865
:102C000001F06AF902B080BD82B00190ADF8021007
:102C100002B0704781B0009001B0704780B588B0B5
:102C20000790079800680068069007980068C068D9
:102C30000590079800684069049000200390029076
:102C4000069800F00F000390039888B9FFE79DF8FD
:102C50001800800600280AD5FFE79DF814008006BA
:102C6000002804D5FFE7079801F0E4F976E1FFE7D3
:102C70000398002800F0B480FFE79DF81000C0071B
:102C800038B9FFE7BDF8140010F4907F00F0A88079
:102C9000FFE79DF81800C00758B1FFE79DF8150041
:102CA000C00730B1FFE70799086C40F001000864E5
:102CB000FFE79DF81800400700280BD5FFE79DF8B7
:102CC0001000C00730B1FFE70799086C40F0020020
:102CD0000864FFE79DF81800800700280BD5FFE780
:102CE0009DF81000C00730B1FFE70799086C40F06D
:102CF00004000864FFE79DF818000007002811D5BC
:102D0000FFE79DF814008006002805D4FFE79DF832
:102D10001000C00730B1FFE70799086C40F00800C9
:102D20000864FFE70798006C002858D0FFE79DF87B
:102D30001800800600280AD5FFE79DF814008006D9
:102D4000002804D5FFE7079801F074F9FFE707981A
:102D500000684069C0F3801002900798006C00077B
:102D6000002803D4FFE7029888B3FFE7079801F033
:102D700029F90798006840694006002822D5FFE736
:102D800007980168486920F0400048610798806B07
:102D900098B1FFE70798816B43F6A570C0F6000075
:102DA00048630798806BFDF781FB28B1FFE7079820
:102DB000806B416B8847FFE703E00798FFF72AFF26
:102DC000FFE703E00798FFF725FFFFE706E0079816
:102DD000FFF720FF079900200864FFE7FFE7BDE049
:102DE0000798006B012840F09980FFE79DF81800D4
:102DF000C006002840F19280FFE79DF81400C0064D
:102E0000002840F18B80FFE7FFE700200190079842
:102E10000068006801900798006840680190019878
:102E2000FFE70798006840694006002848D5FFE79B
:102E30000798806B00684068ADF80200BDF802009A
:102E4000E8B3FFE7BDF802000799898D884236DABA
:102E5000FFE7BDF802000799C8850798806B806975
:102E6000202824D0FFE707980168C86820F4807004
:102E7000C86007980168486920F001004861079818
:102E80000168486920F0400048610799202081F8D6
:102E90003E0007990020086307980168C86820F081
:102EA0001000C8600798806BFDF7C2FAFFE707982B
:102EB000818DC28D891A89B2FFF7A6FEFFE74DE02A
:102EC0000799888DC98D401AADF800000798C08D0C
:102ED00018B3FFE7BDF80000F8B1FFE707980168F5
:102EE000C86820F49070C86007980168486920F0AD
:102EF000010048610799202081F83E0007990020D1
:102F0000086307980168C86820F01000C860079837
:102F1000BDF80010FFF778FEFFE71FE09DF81800EE
:102F2000000600280AD5FFE79DF8140000060028D7
:102F300004D5FFE7079801F081F90FE09DF818002C
:102F4000400600280AD5FFE79DF814004006002837
:102F500004D5FFE7079801F059F8FFE708B080BDF6
:102F600080B582B00090009820B9FFE701208DF86D
:102F700007003EE00098806908B1FFE700E0FFE746
:102F8000009890F83D0040B9FFE70099002081F8D3
:102F90003C00009800F032F8FFE70099242081F807
:102FA0003D0000980168C86820F40050C86000988F
:102FB00001F0E6F800980168086920F49040086183
:102FC00000980168486920F02A004861009801686B
:102FD000C86840F40050C860009900200864009A56
:102FE000202182F83D10009A82F83E108DF80700EB
:102FF000FFE79DF8070002B080BD000080B592B0E9
:103000001190002010900F900E900D901198006874
:1030100043F60001C4F20101884240F08280FFE7DC
:10302000FFE741F21800C4F20200016841F4804158
:103030000160006800F480400C900C98FFE7FFE707
:1030400041F21800C4F20200016841F0040101607D
:10305000006800F004000B900B98FFE74FF400703D
:103060000D9002200E900320109040F60000C4F254
:10307000010005900DA90691FDF7CAFC0598069977
:103080004FF440620D92002207920E920F92FDF7CC
:10309000BFFC079940F2E010C2F2000008905822ED
:1030A000C4F202020260416081608022C26001615C
:1030B00041618161C161FDF7CBFB18B1FFE7FDF70D
:1030C000AFF9FFE7FFE7119840F2E011C2F200010B
:1030D000816311984862FFE740F22420C2F20000A9
:1030E00004904421C4F202010160102141600021DA
:1030F00081608022C260016141618161C161FDF72F
:10310000A7FB18B1FFE7FDF78BF9FFE7FFE7119881
:1031100040F22421C2F20001416311984862FFE7A6
:103120004AE01198006844F20041C4F2000188426C
:1031300041D1FFE7FFE741F21C00C4F20200016841
:1031400041F400310160006800F400300A900A98F0
:10315000FFE7FFE741F21800C4F20200016841F006
:1031600004010160006800F0040009900998FFE77D
:1031700004200D9002200E900320109040F60000D5
:10318000C4F2010000900DA90191FDF741FC0098E7
:10319000019908220D92002202920E920F92FDF7E1
:1031A00037FC029A262003901146FEF7EDFE0398A5
:1031B000FEF7E0FEFFE7FFE712B080BD81B00090B0
:1031C00001B0704781B0009001B07047FFE7FEE7A3
:1031D00080B582B001900198406A00900098406BE1
:1031E00028B1FFE70098416B00208862FFE7009854
:1031F000806B28B1FFE70098816B00208862FFE7B1
:1032000000980168086820F4806008600099002038
:103210004885009A202182F83D10009981F83E00EF
:103220000099086C40F0100008640098FDF79EFDBE
:1032300002B080BD80B584B003900398406A0290CC
:10324000029890F83D008DF80700029890F83E0033
:103250008DF806000298C06A0090029801684868DC
:1032600020F4407048600298406B28B1FFE7029854
:10327000416B00208862FFE70298806B28B1FFE76E
:103280000298816B00208862FFE79DF8070000F03C
:10329000210021280CD0FFE79DF8070000F0220054
:1032A000222837D1FFE79DF80600202832D1FFE71A
:1032B00002980168486820F4006048600299002084
:1032C00048859DF8070029280BD1FFE702992120A6
:1032D00008630299282081F83D000298FEF7BAFDA4
:1032E00011E09DF807002A280BD1FFE70299222060
:1032F00008630299282081F83D000298FEF7A6FD98
:1033000000E0FFE7FFE702980168486840F440707A
:1033100048606AE0029890F83E00002863D0FFE71A
:103320000298408D012807D1FFE7029801680868DC
:1033300020F480600860FFE702980168486820F484
:1033400040704860009810F5803F0DD0FFE700986E
:10335000082809D0FFE70098B0F12A4F04D0FFE712
:103360000098202807D1FFE702980168086840F418
:1033700000700860FFE702980168486820F48050F8
:10338000486002980168486820F40060486002992B
:10339000002048850298006C20B1FFE70298FDF7F5
:1033A000E5FC1FE00299202081F83D00029890F88A
:1033B0003E0040280AD1FFE70299002081F83E0034
:1033C000029908630298FDF771FF0AE00299002054
:1033D00081F83E000299122008630298FDF762FF0F
:1033E000FFE7FFE700E0FFE7FFE704B080BD000074
:1033F00082B0009000980068406900F4806101206C
:10340000B0EB912F1ED1FFE7009801686FF4806048
:103410004861009900200863009A202182F83D103D
:10342000009981F83E000099086C40F0040008649F
:10343000FFE70099002081F83C00FFE701208DF8AC
:10344000070003E000208DF80700FFE79DF8070064
:1034500002B0704780B586B0DDF824C0DDF820C02A
:103460000490ADF80E10ADF80C20ADF80A300498B9
:103470000168086840F48060086004980168086882
:1034800040F4807008600498089B09996A461160AE
:103490004FF00111002200F0B9F980B1FFE7049864
:1034A00000680068C005002805D5FFE704994FF4BF
:1034B00000700864FFE703208DF81700B7E0BDF83F
:1034C0000E0000F0FE000499096808610498089A4B
:1034D000099B0221C0F2010100F0F8F920B1FFE7D9
:1034E00001208DF81700A2E0FFE70020019004986A
:1034F0000068406901900498006880690190019813
:10350000FFE704980899099A00F0CCFA80B1FFE728
:103510000498006C042807D1FFE704980168086844
:1035200040F400700860FFE701208DF817007EE08E
:10353000BDF80A00012806D1FFE79DF80C000499A8
:103540000968086121E09DF80D0004990968086187
:1035500004980899099A00F0A5FA80B1FFE7049849
:10356000006C042807D1FFE704980168086840F45C
:1035700000700860FFE701208DF8170057E09DF804
:103580000C00049909680861FFE704980899099AF2
:1035900000F088FA80B1FFE70498006C042807D196
:1035A000FFE704980168086840F400700860FFE7CE
:1035B00001208DF817003AE004980168086840F48B
:1035C000807008600498089B09996A4611604FF062
:1035D0000111002200F01AF980B1FFE70498006899
:1035E0000068C005002805D5FFE704994FF4007076
:1035F0000864FFE703208DF8170018E09DF80E001F
:1036000040F001000499096808610498089A099B30
:103610000221C0F2010100F059F920B1FFE70120B9
:103620008DF8170003E000208DF81700FFE79DF8E4
:10363000170006B080BD000080B586B0DDF824C05C
:10364000DDF820C00490ADF80E10ADF80C20ADF8F8
:103650000A3004980168086840F480700860049893
:10366000089B09996A4611604FF00111002200F091
:10367000CDF880B1FFE7049800680068C005002815
:1036800005D5FFE704994FF400700864FFE70320B5
:103690008DF8170069E0BDF80E0000F0FE000499F7
:1036A000096808610498089A099B0221C0F2010187
:1036B00000F00CF920B1FFE701208DF8170054E06D
:1036C000FFE7002001900498006840690190049889
:1036D0000068806901900198FFE704980899099AA9
:1036E00000F0E0F980B1FFE70498006C042807D1EE
:1036F000FFE704980168086840F400700860FFE77D
:1037000001208DF8170030E0BDF80A00012806D12D
:10371000FFE79DF80C0004990968086121E09DF815
:103720000D0004990968086104980899099A00F045
:10373000B9F980B1FFE70498006C042807D1FFE7CE
:1037400004980168086840F400700860FFE70120F1
:103750008DF8170009E09DF80C00049909680861CC
:10376000FFE700208DF81700FFE79DF8170006B06F
:1037700080BD000080B584B0029001910092FFE707
:1037800002980068406900F004010020B0EB910F3E
:1037900033D1FFE70298FFF72BFE20B1FFE70120AE
:1037A0008DF80F002DE00198013028B3FFE7FDF7F9
:1037B000D7FA0099401A0199884203D8FFE7019887
:1037C000C8B9FFE7029900200863029A202182F815
:1037D0003D10029981F83E000299086C40F02000EB
:1037E0000864FFE70299002081F83C00FFE7012010
:1037F0008DF80F0005E0FFE7C2E700208DF80F000D
:10380000FFE79DF80F0004B080BD000080B586B0D2
:10381000DDF820C0049003918DF80B200193FFE7A1
:103820009DF80E0001280CD1FFE70498006840695C
:10383000BDF80C100840401AB0FA80F04009009022
:103840000BE0049800688069BDF80C100840401A2D
:10385000B0FA80F040090090FFE700989DF80B1047
:1038600088422AD1FFE70198013028B3FFE7FDF72E
:1038700077FA0899401A0199884203D8FFE701981E
:10388000C8B9FFE7049900200863049A202182F850
:103890003D10049981F83E000499086C40F0200026
:1038A0000864FFE70499002081F83C00FFE701204D
:1038B0008DF8170005E0FFE7B2E700208DF817004C
:1038C000FFE79DF8170006B080BD000080B586B008
:1038D0000490039102920193FFE79DF80E000128E6
:1038E0000CD1FFE7049800684069BDF80C1008404F
:1038F000401AB0FA80F0400900900BE0049800688C
:103900008069BDF80C100840401AB0FA80F04009F8
:103910000090FFE70098002858D1FFE7049800685E
:10392000406900F480610120B0EB912F24D1FFE7C2
:1039300004980168086840F4007008600498016801
:103940006FF480604861049900200863049A202184
:1039500082F83D10049981F83E000499086C40F00B
:1039600004000864FFE70499002081F83C00FFE7A9
:1039700001208DF817002DE00298013028B3FFE7F1
:10398000FDF7EEF90199401A0299884203D8FFE742
:103990000298C8B9FFE7049900200863049A20211F
:1039A00082F83D10049981F83E000499086C40F0BB
:1039B00020000864FFE70499002081F83C00FFE73D
:1039C00001208DF8170005E0FFE786E700208DF85D
:1039D0001700FFE79DF8170006B080BD80B584B0E2
:1039E000029001910092FFE702980068406900F0A0
:1039F00040010020B0EB911F4BD1FFE70298006817
:103A0000406900F010010120B0EB111F1CD1FFE74D
:103A1000029801686FF01000486102990020086365
:103A2000029A202182F83D10029981F83E00029905
:103A3000086C0864FFE70299002081F83C00FFE76A
:103A400001208DF80F0028E0FDF78AF90099401A4F
:103A50000199884203D8FFE70198C8B9FFE70299A6
:103A600000200863029A202182F83D10029981F813
:103A70003E000299086C40F020000864FFE70299BC
:103A8000002081F83C00FFE701208DF80F0004E0E2
:103A9000AAE700208DF80F00FFE79DF80F0004B0A3
:103AA00080BD000080B584B0029001910092FFE7D4
:103AB000029800684069C1B20020B0EBD11F33D139
:103AC000FFE70298FFF794FC20B1FFE701208DF893
:103AD0000F002DE00198013028B3FFE7FDF740F912
:103AE0000099401A0199884203D8FFE70198C8B9A4
:103AF000FFE7029900200863029A202182F83D1016
:103B0000029981F83E000299086C40F02000086498
:103B1000FFE70299002081F83C00FFE701208DF8C3
:103B20000F0005E0FFE7C3E700208DF80F00FFE777
:103B30009DF80F0004B080BD80B588B0FFE741F26A
:103B40001400C4F20200016841F001010160006844
:103B500000F0010007900798FFE70C20009000227A
:103B600005921146FEF710FA0098FEF703FA059A3F
:103B70000D2001901146FEF707FA0198FEF7FAF9B9
:103B8000059A0E2002901146FEF7FEF90298FEF704
:103B9000F1F9059A0F2003901146FEF7F5F9039805
:103BA000FEF7E8F9059A102004901146FEF7ECF9AB
:103BB0000498FEF7DFF9059A112006901146FEF7EA
:103BC000E3F90698FEF7D6F908B080BD80B590B04D
:103BD00000200F900E900D900C90FFE741F218001E
:103BE000C4F20200016841F020010160006800F0A9
:103BF00020000B900B98FFE7FFE741F21800C4F29A
:103C00000200016841F004010160006800F0040056
:103C10000A900A98FFE7FFE741F21800C4F2020099
:103C2000016841F008010160006800F00800099097
:103C30000998FFE740F60040C4F2010007904FF4F6
:103C40000041019100220692FDF772F8069A40F6B3
:103C50000000C4F2010004904FF480710591FDF75B
:103C600067F8019A069907980C92012202920D9228
:103C70000E91022103910F910CA90891FCF7C8FE47
:103C8000DDF808C0039A0498069B0899DDF814E053
:103C9000CDF830E0CDF834C00E930F92FCF7B8FEAB
:103CA000069A0798089918230C930023C1F2110370
:103CB0000D930E92FCF7ACFE10B080BD80B582B0C3
:103CC00040F26820C2F20000019045F20041C4F2C7
:103CD0000001016048F2A061C0F2010141600021D1
:103CE0008160C1604FF48042026141618161C161C4
:103CF0000162FDF73FF818B1FFE7FCF791FBFFE722
:103D000002B080BD80B582B040F2BC20C2F200009B
:103D1000019045F60001C4F20001016048F2A06183
:103D2000C0F20101416000218160C1604FF4804216
:103D3000026141618161C1610162FDF71BF818B147
:103D4000FFE7FCF76DFBFFE702B080BD80B582B0F6
:103D500040F21030C2F20000019043F20001C4F2C0
:103D6000010101604FF48271416000218160C160F6
:103D7000016141614FF4802282610822C2610162C7
:103D8000416281620A21C162FEF726FE18B1FFE797
:103D9000FCF746FBFFE702B080BD000080B582B0B3
:103DA00040F26830C2F20000019043F60001C4F214
:103DB000010101604FF4E131416000218160C16087
:103DC00001610C2242614FF400728261C161FFF710
:103DD000C7F818B1FFE7FCF723FBFFE702B080BD8F
:103DE00080B582B040F2AC30C2F20000019044F2E3
:103DF0000041C4F2000101604FF4E1314160002153
:103E00008160C16001610C2242618161C161FFF783
:103E1000A7F818B1FFE7FCF703FBFFE702B080BD8E
:103E2000FFE7FEE7FFE7FEE788B0079006910592FF
:103E3000079800F0070004900498C0F107000528D7
:103E400003D3FFE70420019004E00498C0F10700C9
:103E50000190FFE70198039004980430062803D8E6
:103E6000FFE70020009003E0049803380090FFE78C
:103E70000098029006980399012202FA01F1013993
:103E80000840029B984005999A40013A1140084326
:103E900008B070477047000082B00190019840F26E
:103EA0000001C2F200010968C90844F6D352C1F208
:103EB0006202A1FB0221890948430090FFE700BF8D
:103EC000FFE70098411E00910028F8D1FFE702B0FB
:103ED000704700007047000080B582B000900098E5
:103EE0000138B0F1807F03D3FFE70120019019E092
:103EF000009801384EF21401CEF2000108604FF034
:103F0000FF300F2100F00EFA4EF21801CEF2000140
:103F1000002008604EF21002CEF20002072111606C
:103F20000190FFE7019802B080BD000080B5FDF769
:103F300095FF80BD80B590B006A800902821FCF7C1
:103F400043F900980023059304930393029301938C
:103F5000012206924FF48031079108930A920222BF
:103F60000D920E914FF4E0110F91FEF7F7F918B191
:103F7000FFE7FCF755FAFFE70F20019002210291BD
:103F8000002003904FF480620492059001A8FEF790
:103F90001DF818B1FFE7FCF743FAFFE710B080BD4A
:103FA0007047000080B582B001900198406A00908F
:103FB00000990020C8850099C8840098FEF72AFE61
:103FC00002B080BD81B0009000980168C86820F4FC
:103FD0009070C86000980168486920F0010048614D
:103FE0000098006B012807D1FFE700980168C868B6
:103FF00020F01000C860FFE70099202081F83E0003
:1040000000990020086301B07047000080B582B0BD
:10401000019001980168C86820F04000C8600199CB
:10402000202081F83D000198FFF7CCF8002002B075
:1040300080BD000080B586B00490049890F83E00E2
:10404000222840F09480FFE704988068B0F5805FF4
:1040500015D1FFE70498006988B9FFE700200390B5
:104060000498806A02900498006840686FF35F20AB
:10407000029908800499886A0230886225E00498D1
:10408000806A03900020029004988068B0F5805FF9
:1040900008D0FFE70498806850B9FFE704980069EA
:1040A00030B9FFE70498006840680399087007E09A
:1040B00004980068406800F07F0003990870FFE7EB
:1040C0000499886A01308862FFE70499C88D013835
:1040D000C8850004002846D1FFE704980168C86835
:1040E00020F02000C86004980168C86820F480703F
:1040F000C86004980168486920F00100486104998B
:10410000202081F83E000498006B012823D1FFE7AE
:1041100004990020086304980168C86820F0100022
:10412000C860049800680068C00600280ED5FFE744
:10413000FFE700200190049800680068019004984F
:104140000068406801900198FFE7FFE70498818DBF
:10415000FEF75AFD03E00498FFF730F8FFE7002070
:104160008DF8170007E000208DF8170003E002200B
:104170008DF81700FFE79DF8170006B080BD00001E
:1041800080B584B0039003980068006920F4405023
:10419000039A1168D26810430861039988680A6914
:1041A000496910430843029003980068C06841F2CF
:1041B0000C6188430299084303990968C860039811
:1041C0000068406920F44070039A116892691043B6
:1041D00048610398006843F60001C4F20101884277
:1041E00004D1FFE7FEF736F8019003E0FEF720F870
:1041F0000190FFE7019819214843039A116852681A
:104200009200B0FBF2FC48F21F52C5F2EB12ACFB7D
:1042100002304309642003FB10CC322000EB0C1069
:10422000A0FB0202F02000EA521000EB0310C2F3E0
:1042300043121044886004B080BD000083B0019038
:10424000019890F83D0021283AD1FFE70198806855
:10425000B0F5805F13D1FFE70198006978B9FFE7F7
:104260000198006A0090009800886FF35F20019920
:10427000096848600199086A0230086208E0019AFA
:10428000106A411C11620078019909684860FFE7D3
:104290000199C88C0138C884000468B9FFE7019807
:1042A0000168C86820F08000C86001980168C8688B
:1042B00040F04000C860FFE700208DF80B0003E0ED
:1042C00002208DF80B00FFE79DF80B0003B070474C
:1042D00080B540F2AC30C2F20000FEF79FFC80BD1A
:1042E000FFE7FEE781B08DF803009DF90300002889
:1042F0000ED4FFE79DF9031001F01F02012090404A
:104300004A094EF20011CEF2000141F82200FFE707
:1043100001B070474EF60C50CEF200000068C0F3BA
:104320000220704782B08DF8070000919DF90700C8
:1043300000280AD4FFE7009800019DF907104EF20B
:104340000042CEF2000288540BE0009800019DF874
:10435000071001F00F014EF61452CEF200028854FD
:10436000FFE702B07047000083B00290029800F0AF
:10437000070000904EF60C51CEF200010868019043
:1043800001984FF6FF02104001900198009A40EA10
:1043900002200022C0F2FA521043019001980860F6
:1043A00003B07047B0B594B0139040F27800C2F2F9
:1043B00000008169C369A1FB012C01FB03CC01FB57
:1043C00003C1109211911099119AD31711EB9361B7
:1043D00042F10002890941EA826192110F920E9125
:1043E0000E9ADDF83CC0D0F818E0C4690CFB0EF35F
:1043F000A2FB0E1502FB04520CFB0E2C4FEAEC7CC8
:1044000011EB1C615A41090A41EA026112120D9234
:104410000C9190F911204FEAE27CDDF830E00D9C20
:104420000CFB0EF3A2FB0E1502FB04520CFB0E2C30
:104430004FEAEC7C11EBDC615A41490941EAC26167
:1044400052110B920A9190F910C04FEAEC71109B37
:10445000DDF844E0ACFB03240CFB0E4C01FB03C174
:10446000090141EA1271120108920991C189826918
:10447000C369A1FB022C01FB03C1890541EA92211A
:1044800092050692079183890A9A0B9901EBC33131
:10449000DDF820C0099B12EB0C025941DDF818C071
:1044A000079B12EB0C0259410492059190F90B20E5
:1044B0004FEAE27CDDF830E00D9C0CFB0EF3A2FB32
:1044C0000E1502FB04520CFB0E2C4FEAEC7C11EB98
:1044D000DC615A41490941EAC26152110F920E91C1
:1044E00090F90AC04FEAEC71109BDDF844E0ACFB98
:1044F00003240CFB0E4C01FB03C1890041EA9271BD
:1045000092000A920B91B0F90820D117B2F5804CB5
:1045100061F10001D0F81CE08369ACFB03240CFBC3
:104520000E4C01FB03C1490541EAD2215205089214
:104530000991B0F906300E9A0F9901EB8331DDF83D
:1045400028C00B9B12EB0C025941DDF820C0099BDF
:1045500012EB0C02594101F1704102920391029A4F
:104560000399CB1712EB132241F10001120E42EA1C
:1045700001220916139BA2FB032C01FB03C110921D
:10458000119190F914C04FEAEC718369D0F81CE0E6
:10459000ACFB03240CFB0E4C01FB03C10E920F91EC
:1045A0000E9A0F99B0F912C04FEAEC731B0443EA5C
:1045B0001C4312EB0C4259410C920D910C9B0D992E
:1045C000DDF84CC001FB0CF2A3FB0C4E01FB0CE12F
:1045D000C917C90CE3FB0C12490B41EAC241521343
:1045E0000B920A910A9B0B99DDF84CC001FB0CF26F
:1045F000A3FB0C4E01FB0CE1C917C90DE3FB0C1228
:10460000490A41EAC2515212099208911399A1FB39
:1046100001120792069190F91510CB17DDF818C01A
:10462000DDF81CE003FB0CF2A1FB0C0401FB0E41C6
:1046300003FB0C13DB1710EB13405141000C40EA55
:10464000014009140F910E900E9A0F98139B00FBD6
:1046500003F1A2FB03EC00FB03C0C017400EE2FB1A
:104660000301C00940EA4160C9110D910C90049901
:104670000598C21711EB927140F10000890841EAD8
:1046800080718010109B119AC9185041089B099A9B
:10469000C91850410C9B0D9AC91850410A910B90B2
:1046A0000A9A0B981921A2FB013200FB0120000A93
:1046B0000021019100900098019914B0B0BD000054
:1046C000B0B594B01390139840F27802C2F2000291
:1046D0001188B0EB01234FF00001019161F100005E
:1046E000109311905088109BDDF844C0A0FB033E4E
:1046F00000FB0CE00E930F901098DDF844C0A0FB77
:10470000003E00FB0CEE00FB0CE00C930D90DDF87E
:1047100030E00D9892F904C04FEAEC74AEFB0C3512
:104720000EFB045E00FB0CE00A930B90DDF838E012
:104730000F98800440EA9E300A9BDDF82CC013EBF2
:104740008E4340EB0C00089309900998079106905E
:104750000698079BD3619061099801F017FE019AB2
:1047600005910490049805990023C4F2390301F0DF
:104770008FFE019A0023C4F2D00301F031FC0391B3
:1047800002900298039914B0B0BD000080B582B0C9
:10479000844604988DF806C08DF805108DF8042025
:1047A0008DF803308DF8020000F02AFD20B9FFE7F4
:1047B00000208DF807002DE040F26820C2F20000D2
:1047C000EC21002200F034FC8DF801009DF801007E
:1047D000502809D0FFE79DF80100602804D0FFE7CA
:1047E00000208DF8070015E09DF8060000F02AFD76
:1047F0009DF8050000F010FD9DF8040000F052FD4A
:104800009DF803009DF8021000F032FD01208DF8A4
:104810000700FFE79DF8070002B080BD80B586B0B5
:104820000490002002908DF80F0000F08DF80146F2
:1048300002988DF80D1000F029FA8DF80F009DF800
:104840000F0020B1FFE701208DF817002BE00020BA
:1048500000F04AFA049B69461620086040F2BC202A
:10486000C2F200005021552200F098FC8DF80E0095
:104870009DF80E00012804D0FFE702208DF81700F4
:1048800011E09DF80D0000F001FA8DF80F009DF881
:104890000F0020B1FFE703208DF8170003E0002090
:1048A0008DF81700FFE79DF8170006B080BD0000E7
:1048B00080B582B000208DF8060000F015FA40F2B5
:1048C000BC20C2F200005021352200F0B1FB8DF86F
:1048D00006009DF806100320B0EB911F04D1FFE7FE
:1048E00000208DF807002AE09DF80600014600919F
:1048F000C0B1FFE70098032810D0FFE700980F2809
:1049000008D0FFE700983F2810D1FFE701208DF87D
:1049100006000FE002208DF806000BE003208DF862
:10492000060007E004208DF8060003E005208DF85E
:104930000600FFE79DF806008DF80700FFE79DF8E9
:10494000070002B080BD000080B582B040F2BC20FC
:10495000C2F2000050213D2200F06AFB8DF80700F2
:104960009DF8070002B080BD80B582B000208DF8B0
:1049700006008DF8050040F2BC20C2F20000502174
:10498000362200F055FB8DF806009DF80600C008A1
:10499000C00720B9FFE701208DF80500FFE79DF86B
:1049A00006008008C00720B9FFE701208DF8050048
:1049B000FFE79DF806004008C00720B9FFE7012087
:1049C0008DF80500FFE79DF80600C00720B9FFE756
:1049D00001208DF80500FFE79DF8050038B1FFE7DD
:1049E0009DF8060040F010008DF8070003E000205D
:1049F0008DF80700FFE79DF8070002B080BD0000BA
:104A000080B582B040F2BC20C2F2000050213A22B0
:104A100000F00EFB8DF807009DF8070002B080BD86
:104A200080B58CB003908DF82F109DF82F002028B2
:104A300019D1FFE79DF82F2069460820086040F251
:104A4000BC20C2F2000050210DF1270300F0A6FBAC
:104A50008DF826009DF82600012803D0FFE70520E9
:104A60000890FFE718E09DF82F20694606200860AF
:104A700040F2BC20C2F2000050210DF1270300F0EB
:104A80008DFB8DF826009DF82600012803D0FFE756
:104A900006200790FFE7FFE70020C3F6F0700590BF
:104AA000002004909DF82F001A280AD1FFE740F259
:104AB0000400C2F20000008801F055FC059104904A
:104AC0000FE09DF82F0020280AD1FFE740F20600F2
:104AD000C2F20000008801F046FC05910490FFE757
:104AE000FFE7039900200290C8618861486108616E
:104AF000C8608860486008609DF82F00202845D174
:104B0000FFE79DF827009DF8281040EA012000B239
:104B100001F0C0FB049A059B01F062FA0A46039972
:104B20004A6008609DF829009DF82A1040EA01209B
:104B300000B201F0AFFB049A059B01F051FA0A465E
:104B40000399CA6088609DF82B009DF82C1040EAFC
:104B5000012000B201F09EFB049A059B01F040FA8F
:104B60000A4603994A6108619DF82D009DF82E10B0
:104B700040EA012000B201F08DFB049A059B01F090
:104B80002FFA0A460399CA61886133E09DF827002D
:104B90009DF8281040EA012000B201F07BFB049A46
:104BA000059B01F01DFA0A460399CA6088609DF8CA
:104BB00029009DF82A1040EA012000B201F06AFBAA
:104BC000049A059B01F00CFA0A4603994A610861B0
:104BD0009DF82B009DF82C1040EA012000B201F056
:104BE00059FB049A059B01F0FBF90A460399CA6137
:104BF0008861FFE70CB080BD80B582B000208DF8E1
:104C0000060000F071F88DF806009DF8060020B14E
:104C1000FFE701208DF8070033E040F2BC20C2F22C
:104C2000000050213F22A12300F04CFB8DF805002D
:104C30009DF80500012804D0FFE702208DF8070049
:104C40001FE04FF44870FBF7C1FEFFF7D9FE8DF867
:104C500006009DF8060020B1FFE703208DF807004D
:104C60000FE0FFF781FE8DF806009DF8060020B1E9
:104C7000FFE704208DF8070003E000208DF807000F
:104C8000FFE79DF8070002B080BD000080B582B04C
:104C90008DF806009DF8063040F2BC20C2F20000FC
:104CA00050213D2200F00EFB8DF805009DF8050017
:104CB000012804D0FFE701208DF807000FE09DF8E0
:104CC000060020B9FFE71320FBF780FE03E0072072
:104CD000FBF77CFEFFE700208DF80700FFE79DF85B
:104CE000070002B080BD000080B582B08DF80600DC
:104CF0009DF8063040F2BC20C2F20000502107228D
:104D000000F0E0FA8DF805009DF80500012804D0B8
:104D1000FFE701208DF8070003E000208DF8070071
:104D2000FFE79DF8070002B080BD000080B582B0AB
:104D300000208DF80600FFF75FFF8DF806009DF854
:104D4000060020B1FFE701208DF8070052E00022A5
:104D50008DF8042040F2BC20C2F20000502100F087
:104D600067F98DF804009DF80400A02804D0FFE73F
:104D700002208DF807003DE040F2BC20C2F20000A6
:104D800050213F22802300F09DFA8DF805009DF808
:104D90000500012804D0FFE703208DF8070029E073
:104DA0000C20FFF773FF8DF806009DF8060020B178
:104DB000FFE704208DF807001CE00A20FBF706FE41
:104DC00001208DF80600FFE79DF8060040B1FFE7DF
:104DD000FFF76EFD8DF806000120FBF7F7FDF3E706
:104DE00040F29800C2F20000FFF718FD00208DF895
:104DF0000700FFE79DF8070002B080BD80B582B0D4
:104E000040F26820C2F20000EC21032200F010F909
:104E10008DF807009DF8070000F0700002B080BD1B
:104E200080B58EB00D900C910B92002008900790E9
:104E300005900490FFE7FFF7E1FF08B9FFE7FAE705
:104E400069460620086040F26820C2F20000EC21AA
:104E500004220DF1260300F071F99DF826109DF84B
:104E600027209DF82800000440EA0220084408900A
:104E70009DF829109DF82A209DF82B00000440EA97
:104E80000220084407900798FFF71AFC0D9AC2E920
:104E900000010D980190D0E9000100220392002347
:104EA000C4F25903029301F09BF8019AC2E9000190
:104EB0000898FFF777FA059104900498059901F096
:104EC00001FA029B039A01F08BF8039A0C9BC3E949
:104ED00000010C98D0E900014BF6D043C4F2F8036E
:104EE00001F07EF844F26C52CCF6D94245F6953387
:104EF000C3F6C87300F09CFA024603980B460021E3
:104F0000C3F6F07101F0EAFC039A4AF24053C4F28E
:104F1000E50301F0BDFA0B9AC2E9000101200EB0D1
:104F200080BD000010B598B0002004901790FCF7E9
:104F3000A3FFFEF7FFFFFEF749FEFEF7FDFDFEF7BC
:104F4000BDFEFEF72BFFFEF701FFFEF749FFFEF760
:104F5000D9FEFFF7EBFE0C20FFF798FEFBF7D4F924
:104F600040F22441C2F2000105910870FBF7A0F95C
:104F7000049B40F22541C2F20001087068460360BC
:104F8000032019461A46FFF701FC0599087000F046
:104F90006FF8FFE70EA81A21FFF742FD0E980F9A4F
:104FA000109BDDF844C0DDF848E0139C40F2B001EE
:104FB000C2F2000102914C61C1F810E0C1F80CC0CE
:104FC0008B604A6008601498159ACA61886106A8C7
:104FD0002021FFF725FD0698079A089BDDF824C0DD
:104FE000DDF828E00B9C40F2F831C2F20001039199
:104FF0004C61C1F810E0C1F80CC08B604A600860D9
:105000000C980D9ACA61886140F21840C2F2000003
:1050100040F2F031C2F2000140F27002C2F200022E
:10502000FFF7FEFE40F22541C2F200010870B1E731
:1050300080B586B005908DF813108DF81220059874
:105040009DF813109DF81220EE466423CEF8083028
:105050000123CEF804300DF1100CCEF800C0FCF79F
:1050600029F98DF811009DF8100006B080BD0000F0
:1050700080B588B000208DF81C0006900590049043
:105080000390029069461520086040F26820C2F241
:105090000000EC21312202AB00F050F80420FBF7B5
:1050A00095FC9DF808009DF8091040EA012040F2A7
:1050B0007801C2F2000108809DF80A009DF80B20DB
:1050C00040EA022048809DF80C0008719DF80D0010
:1050D0009DF80E2040EA0220C8809DF80F009DF840
:1050E000102040EA022008819DF8110088729DF886
:1050F0001200C8729DF813009DF8142040EA0220A7
:1051000088819DF815009DF8162040EA0220C8818C
:105110009DF8170008749DF8180048749DF8190050
:105120009DF81A2040EA022048829DF81B0008756D
:105130009DF81C004875012008B080BD80B588B07E
:1051400084460A98CDF818C08DF817108DF81620EF
:1051500004938DF80F0006989DF817109DF81620FF
:10516000049B9DF80FE0EC46CCF804E0CCF800304E
:105170000123FCF703FB8DF80E009DF80E0020B113
:10518000FFE700208DF81F0003E001208DF81F00CD
:10519000FFE79DF81F0008B080BD000010B588B083
:1051A00084460A98CDF818C08DF817108DF816208F
:1051B00004938DF80F0006989DF817109DF816209F
:1051C000049B9DF80FE0EC466424CCF80840CCF832
:1051D00004E0CCF800300123FCF76CF88DF80E00E9
:1051E0009DF80E0020B1FFE700208DF81F0003E0BE
:1051F00001208DF81F00FFE79DF81F0008B010BDCB
:1052000080B540F26820C2F20000EC217E22B62375
:1052100000F058F880BD000080B582B08DF807001E
:105220009DF8070040008DF806009DF8063040F21A
:105230006820C2F20000EC211F2200F043F802B007
:1052400080BD000080B582B08DF807009DF8070092
:10525000000103308DF806009DF8063040F268200A
:10526000C2F20000EC211B2200F02CF802B080BD3D
:1052700080B582B08DF807008DF806109DF8070004
:105280009DF8061040EAC1008DF805009DF8053034
:1052900040F26820C2F20000EC211C2200F012F85B
:1052A00002B080BD80B582B08DF807009DF8073050
:1052B00040F26820C2F20000EC211D2200F002F84A
:1052C00002B080BD80B586B004908DF80F108DF8C7
:1052D0000E208DF80D3004989DF80F109DF80E20CB
:1052E000EE466423CEF808300123CEF804300DF1E9
:1052F0000D0CCEF800C0FCF7E3FB8DF80C009DF818
:105300000C0020B1FFE700208DF8170003E001201A
:105310008DF81700FFE79DF8170006B080BD490023
:1053200050EAC12018BF04204A0D18BF40F0010008
:1053300040F2FF72B2EB515F08BF40F0020001285B
:1053400008BF052070472DE9F0414F1E00EBC70153
:105350000446D1E9000115461E4637F006020DD07D
:105360002A46334601F094F87F1E04EBC703D3E9C5
:10537000002300F079FD37F00602F1D1022F25D08D
:10538000042F13D0062F18BFBDE8F0812A463346FC
:1053900001F07EF8D4E90A2300F066FD2A46334680
:1053A00001F076F8D4E9082300F05EFD2A46334682
:1053B00001F06EF8D4E9062300F056FD2A46334684
:1053C00001F066F8D4E9042300F04EFD2A46334686
:1053D00001F05EF8D4E9022300F046FD2A46334688
:1053E00001F056F8D4E90023BDE8F04100F03CBDDF
:1053F000002213461046014900F0F2BD0000F03FC4
:1054000000F032BD002213461046114600F0E8BD00
:1054100040F2013200204FF0E04101F07FBB00007C
:10542000024A0020110701F079BB000001FDFFFFD7
:105430002DE9F04D1D460C4694B0174621F0004171
:1054400023F00043002814BF4FF0010C4FF0000C74
:105450000CEB440CFB4A0CEB02064FEA620C66456F
:105460002BD33E0018BF012606EB45061644F64A2C
:10547000964222D3F54A53EA070C02D0944205D152
:1054800048B914B000201146BDE8F08D002808BFCF
:105490004FF0000C01D04FF0010C0CEB440212F560
:1054A000001F0AD8002F14BF4FF0010C4FF0000C62
:1054B0000CEB450212F5001F07D914B03A462B46F3
:1054C0002146BDE8F04DFFF79BBF0022DFF880A327
:1054D000002CB8BF534526DADFF878C36345A8BF70
:1054E000022220DADFF864C39C451CDCDFF868C3C5
:1054F0000CEB235CBCF1140F08DDCCF1340627FA69
:1055000006FC0CFA06F6BE420DD108E05FB9CCF1FC
:10551000140623FA06FC0CFA06F69E4203D10CF0A0
:105520000102C2F1020251EA000C19D1002D17DA72
:10553000002C18BF022A01D0012A07D00220FAF756
:1055400072FE14B0BDE8F04DFFF752BF0220FAF72B
:105550006AFEFFF74DFF14B081F00041BDE8F08D09
:10556000B7F1000C6CD1534525D104F1804212F5FE
:10557000801201BF00280020B44914B008BFBDE864
:10558000F08DB248884207DC002DA1BF6046294655
:1055900014B0BDE8F08D07E0002DBFBF604685F078
:1055A000004114B0BDE8F08DAC497944D1E9000167
:1055B00014B0BDE8F08DDFF894C2634525D1002D0D
:1055C0001FDA19B1514512D1D8B909E0002840F0CD
:1055D000F6829F4A214614B062F31E01BDE8F08DA9
:1055E0000020214614B060F31E01BDE8F08D08DAFA
:1055F00014B02346BDE8F04D02460020614600F09D
:10560000EFBC14B02146BDE8F08D514518DAB5F174
:10561000804F0DD0A5F1005CBCF1FF5C10D1B4F15E
:10562000000C0DDB14B06146BDE8F04D00F0F6BB98
:10563000234614B00246BDE8F04D194600F028BFDD
:10564000060024F0004C3BD1D9B1514533D1002C98
:1056500006DD002DA1BF0020514614B0BDE8F08D3D
:10566000002C01DD002D1BDB002C13DA002D11DBDB
:10567000012A4FF0000014BF7549794914B0BDE804
:10568000F08D022A18BF002C0AD0012A08D1002C64
:1056900006DA0AE0002CB8BF002D11DA012A04D086
:1056A000002014B00146BDE8F08D14B000204FF08A
:1056B0000041BDE8F08DA1F14050B0F17F601AD0FB
:1056C000012000EBE47050EA020421D05F4C521E2E
:1056D0004FF0000B104304BF4FF0000B614C6248C9
:1056E00083427DDD614A6248934229DD884217DBAF
:1056F000002D2FDB41E0002C00DA4AB1022A0CBF5A
:1057000001204FF0FF3014B0BDE8F04D00F0C2BDF5
:105710000120FAF788FD14B0BDE8F04DFFF772BE26
:105720004A4A8A420CDC002D14DC0220FAF77BFD89
:10573000FFF776FE61F31E0414B02146BDE8F08D3C
:10574000814202DA002D18DA04E0404B994220DD54
:10575000002D12DD0220FAF766FDFFF759FE05461F
:105760000E46002253465846214600F091FE14B0E2
:1057700066F31E012846BDE8F08D0220FAF753FDBE
:10578000FFF74EFE0A46214614B062F31E01BDE843
:10579000F08D00223046614601F0A0F806468846AA
:1057A0006FF0010201F0BAF94FF05532314B00F0C1
:1057B000A3FF3246434600F06BFE00222E4B00F062
:1057C0009BFF8A463246434602901046194600F037
:1057D0005FFE5346029A00F05BFE8246324600E0CE
:1057E00054E0059143464FF0C040244900F050FE7C
:1057F000CDE90C01224A214B5046059900F048FEA4
:10580000824601911F4A204B3046414600F040FE3F
:105810005246019B01F062F882460B46024609910E
:10582000DDE90C0100F020FBDDE90C2300268846B1
:10583000304601F053F85246099B00F05DFF0246E6
:1058400000F07EB9FFFF1F00FFFF0F000000F03FD8
:105850000000F07F0000404301FCFFFF82160000C3
:105860000000F0FF0000F0BF0000E0410000F04346
:10587000FFFFEF3F5555D53F0000E03F4715F73F8D
:10588000FE822B6544DF5DF80BAE543E0020B1F57F
:10589000801F07DA35223046614601F03FF906469F
:1058A0006FF0340000EB2150A0F2FF300190C1F303
:1058B000130040F07F6141F040510291FE4988425F
:1058C000D8BF002004DDFD498142C8BF012001DDB1
:1058D0000F9008E000200F900198401C0190029862
:1058E000A0F5801002900299F548784405910F992F
:1058F00000EBC1001290D0E900233046059900F07A
:10590000EDFFCDE90C011298D0E90023304605994E
:1059100000F0AAFA02460B460020EA4900F060FBBC
:105920000B46CDE908010246DDE90C0100F0B0FDAF
:105930000A90E5488A464FF00008784402990068CA
:1059400010904FF0005040EA61010F9801EB804049
:1059500000F5002112981191D0E90023109800F071
:10596000BDFF3246059B00F0C7FE4246534600F09D
:105970008FFDDDE91023064603914046514600F0B5
:1059800087FDDDE90C2300F0B7FE3246039B00F0F3
:10599000A5FFDDE9082300F07BFD03910A9A129030
:1059A00053461046194600F073FD06460246C748A6
:1059B0000B46029106217844FFF7C5FC029B324654
:1059C000059108901046194600F062FD059B089A63
:1059D00000F05EFD064609915346404619460A9A74
:1059E00000F042FA039B129A00F052FD3246099BE6
:1059F00000F03AFACDE908014246534610461946EE
:105A000000F046FD02460B46029104900020B0498A
:105A100000F02AFADDE9082300F026FA0E46424695
:105A2000AB4B404600F05AFF029B049A00F056FF31
:105A3000DDE9082300F060FE4246049102903346FF
:105A40001046514600F024FDCDE90C0153460A9A58
:105A50000499029800F01CFD8246009133464246AC
:105A60000399129800F014FD5246009B00F0FCF9D7
:105A700082460B4602460991DDE90C0100F0F4F97B
:105A8000DDE90C2300268846304600F027FF524609
:105A9000099B00F031FECDE90801434632464FF044
:105AA00060408C4900F0F4FC82460491DDE9080175
:105AB000894A884B00F0ECFC029100904346324644
:105AC0008648874900F0E4FC029B009A00F0CCF97C
:105AD000844B7B440F9A03EBC203D3E9002300F00D
