:020000040800F2
:10000000580A0020BD010008753A0008253800088C
:10001000713A000805170008593B0008000000006D
:100020000000000000000000000000007D3A000811
:100030005117000800000000793A0008813A0008D2
:10004000D7010008D7010008D7010008D701000830
:10005000D7010008D7010008D7010008D701000820
:10006000D7010008D7010008D7010008D701000810
:100070000917000815170008211700082D17000898
:100080003917000845170008D7010008D7010008F4
:10009000D7010008D7010008D7010008D7010008E0
:1000A000D7010008D7010008D7010008D7010008D0
:1000B000D7010008D7010008D7010008D7010008C0
:1000C000D7010008D7010008D7010008D7010008B0
:1000D000D7010008D70100084D3B0008D7010008F0
:1000E000D7010008D7010008D701000800F002F886
:1000F00000F055F80AA090E8000C82448344AAF16D
:100100000107DA4501D100F04AF8AFF2090EBAE86A
:100110000F0013F0010F18BFFB1A43F0010318473B
:10012000E44E0000044F0000103A24BF78C878C1A4
:10013000FAD8520724BF30C830C144BF04680C60ED
:10014000704700000023002400250026103A28BF35
:1001500078C1FBD8520728BF30C148BF0B60704739
:10016000662904F01986642900F07C80782900F063
:10017000B580002070471FB59DE8030001F03CF9F1
:1001800000F006FC04000020002104F017FCE060F1
:1001900000F008FE1FBD10B500F06DFE10BD00F0B0
:1001A000D5FE1146FFF7E7FF03F07CFF01F08EF864
:1001B00003B4FFF7F0FF03BC01F010FA09488047D1
:1001C00009480047FEE7FEE7FEE7FEE7FEE7FEE739
:1001D000FEE7FEE7FEE7FEE704480549054A064B51
:1001E00070470000853A0008ED0000085804002020
:1001F000580A002058060020580600200FB4044971
:1002000010B503AA029800F0B1FB10BC5DF814FB16
:100210007C00002070B5044685690068C10601D5E0
:10022000302600E02026C00707D070BDD4E90121A8
:1002300030469047206A401C20626D1EF6D570BD86
:1002400070B5044685690078C00707D170BDD4E950
:10025000012120209047206A401C20626D1EF6D5A7
:1002600070BD00002DE9F041064600241068752994
:10027000314616A510D0AFF30080002802DA4042C4
:1002800013A507E031688A0701D512A502E04907E6
:1002900004D511A5012401E0AFF3008000210A225A
:1002A00006F1240709E0B0FBF2FCB0FBF2F302FB1D
:1002B0001C00303078541846491C0028F3D12346DE
:1002C0002A463046BDE8F04100F0E9B800000000E1
:1002D0002D0000002B0000002000000070B5044637
:1002E0000D4621461068AFF300802188090502D52C
:1002F0000F4A7A4402E00E4A7A440E32002104F199
:10030000240305E000F00F060009965D5E54491CC9
:100310000028F7D120780023000704D5702D02D0E3
:1003200009B1022311322046BDE8704000F0B7B891
:10033000A64A00002DE9F05F894604464FF0000A06
:10034000DFF824B1FB44C0F820A02046E1688847CC
:1003500000287DD0252806D0D4E901219047206AC5
:10036000401C2062F1E700255F462046E16888478F
:100370002028064607DB312E05D2B81910F8200CCC
:1003800008B10543F1E7A80701D525F00405C4F835
:100390001CA00027C4F818A02A2E09D0304604F06B
:1003A000F7FA38B304EB8708303EC8F8186019E054
:1003B00059F8041B204604EB87029161E1688847E5
:1003C000012F064618D1E069002820DA25F0200523
:1003D0001DE0D8F8180000EB800006EB4000303834
:1003E000C8F818002046E1688847064604F0D0FAAD
:1003F0000028EED1012F0AD02E2E08D12046E16828
:1004000088477F1C0646022F45F02005C4DBA06903
:10041000002803DA404245F00105A061E80701D059
:1004200025F01005A6B1A6F14100192802D8203602
:1004300045F400654A463146204625604D46FFF7A3
:100440008FFE60B1012807D0ED1D25F0070000E008
:1004500007E000F1080978E705F1040975E730467F
:100460007AE7206ABDE8F09F7C4A000010B5044698
:1004700003E004F094FA401C09D014F8010B05497C
:100480000028F6D1BDE810400A2004F088BA4FF0E9
:10049000FF3010BD7C0000207047704770472DE989
:1004A000F0470D4699469246044600F1240801683B
:1004B000880604D5E06921F01001216000E00120E8
:1004C000A84201DD471B00E00027A1697A1902EB71
:1004D0000900081AA0612078C00602D42046FFF760
:1004E00099FE002608E0D4E901211AF80600904799
:1004F000206A401C761C20624E45F4DB2078C00642
:100500000AD52046FFF786FE06E0D4E90121302017
:100510009047206A401C2062381EA7F10107F4DCD6
:1005200007E0D4E9012118F805009047206A401C33
:100530002062281EA5F10105F3DC2046FFF780FEAE
:100540002078000602D50220BDE8F0870120FBE7F5
:100550002DE9FF4F0C461E464FF0FF378BB0D2E916
:100560000001DDF860800A908A46C1F30A5505B99A
:100570003D46002108464FF00000BAF1000F00F49C
:10058000400005DA00EB80004FF4400101EA500022
:100590004FEA9059B9F1010F00DDB9460A9850EAC7
:1005A0004A000ED044F61050A5F2FF3545432F14F3
:1005B000B8F1000F1ED07542291E1EDDC9F10002E0
:1005C0001CE0B8F1010F4FF0000001D0302103E032
:1005D000F24305E02154401CB042FBDB30460022D0
:1005E000002121540B99C1F80880C1E900200FB007
:1005F000BDE8F08FBD1B6D1CDEE74A4600DA69429C
:1006000006A800F067FA06AB93E8070003AB83E89F
:10061000070050460A9903F0DFFD8DE80700A0F5BA
:1006200000501F3800900398002D0ADD42F21F0190
:100630004A460844002303A90390684604F048F89A
:1006400009E0A0F500504A461F38002303A9039093
:10065000684604F052F88DE807000004000C03D04F
:100660004FF0FF30410800E01046B8F1000F03D012
:100670000022009215461EE0751E05D400F08CF98C
:10068000303262556D1EF9D5B3460122084302D0BF
:1006900000227F1C04E02078302801D100227F1E38
:1006A000002A099784D01DE0112D07DA00F074F9B3
:1006B000303262556D1C50EA0102F5D1084302D078
:1006C0000098C8B10EE00021681E05E0235C625C62
:1006D00063542254401E491C8142F7DBAB46A81BE1
:1006E000401E0990002004F80B000B98099AC0F8EE
:1006F0000880C0E9002B7AE711264FF0000857E781
:100700002DE9F04F88460446D21D22F0070191B032
:10071000D1E90001CDE90A0104F026F902460B985F
:10072000C00F01D02D2007E02068810701D52B20C4
:1007300002E0202101EAC000032A099001D0072A23
:1007400005DB03464146204600F084F90BE12078A2
:10075000800601D5E06900E00620B8F1650F81460A
:1007600006D0B8F1660F18D0B8F1670F70D131E03C
:100770000020B9F1110F009001DB112301E009F114
:1007800001030AAA01A90CA8FFF7E2FEDDE90C703B
:10079000002609F10105834647E001204B46009001
:1007A0004FF000470AAA01A90CA8FFF7D1FEDDE926
:1007B0000DB00C995D46002610B909F101000D1825
:1007C000B9EB050003D4C0F1FF3609F10105A5EB33
:1007D00009002BE0B9F1010F01DA4FF00109002007
:1007E000B9F1110F0090484601DD112300E00346E6
:1007F0000AAA01A90CA8FFF7ABFEDDE90C704D4673
:1008000000268346207800070AD4AB4500DA5D460F
:1008100001A8012D04DD411911F8011C302907D070
:100820004F4502DA17F1040F04DA012082460FE087
:100830006D1EEEE7002F02DCED1B3E4403E0781C4A
:10084000A84200DD7D1CB81B00F1010A4FF00047F3
:100850002078000703D4AA4501DB4FF0FF3A0021BE
:10086000B7F1004F0DF143088DF8431024D002205A
:100870002B23002F01DA7F422D230A21021EA0F133
:10088000010000DC5FB197FBF1FC97FBF1F201FB8B
:100890001C7C17460CF1300C08F801CDEEE7A8F1EE
:1008A000010003702188090501D5452100E065217B
:1008B000A0F1010800F8011C09980FA9A1EB080795
:1008C000FF1D00B10120411901EBEA70A169384414
:1008D000081A401EA0612078C00602D42046FFF707
:1008E00099FC099828B1D4E901219047206A401C5D
:1008F00020622078C00622D52046FFF78BFC1EE040
:10090000002E04DBB34502DD01A8805D00E030204D
:10091000D4E901219047206A401C2062761CAAF18C
:1009200001005FEA000A0AD100F032F8C0680168ED
:10093000405CD4E901219047206A401C2062281EB7
:10094000A5F10105DCDC07E0D4E9012118F8010B71
:100950009047206A401C2062381EA7F10107F3DC93
:100960002046FFF76DFC032011B041E6074B70B540
:100970000D467B4400F05BF80446284600F01CF965
:1009800010B14FF0FF3070BD204670BD294000000F
:10099000004870474401002030B5B0F10A0271F1FF
:1009A00000034FEA900E4EEA817EB0EB0E0061EB41
:1009B00091014FEA101E4EEA017E10EB0E0041EB52
:1009C00011114FEA102E4EEA016E10EB0E0041EBB2
:1009D00011214FEA104E4EEA014E10EB0E0041EB92
:1009E0001141401841F100014FEAD00040EA417046
:1009F0004FEAD1014FEA810444EA907410EB80057C
:100A000044EB01046D1944EB0404521BA3414FF065
:100A1000000348BF0A3200D530BD401C41F100013F
:100A200030BD000001694A1C02610878704700B5BA
:100A30008FB0CDE901310021059105497944CDE917
:100A4000031011466846FFF775FC0FB000BD0000AB
:100A5000E5FFFFFF2DE9F0411F460446032601682C
:100A6000072A01F4006004DB08B116A505E016A50D
:100A700003E008B115A500E015A521F010002060E5
:100A8000A069C01EA0610FB1401EA0612046FFF703
:100A9000C1FB4FB1D4E9012138469047206A401C80
:100AA0002062C01C206206E0206AFAE7D4E9012136
:100AB00015F8010B9047761EF8D22046FFF7C0FBD1
:100AC000BDE8F0814E414E006E616E00494E460019
:100AD000696E66002DE9F047814616468AB03548B2
:100AE00078440DC88DE80D0032487844801C03AC72
:100AF0000DC884E80D0041F69B300844372190FB77
:100B0000F1F290FBF1F5A5F1800501FB12041B3C0D
:100B100002D56442012000E00020DFF898A0804662
:100B20000027FA44AAF1BE0A0EE0E0070AD03246D6
:100B3000684607EB470101230AEB810103F0DDFD65
:100B40008DE8070064107F1C002CEED1194F7F4404
:100B5000AE3F19E0E80715D007EB04100DF1180AB5
:100B600090E80E008AE80E00C068F04201D19819A2
:100B700008903246012306A903A803F0BEFD03AB8B
:100B800083E807006D10641C002DE3D14FF00103D2
:100B900032466946B8F1000F03A802D003F098FD71
:100BA00001E003F0AAFDC9E90001C9F808200AB074
:100BB000BDE8F08770430000007B00F080007047C4
:100BC0002DE9F05F054617460C46C86820F4201052
:100BD00040F48000C860800602D5084600F0B7FAED
:100BE000E06841F282014FF0FF3A0140022903D050
:100BF000204600F049FAB9E000F42041B1F5004F79
:100C00000FD1C00306D56168E06A884200D8084663
:100C1000606006E02069E0626060606900F08BF966
:100C2000A061A0680022EEB200280DDAE1688B0511
:100C30000AD4C043A06041F490302260E060606854
:100C4000411C61600670AAE0E0689146226040F4B1
:100C50000050E060206978BB606900F05EF904F143
:100C600024054FF00108A8B1A08910F4407F08D0F6
:100C7000E06900F090F9206118B1E06840F400608C
:100C800017E0C4F81C802561E06820F4407040F44F
:100C900080600EE0E06900F07EF900282061F0D06D
:100CA000E06840F4006010F4407FE06002D140F45E
:100CB0008070E06020696060E06825696FF0010B7A
:100CC000C1051ED56168E06A884200D80846411B0C
:100CD00004D02246284600F0E1F9E8BB1FB1E562E6
:100CE000C4E9015959E0681CE0626060E069401E97
:100CF000A060E06840F48030E06030462E70BDE8CF
:100D0000F09F17B100F480320AE06068411C616016
:100D10000670E0680A2E40F48030E06006D00022C1
:100D2000E16A6068814203D90B4602E00122F7E7DD
:100D30000346B4F80CC05B1B5FEA4C5C04D4D4F8E7
:100D40001CC09C4500DD02B3814200D80146002B47
:100D5000A1EB0008E56200E008E0C4E9015907DD05
:100D600022461946284600F099F908B15046C6E7D0
:100D7000B8F1000F09D0A169E5626560A1EB080038
:100D8000A061E06840F01000E06047B16168A069D0
:100D9000E562491B08446560A0615846AFE73046EC
:100DA000ADE7000010B54248542100F09FFA4148D9
:100DB000542100F09BFA4048542100F097FA3F4933
:100DC0003B483C4A3F4B08603D490A603A4919603C
:100DD000531C0365481C1065012008653B48344AD4
:100DE00039A1784400F0D4F920B9384878440A3859
:100DF00000F075FA37482F4A35A1784400F0C8F959
:100E000020B9344878440A3800F069FA32482A4A4E
:100E10002FA1784400F0BCF920B92F4878440A3853
:100E200000F05DFA40232248DC000021224600F059
:100E300008F920B125487844543800F050FA1D488C
:100E400022464023002100F0FCF820B121487844DC
:100E5000543800F044FA184822461023002100F0CC
:100E6000F0F8002806D01C487844BDE810405638F9
:100E700000F035BA10BD104870B5006D20F00104C7
:100E80000B4800F0FDF90B4800F0FAF90A4800F0B1
:100E9000F7F909E0206D20F00105204600F0F0F997
:100EA000204600F0A7F82C46002CF3D170BD0000BE
:100EB000280000207C000020D0000020000000203E
:100EC000040000200800002072000000864000009E
:100ED00077000000724000005E4000000EB5CDE9D2
:100EE000000100F05BFB029069460120ABBE0EBD25
:100EF00008B5694600900220ABBE08BD1FB58DE85D
:100F0000070069460520ABBE04B010BD1FB58DE8D3
:100F10000F0069460620ABBEF6E708B569460090AB
:100F20000920ABBE08BD1CB5CDE9000169460A2009
:100F3000ABBE1CBD704708B5694600900C20ABBE27
:100F400008BD000000487047240100207546FFF7E7
:100F5000F9FFAE4605006946534620F00700854676
:100F600018B020B5FFF738F9BDE820404FF0000673
:100F70004FF000074FF000084FF0000BAC46ACE814
:100F8000C009ACE8C009ACE8C009ACE8C00921F070
:100F900007018D46704770B5064600F011FA0568E6
:100FA00006F10B0020F00704B4429CBF002070BD86
:100FB0002B466A68BAB11068A04210D304F1080148
:100FC00088423CBF5068586007D35168101941608F
:100FD0001168091B016058601460101D70BD134634
:100FE0005268002AE7D12146284600F0F1F900288E
:100FF000DED170BD70B50446051F00F0E1F9006850
:10100000002C14BF446870BD002C18BFAC423CBF1C
:1010100020466468F8D301680A18AA4218BF4560E0
:1010200003D12A6805461144016028684119A1428C
:101030001CBF6C6070BD61686960216808442860ED
:1010400070BD70B5C468A50713D0650211D4B2F5A0
:10105000807F09D0B2F5007F06D0B2F5806F08D14D
:10106000012300F1240106E05D1E6FF07F46B542CA
:1010700001D3012070BD0161C361416024F470613E
:101080001143C160002070BDC16821F4001141F01E
:101090008001C16000218160016070472DE9F74F38
:1010A00015460C464FF0FF3B3848D768D2F814A0DD
:1010B000074209D05046A969FFF735FF002819DB20
:1010C0003248C0430740EF604FF000496FF00048DE
:1010D0004C4501D3464600E0264600993B46504623
:1010E0003246FFF70BFFA96920F00042B21A114403
:1010F000A96128B12846FFF7C7FF5846BDE8FE8F13
:10110000A41BE5D10020F9E770B504460569C06A63
:101110006168884200D80846E16821F42011E16046
:10112000C90312D5A84208D02246411B2846FFF722
:10113000B5FF10B14FF0FF3070BD0020E562C4E98B
:101140000150E06820F48030E060002070BD10B5F0
:101150000446C06820F02000E060A16AA0698842CF
:101160000DD02046FFF7D0FFE06820F4405040F05B
:101170001000E060A06AA0612069E062606044F253
:101180004001E0688843E06010BD000010000200EC
:101190002DE9F0410C461646070047D0104600F0F6
:1011A0006FF82078611C61280AD0722802D0772855
:1011B0003CD102E00125002405E00225042402E0E0
:1011C000082448F2020511F8010B2B2806D06228EA
:1011D00009D011F8010C74280AD00BE045F0030582
:1011E00044F00204EFE745F0040544F00104EAE7A7
:1011F00044F0100438462146FFF770FE411C15D01C
:101200000021316171604FF40071F560F16170612E
:10121000200704D530460222002100F023F9306D6A
:1012200040F0010030653046BDE8F0810020FBE76A
:101230002DE9F0410D460646104C206DC10704D043
:10124000410804D020F00104F7E722460EE05420C4
:10125000FFF7A1FE07000ED0206D47F00101084303
:1012600054212065384600F041F83A462946304678
:10127000BDE8F0418CE70020D6E700002800002000
:101280002DE9F04704464FF0FF380026C568D4E941
:101290000497A80718D02046FFF736FF3846FFF717
:1012A00027FE002800DA4646280502D54846FFF703
:1012B000A1FE4C21204600F019F8206D20F001001D
:1012C00020653046BDE8F0874046FBE710B5044690
:1012D000AFF300802046BDE81040FEF769BF10B5AF
:1012E00000F042F9BDE8104000F038B94FF00002BC
:1012F00000B5134694469646203922BFA0E80C500C
:10130000A0E80C50B1F12001BFF4F7AF090728BFE6
:10131000A0E80C5048BF0CC05DF804EB890028BF62
:1013200040F8042B08BF704748BF20F8022B11F08B
:10133000804F18BF00F8012B704700004FF0013CB0
:1013400050F8042B51F8043B9A4221D1A2EB0C0334
:10135000934313EACC1317D150F8042B51F8043BF4
:101360009A4215D1A2EB0C03934313EACC130BD191
:1013700050F8042B51F8043B9A4209D1A2EB0C031C
:10138000934313EACC13DBD04FF00000704700BF4B
:10139000D01A01BAB1FA81F101F0180122FA01F074
:1013A000CB40DBB2C0B2C01AC1F120012CFA01F36C
:1013B000D11A914311EAC311E6D17047704700007A
:1013C000004870472C0100207047704770477047F5
:1013D00038B504460A4600206946AFF3008000286D
:1013E00008BF38BD02460099204600F0FDF80120F4
:1013F00038BD012000F04CB9F8B5AFF300800546C8
:1014000000200C46102000BF0646A819A0420DD9A6
:10141000324669460020AFF30080070008BF00F0A5
:1014200037F90098A04218BF0546C419FFF7C8FF56
:1014300005600746F01D20F007004619284600F019
:101440000AF8B44208BFF8BDA21B31463868BDE8AF
:10145000F84000F0C9B800210160C0E901107047F0
:10146000102070472DE9F041044616460D464769A5
:10147000007B80072ED03846FFF74FFD50BB3EB3B0
:10148000012E02D0022E25D104E0204600F0C6F83D
:1014900005441DE03846FFF74EFDE168002841F0A5
:1014A0001001E16005DA2046FFF7EEFD0120BDE8FE
:1014B000F081C9030BD56268E16A914200D81146F8
:1014C000A26911442269891A814200DD0846054457
:1014D000002D01DA0220EAE7E16A6068E2688142F1
:1014E00006D29103E06203D522F4003141F01002EC
:1014F000A6690027AE4213DCE16A814201D90B469E
:1015000000E0034603EB060C2369ACEB030CAC458F
:1015100006DD814201D98C4600E084469C4505D118
:10152000A760276042F02000A5620DE0AD1BE669D0
:10153000AE1B8142A66000D90846C01A281A206056
:101540005819606022F0200003490840E060002044
:1015500084F84870ABE70000BFCFD7FF002801D068
:1015600000F03CB87047000010B5014602A000F042
:1015700076F8012010BD00005349475254524544AB
:101580003A2052656469726563743A2063616E271C
:1015900074206F70656E3A200000000010B5431C87
:1015A00002E010F8011B71B18107FAD14FF001324E
:1015B00002C88C1A8C4314EAC211F9D0C01A0A0668
:1015C00003D0C01E10BDC01A10BD0A0401D0801E79
:1015D00010BD0902FCD0401E10BD000001491820BA
:1015E000ABBEFEE726000200034640688C4600289A
:1015F00018BF88423CBF03464068F8D318681844B7
:10160000884207D00CF1030020F00700001D411AAA
:10161000521A0146081D0A60FFF7ECBC10B50146DE
:10162000C268900703D0900607D5886A0AE000F0E8
:101630003DF801210160881E10BD8B69486818447F
:101640000B69C01A91F848301BB191F84910401A43
:1016500010BD1103FCD50028FADD401E10BD70B589
:1016600005460C460A2000E06D1C00F018F835B164
:1016700028780028F8D102E0641C00F010F814B1BA
:1016800020780028F8D1BDE870400A2000F007B8A3
:1016900010B500F00FF8BDE81040FFF75FBF08B5C8
:1016A00069468DF800000320ABBE08BD00487047B6
:1016B0002401002010B5012805D0002103A0FFF768
:1016C000CEFF012010BD09A1F8E7000053494752A1
:1016D000544D454D3A204F7574206F662068656102
:1016E00070206D656D6F7279000000003A204865CA
:1016F0006170206D656D6F727920636F72727570A5
:1017000074656400FEE7000040F21020C2F20000A1
:1017100000F0A0B840F25420C2F2000000F09AB8E5
:1017200040F2DC20C2F2000000F094B840F29820B1
:10173000C2F2000000F08EB840F2CC10C2F20000FD
:1017400000F088B840F28810C2F2000000F082B8C1
:1017500070470000EFF3108072B600BFFEE7000094
:10176000014690F82100022816D10868D1E90FC37C
:10177000026822F00E020260026822F0010202609A
:10178000012000FA03F2CCF8042081F821000020A7
:10179000002281F820207047042088630120002265
:1017A00081F820207047000080B590F821100229B0
:1017B00024D10268116821F00E0111602F211368F5
:1017C000C4F202018A4240F20401C4F2020123F091
:1017D0000103136016DD3023C4F202039A421DD0C8
:1017E0004423C4F202039A421CD05823C4F20203D9
:1017F0009A421DD14FF4803322E000BF042181635F
:10180000012080BD0823C4F202039A420ED01C239B
:10181000C4F202039A420BD1102311E04FF48073FB
:101820000EE000BF4FF480530AE000BF012307E041
:1018300001F1680C4FF08073624508BF4FF48013CC
:101840000B60416B4FF48072028401B18847002025
:1018500080BD000010B5D0E90FCE0168DCF8003083
:101860000A6823FA0EF35C072AD512F0040427D085
:101870000A68920603D40A6822F004020A602F2242
:10188000C4F20202914240F20402C4F2020259DDA3
:101890003023C4F20203994270D04423C4F20203FD
:1018A000994271D05823C4F20203994278D14FF47F
:1018B00080231360C16A002940F097806EE000BF6A
:1018C0009C0727D512F0020424D00A68920606D499
:1018D0000A6822F00A020A60012280F821202F22E1
:1018E000C4F20202914240F20402C4F2020239DD63
:1018F0003023C4F2020399425ED04423C4F20203AF
:1019000099425DD05823C4F2020399425ED14FF44C
:10191000003363E01B0741D512F0080208BF10BD79
:101920000A6822F00E020A60012101FA0EF2CCF8D8
:1019300004208163016B4FF480720029028454D12A
:101940002CE000BF0823C4F20203994222D01C23DA
:10195000C4F20203994223D140231360C16A0029D3
:1019600043D11BE00823C4F2020399422CD01C236C
:10197000C4F20203994229D120232FE04FF480635F
:101980001360C16A89BB09E04FF480431360C16AE8
:1019900059BB03E004231360C16A31BB10BD00BF13
:1019A00002F168044FF08063A14208BF4FF4800346
:1019B0001360C16AC9B9F1E74FF400730EE000BFCC
:1019C0004FF400530AE000BF022307E002F168046D
:1019D0004FF00073A14208BF4FF400131360816AF7
:1019E0000022002980F82020D8D0BDE81040084708
:1019F000002804BF012070472DE9F04101684FF62F
:101A0000F872CBF6FD724CF6CD430A44CCF6CC43CB
:101A1000A2FB03236FF0030707EA93030027C4F236
:101A2000020700F1040E00F11008C0E90F739EE8F0
:101A3000045098E870010B6843F6F077BB431A43F3
:101A400042EA0C0242EA0E0222432A43324342EAAD
:101A500008020A6000214FF4807281630284BDE8AD
:101A6000F041084670470000B0B5044600F024F984
:101A7000054640F20C00C2F200000078611C18BF5D
:101A8000044400BF00F018F9401BA042FAD3B0BDD7
:101A90002DE9F04F82B00E68002E00F0038140F275
:101AA0000C4C41F200424FF6FF7EC4F2010CC4F22E
:101AB0000102042700240123C1F2100E4FF0000A96
:101AC0004FF00009904208BF0327009745E000BF90
:101AD000012704F00C030F229A402BEA020207FAB6
:101AE00003F34FEA9A051A4346F82520D1F804B0CB
:101AF00040F20045C4F201055FEACB322A6854BFC8
:101B000022EA080242EA08022A606A685FEA8B3326
:101B100054BF22EA080242EA08026A605FEACB2365
:101B2000AA6854BF22EA080242EA08025FEA8B234D
:101B3000AA60DCF800204FF0010354BF22EA08023B
:101B400042EA0802CCF800200E680AF1010A36FACF
:101B50000AF204F1040400F0A58003FA0AF816EA78
:101B6000080FF1D04E68764512DC122E56D8DFE809
:101B700006F0350B4549555555555555555555554F
:101B80005555554D510000BFD1F80C9046E000BFAF
:101B90004FF6FF72C1F2210296420FDC0022C1F221
:101BA000110296421AD00022C1F21202964215D0BA
:101BB0000022C1F22102964210D02FE00022C1F291
:101BC000220296420AD00022C1F23102964205D08A
:101BD0000022C1F23202964220D100BF8A684AB187
:101BE000012A14BFC0F81480C0F810804FF0080913
:101BF00014E000BF4FF0040910E000BFCA6802F112
:101C000008090BE04FF0000908E000BFCA6802F1C4
:101C1000040903E0CA6802F10C0900BF2246064627
:101C2000BAF1080F24BF203A043637680F259540D3
:101C300027EA050509FA02F22A433260CA79D20678
:101C40007FF582AF41F21803C4F202031A6842F032
:101C500001021A601A6802F001020192019A40F230
:101C60000042C4F20102A2F57E762AF0030256F881
:101C700002B040F60002C4F20102904210D040F6D9
:101C80000042C4F2010290423FF422AF41F200024E
:101C9000C4F20102009F904208BF022719E700BF6B
:101CA000002716E702B0BDE8F08F0000002A08BF49
:101CB000090401617047000040F25440C2F2000084
:101CC00000687047006C704790F83D007047000056
:101CD00070B5B8B3044690F83D0028B9002084F8E8
:101CE0003C00204600F05CFE242084F83D00206883
:101CF000016821F001010160016841F400410160C7
:101D0000016821F40041016001F04AF848F2804185
:101D1000C0F21E0140F60013D4F804E088424FF0F0
:101D20000001C0F23D0348F2A16C4FF0000238BF41
:101D300001219842C0F2010C38BF0122E64538BFAC
:101D40000A460AB1012070BD4DF68361C4F21B3111
:101D5000A0FB01122168950C4B684FF4967623F096
:101D60003F0343EA9243754344F6D3564B60C1F2B6
:101D700062060B6AA5FB0656B50923F03F03E6454C
:101D800038BF950C6A1C1A430A62CA6948F2A066F9
:101D90004CF6FF73C0F20106B64522EA03020BD8E7
:101DA00001384FEA4E03B0FBF3F001306FF31F3000
:101DB000042898BF04201EE0A368013863B11923EA
:101DC0000EFB03F3B0FBF3F001306FF31F3078B17B
:101DD00000F5804008E000BF0EEB4E03B0FBF3F0CF
:101DE00001306FF31F3028B100F5004003E000BF61
:101DF000012000E001201043C8610868D4E90723EE
:101E000020F0C000104318430860886848F2FF3291
:101E100004F10C0690434CCE18431043A56988602A
:101E2000C86820F0FF0030432843C860086840F0CD
:101E30000100086000202021206484F83D10206308
:101E400084F83E0070BD00002DE9F04782B00446E2
:101E500000201F46164688460090FFF72DFF94F895
:101E60003D1020291CD1054620688169890713D5BA
:101E7000FFF722FF401B1928F6D9002020212063FC
:101E800084F83D1084F83E00216C41F0200121646B
:101E900084F83C0004E000BF94F83C10012903D111
:101EA000022002B0BDE8F087012184F83C100168EF
:101EB000C90703D1016841F001010160016821F403
:101EC00000610160222184F83D10102184F83E1049
:101ED0000021216466626785618D21850021CFF62E
:101EE000FF71E162E16A026811F5803F42F48062AD
:101EF000026018BF012919D1016841F480710160A5
:101F000041690A9EC90724D1711C18D0002E00F027
:101F1000CB8000BFFFF7D0FE401BB04200F2C6806E
:101F200020684169C907F5D013E000BF0829E3D054
:101F3000216B1129E0D0E3E74169C90709D1416963
:101F4000C90706D14169C90704BF41695FEAC17188
:101F5000F2D02169B1F5804F08D148F00101C9B232
:101F600001614169890740F1CC8003E1062101EA62
:101F7000D81707F1F00101614169090738D44169B7
:101F8000721C01F4806113D0002940F0EA80002E19
:101F900000F06A82FFF790FE401BB04200F26682BA
:101FA00020684169090723D441694905F2D5D8E081
:101FB000002940F0D6804169090719D441694905D3
:101FC00000F1CF804169090712D44169490500F148
:101FD000C880416909070BD44169490500F1C180F6
:101FE0004169090704D441694905E4D5B9E000BF56
:101FF0005FFA88F101614169890739D44169721C2E
:1020000001F4806114D0002940F0AB80002E00F074
:102010002B82FFF751FE401BB04200F2278220685E
:102020004169890724D441694905F2D599E000BF87
:10203000002940F096804169890719D44169490512
:1020400000F18F804169890712D44169490500F187
:102050008880416989070BD44169490500F1818075
:102060004169890704D441694905E4D579E000BF95
:1020700000210191416901918169019101990168F2
:1020800041F4807101604169C90734D1711C28D0C5
:1020900056B1FFF711FE401BB04207D820684169D6
:1020A000C907F6D027E000BFFFF706FE0020202179
:1020B000206384F83D1084F83E00216C41F020013B
:1020C0002164216884F83C000868C00544BF4FF4CF
:1020D00000702064012002B0BDE8F0874169C907A3
:1020E00009D14169C90706D14169C90704BF4169DE
:1020F0005FEAC171F2D047F0F101016141698907DE
:1021000038D44169721C01F4806111D049BB002EA2
:1021100000F0AA81FFF7D0FD401BB04200F2A6817B
:1021200020684169890725D441694905F2D518E03D
:10213000B9B9416989071DD44169490511D441697B
:10214000890717D4416949050BD44169890711D41E
:102150004169490505D4416989070BD4416949059D
:10216000E7D5016841F4007101606FF4806141615D
:1021700004207CE1218D022910D0012924D00029DE
:1021800038D1002101914169019181690191019941
:10219000016841F40071016037E000BF016841F45B
:1021A00000610160EFF3108072B60020019020689A
:1021B00041690191816901910199016821F480616E
:1021C000016062B621E000BF016821F48061016016
:1021D000EFF3108072B600200190206841690191F0
:1021E000816901910199016841F40071016062B651
:1021F0000BE000BF016841F48061016000210191A2
:1022000041690191806901900198208D002800F0BA
:102210001F8140F220084BF28959771CC2F2000856
:10222000C1F2F8494FF0230A80B2032818D80228D7
:1022300040D0012868D1002E00F0D68020680146E9
:1022400051F8142F520600F1D3800868C00600F13F
:102250004381FFF731FD401BB042EFD931E100BFB0
:1022600086B100BF2068014651F8142F52060ED4E3
:102270000868C00600F13081FFF71EFD401BB04228
:10228000F0D91EE120684169490640F113810069D7
:10229000616A0870606A2268411C208D61620138A1
:1022A0002085638D013B638553695B0740F1AC80FA
:1022B00010699FE02068416949070FD4002F00F0A2
:1022C000A780002E00F01C81FFF7F6FC401BB042F7
:1022D00000F21881206840694007F5D5EFF31080BF
:1022E00072B62068616A026842F400720260006996
:1022F0000870606A218D01306062481E2085608D03
:102300000138608562B66AE02068416949070FD4E8
:10231000002F00F08D80002E00F0F280FFF7CCFC43
:10232000401BB04200F2EE80206841694907F5D5B4
:10233000016821F480610160EFF3108072B62068BB
:10234000616A00690870606A218D0130013960623C
:102350002185618D01396185D8F80010C908A1FB7C
:102360000912110A01FB0AF100910099013900914B
:102370000099002900F08C8021684A6952071ED418
:102380000099013900910099002900F081802168AD
:102390004A69520713D40099013900910099002924
:1023A00076D021684A69520709D400990139009111
:1023B000009900296CD021684A695207D5D50A686E
:1023C00042F400720A6009690170606A218D01306F
:1023D0006062481E2085608D0138608562B6206885
:1023E000616A006906E000BF20684169490661D55D
:1023F0000069616A0870606A218D01306062481E60
:102400002085618D0139618501047FF40DAF1FE0E6
:10241000416949073FF562AF416949075CBF4169BE
:102420005FEA41713FF55AAF41694907F0D555E779
:10243000416949073FF57CAF416949075CBF416984
:102440005FEA41713FF574AF41694907F0D56FE725
:10245000202084F83D00002084F83E0084F83C00F1
:1024600002B0BDE8F08700BFFFF726FC2020002166
:102470002022216384F83D2084F83E10226C104312
:10248000206484F83C10012002B0BDE8F08700BF52
:1024900000202021206384F83D1084F83E00216C48
:1024A00041F02001216462B684F83C00012002B0B2
:1024B000BDE8F08750F8141FC90601460CD4FFF799
:1024C000FBFB00202021206384F83D1084F83E00AF
:1024D000206C40F020000AE06FF01000086000203F
:1024E0002021206384F83D1084F83E00206C206495
:1024F000002084F83C00012002B0BDE8F08700BF56
:10250000FFF7DAFB00202021206384F83D1084F8D7
:102510003E00216C41F02001216484F83C00012040
:1025200002B0BDE8F08700002DE9F04381B01F46FE
:10253000164688460446FFF7BFFB94F83D10202955
:1025400020D1054620688169890717D5FFF7B4FBBC
:10255000401B1928F6D900202021206384F83D1063
:1025600084F83E00216C022641F02001216484F8A9
:102570003C00304601B0BDE8F08300BF94F83C1049
:10258000012905D10226304601B0BDE8F08300BF25
:10259000012184F83C100168C90703D1016841F0AA
:1025A00001010160016821F400610160212184F8CA
:1025B0003D10102184F83E10002121646662678579
:1025C000618D21850021CFF6FF71E162E16A11F58D
:1025D000803F18BF012919D1016841F48071016061
:1025E0004169DDF82090C90723D119F1010116D006
:1025F000B9F1000F46D000BFFFF75EFB401B484516
:1026000042D820684169C907F6D012E00829E3D012
:10261000216B1229E0D0E3E74169C90709D141697B
:10262000C90706D14169C90704BF41695FEAC171A1
:10263000F2D02169B1F5804F02D1FE2161E000BFE7
:10264000062101EAD811F03101614169090757D427
:10265000416919F1010201F480612FD0002946D1AE
:10266000B9F1000F00F04281FFF726FB401B4845FF
:1026700000F23E8120684169090741D4416949055A
:10268000F2D534E0FFF718FB00202021206384F806
:102690003D1084F83E00216C012641F020012164A8
:1026A000216884F83C000868C00544BF4FF40070FE
:1026B0002064304601B0BDE8F08300BFB9B941697C
:1026C00009071DD44169490511D44169090717D487
:1026D000416949050BD44169090711D4416949058C
:1026E00005D4416909070BD441694905E7D501685B
:1026F00041F4007101606FF4806141610420F8E0F1
:10270000FF2101EA08010161416989073AD4416961
:1027100019F1010201F4806112D051BBB9F1000F2F
:1027200000F0E080FFF7C8FA401B484500F2DC806B
:1027300020684169890725D441694905F2D518E027
:10274000B9B9416989071DD44169490511D4416965
:10275000890717D4416949050BD44169890711D408
:102760004169490505D4416989070BD44169490587
:10277000E7D5016841F4007101606FF48061416147
:102780000420B6E00026009641690091816900911D
:102790000099218D002900F0958009F1010801467A
:1027A00051F8142F120635D4B8F1000F16D0B9F134
:1027B000000F00F0AF8000BF0868400500F1B28054
:1027C000FFF77AFA401B484500F2A98020680146CD
:1027D00051F8142F1206EFD51CE000BF0A6852050D
:1027E00000F1A0800A68120614D40A68520500F1AC
:1027F00099800A6812060DD40A68520500F1928089
:102800000A68120606D40A68520500F18B800A682D
:102810001206E3D5636A194611F8012B0261616261
:10282000618D01396185278D0146A7F1010CA4F85E
:1028300028C051F8142F52070DD55FEA0C420AD078
:102840005A78A7F1020C02619A1C6262628D013A09
:102850006285A4F828C00A6852072FD4B8F1000F87
:1028600014D0B9F1000F7BD00868400500F18080DA
:10287000FFF722FA401B484577D82068014651F8F7
:10288000142F5207F0D5B4F828C017E00A68520593
:102890006ED40A68520711D40A68520568D40A68CF
:1028A00052070BD40A68520562D40A68520705D44D
:1028B0000A6852055CD40A685207E7D55FEA0C4102
:1028C0007FF46DAF016841F400710160202084F84D
:1028D0003D0084F83E6084F83C60304601B0BDE8BD
:1028E000F08300BFFFF7E8F9202002E0FFF7E4F9EA
:1028F000202000212022216384F83D2084F83E100E
:10290000226C01261043206484F83C10304601B04C
:10291000BDE8F0830868400504D4FFF7CDF9202016
:1029200004E000BF6FF480600860042000212022D2
:10293000216384F83D2084F83E10226C104320640B
:1029400084F83C10206C042825D1206801260168F9
:1029500041F400710160304601B0BDE8F08300BF72
:102960000868400504D4FFF7A7F9202004E000BF61
:102970006FF480600860042000212022216384F825
:102980003D2084F83E10226C1043206484F83C10F3
:10299000206C0428D9D00126304601B0BDE8F08370
:1029A0002DE9F04186B0044645F200402168C4F2AA
:1029B000000000278142049702D006B0BDE8F081F4
:1029C00041F21805C4F20205296840F26C0841F092
:1029D00008012960296800F5384001F008010191DB
:1029E0000199C0210291122103910321059102A9AD
:1029F000C4F20208FFF74CF86868802640F4001023
:102A00006860686840F2881500F400100190019831
:102A100008F11400C2F20005C5E900072846C5E91F
:102A20000276C5E90477C5E90677FEF7E1FF0028DD
:102A300018BFFEF78FFEA5636C6240F2CC15C2F2A0
:102A4000000510200021C5E900802846C5E90216CE
:102A5000C5E90411C5E90611FEF7CAFF002818BF31
:102A6000FEF778FE65636C6206B0BDE8F081000099
:102A700040F20C0040F25441C2F20000C2F20001E8
:102A800000780A68104408607047000080B542F280
:102A90000000C4F20200016841F01001016003204F
:102AA00000F08EF80F2000F005F800F027F8002065
:102AB00080BD000070B540F20C06C2F2000640F284
:102AC00020013278C2F200014FF47A730968B3FB37
:102AD000F2F20446B1FBF2F1084600F029FC0F2C9B
:102AE0004FF0010508D838B94FF0FF3021460022D9
:102AF000002500F039F87460284670BD82B041F2BC
:102B00001800C4F202000168022241F001010160D4
:102B1000016801F0010101910199416841F0805182
:102B20004160406800F08050009000980420C4F29A
:102B30000100016862F31A61016002B07047000091
:102B4000002848BF7047C1B200F01F00012202FAFE
:102B500000F04EF20012CEF2000242EAD10121F062
:102B6000030108607047000010B54EF60C5CCEF211
:102B7000000CDCF80030C3F3022E8EF00704042CA6
:102B800028BF0424BEF103034FF0FF3E0EFA04F405
:102B900038BF0023A14399400EFA03F39A4311432F
:102BA00000F00F0200F160430901043A03F56443A9
:102BB0006244002848BF02F10C03197010BD0000E8
:102BC0004EF60C51CEF200010A684FF6FF031A4090
:102BD00060F30A2242F0806040F0FD7008607047A8
:102BE0002DE9F04381B0002800F0858042F2000812
:102BF000C4F202080446D8F800000D4600F00700B1
:102C000088420CD2D8F8000020F007002843C8F80A
:102C10000000D8F8000000F00700A8426BD120683F
:102C200041F204098107C4F2020917D5410705D50D
:102C3000D9F8001041F4E061C9F80010010705D58A
:102C4000D9F8001041F46051C9F80010D9F800100B
:102C5000A26821F0F0011143C9F80010C00741D16A
:102C6000D8F8000000F00700A8420CD9D8F80000FE
:102C700020F007002843C8F80000D8F8000000F052
:102C80000700A84237D12068410707D5D9F80010BE
:102C9000E26821F4E0611143C9F80010000708D58B
:102CA000D9F80000216920F4605040EAC100C9F859
:102CB0000000D9F8002002F00C00082841F20020A2
:102CC000C0F27A0050D144F69263C2F38341C0F659
:102CD0000003595CD2033BD440F60010C0F23D0023
:102CE000484341E0606802280AD001282AD159F8F7
:102CF000041C890308D4012001B0BDE8F08300BFA3
:102D000059F8041C8901F6D5D9F8001021F0030107
:102D10000843C9F80000FEF7CFFF064641F28837A6
:102D2000D9F80000616800F00C00B0EB810F97D07B
:102D3000FEF7C2FF801BB842F2D9032001B0BDE804
:102D4000F08300BF59F8041C8907D4D5DCE700BF25
:102D5000D9F8002044F67863C2F34042C0F600037D
:102D60009A5C4843B0FBF2F0D9F8001044F67A625E
:102D7000C1F30311C0F60002515C40F2200220FAB8
:102D800001F140F21000C2F200000068C2F200023D
:102D90001160FFF78FFE002001B0BDE8F083000056
:102DA00040F2200041F20401C2F20000C4F202012C
:102DB0000068096844F68A62C1F30221C0F6000285
:102DC000515CC8407047000040F2200041F204010D
:102DD000C2F20000C4F202010068096844F68A6287
:102DE000C1F3C221C0F60002515CC8407047000028
:102DF0002DE9F04182B0002868D00446007841F205
:102E00000006C007C4F2020625D0706800F00C006E
:102E100004281BD0706800F00C00082802D17068EC
:102E2000C00313D46068002800F06881B0F5A02FBB
:102E300000F07C81B0F5803F00F07C81306820F4A8
:102E400080303060306820F4802076E13068800384
:102E500001D56068D0B32078800718D5706810F06D
:102E60000C0F07D0706800F00C0008286ED1706855
:102E7000C0036BD43068800702D52069012825D1B2
:102E80003068616920F0F80040EAC10030602078C5
:102E900000071FD42078400732D4E56995B17068E7
:102EA00000F00C00082840F08F80012D0ED07068D3
:102EB000216A00F480328A4208D1616A00F47010FD
:102EC000884203D1002002B0BDE8F081012002B0A9
:102ED000BDE8F081A069002862D00020C4F2422041
:102EE0000121C0F88014FEF7E7FE0546706A8007EE
:102EF00000F18C80FEF7E0FE401B0228F6D92AE1A3
:102F0000F06910F0805808D1F06940F08050F0610D
:102F1000F06900F080500090009847F20007C4F27A
:102F200000073868C00529D4386840F480703860DC
:102F3000FEF7C2FE054600BF3868C0051ED4FEF786
:102F4000BBFE401B6428F7D905E100BF20690028BB
:102F500040F20000C4F2422000F0828001210160B2
:102F6000FEF7AAFE054600BF306880073FF588AF30
:102F7000FEF7A2FE401B0228F6D9ECE0E06800282C
:102F800000F08080052800F09780012800F09880EC
:102F9000306A20F001003062306A20F0040092E0D4
:102FA0000020C4F242200021C0F88014FEF784FE05
:102FB000054600BF706A80077FF56CAFFEF77CFEA8
:102FC000401B0228F6D9C6E00027C4F242270020A1
:102FD0003866FEF771FE022D05460BD13068800180
:102FE00040F1BE80FEF768FE401B02284FF0030050
:102FF000F4D968E7306880017FF564AFFEF75CFEC6
:10300000401B02284FF00300F4D95CE740F2200097
:10301000C2F20000006844F6D351C1F26201A0FB85
:103020000101480A019000BF00BF0198411E00281D
:1030300001913FF42FAF00BF0198411E002801917C
:103040003FF428AF00BF0198411E002801913FF4D2
:1030500021AF00BF0198411E00280191E4D119E77A
:1030600000210160FEF728FE054600BF306880079A
:103070007FF50DAFFEF720FE401B02284FF0030046
:10308000F4D920E7306A20F001003062306A20F085
:1030900004003062FEF710FE054641F2883700BF9B
:1030A000306A800720D5FEF707FE401BB8424FF07C
:1030B0000300F5D907E700BF306A40F00400306232
:1030C000306A40F001003062FEF7F6FD054641F23D
:1030D000883700BF306A800706D4FEF7EDFD401B3D
:1030E000B842F7D937E000BFB8F1000F7FF4D5AE92
:1030F000F06920F08050F061CFE600BF306820F426
:1031000080303060306820F480203060FEF7D4FDDD
:10311000054600BF306880037FF59DAEFEF7CCFD0D
:10312000401B64284FF00300F4D9CCE6306840F42B
:1031300080203060306840F480303060FEF7BCFDA5
:10314000054600BF306880033FF585AEFEF7B4FD4D
:10315000401B6428F6D9032002B0BDE8F08100BF0F
:10316000206AB0F5803F05D17168A26821F4003172
:10317000114371607168626A21F47411114308434C
:10318000706001203866FEF797FD044630688001C4
:103190003FF598AEFEF790FD001B02284FF00300AC
:1031A000F4D990E670B538B10446406A30B10020D9
:1031B000206104F1140007E0012070BD6068B0F5E3
:1031C000827F03D004F11C00002101600026A6626A
:1031D00094F8510020B9204684F8506000F038F887
:1031E000022084F8510094E8071001F4827103680A
:1031F00002F4044223F040030360236911440CF4F9
:103200000062114403F002026369114403F00102F9
:10321000A369E569114403F40072114405F0380212
:10322000256A114405F08002A56A114305F4005295
:1032300011430160042101EA13414160C16921F495
:103240000061C1610120666584F85100304670BD9F
:103250002DE9F04186B040F600050446C4F20105B0
:10326000006805F5205100278842049702D006B077
:10327000BDE8F08141F21800C4F20200016802AE1C
:1032800041F480510160016840F21C0801F4805152
:10329000019101990168C4F2020841F00401016042
:1032A0000068314600F0040001900198B0200290BF
:1032B00002200390032005902846FEF7E9FB4020FA
:1032C000CDE90207284631460497FEF7E1FB40F2BC
:1032D0001025C2F2000580262846C5E90087C5E909
:1032E0000276C5E90477C5E90677FEF781FB002879
:1032F00018BFFEF72FFAE5646C6240F2542508F11E
:103300001400C2F200051021002285E8470028467B
:10331000C5E90422C5E90622FEF76AFB002818BFAA
:10332000FEF718FAA5646C6206B0BDE8F0810000F3
:10333000411E0020B0EB116F1CBF012070474EF200
:103340001002CEF2000251604EF62351CEF200017F
:10335000F0230B70072190601160704770470000E8
:1033600070470000B0B582B0026805461068D368A7
:10337000546900F02F01202903F0200106D129B162
:10338000284602B0BDE8B04000F084BB5FEA007C94
:103390001EBF04F0010E03F4907414EB0E0453D11D
:1033A000296B012905D110F0100118BF13F010018D
:1033B00036D1010622D513F080011FD095F83D00CB
:1033C00021283FD1A868B0F5805F03D12869002883
:1033D00000F0F880286A411C296200785060E88C6F
:1033E00001380104E8842DD1D06820F08000D0603D
:1033F000D06840F04000D06002B0B0BD400621D59A
:1034000013F040001ED0D068202120F04000D06092
:10341000284685F83D1002B0BDE8B04000F000BA83
:103420000020019010680190506801900198506947
:10343000400611D4A88DE98DEB8D002B18BF884272
:1034400040F0A68002B0B0BDC40718BF13F480736B
:103450002CD1430730D436E0A86B01684B689CB28E
:10346000002CEFD0A98D8C42ECD2EB858369202B08
:1034700017D0D16821F48071D160516921F0010128
:103480005161516921F040015161202185F83E10C0
:1034900000212963D16821F01001D160FEF760F9A5
:1034A000A98DE88D081A81B2284685E02B6C43F07F
:1034B00001032B64430706D5BEF1000F03D02B6C2C
:1034C00043F002032B64830706D5BEF1000F03D03F
:1034D0002B6C43F004032B64BCF1000F09D541EAC7
:1034E0000E03B3FA83F35B0903D12B6C43F008039B
:1034F0002B642B6C002BA5D010F0200018BF0029E6
:1035000003D0284600F0C6FA2A685069296C00F0FA
:10351000400001F0080140182CD0D06820F49070D1
:10352000D060506920F001005061286B012803D160
:10353000D06820F01000D060202085F83E000020E8
:103540002863506940061DD5506920F04000506145
:10355000A86BB8B143F68921C0F600014163FEF7BC
:1035600023F900283FF46EAFA86B416B02B0BDE8B1
:10357000B04008472846FFF7F3FE0020286402B059
:10358000B0BD00BF284602B0BDE8B040FFF7E8BEBE
:10359000D368401A23F49073D360536981B223F047
:1035A00001035361202385F83E3000232B63D36849
:1035B000284623F01003D36002B0BDE8B040FFF707
:1035C000CDBE00BF286A30F8021B6FF35F21516047
:1035D000286204E7002804BF0120704710B50446A4
:1035E00090F83D0028B9002084F83C00204600F007
:1035F00061F8242084F83D002068D4E90212C368F1
:1036000023F40053C360036923F440531A43026157
:10361000D4E904231143C268194341F20C639A436D
:103620001143C1604169A26921F44071114343F61D
:103630000002C4F201029042416103D0FFF7B0FBE7
:1036400002E000BFFFF7C0FB626819214843910008
:10365000B0FBF1F048F21F51C5F2EB11A0FB0123C2
:103660005A094FF69C73C0F6FF7302FB0300322326
:1036700003EB0010A0FB0101F02303EA51132068C3
:1036800003EB0212C1F3431111448160016921F47B
:1036900090410161416921F02A014161C16841F411
:1036A0000051C16000202021206484F83D1084F87E
:1036B0003E1010BD2DE9F04186B00446006844F28A
:1036C0000041C4F20001002688420596CDE9036658
:1036D00002966BD043F60001C4F20101884240F02B
:1036E0009A8041F21800C4F20200016840F6000519
:1036F00041F4804101600168C4F2010501F4804198
:1037000001910199016802AE41F004010160006875
:1037100040F2440800F00400019001984FF400705A
:103720000290022003900320059028463146C4F2FF
:103730000208FEF7ADF94FF44060029000272846DA
:103740003146CDE90377FEF7A3F940F2982508F159
:103750001400C2F200058026C5E900072846C5E925
:103760000276C5E90477C5E90677FEF741F9002836
:1037700018BFFDF7EFFFA5636C6240F2DC25C2F2D3
:1037800000051020C5E900802846C5E90276C5E994
:103790000477C5E90677FEF72BF9002818BFFDF777
:1037A000D9FF65636C6206B0BDE8F08141F2180094
:1037B000C4F20200416840F6000441F40031416067
:1037C0004168C4F2010401F40031019101990168DA
:1037D00002AD41F0040101600068294600F00400D8
:1037E000019001980420029002200390032005908C
:1037F0002046FEF74DF90820CDE90206204629466D
:103800000496FEF745F9262000210022FFF7ACF9C7
:103810002620FFF795F906B0BDE8F081704700005B
:1038200070470000FEE7000080B582B041F214004E
:10383000C4F202000168002241F001010160006849
:10384000002100F00100019001980C20FFF78CF995
:103850000C20FFF775F90D2000210022FFF784F9F5
:103860000D20FFF76DF90E2000210022FFF77CF9F3
:103870000E20FFF765F90F2000210022FFF774F9F1
:103880000F20FFF75DF9102000210022FFF76CF9EF
:103890001020FFF755F9112000210022FFF764F9ED
:1038A000112002B0BDE88040FFF74AB92DE9F0478A
:1038B00084B041F21800C4F20200016840F6004AE8
:1038C00041F0200101600168C4F2010A01F0200109
:1038D000009100990168002241F004010160016833
:1038E0004FF4004601F004010091009901684FF087
:1038F000000941F00801016000684FF4004100F048
:103900000800009000985046FEF7D0F9AAF58065AF
:1039100028464FF4807100224FF48078FEF7C6F9F4
:1039200000966E460127022450463146CDE90179C2
:103930000394FEF7ADF828463146CDE90087CDE97E
:103940000294FEF7A5F8182000900020C1F21100A3
:10395000CDE9010950463146FEF79AF804B0BDE8BA
:10396000F087000080B540F2203045F20041C2F2FD
:103970000000C4F2000148F2A06200234FF4804C22
:10398000C0F2010280E80E00C0E9033CC0E9053343
:10399000C0E90733FEF79CF9002808BF80BDBDE8E9
:1039A0008040FDF7D7BE000080B540F2743043F28E
:1039B0000001C2F20000C4F201014FF48272002340
:1039C00080E80E0000F114014FF4802C4FF0080E37
:1039D00081E808500A21C0E90333C0E90833C0E98F
:1039E0000A31FFF7DFFB002808BF80BDBDE880403B
:1039F000FDF7B0BE80B540F2CC3043F60001C2F214
:103A00000000C4F2010100234FF00C0C4FF4007EC3
:103A10004FF4E13280E80E00C0E90333C0E905CE7F
:103A2000C361FFF7D7FD002808BF80BDBDE8804017
:103A3000FDF790BE80B540F2104044F20041C2F262
:103A40000000C4F2000100234FF00C0C4FF4E132EF
:103A500080E80E00C0E90333C0E905C3C361FFF786
:103A6000B9FD002808BF80BDBDE88040FDF772BEEB
:103A7000FEE70000FEE7000070470000704700000E
:103A8000FEF7F6BF70470000406A0021C185C1847F
:103A9000FFF766BC81B090F83E10222921D18368DF
:103AA0000246B3F5805F09D152F8281F52F8183C3E
:103AB000002B3FD003685B680AE000BF52F8281F64
:103AC00013B90369002BF5D003685B6803F07F032B
:103AD0000B70116801311160C18D01390A04C18573
:103AE00002D001B0704700BF0168CA6822F020020E
:103AF000CA60CA6822F48072CA604A6922F0010270
:103B00004A61202280F83E20026B012A1AD100224D
:103B10000263CB6823F01003CB600B68DB0605D58E
:103B200000920A680092496800910099818D01B065
:103B3000FFF714BC026852686FF35F2221F8022B72
:103B40008162C9E701B0FFF769BE000040F2104092
:103B5000C2F20000FFF706BCFEE70000FDF784BFDD
:103B60002DE9F04F83B00D4682460720002100F07A
:103B700055F901A9202D23D12020082200F0DAF8E0
:103B800040F21400C2F20000008901F09EF80546E0
:103B9000BDF904000E4601F081F82A46334600F0D4
:103BA00023FFCAE900019DF807009DF806104FF0B9
:103BB00006084FF007094FF0040B05244CE000BF46
:103BC0002846062200F0B6F80026A5F10800C3F644
:103BD000F076002726284FF0000530D8DFE800F007
:103BE000142F2F2F2F2F1A2F2F2F2F2F202F2F2F24
:103BF0002F2F262F2F2F2F2F2F2F2F2F2F2F2F2FDE
:103C0000142F2F2F2F2F140040F21400C2F20000A7
:103C1000008810E040F21400C2F20000C0880AE000
:103C200040F21400C2F20000408804E040F21400A8
:103C3000C2F20000808801F048F805460E469DF863
:103C400004109DF80500CAE900774FF004084FF012
:103C500005094FF0020B032441EA002000B201F0F5
:103C60001DF82A46334600F0BFFE01AF3A5D17F853
:103C70000B30CAE9020143EA022000B201F00EF85B
:103C80002A46334600F0B0FE17F8092017F808302E
:103C9000CAE9040143EA022000B200F0FFFF2A460D
:103CA000334600F0A1FECAE9060103B0BDE8F08F7B
:103CB0002DE9F04182B0044607200021002700F0E2
:103CC000ADF869461A20062200F034F840F21400DC
:103CD000C2F20000808800F0F8FF0546BDF9000040
:103CE000C4E90077BDF90270BDF904800E4600F00A
:103CF000D5FF2A46334600F077FEC4E90201384674
:103D000000F0CCFF2A46334600F06EFEC4E9040101
:103D1000404600F0C3FF2A46334600F065FEC4E982
:103D2000060102B0BDE8F08180B52021FFF718FF41
:103D300080BD0000F0B583B040F28416C2F20006E8
:103D40000D46316814468DF80B0064270DF10B0207
:103D50000846522101230097FEF7E6FB3068522106
:103D60002A4623460097FEF76FF803B0F0BD000027
:103D700080B53D200C2100F051F80720BDE88040BF
:103D8000FFF7ECBE80B582B03F20202100F046F85E
:103D90004FF42F70FFF7E2FE00208DF807000DF1C1
:103DA000070100200122FFF7C5FF9DF80710A02999
:103DB00002D00BA0FCF722FA0720002100F02EF819
:103DC0003F20002100F02AF83D20002100F026F8D5
:103DD0001320FFF7C3FE0A20FFF7C0FE02B080BD2C
:103DE00043616E27742066696E6420424E4F303501
:103DF000352C2069643A203078253032782E2050D6
:103E00006C6561736520636865636B20796F75729B
:103E100020776972696E672E0D0A0000B0B582B016
:103E200040F28415C2F200058DF8060028688DF86E
:103E300007100A240DF10602522102230094FEF716
:103E400073FB0146032807D8DFE811F0AE00040039
:103E50001000120084A00CE08CA0FCF7CFF92868B9
:103E6000FDF730FF20280BD950E000BF6BA000E029
:103E700073A0FCF7FBFA2868FDF724FF202845D83B
:103E8000014644F64270C0F60000DFE811F08D00F4
:103E90003D0021003F0027003F003F003F002D0074
:103EA0003F003F003F003F003F003F003F00330026
:103EB0003F003F003F003F003F003F003F003F000A
:103EC0003F003F003F003F003F003F003F00390000
:103ED00044F61970C0F6000016E000BF44F6B56065
:103EE000C0F6000010E000BF44F65670C0F60000B7
:103EF0000AE000BF44F6A260C0F6000004E000BF84
:103F000044F6AA70C0F60000FCF7B0FA2868FDF786
:103F1000DBFE01469F2800F33580A1F1200244F624
:103F20006970402AC0F6000000F23880DFE802F035
:103F300037223E3C463C3C3C4E565E3C3C3C3C3C86
:103F40003C3C3C3C3C3C3C3C3C3C3C3C3C3C3C3CB1
:103F50003C3C3C3C3C3C3C3C3C3C3C3C3C3C3C3CA1
:103F60003C3C3C3C3C3C3C3C3C3C3C3C3C3C3C3C91
:103F7000660000BF44F6D870C0F60000FCF776FA81
:103F800002B0B0BDA02941D0E0290DD144F62D707A
:103F9000C0F60000FCF76AFA02B0B0BD21B9FCF728
:103FA00065FA02B0B0BD00BF02B0B0BD44F6C1704A
:103FB000C0F60000FCF75AFA02B0B0BD44F6EF704C
:103FC000C0F60000FCF752FA02B0B0BD44F6C7607C
:103FD000C0F60000FCF74AFA02B0B0BD44F6FB6040
:103FE000C0F60000FCF742FA02B0B0BD44F6DD6056
:103FF000C0F60000FCF73AFA02B0B0BD44F67E709D
:10400000C0F60000FCF732FA02B0B0BD44F693707F
:10401000C0F60000FCF72AFA02B0B0BD48414C5F80
:104020004932435F4D61737465725F5472616E73A0
:104030006D69742048414C5F425553590D00000092
:1040400048414C5F4932435F4D61737465725F5400
:1040500072616E736D69742048414C5F54494D45DF
:104060004F55540D0000000048414C5F4932435FFA
:104070004D61737465725F5472616E736D69742003
:1040800048414C5F4552524F520D0000556E6B6EC9
:104090006F776E207374617475732064617461202E
:1040A0002564000098B0FEF7F1FC00240120CDE962
:1040B0001344CDE911440E9012904FF4E0104FF4E8
:1040C0008031022517900EA8CDE90F14CDE91551C6
:1040D000FEF78EFE20B1EFF3108072B6FEE700BF50
:1040E0000F20CDE906054FF48060CDE9090406A84C
:1040F00002210894FEF774FD20B1EFF3108072B630
:10410000FEE700BFFFF7D2FBFFF78EFBFFF72AFCAD
:10411000FFF770FCFFF748FCFFF78CFC40F28410BF
:1041200040F22031C2F20000C2F200010160FFF74C
:1041300029FEFFF71DFE0DF138080FF250090DF1B1
:10414000180A0FF2700B00BF4046FFF7B1FD12AD29
:1041500033CDDDE910238DE8130048460395FCF7C5
:104160004DF85046FFF7E0FD08AD23CD0BAFDDE97C
:104170000623D0CF8DE823005846CDE903460597A6
:10418000FCF73CF80A20FDF76FFCDDE74865616449
:10419000696E673A20252E326620526F6C6C3A2089
:1041A000252E32662050697463683A20252E3266C7
:1041B0000D0A0000573A20252E326620583A202555
:1041C0002E326620593A20252E3266205A3A202572
:1041D0002E32660D0A0000005FEA400C08BF91F025
:1041E000000F4FEA8C234FEAC12243EA51514FEAB4
:1041F0001C5018BF00F5F0404FEA300018BF41F0E6
:1042000000415FEA6C5C00F02980BCF1FF3F08BF11
:1042100040F080407047130C06BF12044FF0100CA2
:104220004FF0000C130E04BF12020CF1080C130F18
:1042300004BF12010CF1040C930F04BF92000CF1A7
:10424000020CD30F04BF52000CF1010C11464FF0C9
:104250000002A0F11F00A0EB0C00704711F0004F0E
:1042600008BF704731F000413FF4D5AF0B0C06BFDB
:1042700009044FF0100C4FF0000C0B0E04BF0902A4
:104280000CF1080C0B0F04BF09010CF1040C8B0F8F
:1042900004BF89000CF1020CCB0F04BF49000CF1E4
:1042A000010CCCF1200322FA03F341EA030102FAE4
:1042B0000CF2A0EB0C0000F10100704723F07F47E7
:1042C00020F07F4C80EA030000F00040ACEB0703D5
:1042D00003F57C5303F1FF032DE9804909B44FEA4C
:1042E000144324EA03484FEA154B25EA0B4E0FF21C
:1042F000042606EB13273E7803FB0667C7F5000785
:1043000007FB06F64FEAD64606F102064FEA543797
:1043100007FB066CCCF1005C4FEA1C472CEA074C0B
:104320000CFB06F507FB06F404EB15464FEA961660
:1043300049085FEA320234BF00204FF000404FEAE4
:10434000D13706FB07FC4FEA1C4C0CFB0BF7D21BCA
:1043500003FB0CF761EB07010CFB0EF7B0EB07401A
:1043600072EB17420CFB08F734BFA2EB0742B2EB2B
:10437000074261EB17414FEA0C444FEA910706FBF5
:1043800007FC4FEA1C4C0CFB0BF7B0EBC74072EB81
:10439000573203FB0CF734BFA2EBC742B2EBC74264
:1043A00061EB57310CFB0EF7B0EBC70072EB5772A5
:1043B0000CFB08F734BFA2EBC702B2EBC70261EBFC
:1043C00057714FEA816141EA92114FEA826242EAF3
:1043D00090124FEA806004EBCC04039F4FEAD13780
:1043E00006FB07FC4FEA1C4C0CFB0BF7D21B03FB34
:1043F0000CF761EB07010CFB0EF7B0EB074072EB1B
:1044000017420CFB08F734BFA2EB0742B2EB07429E
:1044100061EB17414FEA8C5504EB9C244FEA91075E
:1044200006FB07FC4FEA1C4C0CFB0BF7B0EBC7403C
:1044300072EB573203FB0CF734BFA2EBC742B2EB6F
:10444000C74261EB57310CFB0EF7B0EBC70072EBC4
:1044500057720CFB08F734BFA2EBC702B2EBC702DE
:1044600061EB57714FEA816141EA92114FEA826232
:1044700042EA90124FEA806015EB4C2544F10004AB
:104480004FEAD13706FB07FC4FEA1C4C0CFB0BF73D
:10449000D21B03FB0CF761EB07010CFB0EF7B0EB33
:1044A000074072EB17420CFB08F734BFA2EB074240
:1044B000B2EB074261EB17414FEA813141EA924189
:1044C0004FEA823242EA90424FEA80304FEA0C765D
:1044D00015EB1C1544F1000448EA03434EEA0B486F
:1044E0004FF0000EB2EB080C71EB030724BF6246DD
:1044F00039464EEB0E0E4FF0000B00185241494169
:104500004BEB0B0BB2EB080C71EB03077BF1000BD1
:1045100024BF624639464EEB0E0E4FF0000B0018DA
:10452000524149414BEB0B0BB2EB080C71EB03070B
:104530007BF1000B24BF624639464EEB0E0E51EA6A
:10454000020718BF46F0010616EB0E7655F1000281
:1045500054F1000103D5BDE88901BDE80088BDE83C
:104560008901BDE80048B619524141EB0101A3F1B0
:104570000103704780807F7E7D7C7B7A79787776B7
:1045800076757473727171706F6E6E6D6C6C6B6A30
:104590006A696868676666656464636362616160CE
:1045A000605F5F5E5E5D5D5C5C5B5B5A5A5959584B
:1045B00058575756565555555454535352525251B5
:1045C000515050504F4F4F4E4E4D4D4D4C4C4C4B0B
:1045D0004B4B4A4A4A494949484848474747474652
:1045E000464645454544444444434343434242428E
:1045F000424141419C46002B30D477002BD04FEAFA
:1046000037071CB503B44FF010004FF01001BAF19A
:10461000000F06D0BCF1000FDCBF40F0080040F0F6
:1046200008014FF000000FBCBDE810400BF1010B7A
:10463000BBF1010F08BF5FEA170722BF12F10102A9
:1046400011F101014FF0004143F1000300F000407F
:1046500043EA00007047F9D35708D0E746EA064618
:104660004FEA164613F1400F1FDD13F1200FDFBF95
:1046700016430A46002120335B42BED0C3F1200717
:1046800046EA06464FEA164602FA07F746EA0706E2
:1046900022FA03F2C3F1200701FA07F742EA070200
:1046A00021FA03F14FF00003A7E746EA020646EAC3
:1046B00006464FEA164646EA0106BCBF46EA0646EB
:1046C000360C4FF000034FF000024FF0000194E76A
:1046D0002DE9804C70B49A46934691E8380007C89B
:1046E00031EA400C48BF34EA430C03D5FFF7E6FD3E
:1046F000FFF780FFF0BCBDE8008C2DE9804C70B462
:104700009A46934691E8380007C810F0804F08BFDA
:1047100013F0804F03D100F005F8FFF76BFFF0BCFA
:10472000BDE8008C20F07F4723F07F4C80EA030037
:1047300000F0004007EB0C03A3F57C53A3F1FE034C
:1047400092F0000F00F0B38095F0000F00F077803A
:104750002DE901494FEA114021EA00484FEA144689
:1047600024EA064700FB06FC08FB06F607FB08F8F0
:1047700018EB06484CEB164C00FB07F718EB074804
:104780004CEB17404FEA124B22EA0B4E4FEA15460C
:1047900025EA06470BFB06FC0EFB06F607FB0EFEA2
:1047A0001EEB064E4CEB164C0BFB07F71EEB074EB1
:1047B0004CEB174B18EB0B0840F1000018EB0E0BFD
:1047C00058EB000840F100008F1A4FF000014FF045
:1047D00000063CBFC943661B14BFB5EB040C0021A7
:1047E0003CBFC943F61B4FEA174427EA04454FEA8A
:1047F0001C472CEA074C04FB076205FB07F70CFB80
:1048000005F616EB074642EB174204FB0CFC16EBD1
:104810000C4642EB1C421BEB060658EB02024141E0
:104820004EEA8E0E46EA9E0601D5BDE80189B6190C
:10483000524141EB0101A3F10103BDE801894FEAB7
:10484000144524EA05464FEA114721EA074C05FBC7
:1048500007F406FB07F70CFB06F111EB074144EBED
:10486000174405FB0CFC11EB0C4144EB1C444FEAD4
:10487000124722EA074C05FB07F206FB07F70CFB81
:1048800006F616EB074642EB174205FB0CFC16EB4F
:104890000C4642EB1C456A1854F1000148BF7047B2
:1048A000B619524141EB0101A3F10103704795F0A4
:1048B000000F37D04FEA114221EA02464FEA14476F
:1048C00024EA074C02FB07F106FB07F70CFB06F492
:1048D00014EB074441EB174102FB0CFC14EB0C44B6
:1048E00041EB1C414FEA154725EA074C02FB07F54F
:1048F00006FB07F70CFB06F616EB074645EB1745DC
:1049000002FB0CFC16EB0C4645EB1C42121951F154
:10491000000148BF7047B619524141EB0101A3F1B4
:10492000010370474FEA144524EA05464FEA114750
:1049300021EA074C05FB07F106FB07F70CFB06F223
:1049400012EB074241EB174105FB0CFC12EB0C424A
:1049500051EB1C414FF0000648BF7047921841EBE5
:104960000101A3F101037047490050EAC12018BFBB
:1049700004204A0D18BF40F0010040F2FF72B2EB74
:10498000515F08BF40F00200012808BF05207047B2
:1049900030380A2801D201207047002070478A6809
:1049A000002A02DC0022FCF70BB9521E8A604A681A
:1049B000C0B2531C4B6010707047000010B5002946
:1049C0000AD00878002807D005487844FCF7B6FCE0
:1049D000002801D0002010BD0248784410BD00001E
:1049E0005A060000520600002DE9C04130B4DFF83D
:1049F000A4C23CEA111418BF3CEA131400F0ED8085
:104A00001CEA111481EA030544EAD57418BF1CEAB4
:104A1000131500F0C880A4EB050404F17F7404F5BD
:104A200000344FF0004545EAC12145EAC32341EA7D
:104A3000505143EA52534FEAC0204FEAC2229942F2
:104A400008BF904200F09D804FEA13650FF24416B4
:104A5000765D4FEA134506FB05F7C7F1807706FB45
:104A600007F74FEAD737A7FB03687642A7FB06CEC6
:104A7000C8F5803838BFA8F1010807FB08E6A6FB97
:104A8000028C4FF0000EE6FB03CEDCF1000CCEF101
:104A9000004E38BFAEF1010EA6FB0C584FF00007D8
:104AA000E6FB0E87A1FB08C6A0FB07CE16EB0E06A1
:104AB0004FF0000545F10005E1FB076515F1E04EFB
:104AC0007EBFA4F580345FEA46066D4116F180078B
:104AD00045F100054FEA172747EA05674FEA152514
:104AE0004FEA0666A6F1DE46B6F1805F20D9384669
:104AF00005EBC47124F0010C01EB0C11BCF1FE6F4D
:104B000002D8F0BCBDE8008124425CBF01F5801EE4
:104B10009EEAC47F02D4F0BCBDE80081244200F1CB
:104B20003980A1F1C041F0BCBDE8004100F02EB9D0
:104B30004FEAD02040EA41504FEAD1214FEAD22239
:104B400042EA43524FEAD323A7FB028607FB0366E0
:104B500005FB02661EEA0E0F58BFA6EB0056B6EB29
:104B600000564FEA520E4EEAC37E18EB0E0E56EB7D
:104B7000530EBCD518EB02085E417F1C55F10005B1
:104B8000B5E74FF480154FF000074FF000064FF0E7
:104B90000008ACE701F1C04101F000414FF0000016
:104BA000F0BCBDE800810CEA131511EA0C1F00D01F
:104BB0000CE013EA0C1F00F026804FF0000081EAA1
:104BC000030101F00041F0BCBDE80081F0BCBDE88C
:104BD000004181EA030100F0D9B8F0BCBDE8004112
:104BE00070B500F085F800BF097EFC3E00F007B804
:104BF0004FF0000081EA030101F00041704781EAB3
:104C0000030100F0C3B8F0BCBDE8004122494FF0F9
:104C100000007047FFFDFBF9F7F5F4F2F0EEEDEB65
:104C2000E9E8E6E4E3E1E0DEDDDBDAD8D7D5D4D3AA
:104C3000D1D0CFCDCCCBCAC8C7C6C5C4C2C1C0BFF6
:104C4000BEBDBCBBBAB9B8B7B6B5B4B3B2B1B0AFFC
:104C5000AEADACABAAA9A8A8A7A6A5A4A3A3A2A1E0
:104C6000A09F9F9E9D9C9C9B9A999998979796959B
:104C700095949393929191908F8F8E8E8D8C8C8B37
:104C80008B8A8989888887878685858484838382BF
:104C9000828181800000FF070000F87F10F0004251
:104CA00048BF4042B0FA80F310FA03F10AD0C3F1D2
:104CB0001D0303F5806302EB03524FEA415002EB00
:104CC000D12170474FF000007047B0FA80F310FA1E
:104CD00003F10AD0C3F11D0303F580634FEA0352C9
:104CE0004FEA415002EBD12170474FF0000070476E
:104CF0000EF1020E2EF0030E5EF8046B364205D460
:104D0000012A43EB030515F5001F12D8012841EBDA
:104D1000010C1CF5001F0CD80ED14FEAD17C0CEB16
:104D20004C0C0CF1020C15F5001F08BF4CEBD37CAA
:104D300004E04FF0080C01E04FEAD37C0CEB4C058B
:104D400026FA05F606F00706B6F1040C06D20EEBBD
:104D5000860CBDE870404CF0010C6047DFE80CF0B9
:104D6000090B02024FF00041A1F500214FF00000B5
:104D700070BD19461046012851EB010418BFD4F547
:104D8000001484BF002001F0004170BD0808A0F5A8
:104D900000114FEA31017047FBF7B2BC30313233BA
:104DA000343536373839414243444546403058005F
:104DB0003031323334353637383961626364656691
:104DC00040307800040000080000000000000002ED
:104DD000000100001000000002400000000000A0E0
:104DE0000000000005400000000000C800000000B6
:104DF0000C4000000000409C000000001940000032
:104E00000020BCBE0000000034400000BFC91B8E63
:104E100000000004B5400000504BCFD06607E2CF41
:104E2000010000006C4100003E8251AADFEEA73471
:104E300001000000D9420000DCB5A0E23A301F9723
:104E4000FFFFFFFFB4450000FD25A0C8E9A3C14F47
:104E5000FFFFFFFFFF3F0000000000800000000098
:104E6000FF3F000000000080000000003A74740062
:104E70003A7474003A7474000102000000000000EB
:104E800000000102030406070809000000000102F7
:104E9000030402030405060708090A0B0C0D0E0F94
:104EA000101048414C5F4932435F4552524F525FA8
:104EB000444D410D0048414C5F4932435F455252D9
:104EC0004F525F41460D0048414C5F4932435F53AA
:104ED000544154455F4C495354454E0D0048414C94
:104EE0005F4932435F53544154455F425553595FC4
:104EF00052585F4C495354454E0D0048414C5F4950
:104F000032435F53544154455F425553595F54589F
:104F10005F4C495354454E0D0048414C5F49324364
:104F20005F4552524F525F41524C4F0D0048414C29
:104F30005F4932435F53544154455F4552524F528B
:104F40000D0048414C5F4932435F4552524F525F1A
:104F5000424552520D0048414C5F4932435F455231
:104F6000524F525F4F56520D0048414C5F493243F9
:104F70005F53544154455F52455345540D004841D9
:104F80004C5F4932435F53544154455F41424F5255
:104F9000540D0048414C5F4932435F5354415445DE
:104FA0005F54494D454F55540D0048414C5F4932BF
:104FB000435F4552524F525F54494D454F55540D32
:104FC0000048414C5F4932435F53544154455F426E
:104FD0005553595F52580D0048414C5F4932435F69
:104FE00053544154455F425553595F54580D00483E
:104FF000414C5F4932435F53544154455F425553DE
:10500000590D00004050000800000020280000005A
:10501000280100086850000828000020300A00001D
:10502000440100081C00000043000000F8FFFFFFDF
:105030000C0000000E0000000F0000002E00000019
:10504000000000000000000000000000010000005F
:10505000100000006400100010001000004000006C
:085060000024F4000000000030
:04000005080000ED02
:00000001FF
